{
	"BitcoinUtils.sol": {
		"BitcoinUtils": {
			"abi": [
				{
					"inputs": [],
					"name": "MAX_TARGET",
					"outputs": [
						{
							"internalType": "uint256",
							"name": "",
							"type": "uint256"
						}
					],
					"stateMutability": "view",
					"type": "function"
				},
				{
					"inputs": [],
					"name": "RETARGET_PERIOD",
					"outputs": [
						{
							"internalType": "uint256",
							"name": "",
							"type": "uint256"
						}
					],
					"stateMutability": "view",
					"type": "function"
				},
				{
					"inputs": [
						{
							"internalType": "bytes",
							"name": "bz",
							"type": "bytes"
						},
						{
							"internalType": "uint256",
							"name": "startIndex",
							"type": "uint256"
						}
					],
					"name": "_leToBytes32",
					"outputs": [
						{
							"internalType": "bytes32",
							"name": "result",
							"type": "bytes32"
						}
					],
					"stateMutability": "pure",
					"type": "function"
				},
				{
					"inputs": [
						{
							"internalType": "bytes",
							"name": "bz",
							"type": "bytes"
						},
						{
							"internalType": "uint256",
							"name": "startIndex",
							"type": "uint256"
						}
					],
					"name": "_leToBytes4",
					"outputs": [
						{
							"internalType": "bytes4",
							"name": "result",
							"type": "bytes4"
						}
					],
					"stateMutability": "pure",
					"type": "function"
				},
				{
					"inputs": [
						{
							"internalType": "bytes",
							"name": "bz",
							"type": "bytes"
						},
						{
							"internalType": "uint256",
							"name": "startIndex",
							"type": "uint256"
						}
					],
					"name": "_leToUint32",
					"outputs": [
						{
							"internalType": "uint32",
							"name": "result",
							"type": "uint32"
						}
					],
					"stateMutability": "pure",
					"type": "function"
				},
				{
					"inputs": [
						{
							"internalType": "bytes4",
							"name": "nBits",
							"type": "bytes4"
						}
					],
					"name": "_nBitsToTarget",
					"outputs": [
						{
							"internalType": "uint256",
							"name": "target",
							"type": "uint256"
						}
					],
					"stateMutability": "pure",
					"type": "function"
				},
				{
					"inputs": [
						{
							"internalType": "uint256",
							"name": "target",
							"type": "uint256"
						}
					],
					"name": "_targetToNBits",
					"outputs": [
						{
							"internalType": "uint32",
							"name": "compact",
							"type": "uint32"
						}
					],
					"stateMutability": "pure",
					"type": "function"
				},
				{
					"inputs": [
						{
							"internalType": "bytes32",
							"name": "bz",
							"type": "bytes32"
						}
					],
					"name": "swapEndian",
					"outputs": [
						{
							"internalType": "bytes32",
							"name": "result",
							"type": "bytes32"
						}
					],
					"stateMutability": "pure",
					"type": "function"
				}
			],
			"devdoc": {
				"kind": "dev",
				"methods": {},
				"version": 1
			},
			"evm": {
				"assembly": "    /* \"BitcoinUtils.sol\":107:6334  library BitcoinUtils {... */\n  dataSize(sub_0)\n  dataOffset(sub_0)\n  0x0b\n  dup3\n  dup3\n  dup3\n  codecopy\n  dup1\n  mload\n  0x00\n  byte\n  0x73\n  eq\n  tag_1\n  jumpi\n  mstore(0x00, 0x4e487b7100000000000000000000000000000000000000000000000000000000)\n  mstore(0x04, 0x00)\n  revert(0x00, 0x24)\ntag_1:\n  mstore(0x00, address)\n  0x73\n  dup2\n  mstore8\n  dup3\n  dup2\n  return\nstop\n\nsub_0: assembly {\n        /* \"BitcoinUtils.sol\":107:6334  library BitcoinUtils {... */\n      eq(address, deployTimeAddress())\n      mstore(0x40, 0x80)\n      jumpi(tag_1, lt(calldatasize, 0x04))\n      shr(0xe0, calldataload(0x00))\n      dup1\n      0x40e2283f\n      gt\n      tag_10\n      jumpi\n      dup1\n      0x40e2283f\n      eq\n      tag_6\n      jumpi\n      dup1\n      0xdd1d743b\n      eq\n      tag_7\n      jumpi\n      dup1\n      0xf7ba2c0d\n      eq\n      tag_8\n      jumpi\n      dup1\n      0xfec2f93f\n      eq\n      tag_9\n      jumpi\n      jump(tag_1)\n    tag_10:\n      dup1\n      0x4ea54c\n      eq\n      tag_2\n      jumpi\n      dup1\n      0x047e653d\n      eq\n      tag_3\n      jumpi\n      dup1\n      0x056e04ec\n      eq\n      tag_4\n      jumpi\n      dup1\n      0x2b0daa0a\n      eq\n      tag_5\n      jumpi\n    tag_1:\n      0x00\n      dup1\n      revert\n        /* \"BitcoinUtils.sol\":3794:4063  function _nBitsToTarget(bytes4 nBits) pure public returns (uint256 target) {... */\n    tag_2:\n      tag_11\n      0x04\n      dup1\n      calldatasize\n      sub\n      dup2\n      add\n      swap1\n      tag_12\n      swap2\n      swap1\n      tag_13\n      jump\t// in\n    tag_12:\n      tag_14\n      jump\t// in\n    tag_11:\n      mload(0x40)\n      tag_15\n      swap2\n      swap1\n      tag_16\n      jump\t// in\n    tag_15:\n      mload(0x40)\n      dup1\n      swap2\n      sub\n      swap1\n      return\n        /* \"BitcoinUtils.sol\":4067:5276  function _targetToNBits(uint256 target) pure public returns (uint32 compact) {... */\n    tag_3:\n      tag_17\n      0x04\n      dup1\n      calldatasize\n      sub\n      dup2\n      add\n      swap1\n      tag_18\n      swap2\n      swap1\n      tag_19\n      jump\t// in\n    tag_18:\n      tag_20\n      jump\t// in\n    tag_17:\n      mload(0x40)\n      tag_21\n      swap2\n      swap1\n      tag_22\n      jump\t// in\n    tag_21:\n      mload(0x40)\n      dup1\n      swap2\n      sub\n      swap1\n      return\n        /* \"BitcoinUtils.sol\":225:287  uint256 public constant RETARGET_PERIOD = 2 * 7 * 24 * 60 * 60 */\n    tag_4:\n      tag_23\n      tag_24\n      jump\t// in\n    tag_23:\n      mload(0x40)\n      tag_25\n      swap2\n      swap1\n      tag_16\n      jump\t// in\n    tag_25:\n      mload(0x40)\n      dup1\n      swap2\n      sub\n      swap1\n      return\n        /* \"BitcoinUtils.sol\":956:1343  function _leToBytes4(bytes calldata bz, uint startIndex) pure public returns (bytes4 result) {... */\n    tag_5:\n      tag_26\n      0x04\n      dup1\n      calldatasize\n      sub\n      dup2\n      add\n      swap1\n      tag_27\n      swap2\n      swap1\n      tag_28\n      jump\t// in\n    tag_27:\n      tag_29\n      jump\t// in\n    tag_26:\n      mload(0x40)\n      tag_30\n      swap2\n      swap1\n      tag_31\n      jump\t// in\n    tag_30:\n      mload(0x40)\n      dup1\n      swap2\n      sub\n      swap1\n      return\n        /* \"BitcoinUtils.sol\":2693:3790  function swapEndian(bytes32 bz) pure public returns (bytes32 result) {... */\n    tag_6:\n      tag_32\n      0x04\n      dup1\n      calldatasize\n      sub\n      dup2\n      add\n      swap1\n      tag_33\n      swap2\n      swap1\n      tag_34\n      jump\t// in\n    tag_33:\n      tag_35\n      jump\t// in\n    tag_32:\n      mload(0x40)\n      tag_36\n      swap2\n      swap1\n      tag_37\n      jump\t// in\n    tag_36:\n      mload(0x40)\n      dup1\n      swap2\n      sub\n      swap1\n      return\n        /* \"BitcoinUtils.sol\":1530:2689  function _leToBytes32(bytes calldata bz, uint startIndex) pure public returns (bytes32 result) {... */\n    tag_7:\n      tag_38\n      0x04\n      dup1\n      calldatasize\n      sub\n      dup2\n      add\n      swap1\n      tag_39\n      swap2\n      swap1\n      tag_28\n      jump\t// in\n    tag_39:\n      tag_40\n      jump\t// in\n    tag_38:\n      mload(0x40)\n      tag_41\n      swap2\n      swap1\n      tag_37\n      jump\t// in\n    tag_41:\n      mload(0x40)\n      dup1\n      swap2\n      sub\n      swap1\n      return\n        /* \"BitcoinUtils.sol\":315:418  uint256 public constant MAX_TARGET = 0x00000000FFFF0000000000000000000000000000000000000000000000000000 */\n    tag_8:\n      tag_42\n      tag_43\n      jump\t// in\n    tag_42:\n      mload(0x40)\n      tag_44\n      swap2\n      swap1\n      tag_16\n      jump\t// in\n    tag_44:\n      mload(0x40)\n      dup1\n      swap2\n      sub\n      swap1\n      return\n        /* \"BitcoinUtils.sol\":495:882  function _leToUint32(bytes calldata bz, uint startIndex) pure public returns (uint32 result) {... */\n    tag_9:\n      tag_45\n      0x04\n      dup1\n      calldatasize\n      sub\n      dup2\n      add\n      swap1\n      tag_46\n      swap2\n      swap1\n      tag_28\n      jump\t// in\n    tag_46:\n      tag_47\n      jump\t// in\n    tag_45:\n      mload(0x40)\n      tag_48\n      swap2\n      swap1\n      tag_22\n      jump\t// in\n    tag_48:\n      mload(0x40)\n      dup1\n      swap2\n      sub\n      swap1\n      return\n        /* \"BitcoinUtils.sol\":3794:4063  function _nBitsToTarget(bytes4 nBits) pure public returns (uint256 target) {... */\n    tag_14:\n        /* \"BitcoinUtils.sol\":3853:3867  uint256 target */\n      0x00\n        /* \"BitcoinUtils.sol\":3875:3892  uint256 _mantissa */\n      dup1\n        /* \"BitcoinUtils.sol\":3919:3929  0x007fffff */\n      0x7fffff\n        /* \"BitcoinUtils.sol\":3910:3915  nBits */\n      dup4\n        /* \"BitcoinUtils.sol\":3903:3916  uint32(nBits) */\n      0xe0\n      shr\n        /* \"BitcoinUtils.sol\":3903:3929  uint32(nBits) & 0x007fffff */\n      and\n        /* \"BitcoinUtils.sol\":3895:3930  uint256(uint32(nBits) & 0x007fffff) */\n      0xffffffff\n      and\n        /* \"BitcoinUtils.sol\":3875:3930  uint256 _mantissa = uint256(uint32(nBits) & 0x007fffff) */\n      swap1\n      pop\n        /* \"BitcoinUtils.sol\":3936:3953  uint256 _exponent */\n      0x00\n        /* \"BitcoinUtils.sol\":3956:4014  (uint256(uint32(nBits) & uint32(0xff000000)) >> 24).sub(3) */\n      tag_50\n        /* \"BitcoinUtils.sol\":4012:4013  3 */\n      0x03\n        /* \"BitcoinUtils.sol\":4004:4006  24 */\n      0x18\n        /* \"BitcoinUtils.sol\":3988:3998  0xff000000 */\n      0xff000000\n        /* \"BitcoinUtils.sol\":3972:3977  nBits */\n      dup8\n        /* \"BitcoinUtils.sol\":3965:3978  uint32(nBits) */\n      0xe0\n      shr\n        /* \"BitcoinUtils.sol\":3965:3999  uint32(nBits) & uint32(0xff000000) */\n      and\n        /* \"BitcoinUtils.sol\":3957:4000  uint256(uint32(nBits) & uint32(0xff000000)) */\n      0xffffffff\n      and\n        /* \"BitcoinUtils.sol\":3957:4006  uint256(uint32(nBits) & uint32(0xff000000)) >> 24 */\n      swap1\n      shr\n        /* \"BitcoinUtils.sol\":3956:4011  (uint256(uint32(nBits) & uint32(0xff000000)) >> 24).sub */\n      tag_51\n      swap1\n        /* \"BitcoinUtils.sol\":3956:4014  (uint256(uint32(nBits) & uint32(0xff000000)) >> 24).sub(3) */\n      swap2\n      swap1\n      0xffffffff\n      and\n      jump\t// in\n    tag_50:\n        /* \"BitcoinUtils.sol\":3936:4014  uint256 _exponent = (uint256(uint32(nBits) & uint32(0xff000000)) >> 24).sub(3) */\n      swap1\n      pop\n        /* \"BitcoinUtils.sol\":4027:4058  _mantissa.mul(256 ** _exponent) */\n      tag_52\n        /* \"BitcoinUtils.sol\":4048:4057  _exponent */\n      dup2\n        /* \"BitcoinUtils.sol\":4041:4044  256 */\n      0x0100\n        /* \"BitcoinUtils.sol\":4041:4057  256 ** _exponent */\n      tag_53\n      swap2\n      swap1\n      tag_54\n      jump\t// in\n    tag_53:\n        /* \"BitcoinUtils.sol\":4027:4036  _mantissa */\n      dup4\n        /* \"BitcoinUtils.sol\":4027:4040  _mantissa.mul */\n      tag_55\n      swap1\n        /* \"BitcoinUtils.sol\":4027:4058  _mantissa.mul(256 ** _exponent) */\n      swap2\n      swap1\n      0xffffffff\n      and\n      jump\t// in\n    tag_52:\n        /* \"BitcoinUtils.sol\":4020:4058  return _mantissa.mul(256 ** _exponent) */\n      swap3\n      pop\n      pop\n      pop\n        /* \"BitcoinUtils.sol\":3794:4063  function _nBitsToTarget(bytes4 nBits) pure public returns (uint256 target) {... */\n      swap2\n      swap1\n      pop\n      jump\t// out\n        /* \"BitcoinUtils.sol\":4067:5276  function _targetToNBits(uint256 target) pure public returns (uint32 compact) {... */\n    tag_20:\n        /* \"BitcoinUtils.sol\":4128:4142  uint32 compact */\n      0x00\n        /* \"BitcoinUtils.sol\":4165:4166  0 */\n      dup1\n        /* \"BitcoinUtils.sol\":4155:4161  target */\n      dup3\n        /* \"BitcoinUtils.sol\":4155:4166  target == 0 */\n      eq\n        /* \"BitcoinUtils.sol\":4151:4194  if (target == 0) {... */\n      iszero\n      tag_57\n      jumpi\n        /* \"BitcoinUtils.sol\":4185:4186  0 */\n      0x00\n        /* \"BitcoinUtils.sol\":4178:4186  return 0 */\n      swap1\n      pop\n      jump(tag_56)\n        /* \"BitcoinUtils.sol\":4151:4194  if (target == 0) {... */\n    tag_57:\n        /* \"BitcoinUtils.sol\":4432:4447  uint32 mantissa */\n      0x00\n        /* \"BitcoinUtils.sol\":4450:4465  uint32 exponent */\n      dup1\n        /* \"BitcoinUtils.sol\":4468:4469  0 */\n      0x00\n        /* \"BitcoinUtils.sol\":4450:4469  uint32 exponent = 0 */\n      swap1\n      pop\n        /* \"BitcoinUtils.sol\":4479:4494  uint256 _target */\n      0x00\n        /* \"BitcoinUtils.sol\":4497:4503  target */\n      dup5\n        /* \"BitcoinUtils.sol\":4479:4503  uint256 _target = target */\n      swap1\n      pop\n        /* \"BitcoinUtils.sol\":4513:4604  while (_target != 0) {... */\n    tag_58:\n        /* \"BitcoinUtils.sol\":4531:4532  0 */\n      0x00\n        /* \"BitcoinUtils.sol\":4520:4527  _target */\n      dup2\n        /* \"BitcoinUtils.sol\":4520:4532  _target != 0 */\n      eq\n        /* \"BitcoinUtils.sol\":4513:4604  while (_target != 0) {... */\n      tag_59\n      jumpi\n        /* \"BitcoinUtils.sol\":4552:4562  exponent++ */\n      dup2\n      dup1\n      tag_60\n      swap1\n      tag_61\n      jump\t// in\n    tag_60:\n      swap3\n      pop\n      pop\n        /* \"BitcoinUtils.sol\":4592:4593  8 */\n      0x08\n        /* \"BitcoinUtils.sol\":4580:4593  _target >>= 8 */\n      dup2\n      swap1\n      shr\n      swap1\n      pop\n        /* \"BitcoinUtils.sol\":4513:4604  while (_target != 0) {... */\n      jump(tag_58)\n    tag_59:\n        /* \"BitcoinUtils.sol\":4629:4630  3 */\n      0x03\n        /* \"BitcoinUtils.sol\":4617:4625  exponent */\n      dup3\n        /* \"BitcoinUtils.sol\":4617:4630  exponent <= 3 */\n      0xffffffff\n      and\n      gt\n        /* \"BitcoinUtils.sol\":4613:4856  if (exponent <= 3) {... */\n      tag_62\n      jumpi\n        /* \"BitcoinUtils.sol\":4663:4673  0xffffffff */\n      0xffffffff\n        /* \"BitcoinUtils.sol\":4654:4660  target */\n      dup6\n        /* \"BitcoinUtils.sol\":4654:4673  target & 0xffffffff */\n      and\n        /* \"BitcoinUtils.sol\":4636:4674  mantissa = uint32(target & 0xffffffff) */\n      swap3\n      pop\n        /* \"BitcoinUtils.sol\":4700:4708  exponent */\n      dup2\n        /* \"BitcoinUtils.sol\":4696:4697  3 */\n      0x03\n        /* \"BitcoinUtils.sol\":4696:4708  3 - exponent */\n      tag_63\n      swap2\n      swap1\n      tag_64\n      jump\t// in\n    tag_63:\n        /* \"BitcoinUtils.sol\":4691:4692  8 */\n      0x08\n        /* \"BitcoinUtils.sol\":4691:4709  8 * (3 - exponent) */\n      tag_65\n      swap2\n      swap1\n      tag_66\n      jump\t// in\n    tag_65:\n        /* \"BitcoinUtils.sol\":4678:4709  mantissa <<= 8 * (3 - exponent) */\n      0xffffffff\n      and\n      dup4\n      0xffffffff\n      and\n      swap1\n      shl\n      swap3\n      pop\n        /* \"BitcoinUtils.sol\":4613:4856  if (exponent <= 3) {... */\n      jump(tag_67)\n    tag_62:\n        /* \"BitcoinUtils.sol\":4841:4851  0xffffffff */\n      0xffffffff\n        /* \"BitcoinUtils.sol\":4834:4835  3 */\n      0x03\n        /* \"BitcoinUtils.sol\":4823:4831  exponent */\n      dup4\n        /* \"BitcoinUtils.sol\":4823:4835  exponent - 3 */\n      tag_68\n      swap2\n      swap1\n      tag_64\n      jump\t// in\n    tag_68:\n        /* \"BitcoinUtils.sol\":4818:4819  8 */\n      0x08\n        /* \"BitcoinUtils.sol\":4818:4836  8 * (exponent - 3) */\n      tag_69\n      swap2\n      swap1\n      tag_66\n      jump\t// in\n    tag_69:\n        /* \"BitcoinUtils.sol\":4807:4837  target >> (8 * (exponent - 3)) */\n      0xffffffff\n      and\n        /* \"BitcoinUtils.sol\":4807:4813  target */\n      dup7\n        /* \"BitcoinUtils.sol\":4807:4837  target >> (8 * (exponent - 3)) */\n      swap1\n      shr\n        /* \"BitcoinUtils.sol\":4806:4851  (target >> (8 * (exponent - 3))) & 0xffffffff */\n      and\n        /* \"BitcoinUtils.sol\":4788:4852  mantissa = uint32((target >> (8 * (exponent - 3))) & 0xffffffff) */\n      swap3\n      pop\n        /* \"BitcoinUtils.sol\":4613:4856  if (exponent <= 3) {... */\n    tag_67:\n        /* \"BitcoinUtils.sol\":5077:5078  0 */\n      0x00\n        /* \"BitcoinUtils.sol\":5062:5072  0x00800000 */\n      0x800000\n        /* \"BitcoinUtils.sol\":5051:5059  mantissa */\n      dup5\n        /* \"BitcoinUtils.sol\":5051:5072  mantissa & 0x00800000 */\n      and\n        /* \"BitcoinUtils.sol\":5050:5078  (mantissa & 0x00800000) != 0 */\n      0xffffffff\n      and\n      eq\n        /* \"BitcoinUtils.sol\":5046:5116  if ((mantissa & 0x00800000) != 0) {... */\n      tag_70\n      jumpi\n        /* \"BitcoinUtils.sol\":5097:5098  8 */\n      0x08\n        /* \"BitcoinUtils.sol\":5084:5098  mantissa >>= 8 */\n      dup4\n      0xffffffff\n      and\n      swap1\n      shr\n      swap3\n      pop\n        /* \"BitcoinUtils.sol\":5102:5112  exponent++ */\n      dup2\n      dup1\n      tag_71\n      swap1\n      tag_61\n      jump\t// in\n    tag_71:\n      swap3\n      pop\n      pop\n        /* \"BitcoinUtils.sol\":5046:5116  if ((mantissa & 0x00800000) != 0) {... */\n    tag_70:\n        /* \"BitcoinUtils.sol\":5245:5253  mantissa */\n      dup3\n        /* \"BitcoinUtils.sol\":5239:5241  24 */\n      0x18\n        /* \"BitcoinUtils.sol\":5229:5237  exponent */\n      dup4\n        /* \"BitcoinUtils.sol\":5229:5241  exponent<<24 */\n      0xffffffff\n      and\n      swap1\n      shl\n        /* \"BitcoinUtils.sol\":5222:5253  uint32(exponent<<24) | mantissa */\n      or\n        /* \"BitcoinUtils.sol\":5212:5253  compact = uint32(exponent<<24) | mantissa */\n      swap4\n      pop\n        /* \"BitcoinUtils.sol\":5257:5271  return compact */\n      pop\n      pop\n      pop\n        /* \"BitcoinUtils.sol\":4067:5276  function _targetToNBits(uint256 target) pure public returns (uint32 compact) {... */\n    tag_56:\n      swap2\n      swap1\n      pop\n      jump\t// out\n        /* \"BitcoinUtils.sol\":225:287  uint256 public constant RETARGET_PERIOD = 2 * 7 * 24 * 60 * 60 */\n    tag_24:\n        /* \"BitcoinUtils.sol\":267:287  2 * 7 * 24 * 60 * 60 */\n      0x127500\n        /* \"BitcoinUtils.sol\":225:287  uint256 public constant RETARGET_PERIOD = 2 * 7 * 24 * 60 * 60 */\n      dup2\n      jump\t// out\n        /* \"BitcoinUtils.sol\":956:1343  function _leToBytes4(bytes calldata bz, uint startIndex) pure public returns (bytes4 result) {... */\n    tag_29:\n        /* \"BitcoinUtils.sol\":1034:1047  bytes4 result */\n      0x00\n        /* \"BitcoinUtils.sol\":1072:1074  bz */\n      dup4\n      dup4\n        /* \"BitcoinUtils.sol\":1075:1085  startIndex */\n      dup4\n        /* \"BitcoinUtils.sol\":1072:1100  bz[startIndex: startIndex+4] */\n      swap1\n        /* \"BitcoinUtils.sol\":1098:1099  4 */\n      0x04\n        /* \"BitcoinUtils.sol\":1087:1097  startIndex */\n      dup6\n        /* \"BitcoinUtils.sol\":1087:1099  startIndex+4 */\n      tag_73\n      swap2\n      swap1\n      tag_74\n      jump\t// in\n    tag_73:\n        /* \"BitcoinUtils.sol\":1072:1100  bz[startIndex: startIndex+4] */\n      swap3\n      tag_75\n      swap4\n      swap3\n      swap2\n      swap1\n      tag_76\n      jump\t// in\n    tag_75:\n        /* \"BitcoinUtils.sol\":1065:1101  bytes4(bz[startIndex: startIndex+4]) */\n      swap1\n      tag_77\n      swap2\n      swap1\n      tag_78\n      jump\t// in\n    tag_77:\n        /* \"BitcoinUtils.sol\":1056:1101  result = bytes4(bz[startIndex: startIndex+4]) */\n      swap1\n      pop\n        /* \"BitcoinUtils.sol\":1201:1202  8 */\n      0x08\n        /* \"BitcoinUtils.sol\":1186:1196  0x00FF00FF */\n      0xff00ff\n        /* \"BitcoinUtils.sol\":1177:1196  result & 0x00FF00FF */\n      0xe0\n      shl\n        /* \"BitcoinUtils.sol\":1177:1183  result */\n      dup3\n        /* \"BitcoinUtils.sol\":1177:1196  result & 0x00FF00FF */\n      and\n        /* \"BitcoinUtils.sol\":1176:1202  (result & 0x00FF00FF) << 8 */\n      not(0xffffffffffffffffffffffffffffffffffffffffffffffffffffffff)\n      and\n      swap1\n      shl\n        /* \"BitcoinUtils.sol\":1152:1162  0x00FF00FF */\n      0xff00ff\n        /* \"BitcoinUtils.sol\":1136:1162  (result >> 8) & 0x00FF00FF */\n      0xe0\n      shl\n        /* \"BitcoinUtils.sol\":1147:1148  8 */\n      0x08\n        /* \"BitcoinUtils.sol\":1137:1143  result */\n      dup4\n        /* \"BitcoinUtils.sol\":1137:1148  result >> 8 */\n      not(0xffffffffffffffffffffffffffffffffffffffffffffffffffffffff)\n      and\n      swap1\n      shr\n        /* \"BitcoinUtils.sol\":1136:1162  (result >> 8) & 0x00FF00FF */\n      and\n        /* \"BitcoinUtils.sol\":1135:1203  ((result >> 8) & 0x00FF00FF) |... */\n      or\n        /* \"BitcoinUtils.sol\":1126:1203  result = ((result >> 8) & 0x00FF00FF) |... */\n      swap1\n      pop\n        /* \"BitcoinUtils.sol\":1315:1317  16 */\n      0x10\n        /* \"BitcoinUtils.sol\":1300:1310  0x0000FFFF */\n      0xffff\n        /* \"BitcoinUtils.sol\":1291:1310  result & 0x0000FFFF */\n      0xe0\n      shl\n        /* \"BitcoinUtils.sol\":1291:1297  result */\n      dup3\n        /* \"BitcoinUtils.sol\":1291:1310  result & 0x0000FFFF */\n      and\n        /* \"BitcoinUtils.sol\":1290:1317  (result & 0x0000FFFF) << 16 */\n      not(0xffffffffffffffffffffffffffffffffffffffffffffffffffffffff)\n      and\n      swap1\n      shl\n        /* \"BitcoinUtils.sol\":1266:1276  0x0000FFFF */\n      0xffff\n        /* \"BitcoinUtils.sol\":1249:1276  (result >> 16) & 0x0000FFFF */\n      0xe0\n      shl\n        /* \"BitcoinUtils.sol\":1260:1262  16 */\n      0x10\n        /* \"BitcoinUtils.sol\":1250:1256  result */\n      dup4\n        /* \"BitcoinUtils.sol\":1250:1262  result >> 16 */\n      not(0xffffffffffffffffffffffffffffffffffffffffffffffffffffffff)\n      and\n      swap1\n      shr\n        /* \"BitcoinUtils.sol\":1249:1276  (result >> 16) & 0x0000FFFF */\n      and\n        /* \"BitcoinUtils.sol\":1248:1318  ((result >> 16) & 0x0000FFFF) |... */\n      or\n        /* \"BitcoinUtils.sol\":1239:1318  result = ((result >> 16) & 0x0000FFFF) |... */\n      swap1\n      pop\n        /* \"BitcoinUtils.sol\":956:1343  function _leToBytes4(bytes calldata bz, uint startIndex) pure public returns (bytes4 result) {... */\n      swap4\n      swap3\n      pop\n      pop\n      pop\n      jump\t// out\n        /* \"BitcoinUtils.sol\":2693:3790  function swapEndian(bytes32 bz) pure public returns (bytes32 result) {... */\n    tag_35:\n        /* \"BitcoinUtils.sol\":2746:2760  bytes32 result */\n      0x00\n        /* \"BitcoinUtils.sol\":2778:2780  bz */\n      dup2\n        /* \"BitcoinUtils.sol\":2769:2780  result = bz */\n      swap1\n      pop\n        /* \"BitcoinUtils.sol\":2995:2996  8 */\n      0x08\n        /* \"BitcoinUtils.sol\":2924:2990  0x00FF00FF00FF00FF00FF00FF00FF00FF00FF00FF00FF00FF00FF00FF00FF00FF */\n      0xff00ff00ff00ff00ff00ff00ff00ff00ff00ff00ff00ff00ff00ff00ff00ff\n        /* \"BitcoinUtils.sol\":2915:2990  result & 0x00FF00FF00FF00FF00FF00FF00FF00FF00FF00FF00FF00FF00FF00FF00FF00FF */\n      0x00\n      shl\n        /* \"BitcoinUtils.sol\":2915:2921  result */\n      dup3\n        /* \"BitcoinUtils.sol\":2915:2990  result & 0x00FF00FF00FF00FF00FF00FF00FF00FF00FF00FF00FF00FF00FF00FF00FF00FF */\n      and\n        /* \"BitcoinUtils.sol\":2914:2996  (result & 0x00FF00FF00FF00FF00FF00FF00FF00FF00FF00FF00FF00FF00FF00FF00FF00FF) << 8 */\n      swap1\n      shl\n        /* \"BitcoinUtils.sol\":2831:2897  0x00FF00FF00FF00FF00FF00FF00FF00FF00FF00FF00FF00FF00FF00FF00FF00FF */\n      0xff00ff00ff00ff00ff00ff00ff00ff00ff00ff00ff00ff00ff00ff00ff00ff\n        /* \"BitcoinUtils.sol\":2815:2897  (result >> 8) & 0x00FF00FF00FF00FF00FF00FF00FF00FF00FF00FF00FF00FF00FF00FF00FF00FF */\n      0x00\n      shl\n        /* \"BitcoinUtils.sol\":2826:2827  8 */\n      0x08\n        /* \"BitcoinUtils.sol\":2816:2822  result */\n      dup4\n        /* \"BitcoinUtils.sol\":2816:2827  result >> 8 */\n      swap1\n      shr\n        /* \"BitcoinUtils.sol\":2815:2897  (result >> 8) & 0x00FF00FF00FF00FF00FF00FF00FF00FF00FF00FF00FF00FF00FF00FF00FF00FF */\n      and\n        /* \"BitcoinUtils.sol\":2814:2997  ((result >> 8) & 0x00FF00FF00FF00FF00FF00FF00FF00FF00FF00FF00FF00FF00FF00FF00FF00FF) |... */\n      or\n        /* \"BitcoinUtils.sol\":2805:2997  result = ((result >> 8) & 0x00FF00FF00FF00FF00FF00FF00FF00FF00FF00FF00FF00FF00FF00FF00FF00FF) |... */\n      swap1\n      pop\n        /* \"BitcoinUtils.sol\":3224:3226  16 */\n      0x10\n        /* \"BitcoinUtils.sol\":3153:3219  0x0000FFFF0000FFFF0000FFFF0000FFFF0000FFFF0000FFFF0000FFFF0000FFFF */\n      0xffff0000ffff0000ffff0000ffff0000ffff0000ffff0000ffff0000ffff\n        /* \"BitcoinUtils.sol\":3144:3219  result & 0x0000FFFF0000FFFF0000FFFF0000FFFF0000FFFF0000FFFF0000FFFF0000FFFF */\n      0x00\n      shl\n        /* \"BitcoinUtils.sol\":3144:3150  result */\n      dup3\n        /* \"BitcoinUtils.sol\":3144:3219  result & 0x0000FFFF0000FFFF0000FFFF0000FFFF0000FFFF0000FFFF0000FFFF0000FFFF */\n      and\n        /* \"BitcoinUtils.sol\":3143:3226  (result & 0x0000FFFF0000FFFF0000FFFF0000FFFF0000FFFF0000FFFF0000FFFF0000FFFF) << 16 */\n      swap1\n      shl\n        /* \"BitcoinUtils.sol\":3060:3126  0x0000FFFF0000FFFF0000FFFF0000FFFF0000FFFF0000FFFF0000FFFF0000FFFF */\n      0xffff0000ffff0000ffff0000ffff0000ffff0000ffff0000ffff0000ffff\n        /* \"BitcoinUtils.sol\":3043:3126  (result >> 16) & 0x0000FFFF0000FFFF0000FFFF0000FFFF0000FFFF0000FFFF0000FFFF0000FFFF */\n      0x00\n      shl\n        /* \"BitcoinUtils.sol\":3054:3056  16 */\n      0x10\n        /* \"BitcoinUtils.sol\":3044:3050  result */\n      dup4\n        /* \"BitcoinUtils.sol\":3044:3056  result >> 16 */\n      swap1\n      shr\n        /* \"BitcoinUtils.sol\":3043:3126  (result >> 16) & 0x0000FFFF0000FFFF0000FFFF0000FFFF0000FFFF0000FFFF0000FFFF0000FFFF */\n      and\n        /* \"BitcoinUtils.sol\":3042:3227  ((result >> 16) & 0x0000FFFF0000FFFF0000FFFF0000FFFF0000FFFF0000FFFF0000FFFF0000FFFF) |... */\n      or\n        /* \"BitcoinUtils.sol\":3033:3227  result = ((result >> 16) & 0x0000FFFF0000FFFF0000FFFF0000FFFF0000FFFF0000FFFF0000FFFF0000FFFF) |... */\n      swap1\n      pop\n        /* \"BitcoinUtils.sol\":3454:3456  32 */\n      0x20\n        /* \"BitcoinUtils.sol\":3383:3449  0x00000000FFFFFFFF00000000FFFFFFFF00000000FFFFFFFF00000000FFFFFFFF */\n      0xffffffff00000000ffffffff00000000ffffffff00000000ffffffff\n        /* \"BitcoinUtils.sol\":3374:3449  result & 0x00000000FFFFFFFF00000000FFFFFFFF00000000FFFFFFFF00000000FFFFFFFF */\n      0x00\n      shl\n        /* \"BitcoinUtils.sol\":3374:3380  result */\n      dup3\n        /* \"BitcoinUtils.sol\":3374:3449  result & 0x00000000FFFFFFFF00000000FFFFFFFF00000000FFFFFFFF00000000FFFFFFFF */\n      and\n        /* \"BitcoinUtils.sol\":3373:3456  (result & 0x00000000FFFFFFFF00000000FFFFFFFF00000000FFFFFFFF00000000FFFFFFFF) << 32 */\n      swap1\n      shl\n        /* \"BitcoinUtils.sol\":3290:3356  0x00000000FFFFFFFF00000000FFFFFFFF00000000FFFFFFFF00000000FFFFFFFF */\n      0xffffffff00000000ffffffff00000000ffffffff00000000ffffffff\n        /* \"BitcoinUtils.sol\":3273:3356  (result >> 32) & 0x00000000FFFFFFFF00000000FFFFFFFF00000000FFFFFFFF00000000FFFFFFFF */\n      0x00\n      shl\n        /* \"BitcoinUtils.sol\":3284:3286  32 */\n      0x20\n        /* \"BitcoinUtils.sol\":3274:3280  result */\n      dup4\n        /* \"BitcoinUtils.sol\":3274:3286  result >> 32 */\n      swap1\n      shr\n        /* \"BitcoinUtils.sol\":3273:3356  (result >> 32) & 0x00000000FFFFFFFF00000000FFFFFFFF00000000FFFFFFFF00000000FFFFFFFF */\n      and\n        /* \"BitcoinUtils.sol\":3272:3457  ((result >> 32) & 0x00000000FFFFFFFF00000000FFFFFFFF00000000FFFFFFFF00000000FFFFFFFF) |... */\n      or\n        /* \"BitcoinUtils.sol\":3263:3457  result = ((result >> 32) & 0x00000000FFFFFFFF00000000FFFFFFFF00000000FFFFFFFF00000000FFFFFFFF) |... */\n      swap1\n      pop\n        /* \"BitcoinUtils.sol\":3684:3686  64 */\n      0x40\n        /* \"BitcoinUtils.sol\":3613:3679  0x0000000000000000FFFFFFFFFFFFFFFF0000000000000000FFFFFFFFFFFFFFFF */\n      0xffffffffffffffff0000000000000000ffffffffffffffff\n        /* \"BitcoinUtils.sol\":3604:3679  result & 0x0000000000000000FFFFFFFFFFFFFFFF0000000000000000FFFFFFFFFFFFFFFF */\n      0x00\n      shl\n        /* \"BitcoinUtils.sol\":3604:3610  result */\n      dup3\n        /* \"BitcoinUtils.sol\":3604:3679  result & 0x0000000000000000FFFFFFFFFFFFFFFF0000000000000000FFFFFFFFFFFFFFFF */\n      and\n        /* \"BitcoinUtils.sol\":3603:3686  (result & 0x0000000000000000FFFFFFFFFFFFFFFF0000000000000000FFFFFFFFFFFFFFFF) << 64 */\n      swap1\n      shl\n        /* \"BitcoinUtils.sol\":3520:3586  0x0000000000000000FFFFFFFFFFFFFFFF0000000000000000FFFFFFFFFFFFFFFF */\n      0xffffffffffffffff0000000000000000ffffffffffffffff\n        /* \"BitcoinUtils.sol\":3503:3586  (result >> 64) & 0x0000000000000000FFFFFFFFFFFFFFFF0000000000000000FFFFFFFFFFFFFFFF */\n      0x00\n      shl\n        /* \"BitcoinUtils.sol\":3514:3516  64 */\n      0x40\n        /* \"BitcoinUtils.sol\":3504:3510  result */\n      dup4\n        /* \"BitcoinUtils.sol\":3504:3516  result >> 64 */\n      swap1\n      shr\n        /* \"BitcoinUtils.sol\":3503:3586  (result >> 64) & 0x0000000000000000FFFFFFFFFFFFFFFF0000000000000000FFFFFFFFFFFFFFFF */\n      and\n        /* \"BitcoinUtils.sol\":3502:3687  ((result >> 64) & 0x0000000000000000FFFFFFFFFFFFFFFF0000000000000000FFFFFFFFFFFFFFFF) |... */\n      or\n        /* \"BitcoinUtils.sol\":3493:3687  result = ((result >> 64) & 0x0000000000000000FFFFFFFFFFFFFFFF0000000000000000FFFFFFFFFFFFFFFF) |... */\n      swap1\n      pop\n        /* \"BitcoinUtils.sol\":3762:3765  128 */\n      0x80\n        /* \"BitcoinUtils.sol\":3752:3758  result */\n      dup2\n        /* \"BitcoinUtils.sol\":3752:3765  result << 128 */\n      swap1\n      shl\n        /* \"BitcoinUtils.sol\":3744:3747  128 */\n      0x80\n        /* \"BitcoinUtils.sol\":3734:3740  result */\n      dup3\n        /* \"BitcoinUtils.sol\":3734:3747  result >> 128 */\n      swap1\n      shr\n        /* \"BitcoinUtils.sol\":3733:3766  (result >> 128) | (result << 128) */\n      or\n        /* \"BitcoinUtils.sol\":3724:3766  result = (result >> 128) | (result << 128) */\n      swap1\n      pop\n        /* \"BitcoinUtils.sol\":2693:3790  function swapEndian(bytes32 bz) pure public returns (bytes32 result) {... */\n      swap2\n      swap1\n      pop\n      jump\t// out\n        /* \"BitcoinUtils.sol\":1530:2689  function _leToBytes32(bytes calldata bz, uint startIndex) pure public returns (bytes32 result) {... */\n    tag_40:\n        /* \"BitcoinUtils.sol\":1609:1623  bytes32 result */\n      0x00\n        /* \"BitcoinUtils.sol\":1649:1651  bz */\n      dup4\n      dup4\n        /* \"BitcoinUtils.sol\":1652:1662  startIndex */\n      dup4\n        /* \"BitcoinUtils.sol\":1649:1678  bz[startIndex: startIndex+32] */\n      swap1\n        /* \"BitcoinUtils.sol\":1675:1677  32 */\n      0x20\n        /* \"BitcoinUtils.sol\":1664:1674  startIndex */\n      dup6\n        /* \"BitcoinUtils.sol\":1664:1677  startIndex+32 */\n      tag_81\n      swap2\n      swap1\n      tag_74\n      jump\t// in\n    tag_81:\n        /* \"BitcoinUtils.sol\":1649:1678  bz[startIndex: startIndex+32] */\n      swap3\n      tag_82\n      swap4\n      swap3\n      swap2\n      swap1\n      tag_76\n      jump\t// in\n    tag_82:\n        /* \"BitcoinUtils.sol\":1641:1679  bytes32(bz[startIndex: startIndex+32]) */\n      swap1\n      tag_83\n      swap2\n      swap1\n      tag_84\n      jump\t// in\n    tag_83:\n        /* \"BitcoinUtils.sol\":1632:1679  result = bytes32(bz[startIndex: startIndex+32]) */\n      swap1\n      pop\n        /* \"BitcoinUtils.sol\":1894:1895  8 */\n      0x08\n        /* \"BitcoinUtils.sol\":1823:1889  0x00FF00FF00FF00FF00FF00FF00FF00FF00FF00FF00FF00FF00FF00FF00FF00FF */\n      0xff00ff00ff00ff00ff00ff00ff00ff00ff00ff00ff00ff00ff00ff00ff00ff\n        /* \"BitcoinUtils.sol\":1814:1889  result & 0x00FF00FF00FF00FF00FF00FF00FF00FF00FF00FF00FF00FF00FF00FF00FF00FF */\n      0x00\n      shl\n        /* \"BitcoinUtils.sol\":1814:1820  result */\n      dup3\n        /* \"BitcoinUtils.sol\":1814:1889  result & 0x00FF00FF00FF00FF00FF00FF00FF00FF00FF00FF00FF00FF00FF00FF00FF00FF */\n      and\n        /* \"BitcoinUtils.sol\":1813:1895  (result & 0x00FF00FF00FF00FF00FF00FF00FF00FF00FF00FF00FF00FF00FF00FF00FF00FF) << 8 */\n      swap1\n      shl\n        /* \"BitcoinUtils.sol\":1730:1796  0x00FF00FF00FF00FF00FF00FF00FF00FF00FF00FF00FF00FF00FF00FF00FF00FF */\n      0xff00ff00ff00ff00ff00ff00ff00ff00ff00ff00ff00ff00ff00ff00ff00ff\n        /* \"BitcoinUtils.sol\":1714:1796  (result >> 8) & 0x00FF00FF00FF00FF00FF00FF00FF00FF00FF00FF00FF00FF00FF00FF00FF00FF */\n      0x00\n      shl\n        /* \"BitcoinUtils.sol\":1725:1726  8 */\n      0x08\n        /* \"BitcoinUtils.sol\":1715:1721  result */\n      dup4\n        /* \"BitcoinUtils.sol\":1715:1726  result >> 8 */\n      swap1\n      shr\n        /* \"BitcoinUtils.sol\":1714:1796  (result >> 8) & 0x00FF00FF00FF00FF00FF00FF00FF00FF00FF00FF00FF00FF00FF00FF00FF00FF */\n      and\n        /* \"BitcoinUtils.sol\":1713:1896  ((result >> 8) & 0x00FF00FF00FF00FF00FF00FF00FF00FF00FF00FF00FF00FF00FF00FF00FF00FF) |... */\n      or\n        /* \"BitcoinUtils.sol\":1704:1896  result = ((result >> 8) & 0x00FF00FF00FF00FF00FF00FF00FF00FF00FF00FF00FF00FF00FF00FF00FF00FF) |... */\n      swap1\n      pop\n        /* \"BitcoinUtils.sol\":2123:2125  16 */\n      0x10\n        /* \"BitcoinUtils.sol\":2052:2118  0x0000FFFF0000FFFF0000FFFF0000FFFF0000FFFF0000FFFF0000FFFF0000FFFF */\n      0xffff0000ffff0000ffff0000ffff0000ffff0000ffff0000ffff0000ffff\n        /* \"BitcoinUtils.sol\":2043:2118  result & 0x0000FFFF0000FFFF0000FFFF0000FFFF0000FFFF0000FFFF0000FFFF0000FFFF */\n      0x00\n      shl\n        /* \"BitcoinUtils.sol\":2043:2049  result */\n      dup3\n        /* \"BitcoinUtils.sol\":2043:2118  result & 0x0000FFFF0000FFFF0000FFFF0000FFFF0000FFFF0000FFFF0000FFFF0000FFFF */\n      and\n        /* \"BitcoinUtils.sol\":2042:2125  (result & 0x0000FFFF0000FFFF0000FFFF0000FFFF0000FFFF0000FFFF0000FFFF0000FFFF) << 16 */\n      swap1\n      shl\n        /* \"BitcoinUtils.sol\":1959:2025  0x0000FFFF0000FFFF0000FFFF0000FFFF0000FFFF0000FFFF0000FFFF0000FFFF */\n      0xffff0000ffff0000ffff0000ffff0000ffff0000ffff0000ffff0000ffff\n        /* \"BitcoinUtils.sol\":1942:2025  (result >> 16) & 0x0000FFFF0000FFFF0000FFFF0000FFFF0000FFFF0000FFFF0000FFFF0000FFFF */\n      0x00\n      shl\n        /* \"BitcoinUtils.sol\":1953:1955  16 */\n      0x10\n        /* \"BitcoinUtils.sol\":1943:1949  result */\n      dup4\n        /* \"BitcoinUtils.sol\":1943:1955  result >> 16 */\n      swap1\n      shr\n        /* \"BitcoinUtils.sol\":1942:2025  (result >> 16) & 0x0000FFFF0000FFFF0000FFFF0000FFFF0000FFFF0000FFFF0000FFFF0000FFFF */\n      and\n        /* \"BitcoinUtils.sol\":1941:2126  ((result >> 16) & 0x0000FFFF0000FFFF0000FFFF0000FFFF0000FFFF0000FFFF0000FFFF0000FFFF) |... */\n      or\n        /* \"BitcoinUtils.sol\":1932:2126  result = ((result >> 16) & 0x0000FFFF0000FFFF0000FFFF0000FFFF0000FFFF0000FFFF0000FFFF0000FFFF) |... */\n      swap1\n      pop\n        /* \"BitcoinUtils.sol\":2353:2355  32 */\n      0x20\n        /* \"BitcoinUtils.sol\":2282:2348  0x00000000FFFFFFFF00000000FFFFFFFF00000000FFFFFFFF00000000FFFFFFFF */\n      0xffffffff00000000ffffffff00000000ffffffff00000000ffffffff\n        /* \"BitcoinUtils.sol\":2273:2348  result & 0x00000000FFFFFFFF00000000FFFFFFFF00000000FFFFFFFF00000000FFFFFFFF */\n      0x00\n      shl\n        /* \"BitcoinUtils.sol\":2273:2279  result */\n      dup3\n        /* \"BitcoinUtils.sol\":2273:2348  result & 0x00000000FFFFFFFF00000000FFFFFFFF00000000FFFFFFFF00000000FFFFFFFF */\n      and\n        /* \"BitcoinUtils.sol\":2272:2355  (result & 0x00000000FFFFFFFF00000000FFFFFFFF00000000FFFFFFFF00000000FFFFFFFF) << 32 */\n      swap1\n      shl\n        /* \"BitcoinUtils.sol\":2189:2255  0x00000000FFFFFFFF00000000FFFFFFFF00000000FFFFFFFF00000000FFFFFFFF */\n      0xffffffff00000000ffffffff00000000ffffffff00000000ffffffff\n        /* \"BitcoinUtils.sol\":2172:2255  (result >> 32) & 0x00000000FFFFFFFF00000000FFFFFFFF00000000FFFFFFFF00000000FFFFFFFF */\n      0x00\n      shl\n        /* \"BitcoinUtils.sol\":2183:2185  32 */\n      0x20\n        /* \"BitcoinUtils.sol\":2173:2179  result */\n      dup4\n        /* \"BitcoinUtils.sol\":2173:2185  result >> 32 */\n      swap1\n      shr\n        /* \"BitcoinUtils.sol\":2172:2255  (result >> 32) & 0x00000000FFFFFFFF00000000FFFFFFFF00000000FFFFFFFF00000000FFFFFFFF */\n      and\n        /* \"BitcoinUtils.sol\":2171:2356  ((result >> 32) & 0x00000000FFFFFFFF00000000FFFFFFFF00000000FFFFFFFF00000000FFFFFFFF) |... */\n      or\n        /* \"BitcoinUtils.sol\":2162:2356  result = ((result >> 32) & 0x00000000FFFFFFFF00000000FFFFFFFF00000000FFFFFFFF00000000FFFFFFFF) |... */\n      swap1\n      pop\n        /* \"BitcoinUtils.sol\":2583:2585  64 */\n      0x40\n        /* \"BitcoinUtils.sol\":2512:2578  0x0000000000000000FFFFFFFFFFFFFFFF0000000000000000FFFFFFFFFFFFFFFF */\n      0xffffffffffffffff0000000000000000ffffffffffffffff\n        /* \"BitcoinUtils.sol\":2503:2578  result & 0x0000000000000000FFFFFFFFFFFFFFFF0000000000000000FFFFFFFFFFFFFFFF */\n      0x00\n      shl\n        /* \"BitcoinUtils.sol\":2503:2509  result */\n      dup3\n        /* \"BitcoinUtils.sol\":2503:2578  result & 0x0000000000000000FFFFFFFFFFFFFFFF0000000000000000FFFFFFFFFFFFFFFF */\n      and\n        /* \"BitcoinUtils.sol\":2502:2585  (result & 0x0000000000000000FFFFFFFFFFFFFFFF0000000000000000FFFFFFFFFFFFFFFF) << 64 */\n      swap1\n      shl\n        /* \"BitcoinUtils.sol\":2419:2485  0x0000000000000000FFFFFFFFFFFFFFFF0000000000000000FFFFFFFFFFFFFFFF */\n      0xffffffffffffffff0000000000000000ffffffffffffffff\n        /* \"BitcoinUtils.sol\":2402:2485  (result >> 64) & 0x0000000000000000FFFFFFFFFFFFFFFF0000000000000000FFFFFFFFFFFFFFFF */\n      0x00\n      shl\n        /* \"BitcoinUtils.sol\":2413:2415  64 */\n      0x40\n        /* \"BitcoinUtils.sol\":2403:2409  result */\n      dup4\n        /* \"BitcoinUtils.sol\":2403:2415  result >> 64 */\n      swap1\n      shr\n        /* \"BitcoinUtils.sol\":2402:2485  (result >> 64) & 0x0000000000000000FFFFFFFFFFFFFFFF0000000000000000FFFFFFFFFFFFFFFF */\n      and\n        /* \"BitcoinUtils.sol\":2401:2586  ((result >> 64) & 0x0000000000000000FFFFFFFFFFFFFFFF0000000000000000FFFFFFFFFFFFFFFF) |... */\n      or\n        /* \"BitcoinUtils.sol\":2392:2586  result = ((result >> 64) & 0x0000000000000000FFFFFFFFFFFFFFFF0000000000000000FFFFFFFFFFFFFFFF) |... */\n      swap1\n      pop\n        /* \"BitcoinUtils.sol\":2661:2664  128 */\n      0x80\n        /* \"BitcoinUtils.sol\":2651:2657  result */\n      dup2\n        /* \"BitcoinUtils.sol\":2651:2664  result << 128 */\n      swap1\n      shl\n        /* \"BitcoinUtils.sol\":2643:2646  128 */\n      0x80\n        /* \"BitcoinUtils.sol\":2633:2639  result */\n      dup3\n        /* \"BitcoinUtils.sol\":2633:2646  result >> 128 */\n      swap1\n      shr\n        /* \"BitcoinUtils.sol\":2632:2665  (result >> 128) | (result << 128) */\n      or\n        /* \"BitcoinUtils.sol\":2623:2665  result = (result >> 128) | (result << 128) */\n      swap1\n      pop\n        /* \"BitcoinUtils.sol\":1530:2689  function _leToBytes32(bytes calldata bz, uint startIndex) pure public returns (bytes32 result) {... */\n      swap4\n      swap3\n      pop\n      pop\n      pop\n      jump\t// out\n        /* \"BitcoinUtils.sol\":315:418  uint256 public constant MAX_TARGET = 0x00000000FFFF0000000000000000000000000000000000000000000000000000 */\n    tag_43:\n        /* \"BitcoinUtils.sol\":352:418  0x00000000FFFF0000000000000000000000000000000000000000000000000000 */\n      0xffff0000000000000000000000000000000000000000000000000000\n        /* \"BitcoinUtils.sol\":315:418  uint256 public constant MAX_TARGET = 0x00000000FFFF0000000000000000000000000000000000000000000000000000 */\n      dup2\n      jump\t// out\n        /* \"BitcoinUtils.sol\":495:882  function _leToUint32(bytes calldata bz, uint startIndex) pure public returns (uint32 result) {... */\n    tag_47:\n        /* \"BitcoinUtils.sol\":573:586  uint32 result */\n      0x00\n        /* \"BitcoinUtils.sol\":594:602  bytes4 v */\n      dup1\n        /* \"BitcoinUtils.sol\":612:614  bz */\n      dup5\n      dup5\n        /* \"BitcoinUtils.sol\":615:625  startIndex */\n      dup5\n        /* \"BitcoinUtils.sol\":612:640  bz[startIndex: startIndex+4] */\n      swap1\n        /* \"BitcoinUtils.sol\":638:639  4 */\n      0x04\n        /* \"BitcoinUtils.sol\":627:637  startIndex */\n      dup7\n        /* \"BitcoinUtils.sol\":627:639  startIndex+4 */\n      tag_86\n      swap2\n      swap1\n      tag_74\n      jump\t// in\n    tag_86:\n        /* \"BitcoinUtils.sol\":612:640  bz[startIndex: startIndex+4] */\n      swap3\n      tag_87\n      swap4\n      swap3\n      swap2\n      swap1\n      tag_76\n      jump\t// in\n    tag_87:\n        /* \"BitcoinUtils.sol\":605:641  bytes4(bz[startIndex: startIndex+4]) */\n      swap1\n      tag_88\n      swap2\n      swap1\n      tag_78\n      jump\t// in\n    tag_88:\n        /* \"BitcoinUtils.sol\":594:641  bytes4 v = bytes4(bz[startIndex: startIndex+4]) */\n      swap1\n      pop\n        /* \"BitcoinUtils.sol\":726:727  8 */\n      0x08\n        /* \"BitcoinUtils.sol\":711:721  0x00FF00FF */\n      0xff00ff\n        /* \"BitcoinUtils.sol\":707:721  v & 0x00FF00FF */\n      0xe0\n      shl\n        /* \"BitcoinUtils.sol\":707:708  v */\n      dup3\n        /* \"BitcoinUtils.sol\":707:721  v & 0x00FF00FF */\n      and\n        /* \"BitcoinUtils.sol\":706:727  (v & 0x00FF00FF) << 8 */\n      not(0xffffffffffffffffffffffffffffffffffffffffffffffffffffffff)\n      and\n      swap1\n      shl\n        /* \"BitcoinUtils.sol\":682:692  0x00FF00FF */\n      0xff00ff\n        /* \"BitcoinUtils.sol\":671:692  (v >> 8) & 0x00FF00FF */\n      0xe0\n      shl\n        /* \"BitcoinUtils.sol\":677:678  8 */\n      0x08\n        /* \"BitcoinUtils.sol\":672:673  v */\n      dup4\n        /* \"BitcoinUtils.sol\":672:678  v >> 8 */\n      not(0xffffffffffffffffffffffffffffffffffffffffffffffffffffffff)\n      and\n      swap1\n      shr\n        /* \"BitcoinUtils.sol\":671:692  (v >> 8) & 0x00FF00FF */\n      and\n        /* \"BitcoinUtils.sol\":670:728  ((v >> 8) & 0x00FF00FF) |... */\n      or\n        /* \"BitcoinUtils.sol\":666:728  v = ((v >> 8) & 0x00FF00FF) |... */\n      swap1\n      pop\n        /* \"BitcoinUtils.sol\":825:827  16 */\n      0x10\n        /* \"BitcoinUtils.sol\":810:820  0x0000FFFF */\n      0xffff\n        /* \"BitcoinUtils.sol\":806:820  v & 0x0000FFFF */\n      0xe0\n      shl\n        /* \"BitcoinUtils.sol\":806:807  v */\n      dup3\n        /* \"BitcoinUtils.sol\":806:820  v & 0x0000FFFF */\n      and\n        /* \"BitcoinUtils.sol\":805:827  (v & 0x0000FFFF) << 16 */\n      not(0xffffffffffffffffffffffffffffffffffffffffffffffffffffffff)\n      and\n      swap1\n      shl\n        /* \"BitcoinUtils.sol\":781:791  0x0000FFFF */\n      0xffff\n        /* \"BitcoinUtils.sol\":769:791  (v >> 16) & 0x0000FFFF */\n      0xe0\n      shl\n        /* \"BitcoinUtils.sol\":775:777  16 */\n      0x10\n        /* \"BitcoinUtils.sol\":770:771  v */\n      dup4\n        /* \"BitcoinUtils.sol\":770:777  v >> 16 */\n      not(0xffffffffffffffffffffffffffffffffffffffffffffffffffffffff)\n      and\n      swap1\n      shr\n        /* \"BitcoinUtils.sol\":769:791  (v >> 16) & 0x0000FFFF */\n      and\n        /* \"BitcoinUtils.sol\":768:828  ((v >> 16) & 0x0000FFFF) |... */\n      or\n        /* \"BitcoinUtils.sol\":764:828  v = ((v >> 16) & 0x0000FFFF) |... */\n      swap1\n      pop\n        /* \"BitcoinUtils.sol\":851:852  v */\n      dup1\n        /* \"BitcoinUtils.sol\":844:853  uint32(v) */\n      0xe0\n      shr\n        /* \"BitcoinUtils.sol\":835:853  result = uint32(v) */\n      swap2\n      pop\n        /* \"BitcoinUtils.sol\":864:877  return result */\n      pop\n        /* \"BitcoinUtils.sol\":495:882  function _leToUint32(bytes calldata bz, uint startIndex) pure public returns (uint32 result) {... */\n      swap4\n      swap3\n      pop\n      pop\n      pop\n      jump\t// out\n        /* \"SafeMath.sol\":2292:2452  function sub(uint256 _a, uint256 _b) internal pure returns (uint256) {... */\n    tag_51:\n        /* \"SafeMath.sol\":2352:2359  uint256 */\n      0x00\n        /* \"SafeMath.sol\":2385:2387  _a */\n      dup3\n        /* \"SafeMath.sol\":2379:2381  _b */\n      dup3\n        /* \"SafeMath.sol\":2379:2387  _b <= _a */\n      gt\n      iszero\n        /* \"SafeMath.sol\":2371:2421  require(_b <= _a, \"Underflow during subtraction.\") */\n      tag_90\n      jumpi\n      mload(0x40)\n      0x08c379a000000000000000000000000000000000000000000000000000000000\n      dup2\n      mstore\n      0x04\n      add\n      tag_91\n      swap1\n      tag_92\n      jump\t// in\n    tag_91:\n      mload(0x40)\n      dup1\n      swap2\n      sub\n      swap1\n      revert\n    tag_90:\n        /* \"SafeMath.sol\":2443:2445  _b */\n      dup2\n        /* \"SafeMath.sol\":2438:2440  _a */\n      dup4\n        /* \"SafeMath.sol\":2438:2445  _a - _b */\n      tag_93\n      swap2\n      swap1\n      tag_94\n      jump\t// in\n    tag_93:\n        /* \"SafeMath.sol\":2431:2445  return _a - _b */\n      swap1\n      pop\n        /* \"SafeMath.sol\":2292:2452  function sub(uint256 _a, uint256 _b) internal pure returns (uint256) {... */\n      swap3\n      swap2\n      pop\n      pop\n      jump\t// out\n        /* \"SafeMath.sol\":1321:1777  function mul(uint256 _a, uint256 _b) internal pure returns (uint256 c) {... */\n    tag_55:\n        /* \"SafeMath.sol\":1381:1390  uint256 c */\n      0x00\n        /* \"SafeMath.sol\":1629:1630  0 */\n      dup1\n        /* \"SafeMath.sol\":1623:1625  _a */\n      dup4\n        /* \"SafeMath.sol\":1623:1630  _a == 0 */\n      eq\n        /* \"SafeMath.sol\":1619:1665  if (_a == 0) {... */\n      iszero\n      tag_96\n      jumpi\n        /* \"SafeMath.sol\":1653:1654  0 */\n      0x00\n        /* \"SafeMath.sol\":1646:1654  return 0 */\n      swap1\n      pop\n      jump(tag_95)\n        /* \"SafeMath.sol\":1619:1665  if (_a == 0) {... */\n    tag_96:\n        /* \"SafeMath.sol\":1684:1686  _b */\n      dup2\n        /* \"SafeMath.sol\":1679:1681  _a */\n      dup4\n        /* \"SafeMath.sol\":1679:1686  _a * _b */\n      tag_97\n      swap2\n      swap1\n      tag_98\n      jump\t// in\n    tag_97:\n        /* \"SafeMath.sol\":1675:1686  c = _a * _b */\n      swap1\n      pop\n        /* \"SafeMath.sol\":1714:1716  _b */\n      dup2\n        /* \"SafeMath.sol\":1708:1710  _a */\n      dup4\n        /* \"SafeMath.sol\":1704:1705  c */\n      dup3\n        /* \"SafeMath.sol\":1704:1710  c / _a */\n      tag_99\n      swap2\n      swap1\n      tag_100\n      jump\t// in\n    tag_99:\n        /* \"SafeMath.sol\":1704:1716  c / _a == _b */\n      eq\n        /* \"SafeMath.sol\":1696:1752  require(c / _a == _b, \"Overflow during multiplication.\") */\n      tag_101\n      jumpi\n      mload(0x40)\n      0x08c379a000000000000000000000000000000000000000000000000000000000\n      dup2\n      mstore\n      0x04\n      add\n      tag_102\n      swap1\n      tag_103\n      jump\t// in\n    tag_102:\n      mload(0x40)\n      dup1\n      swap2\n      sub\n      swap1\n      revert\n    tag_101:\n        /* \"SafeMath.sol\":1321:1777  function mul(uint256 _a, uint256 _b) internal pure returns (uint256 c) {... */\n    tag_95:\n      swap3\n      swap2\n      pop\n      pop\n      jump\t// out\n        /* \"#utility.yul\":7:146   */\n    tag_105:\n        /* \"#utility.yul\":53:58   */\n      0x00\n        /* \"#utility.yul\":91:97   */\n      dup2\n        /* \"#utility.yul\":78:98   */\n      calldataload\n        /* \"#utility.yul\":69:98   */\n      swap1\n      pop\n        /* \"#utility.yul\":107:140   */\n      tag_107\n        /* \"#utility.yul\":134:139   */\n      dup2\n        /* \"#utility.yul\":107:140   */\n      tag_108\n      jump\t// in\n    tag_107:\n        /* \"#utility.yul\":7:146   */\n      swap3\n      swap2\n      pop\n      pop\n      jump\t// out\n        /* \"#utility.yul\":152:289   */\n    tag_109:\n        /* \"#utility.yul\":197:202   */\n      0x00\n        /* \"#utility.yul\":235:241   */\n      dup2\n        /* \"#utility.yul\":222:242   */\n      calldataload\n        /* \"#utility.yul\":213:242   */\n      swap1\n      pop\n        /* \"#utility.yul\":251:283   */\n      tag_111\n        /* \"#utility.yul\":277:282   */\n      dup2\n        /* \"#utility.yul\":251:283   */\n      tag_112\n      jump\t// in\n    tag_111:\n        /* \"#utility.yul\":152:289   */\n      swap3\n      swap2\n      pop\n      pop\n      jump\t// out\n        /* \"#utility.yul\":308:860   */\n    tag_113:\n        /* \"#utility.yul\":365:373   */\n      0x00\n        /* \"#utility.yul\":375:381   */\n      dup1\n        /* \"#utility.yul\":425:428   */\n      dup4\n        /* \"#utility.yul\":418:422   */\n      0x1f\n        /* \"#utility.yul\":410:416   */\n      dup5\n        /* \"#utility.yul\":406:423   */\n      add\n        /* \"#utility.yul\":402:429   */\n      slt\n        /* \"#utility.yul\":392:514   */\n      tag_115\n      jumpi\n        /* \"#utility.yul\":433:512   */\n      tag_116\n      tag_117\n      jump\t// in\n    tag_116:\n        /* \"#utility.yul\":392:514   */\n    tag_115:\n        /* \"#utility.yul\":546:552   */\n      dup3\n        /* \"#utility.yul\":533:553   */\n      calldataload\n        /* \"#utility.yul\":523:553   */\n      swap1\n      pop\n        /* \"#utility.yul\":576:594   */\n      0xffffffffffffffff\n        /* \"#utility.yul\":568:574   */\n      dup2\n        /* \"#utility.yul\":565:595   */\n      gt\n        /* \"#utility.yul\":562:679   */\n      iszero\n      tag_118\n      jumpi\n        /* \"#utility.yul\":598:677   */\n      tag_119\n      tag_120\n      jump\t// in\n    tag_119:\n        /* \"#utility.yul\":562:679   */\n    tag_118:\n        /* \"#utility.yul\":712:716   */\n      0x20\n        /* \"#utility.yul\":704:710   */\n      dup4\n        /* \"#utility.yul\":700:717   */\n      add\n        /* \"#utility.yul\":688:717   */\n      swap2\n      pop\n        /* \"#utility.yul\":766:769   */\n      dup4\n        /* \"#utility.yul\":758:762   */\n      0x01\n        /* \"#utility.yul\":750:756   */\n      dup3\n        /* \"#utility.yul\":746:763   */\n      mul\n        /* \"#utility.yul\":736:744   */\n      dup4\n        /* \"#utility.yul\":732:764   */\n      add\n        /* \"#utility.yul\":729:770   */\n      gt\n        /* \"#utility.yul\":726:854   */\n      iszero\n      tag_121\n      jumpi\n        /* \"#utility.yul\":773:852   */\n      tag_122\n      tag_123\n      jump\t// in\n    tag_122:\n        /* \"#utility.yul\":726:854   */\n    tag_121:\n        /* \"#utility.yul\":308:860   */\n      swap3\n      pop\n      swap3\n      swap1\n      pop\n      jump\t// out\n        /* \"#utility.yul\":866:1005   */\n    tag_124:\n        /* \"#utility.yul\":912:917   */\n      0x00\n        /* \"#utility.yul\":950:956   */\n      dup2\n        /* \"#utility.yul\":937:957   */\n      calldataload\n        /* \"#utility.yul\":928:957   */\n      swap1\n      pop\n        /* \"#utility.yul\":966:999   */\n      tag_126\n        /* \"#utility.yul\":993:998   */\n      dup2\n        /* \"#utility.yul\":966:999   */\n      tag_127\n      jump\t// in\n    tag_126:\n        /* \"#utility.yul\":866:1005   */\n      swap3\n      swap2\n      pop\n      pop\n      jump\t// out\n        /* \"#utility.yul\":1011:1340   */\n    tag_34:\n        /* \"#utility.yul\":1070:1076   */\n      0x00\n        /* \"#utility.yul\":1119:1121   */\n      0x20\n        /* \"#utility.yul\":1107:1116   */\n      dup3\n        /* \"#utility.yul\":1098:1105   */\n      dup5\n        /* \"#utility.yul\":1094:1117   */\n      sub\n        /* \"#utility.yul\":1090:1122   */\n      slt\n        /* \"#utility.yul\":1087:1206   */\n      iszero\n      tag_129\n      jumpi\n        /* \"#utility.yul\":1125:1204   */\n      tag_130\n      tag_131\n      jump\t// in\n    tag_130:\n        /* \"#utility.yul\":1087:1206   */\n    tag_129:\n        /* \"#utility.yul\":1245:1246   */\n      0x00\n        /* \"#utility.yul\":1270:1323   */\n      tag_132\n        /* \"#utility.yul\":1315:1322   */\n      dup5\n        /* \"#utility.yul\":1306:1312   */\n      dup3\n        /* \"#utility.yul\":1295:1304   */\n      dup6\n        /* \"#utility.yul\":1291:1313   */\n      add\n        /* \"#utility.yul\":1270:1323   */\n      tag_105\n      jump\t// in\n    tag_132:\n        /* \"#utility.yul\":1260:1323   */\n      swap2\n      pop\n        /* \"#utility.yul\":1216:1333   */\n      pop\n        /* \"#utility.yul\":1011:1340   */\n      swap3\n      swap2\n      pop\n      pop\n      jump\t// out\n        /* \"#utility.yul\":1346:1673   */\n    tag_13:\n        /* \"#utility.yul\":1404:1410   */\n      0x00\n        /* \"#utility.yul\":1453:1455   */\n      0x20\n        /* \"#utility.yul\":1441:1450   */\n      dup3\n        /* \"#utility.yul\":1432:1439   */\n      dup5\n        /* \"#utility.yul\":1428:1451   */\n      sub\n        /* \"#utility.yul\":1424:1456   */\n      slt\n        /* \"#utility.yul\":1421:1540   */\n      iszero\n      tag_134\n      jumpi\n        /* \"#utility.yul\":1459:1538   */\n      tag_135\n      tag_131\n      jump\t// in\n    tag_135:\n        /* \"#utility.yul\":1421:1540   */\n    tag_134:\n        /* \"#utility.yul\":1579:1580   */\n      0x00\n        /* \"#utility.yul\":1604:1656   */\n      tag_136\n        /* \"#utility.yul\":1648:1655   */\n      dup5\n        /* \"#utility.yul\":1639:1645   */\n      dup3\n        /* \"#utility.yul\":1628:1637   */\n      dup6\n        /* \"#utility.yul\":1624:1646   */\n      add\n        /* \"#utility.yul\":1604:1656   */\n      tag_109\n      jump\t// in\n    tag_136:\n        /* \"#utility.yul\":1594:1656   */\n      swap2\n      pop\n        /* \"#utility.yul\":1550:1666   */\n      pop\n        /* \"#utility.yul\":1346:1673   */\n      swap3\n      swap2\n      pop\n      pop\n      jump\t// out\n        /* \"#utility.yul\":1679:2351   */\n    tag_28:\n        /* \"#utility.yul\":1758:1764   */\n      0x00\n        /* \"#utility.yul\":1766:1772   */\n      dup1\n        /* \"#utility.yul\":1774:1780   */\n      0x00\n        /* \"#utility.yul\":1823:1825   */\n      0x40\n        /* \"#utility.yul\":1811:1820   */\n      dup5\n        /* \"#utility.yul\":1802:1809   */\n      dup7\n        /* \"#utility.yul\":1798:1821   */\n      sub\n        /* \"#utility.yul\":1794:1826   */\n      slt\n        /* \"#utility.yul\":1791:1910   */\n      iszero\n      tag_138\n      jumpi\n        /* \"#utility.yul\":1829:1908   */\n      tag_139\n      tag_131\n      jump\t// in\n    tag_139:\n        /* \"#utility.yul\":1791:1910   */\n    tag_138:\n        /* \"#utility.yul\":1977:1978   */\n      0x00\n        /* \"#utility.yul\":1966:1975   */\n      dup5\n        /* \"#utility.yul\":1962:1979   */\n      add\n        /* \"#utility.yul\":1949:1980   */\n      calldataload\n        /* \"#utility.yul\":2007:2025   */\n      0xffffffffffffffff\n        /* \"#utility.yul\":1999:2005   */\n      dup2\n        /* \"#utility.yul\":1996:2026   */\n      gt\n        /* \"#utility.yul\":1993:2110   */\n      iszero\n      tag_140\n      jumpi\n        /* \"#utility.yul\":2029:2108   */\n      tag_141\n      tag_142\n      jump\t// in\n    tag_141:\n        /* \"#utility.yul\":1993:2110   */\n    tag_140:\n        /* \"#utility.yul\":2142:2206   */\n      tag_143\n        /* \"#utility.yul\":2198:2205   */\n      dup7\n        /* \"#utility.yul\":2189:2195   */\n      dup3\n        /* \"#utility.yul\":2178:2187   */\n      dup8\n        /* \"#utility.yul\":2174:2196   */\n      add\n        /* \"#utility.yul\":2142:2206   */\n      tag_113\n      jump\t// in\n    tag_143:\n        /* \"#utility.yul\":2124:2206   */\n      swap4\n      pop\n      swap4\n      pop\n        /* \"#utility.yul\":1920:2216   */\n      pop\n        /* \"#utility.yul\":2255:2257   */\n      0x20\n        /* \"#utility.yul\":2281:2334   */\n      tag_144\n        /* \"#utility.yul\":2326:2333   */\n      dup7\n        /* \"#utility.yul\":2317:2323   */\n      dup3\n        /* \"#utility.yul\":2306:2315   */\n      dup8\n        /* \"#utility.yul\":2302:2324   */\n      add\n        /* \"#utility.yul\":2281:2334   */\n      tag_124\n      jump\t// in\n    tag_144:\n        /* \"#utility.yul\":2271:2334   */\n      swap2\n      pop\n        /* \"#utility.yul\":2226:2344   */\n      pop\n        /* \"#utility.yul\":1679:2351   */\n      swap3\n      pop\n      swap3\n      pop\n      swap3\n      jump\t// out\n        /* \"#utility.yul\":2357:2686   */\n    tag_19:\n        /* \"#utility.yul\":2416:2422   */\n      0x00\n        /* \"#utility.yul\":2465:2467   */\n      0x20\n        /* \"#utility.yul\":2453:2462   */\n      dup3\n        /* \"#utility.yul\":2444:2451   */\n      dup5\n        /* \"#utility.yul\":2440:2463   */\n      sub\n        /* \"#utility.yul\":2436:2468   */\n      slt\n        /* \"#utility.yul\":2433:2552   */\n      iszero\n      tag_146\n      jumpi\n        /* \"#utility.yul\":2471:2550   */\n      tag_147\n      tag_131\n      jump\t// in\n    tag_147:\n        /* \"#utility.yul\":2433:2552   */\n    tag_146:\n        /* \"#utility.yul\":2591:2592   */\n      0x00\n        /* \"#utility.yul\":2616:2669   */\n      tag_148\n        /* \"#utility.yul\":2661:2668   */\n      dup5\n        /* \"#utility.yul\":2652:2658   */\n      dup3\n        /* \"#utility.yul\":2641:2650   */\n      dup6\n        /* \"#utility.yul\":2637:2659   */\n      add\n        /* \"#utility.yul\":2616:2669   */\n      tag_124\n      jump\t// in\n    tag_148:\n        /* \"#utility.yul\":2606:2669   */\n      swap2\n      pop\n        /* \"#utility.yul\":2562:2679   */\n      pop\n        /* \"#utility.yul\":2357:2686   */\n      swap3\n      swap2\n      pop\n      pop\n      jump\t// out\n        /* \"#utility.yul\":2692:2818   */\n    tag_149:\n        /* \"#utility.yul\":2787:2811   */\n      tag_151\n        /* \"#utility.yul\":2805:2810   */\n      dup2\n        /* \"#utility.yul\":2787:2811   */\n      tag_152\n      jump\t// in\n    tag_151:\n        /* \"#utility.yul\":2782:2785   */\n      dup3\n        /* \"#utility.yul\":2775:2812   */\n      mstore\n        /* \"#utility.yul\":2692:2818   */\n      pop\n      pop\n      jump\t// out\n        /* \"#utility.yul\":2824:2947   */\n    tag_153:\n        /* \"#utility.yul\":2917:2940   */\n      tag_155\n        /* \"#utility.yul\":2934:2939   */\n      dup2\n        /* \"#utility.yul\":2917:2940   */\n      tag_156\n      jump\t// in\n    tag_155:\n        /* \"#utility.yul\":2912:2915   */\n      dup3\n        /* \"#utility.yul\":2905:2941   */\n      mstore\n        /* \"#utility.yul\":2824:2947   */\n      pop\n      pop\n      jump\t// out\n        /* \"#utility.yul\":2953:3319   */\n    tag_157:\n        /* \"#utility.yul\":3095:3098   */\n      0x00\n        /* \"#utility.yul\":3116:3183   */\n      tag_159\n        /* \"#utility.yul\":3180:3182   */\n      0x1d\n        /* \"#utility.yul\":3175:3178   */\n      dup4\n        /* \"#utility.yul\":3116:3183   */\n      tag_160\n      jump\t// in\n    tag_159:\n        /* \"#utility.yul\":3109:3183   */\n      swap2\n      pop\n        /* \"#utility.yul\":3192:3285   */\n      tag_161\n        /* \"#utility.yul\":3281:3284   */\n      dup3\n        /* \"#utility.yul\":3192:3285   */\n      tag_162\n      jump\t// in\n    tag_161:\n        /* \"#utility.yul\":3310:3312   */\n      0x20\n        /* \"#utility.yul\":3305:3308   */\n      dup3\n        /* \"#utility.yul\":3301:3313   */\n      add\n        /* \"#utility.yul\":3294:3313   */\n      swap1\n      pop\n        /* \"#utility.yul\":2953:3319   */\n      swap2\n      swap1\n      pop\n      jump\t// out\n        /* \"#utility.yul\":3325:3691   */\n    tag_163:\n        /* \"#utility.yul\":3467:3470   */\n      0x00\n        /* \"#utility.yul\":3488:3555   */\n      tag_165\n        /* \"#utility.yul\":3552:3554   */\n      0x1f\n        /* \"#utility.yul\":3547:3550   */\n      dup4\n        /* \"#utility.yul\":3488:3555   */\n      tag_160\n      jump\t// in\n    tag_165:\n        /* \"#utility.yul\":3481:3555   */\n      swap2\n      pop\n        /* \"#utility.yul\":3564:3657   */\n      tag_166\n        /* \"#utility.yul\":3653:3656   */\n      dup3\n        /* \"#utility.yul\":3564:3657   */\n      tag_167\n      jump\t// in\n    tag_166:\n        /* \"#utility.yul\":3682:3684   */\n      0x20\n        /* \"#utility.yul\":3677:3680   */\n      dup3\n        /* \"#utility.yul\":3673:3685   */\n      add\n        /* \"#utility.yul\":3666:3685   */\n      swap1\n      pop\n        /* \"#utility.yul\":3325:3691   */\n      swap2\n      swap1\n      pop\n      jump\t// out\n        /* \"#utility.yul\":3697:3823   */\n    tag_168:\n        /* \"#utility.yul\":3792:3816   */\n      tag_170\n        /* \"#utility.yul\":3810:3815   */\n      dup2\n        /* \"#utility.yul\":3792:3816   */\n      tag_171\n      jump\t// in\n    tag_170:\n        /* \"#utility.yul\":3787:3790   */\n      dup3\n        /* \"#utility.yul\":3780:3817   */\n      mstore\n        /* \"#utility.yul\":3697:3823   */\n      pop\n      pop\n      jump\t// out\n        /* \"#utility.yul\":3829:3952   */\n    tag_172:\n        /* \"#utility.yul\":3922:3945   */\n      tag_174\n        /* \"#utility.yul\":3939:3944   */\n      dup2\n        /* \"#utility.yul\":3922:3945   */\n      tag_175\n      jump\t// in\n    tag_174:\n        /* \"#utility.yul\":3917:3920   */\n      dup3\n        /* \"#utility.yul\":3910:3946   */\n      mstore\n        /* \"#utility.yul\":3829:3952   */\n      pop\n      pop\n      jump\t// out\n        /* \"#utility.yul\":3958:4196   */\n    tag_37:\n        /* \"#utility.yul\":4059:4063   */\n      0x00\n        /* \"#utility.yul\":4097:4099   */\n      0x20\n        /* \"#utility.yul\":4086:4095   */\n      dup3\n        /* \"#utility.yul\":4082:4100   */\n      add\n        /* \"#utility.yul\":4074:4100   */\n      swap1\n      pop\n        /* \"#utility.yul\":4110:4189   */\n      tag_177\n        /* \"#utility.yul\":4186:4187   */\n      0x00\n        /* \"#utility.yul\":4175:4184   */\n      dup4\n        /* \"#utility.yul\":4171:4188   */\n      add\n        /* \"#utility.yul\":4162:4168   */\n      dup5\n        /* \"#utility.yul\":4110:4189   */\n      tag_149\n      jump\t// in\n    tag_177:\n        /* \"#utility.yul\":3958:4196   */\n      swap3\n      swap2\n      pop\n      pop\n      jump\t// out\n        /* \"#utility.yul\":4202:4436   */\n    tag_31:\n        /* \"#utility.yul\":4301:4305   */\n      0x00\n        /* \"#utility.yul\":4339:4341   */\n      0x20\n        /* \"#utility.yul\":4328:4337   */\n      dup3\n        /* \"#utility.yul\":4324:4342   */\n      add\n        /* \"#utility.yul\":4316:4342   */\n      swap1\n      pop\n        /* \"#utility.yul\":4352:4429   */\n      tag_179\n        /* \"#utility.yul\":4426:4427   */\n      0x00\n        /* \"#utility.yul\":4415:4424   */\n      dup4\n        /* \"#utility.yul\":4411:4428   */\n      add\n        /* \"#utility.yul\":4402:4408   */\n      dup5\n        /* \"#utility.yul\":4352:4429   */\n      tag_153\n      jump\t// in\n    tag_179:\n        /* \"#utility.yul\":4202:4436   */\n      swap3\n      swap2\n      pop\n      pop\n      jump\t// out\n        /* \"#utility.yul\":4442:4861   */\n    tag_92:\n        /* \"#utility.yul\":4608:4612   */\n      0x00\n        /* \"#utility.yul\":4646:4648   */\n      0x20\n        /* \"#utility.yul\":4635:4644   */\n      dup3\n        /* \"#utility.yul\":4631:4649   */\n      add\n        /* \"#utility.yul\":4623:4649   */\n      swap1\n      pop\n        /* \"#utility.yul\":4695:4704   */\n      dup2\n        /* \"#utility.yul\":4689:4693   */\n      dup2\n        /* \"#utility.yul\":4685:4705   */\n      sub\n        /* \"#utility.yul\":4681:4682   */\n      0x00\n        /* \"#utility.yul\":4670:4679   */\n      dup4\n        /* \"#utility.yul\":4666:4683   */\n      add\n        /* \"#utility.yul\":4659:4706   */\n      mstore\n        /* \"#utility.yul\":4723:4854   */\n      tag_181\n        /* \"#utility.yul\":4849:4853   */\n      dup2\n        /* \"#utility.yul\":4723:4854   */\n      tag_157\n      jump\t// in\n    tag_181:\n        /* \"#utility.yul\":4715:4854   */\n      swap1\n      pop\n        /* \"#utility.yul\":4442:4861   */\n      swap2\n      swap1\n      pop\n      jump\t// out\n        /* \"#utility.yul\":4867:5286   */\n    tag_103:\n        /* \"#utility.yul\":5033:5037   */\n      0x00\n        /* \"#utility.yul\":5071:5073   */\n      0x20\n        /* \"#utility.yul\":5060:5069   */\n      dup3\n        /* \"#utility.yul\":5056:5074   */\n      add\n        /* \"#utility.yul\":5048:5074   */\n      swap1\n      pop\n        /* \"#utility.yul\":5120:5129   */\n      dup2\n        /* \"#utility.yul\":5114:5118   */\n      dup2\n        /* \"#utility.yul\":5110:5130   */\n      sub\n        /* \"#utility.yul\":5106:5107   */\n      0x00\n        /* \"#utility.yul\":5095:5104   */\n      dup4\n        /* \"#utility.yul\":5091:5108   */\n      add\n        /* \"#utility.yul\":5084:5131   */\n      mstore\n        /* \"#utility.yul\":5148:5279   */\n      tag_183\n        /* \"#utility.yul\":5274:5278   */\n      dup2\n        /* \"#utility.yul\":5148:5279   */\n      tag_163\n      jump\t// in\n    tag_183:\n        /* \"#utility.yul\":5140:5279   */\n      swap1\n      pop\n        /* \"#utility.yul\":4867:5286   */\n      swap2\n      swap1\n      pop\n      jump\t// out\n        /* \"#utility.yul\":5292:5530   */\n    tag_16:\n        /* \"#utility.yul\":5393:5397   */\n      0x00\n        /* \"#utility.yul\":5431:5433   */\n      0x20\n        /* \"#utility.yul\":5420:5429   */\n      dup3\n        /* \"#utility.yul\":5416:5434   */\n      add\n        /* \"#utility.yul\":5408:5434   */\n      swap1\n      pop\n        /* \"#utility.yul\":5444:5523   */\n      tag_185\n        /* \"#utility.yul\":5520:5521   */\n      0x00\n        /* \"#utility.yul\":5509:5518   */\n      dup4\n        /* \"#utility.yul\":5505:5522   */\n      add\n        /* \"#utility.yul\":5496:5502   */\n      dup5\n        /* \"#utility.yul\":5444:5523   */\n      tag_168\n      jump\t// in\n    tag_185:\n        /* \"#utility.yul\":5292:5530   */\n      swap3\n      swap2\n      pop\n      pop\n      jump\t// out\n        /* \"#utility.yul\":5536:5770   */\n    tag_22:\n        /* \"#utility.yul\":5635:5639   */\n      0x00\n        /* \"#utility.yul\":5673:5675   */\n      0x20\n        /* \"#utility.yul\":5662:5671   */\n      dup3\n        /* \"#utility.yul\":5658:5676   */\n      add\n        /* \"#utility.yul\":5650:5676   */\n      swap1\n      pop\n        /* \"#utility.yul\":5686:5763   */\n      tag_187\n        /* \"#utility.yul\":5760:5761   */\n      0x00\n        /* \"#utility.yul\":5749:5758   */\n      dup4\n        /* \"#utility.yul\":5745:5762   */\n      add\n        /* \"#utility.yul\":5736:5742   */\n      dup5\n        /* \"#utility.yul\":5686:5763   */\n      tag_172\n      jump\t// in\n    tag_187:\n        /* \"#utility.yul\":5536:5770   */\n      swap3\n      swap2\n      pop\n      pop\n      jump\t// out\n        /* \"#utility.yul\":5949:6045   */\n    tag_192:\n        /* \"#utility.yul\":6007:6013   */\n      0x00\n        /* \"#utility.yul\":6035:6038   */\n      dup3\n        /* \"#utility.yul\":6025:6038   */\n      swap1\n      pop\n        /* \"#utility.yul\":5949:6045   */\n      swap3\n      swap2\n      pop\n      pop\n      jump\t// out\n        /* \"#utility.yul\":6051:6220   */\n    tag_160:\n        /* \"#utility.yul\":6135:6146   */\n      0x00\n        /* \"#utility.yul\":6169:6175   */\n      dup3\n        /* \"#utility.yul\":6164:6167   */\n      dup3\n        /* \"#utility.yul\":6157:6176   */\n      mstore\n        /* \"#utility.yul\":6209:6213   */\n      0x20\n        /* \"#utility.yul\":6204:6207   */\n      dup3\n        /* \"#utility.yul\":6200:6214   */\n      add\n        /* \"#utility.yul\":6185:6214   */\n      swap1\n      pop\n        /* \"#utility.yul\":6051:6220   */\n      swap3\n      swap2\n      pop\n      pop\n      jump\t// out\n        /* \"#utility.yul\":6226:6695   */\n    tag_76:\n        /* \"#utility.yul\":6331:6340   */\n      0x00\n        /* \"#utility.yul\":6342:6351   */\n      dup1\n        /* \"#utility.yul\":6380:6388   */\n      dup6\n        /* \"#utility.yul\":6368:6378   */\n      dup6\n        /* \"#utility.yul\":6365:6389   */\n      gt\n        /* \"#utility.yul\":6362:6473   */\n      iszero\n      tag_196\n      jumpi\n        /* \"#utility.yul\":6392:6471   */\n      tag_197\n      tag_198\n      jump\t// in\n    tag_197:\n        /* \"#utility.yul\":6362:6473   */\n    tag_196:\n        /* \"#utility.yul\":6498:6504   */\n      dup4\n        /* \"#utility.yul\":6488:6496   */\n      dup7\n        /* \"#utility.yul\":6485:6505   */\n      gt\n        /* \"#utility.yul\":6482:6589   */\n      iszero\n      tag_199\n      jumpi\n        /* \"#utility.yul\":6508:6587   */\n      tag_200\n      tag_201\n      jump\t// in\n    tag_200:\n        /* \"#utility.yul\":6482:6589   */\n    tag_199:\n        /* \"#utility.yul\":6639:6640   */\n      0x01\n        /* \"#utility.yul\":6627:6637   */\n      dup6\n        /* \"#utility.yul\":6623:6641   */\n      mul\n        /* \"#utility.yul\":6615:6621   */\n      dup4\n        /* \"#utility.yul\":6611:6642   */\n      add\n        /* \"#utility.yul\":6598:6642   */\n      swap2\n      pop\n        /* \"#utility.yul\":6678:6688   */\n      dup5\n        /* \"#utility.yul\":6668:6676   */\n      dup7\n        /* \"#utility.yul\":6664:6689   */\n      sub\n        /* \"#utility.yul\":6651:6689   */\n      swap1\n      pop\n        /* \"#utility.yul\":6226:6695   */\n      swap5\n      pop\n      swap5\n      swap3\n      pop\n      pop\n      pop\n      jump\t// out\n        /* \"#utility.yul\":6701:7006   */\n    tag_74:\n        /* \"#utility.yul\":6741:6744   */\n      0x00\n        /* \"#utility.yul\":6760:6780   */\n      tag_203\n        /* \"#utility.yul\":6778:6779   */\n      dup3\n        /* \"#utility.yul\":6760:6780   */\n      tag_171\n      jump\t// in\n    tag_203:\n        /* \"#utility.yul\":6755:6780   */\n      swap2\n      pop\n        /* \"#utility.yul\":6794:6814   */\n      tag_204\n        /* \"#utility.yul\":6812:6813   */\n      dup4\n        /* \"#utility.yul\":6794:6814   */\n      tag_171\n      jump\t// in\n    tag_204:\n        /* \"#utility.yul\":6789:6814   */\n      swap3\n      pop\n        /* \"#utility.yul\":6948:6949   */\n      dup3\n        /* \"#utility.yul\":6880:6946   */\n      0xffffffffffffffffffffffffffffffffffffffffffffffffffffffffffffffff\n        /* \"#utility.yul\":6876:6950   */\n      sub\n        /* \"#utility.yul\":6873:6874   */\n      dup3\n        /* \"#utility.yul\":6870:6951   */\n      gt\n        /* \"#utility.yul\":6867:6974   */\n      iszero\n      tag_205\n      jumpi\n        /* \"#utility.yul\":6954:6972   */\n      tag_206\n      tag_207\n      jump\t// in\n    tag_206:\n        /* \"#utility.yul\":6867:6974   */\n    tag_205:\n        /* \"#utility.yul\":6998:6999   */\n      dup3\n        /* \"#utility.yul\":6995:6996   */\n      dup3\n        /* \"#utility.yul\":6991:7000   */\n      add\n        /* \"#utility.yul\":6984:7000   */\n      swap1\n      pop\n        /* \"#utility.yul\":6701:7006   */\n      swap3\n      swap2\n      pop\n      pop\n      jump\t// out\n        /* \"#utility.yul\":7012:7197   */\n    tag_100:\n        /* \"#utility.yul\":7052:7053   */\n      0x00\n        /* \"#utility.yul\":7069:7089   */\n      tag_209\n        /* \"#utility.yul\":7087:7088   */\n      dup3\n        /* \"#utility.yul\":7069:7089   */\n      tag_171\n      jump\t// in\n    tag_209:\n        /* \"#utility.yul\":7064:7089   */\n      swap2\n      pop\n        /* \"#utility.yul\":7103:7123   */\n      tag_210\n        /* \"#utility.yul\":7121:7122   */\n      dup4\n        /* \"#utility.yul\":7103:7123   */\n      tag_171\n      jump\t// in\n    tag_210:\n        /* \"#utility.yul\":7098:7123   */\n      swap3\n      pop\n        /* \"#utility.yul\":7142:7143   */\n      dup3\n        /* \"#utility.yul\":7132:7167   */\n      tag_211\n      jumpi\n        /* \"#utility.yul\":7147:7165   */\n      tag_212\n      tag_213\n      jump\t// in\n    tag_212:\n        /* \"#utility.yul\":7132:7167   */\n    tag_211:\n        /* \"#utility.yul\":7189:7190   */\n      dup3\n        /* \"#utility.yul\":7186:7187   */\n      dup3\n        /* \"#utility.yul\":7182:7191   */\n      div\n        /* \"#utility.yul\":7177:7191   */\n      swap1\n      pop\n        /* \"#utility.yul\":7012:7197   */\n      swap3\n      swap2\n      pop\n      pop\n      jump\t// out\n        /* \"#utility.yul\":7203:8051   */\n    tag_214:\n        /* \"#utility.yul\":7264:7269   */\n      0x00\n        /* \"#utility.yul\":7271:7275   */\n      dup1\n        /* \"#utility.yul\":7295:7301   */\n      dup3\n        /* \"#utility.yul\":7286:7301   */\n      swap2\n      pop\n        /* \"#utility.yul\":7319:7324   */\n      dup4\n        /* \"#utility.yul\":7310:7324   */\n      swap1\n      pop\n        /* \"#utility.yul\":7333:8045   */\n    tag_216:\n        /* \"#utility.yul\":7354:7355   */\n      0x01\n        /* \"#utility.yul\":7344:7352   */\n      dup6\n        /* \"#utility.yul\":7341:7356   */\n      gt\n        /* \"#utility.yul\":7333:8045   */\n      iszero\n      tag_218\n      jumpi\n        /* \"#utility.yul\":7449:7453   */\n      dup1\n        /* \"#utility.yul\":7444:7447   */\n      dup7\n        /* \"#utility.yul\":7440:7454   */\n      div\n        /* \"#utility.yul\":7434:7438   */\n      dup2\n        /* \"#utility.yul\":7431:7455   */\n      gt\n        /* \"#utility.yul\":7428:7478   */\n      iszero\n      tag_219\n      jumpi\n        /* \"#utility.yul\":7458:7476   */\n      tag_220\n      tag_207\n      jump\t// in\n    tag_220:\n        /* \"#utility.yul\":7428:7478   */\n    tag_219:\n        /* \"#utility.yul\":7508:7509   */\n      0x01\n        /* \"#utility.yul\":7498:7506   */\n      dup6\n        /* \"#utility.yul\":7494:7510   */\n      and\n        /* \"#utility.yul\":7491:7942   */\n      iszero\n      tag_221\n      jumpi\n        /* \"#utility.yul\":7923:7927   */\n      dup1\n        /* \"#utility.yul\":7916:7921   */\n      dup3\n        /* \"#utility.yul\":7912:7928   */\n      mul\n        /* \"#utility.yul\":7903:7928   */\n      swap2\n      pop\n        /* \"#utility.yul\":7491:7942   */\n    tag_221:\n        /* \"#utility.yul\":7973:7977   */\n      dup1\n        /* \"#utility.yul\":7967:7971   */\n      dup2\n        /* \"#utility.yul\":7963:7978   */\n      mul\n        /* \"#utility.yul\":7955:7978   */\n      swap1\n      pop\n        /* \"#utility.yul\":8003:8035   */\n      tag_222\n        /* \"#utility.yul\":8026:8034   */\n      dup6\n        /* \"#utility.yul\":8003:8035   */\n      tag_223\n      jump\t// in\n    tag_222:\n        /* \"#utility.yul\":7991:8035   */\n      swap5\n      pop\n        /* \"#utility.yul\":7333:8045   */\n      jump(tag_216)\n    tag_218:\n        /* \"#utility.yul\":7203:8051   */\n      swap5\n      pop\n      swap5\n      swap3\n      pop\n      pop\n      pop\n      jump\t// out\n        /* \"#utility.yul\":8057:8342   */\n    tag_54:\n        /* \"#utility.yul\":8117:8122   */\n      0x00\n        /* \"#utility.yul\":8141:8164   */\n      tag_225\n        /* \"#utility.yul\":8159:8163   */\n      dup3\n        /* \"#utility.yul\":8141:8164   */\n      tag_171\n      jump\t// in\n    tag_225:\n        /* \"#utility.yul\":8133:8164   */\n      swap2\n      pop\n        /* \"#utility.yul\":8185:8212   */\n      tag_226\n        /* \"#utility.yul\":8203:8211   */\n      dup4\n        /* \"#utility.yul\":8185:8212   */\n      tag_171\n      jump\t// in\n    tag_226:\n        /* \"#utility.yul\":8173:8212   */\n      swap3\n      pop\n        /* \"#utility.yul\":8231:8335   */\n      tag_227\n        /* \"#utility.yul\":8268:8334   */\n      0xffffffffffffffffffffffffffffffffffffffffffffffffffffffffffffffff\n        /* \"#utility.yul\":8258:8266   */\n      dup5\n        /* \"#utility.yul\":8252:8256   */\n      dup5\n        /* \"#utility.yul\":8231:8335   */\n      tag_228\n      jump\t// in\n    tag_227:\n        /* \"#utility.yul\":8222:8335   */\n      swap1\n      pop\n        /* \"#utility.yul\":8057:8342   */\n      swap3\n      swap2\n      pop\n      pop\n      jump\t// out\n        /* \"#utility.yul\":8348:9421   */\n    tag_228:\n        /* \"#utility.yul\":8402:8407   */\n      0x00\n        /* \"#utility.yul\":8593:8601   */\n      dup3\n        /* \"#utility.yul\":8583:8623   */\n      tag_230\n      jumpi\n        /* \"#utility.yul\":8614:8615   */\n      0x01\n        /* \"#utility.yul\":8605:8615   */\n      swap1\n      pop\n        /* \"#utility.yul\":8616:8621   */\n      jump(tag_229)\n        /* \"#utility.yul\":8583:8623   */\n    tag_230:\n        /* \"#utility.yul\":8642:8646   */\n      dup2\n        /* \"#utility.yul\":8632:8668   */\n      tag_231\n      jumpi\n        /* \"#utility.yul\":8659:8660   */\n      0x00\n        /* \"#utility.yul\":8650:8660   */\n      swap1\n      pop\n        /* \"#utility.yul\":8661:8666   */\n      jump(tag_229)\n        /* \"#utility.yul\":8632:8668   */\n    tag_231:\n        /* \"#utility.yul\":8728:8732   */\n      dup2\n        /* \"#utility.yul\":8776:8777   */\n      0x01\n        /* \"#utility.yul\":8771:8798   */\n      dup2\n      eq\n      tag_233\n      jumpi\n        /* \"#utility.yul\":8812:8813   */\n      0x02\n        /* \"#utility.yul\":8807:8998   */\n      dup2\n      eq\n      tag_234\n      jumpi\n        /* \"#utility.yul\":8721:8998   */\n      jump(tag_232)\n        /* \"#utility.yul\":8771:8798   */\n    tag_233:\n        /* \"#utility.yul\":8789:8790   */\n      0x01\n        /* \"#utility.yul\":8780:8790   */\n      swap2\n      pop\n        /* \"#utility.yul\":8791:8796   */\n      pop\n      jump(tag_229)\n        /* \"#utility.yul\":8807:8998   */\n    tag_234:\n        /* \"#utility.yul\":8852:8855   */\n      0xff\n        /* \"#utility.yul\":8842:8850   */\n      dup5\n        /* \"#utility.yul\":8839:8856   */\n      gt\n        /* \"#utility.yul\":8836:8879   */\n      iszero\n      tag_235\n      jumpi\n        /* \"#utility.yul\":8859:8877   */\n      tag_236\n      tag_207\n      jump\t// in\n    tag_236:\n        /* \"#utility.yul\":8836:8879   */\n    tag_235:\n        /* \"#utility.yul\":8908:8916   */\n      dup4\n        /* \"#utility.yul\":8905:8906   */\n      0x02\n        /* \"#utility.yul\":8901:8917   */\n      exp\n        /* \"#utility.yul\":8892:8917   */\n      swap2\n      pop\n        /* \"#utility.yul\":8943:8946   */\n      dup5\n        /* \"#utility.yul\":8936:8941   */\n      dup3\n        /* \"#utility.yul\":8933:8947   */\n      gt\n        /* \"#utility.yul\":8930:8970   */\n      iszero\n      tag_237\n      jumpi\n        /* \"#utility.yul\":8950:8968   */\n      tag_238\n      tag_207\n      jump\t// in\n    tag_238:\n        /* \"#utility.yul\":8930:8970   */\n    tag_237:\n        /* \"#utility.yul\":8983:8988   */\n      pop\n      jump(tag_229)\n        /* \"#utility.yul\":8721:8998   */\n    tag_232:\n      pop\n        /* \"#utility.yul\":9107:9109   */\n      0x20\n        /* \"#utility.yul\":9097:9105   */\n      dup4\n        /* \"#utility.yul\":9094:9110   */\n      lt\n        /* \"#utility.yul\":9088:9091   */\n      0x0133\n        /* \"#utility.yul\":9082:9086   */\n      dup4\n        /* \"#utility.yul\":9079:9092   */\n      lt\n        /* \"#utility.yul\":9075:9111   */\n      and\n        /* \"#utility.yul\":9057:9059   */\n      0x4e\n        /* \"#utility.yul\":9047:9055   */\n      dup5\n        /* \"#utility.yul\":9044:9060   */\n      lt\n        /* \"#utility.yul\":9039:9041   */\n      0x0b\n        /* \"#utility.yul\":9033:9037   */\n      dup5\n        /* \"#utility.yul\":9030:9042   */\n      lt\n        /* \"#utility.yul\":9026:9061   */\n      and\n        /* \"#utility.yul\":9010:9121   */\n      or\n        /* \"#utility.yul\":9007:9253   */\n      iszero\n      tag_239\n      jumpi\n        /* \"#utility.yul\":9163:9171   */\n      dup3\n        /* \"#utility.yul\":9157:9161   */\n      dup3\n        /* \"#utility.yul\":9153:9172   */\n      exp\n        /* \"#utility.yul\":9144:9172   */\n      swap1\n      pop\n        /* \"#utility.yul\":9198:9201   */\n      dup4\n        /* \"#utility.yul\":9191:9196   */\n      dup2\n        /* \"#utility.yul\":9188:9202   */\n      gt\n        /* \"#utility.yul\":9185:9225   */\n      iszero\n      tag_240\n      jumpi\n        /* \"#utility.yul\":9205:9223   */\n      tag_241\n      tag_207\n      jump\t// in\n    tag_241:\n        /* \"#utility.yul\":9185:9225   */\n    tag_240:\n        /* \"#utility.yul\":9238:9243   */\n      jump(tag_229)\n        /* \"#utility.yul\":9007:9253   */\n    tag_239:\n        /* \"#utility.yul\":9278:9320   */\n      tag_242\n        /* \"#utility.yul\":9316:9319   */\n      dup5\n        /* \"#utility.yul\":9306:9314   */\n      dup5\n        /* \"#utility.yul\":9300:9304   */\n      dup5\n        /* \"#utility.yul\":9297:9298   */\n      0x01\n        /* \"#utility.yul\":9278:9320   */\n      tag_214\n      jump\t// in\n    tag_242:\n        /* \"#utility.yul\":9263:9320   */\n      swap3\n      pop\n      swap1\n      pop\n        /* \"#utility.yul\":9352:9356   */\n      dup2\n        /* \"#utility.yul\":9347:9350   */\n      dup5\n        /* \"#utility.yul\":9343:9357   */\n      div\n        /* \"#utility.yul\":9336:9341   */\n      dup2\n        /* \"#utility.yul\":9333:9358   */\n      gt\n        /* \"#utility.yul\":9330:9381   */\n      iszero\n      tag_243\n      jumpi\n        /* \"#utility.yul\":9361:9379   */\n      tag_244\n      tag_207\n      jump\t// in\n    tag_244:\n        /* \"#utility.yul\":9330:9381   */\n    tag_243:\n        /* \"#utility.yul\":9410:9414   */\n      dup2\n        /* \"#utility.yul\":9403:9408   */\n      dup2\n        /* \"#utility.yul\":9399:9415   */\n      mul\n        /* \"#utility.yul\":9390:9415   */\n      swap1\n      pop\n        /* \"#utility.yul\":8348:9421   */\n    tag_229:\n      swap4\n      swap3\n      pop\n      pop\n      pop\n      jump\t// out\n        /* \"#utility.yul\":9427:9775   */\n    tag_98:\n        /* \"#utility.yul\":9467:9474   */\n      0x00\n        /* \"#utility.yul\":9490:9510   */\n      tag_246\n        /* \"#utility.yul\":9508:9509   */\n      dup3\n        /* \"#utility.yul\":9490:9510   */\n      tag_171\n      jump\t// in\n    tag_246:\n        /* \"#utility.yul\":9485:9510   */\n      swap2\n      pop\n        /* \"#utility.yul\":9524:9544   */\n      tag_247\n        /* \"#utility.yul\":9542:9543   */\n      dup4\n        /* \"#utility.yul\":9524:9544   */\n      tag_171\n      jump\t// in\n    tag_247:\n        /* \"#utility.yul\":9519:9544   */\n      swap3\n      pop\n        /* \"#utility.yul\":9712:9713   */\n      dup2\n        /* \"#utility.yul\":9644:9710   */\n      0xffffffffffffffffffffffffffffffffffffffffffffffffffffffffffffffff\n        /* \"#utility.yul\":9640:9714   */\n      div\n        /* \"#utility.yul\":9637:9638   */\n      dup4\n        /* \"#utility.yul\":9634:9715   */\n      gt\n        /* \"#utility.yul\":9629:9630   */\n      dup3\n        /* \"#utility.yul\":9622:9631   */\n      iszero\n        /* \"#utility.yul\":9615:9632   */\n      iszero\n        /* \"#utility.yul\":9611:9716   */\n      and\n        /* \"#utility.yul\":9608:9739   */\n      iszero\n      tag_248\n      jumpi\n        /* \"#utility.yul\":9719:9737   */\n      tag_249\n      tag_207\n      jump\t// in\n    tag_249:\n        /* \"#utility.yul\":9608:9739   */\n    tag_248:\n        /* \"#utility.yul\":9767:9768   */\n      dup3\n        /* \"#utility.yul\":9764:9765   */\n      dup3\n        /* \"#utility.yul\":9760:9769   */\n      mul\n        /* \"#utility.yul\":9749:9769   */\n      swap1\n      pop\n        /* \"#utility.yul\":9427:9775   */\n      swap3\n      swap2\n      pop\n      pop\n      jump\t// out\n        /* \"#utility.yul\":9781:10070   */\n    tag_66:\n        /* \"#utility.yul\":9820:9827   */\n      0x00\n        /* \"#utility.yul\":9843:9862   */\n      tag_251\n        /* \"#utility.yul\":9860:9861   */\n      dup3\n        /* \"#utility.yul\":9843:9862   */\n      tag_175\n      jump\t// in\n    tag_251:\n        /* \"#utility.yul\":9838:9862   */\n      swap2\n      pop\n        /* \"#utility.yul\":9876:9895   */\n      tag_252\n        /* \"#utility.yul\":9893:9894   */\n      dup4\n        /* \"#utility.yul\":9876:9895   */\n      tag_175\n      jump\t// in\n    tag_252:\n        /* \"#utility.yul\":9871:9895   */\n      swap3\n      pop\n        /* \"#utility.yul\":10007:10008   */\n      dup2\n        /* \"#utility.yul\":9995:10005   */\n      0xffffffff\n        /* \"#utility.yul\":9991:10009   */\n      div\n        /* \"#utility.yul\":9988:9989   */\n      dup4\n        /* \"#utility.yul\":9985:10010   */\n      gt\n        /* \"#utility.yul\":9980:9981   */\n      dup3\n        /* \"#utility.yul\":9973:9982   */\n      iszero\n        /* \"#utility.yul\":9966:9983   */\n      iszero\n        /* \"#utility.yul\":9962:10011   */\n      and\n        /* \"#utility.yul\":9959:10034   */\n      iszero\n      tag_253\n      jumpi\n        /* \"#utility.yul\":10014:10032   */\n      tag_254\n      tag_207\n      jump\t// in\n    tag_254:\n        /* \"#utility.yul\":9959:10034   */\n    tag_253:\n        /* \"#utility.yul\":10062:10063   */\n      dup3\n        /* \"#utility.yul\":10059:10060   */\n      dup3\n        /* \"#utility.yul\":10055:10064   */\n      mul\n        /* \"#utility.yul\":10044:10064   */\n      swap1\n      pop\n        /* \"#utility.yul\":9781:10070   */\n      swap3\n      swap2\n      pop\n      pop\n      jump\t// out\n        /* \"#utility.yul\":10076:10267   */\n    tag_94:\n        /* \"#utility.yul\":10116:10120   */\n      0x00\n        /* \"#utility.yul\":10136:10156   */\n      tag_256\n        /* \"#utility.yul\":10154:10155   */\n      dup3\n        /* \"#utility.yul\":10136:10156   */\n      tag_171\n      jump\t// in\n    tag_256:\n        /* \"#utility.yul\":10131:10156   */\n      swap2\n      pop\n        /* \"#utility.yul\":10170:10190   */\n      tag_257\n        /* \"#utility.yul\":10188:10189   */\n      dup4\n        /* \"#utility.yul\":10170:10190   */\n      tag_171\n      jump\t// in\n    tag_257:\n        /* \"#utility.yul\":10165:10190   */\n      swap3\n      pop\n        /* \"#utility.yul\":10209:10210   */\n      dup3\n        /* \"#utility.yul\":10206:10207   */\n      dup3\n        /* \"#utility.yul\":10203:10211   */\n      lt\n        /* \"#utility.yul\":10200:10234   */\n      iszero\n      tag_258\n      jumpi\n        /* \"#utility.yul\":10214:10232   */\n      tag_259\n      tag_207\n      jump\t// in\n    tag_259:\n        /* \"#utility.yul\":10200:10234   */\n    tag_258:\n        /* \"#utility.yul\":10259:10260   */\n      dup3\n        /* \"#utility.yul\":10256:10257   */\n      dup3\n        /* \"#utility.yul\":10252:10261   */\n      sub\n        /* \"#utility.yul\":10244:10261   */\n      swap1\n      pop\n        /* \"#utility.yul\":10076:10267   */\n      swap3\n      swap2\n      pop\n      pop\n      jump\t// out\n        /* \"#utility.yul\":10273:10461   */\n    tag_64:\n        /* \"#utility.yul\":10312:10316   */\n      0x00\n        /* \"#utility.yul\":10332:10351   */\n      tag_261\n        /* \"#utility.yul\":10349:10350   */\n      dup3\n        /* \"#utility.yul\":10332:10351   */\n      tag_175\n      jump\t// in\n    tag_261:\n        /* \"#utility.yul\":10327:10351   */\n      swap2\n      pop\n        /* \"#utility.yul\":10365:10384   */\n      tag_262\n        /* \"#utility.yul\":10382:10383   */\n      dup4\n        /* \"#utility.yul\":10365:10384   */\n      tag_175\n      jump\t// in\n    tag_262:\n        /* \"#utility.yul\":10360:10384   */\n      swap3\n      pop\n        /* \"#utility.yul\":10403:10404   */\n      dup3\n        /* \"#utility.yul\":10400:10401   */\n      dup3\n        /* \"#utility.yul\":10397:10405   */\n      lt\n        /* \"#utility.yul\":10394:10428   */\n      iszero\n      tag_263\n      jumpi\n        /* \"#utility.yul\":10408:10426   */\n      tag_264\n      tag_207\n      jump\t// in\n    tag_264:\n        /* \"#utility.yul\":10394:10428   */\n    tag_263:\n        /* \"#utility.yul\":10453:10454   */\n      dup3\n        /* \"#utility.yul\":10450:10451   */\n      dup3\n        /* \"#utility.yul\":10446:10455   */\n      sub\n        /* \"#utility.yul\":10438:10455   */\n      swap1\n      pop\n        /* \"#utility.yul\":10273:10461   */\n      swap3\n      swap2\n      pop\n      pop\n      jump\t// out\n        /* \"#utility.yul\":10467:10544   */\n    tag_152:\n        /* \"#utility.yul\":10504:10511   */\n      0x00\n        /* \"#utility.yul\":10533:10538   */\n      dup2\n        /* \"#utility.yul\":10522:10538   */\n      swap1\n      pop\n        /* \"#utility.yul\":10467:10544   */\n      swap2\n      swap1\n      pop\n      jump\t// out\n        /* \"#utility.yul\":10550:10699   */\n    tag_156:\n        /* \"#utility.yul\":10586:10593   */\n      0x00\n        /* \"#utility.yul\":10626:10692   */\n      0xffffffff00000000000000000000000000000000000000000000000000000000\n        /* \"#utility.yul\":10619:10624   */\n      dup3\n        /* \"#utility.yul\":10615:10693   */\n      and\n        /* \"#utility.yul\":10604:10693   */\n      swap1\n      pop\n        /* \"#utility.yul\":10550:10699   */\n      swap2\n      swap1\n      pop\n      jump\t// out\n        /* \"#utility.yul\":10705:10782   */\n    tag_171:\n        /* \"#utility.yul\":10742:10749   */\n      0x00\n        /* \"#utility.yul\":10771:10776   */\n      dup2\n        /* \"#utility.yul\":10760:10776   */\n      swap1\n      pop\n        /* \"#utility.yul\":10705:10782   */\n      swap2\n      swap1\n      pop\n      jump\t// out\n        /* \"#utility.yul\":10788:10881   */\n    tag_175:\n        /* \"#utility.yul\":10824:10831   */\n      0x00\n        /* \"#utility.yul\":10864:10874   */\n      0xffffffff\n        /* \"#utility.yul\":10857:10862   */\n      dup3\n        /* \"#utility.yul\":10853:10875   */\n      and\n        /* \"#utility.yul\":10842:10875   */\n      swap1\n      pop\n        /* \"#utility.yul\":10788:10881   */\n      swap2\n      swap1\n      pop\n      jump\t// out\n        /* \"#utility.yul\":10887:11439   */\n    tag_84:\n        /* \"#utility.yul\":10978:10983   */\n      0x00\n        /* \"#utility.yul\":11009:11054   */\n      tag_270\n        /* \"#utility.yul\":11050:11053   */\n      dup4\n        /* \"#utility.yul\":11043:11048   */\n      dup4\n        /* \"#utility.yul\":11009:11054   */\n      tag_192\n      jump\t// in\n    tag_270:\n        /* \"#utility.yul\":11079:11084   */\n      dup3\n        /* \"#utility.yul\":11103:11144   */\n      tag_271\n        /* \"#utility.yul\":11134:11142   */\n      dup2\n        /* \"#utility.yul\":11121:11143   */\n      calldataload\n        /* \"#utility.yul\":11103:11144   */\n      tag_152\n      jump\t// in\n    tag_271:\n        /* \"#utility.yul\":11094:11144   */\n      swap3\n      pop\n        /* \"#utility.yul\":11168:11170   */\n      0x20\n        /* \"#utility.yul\":11160:11166   */\n      dup3\n        /* \"#utility.yul\":11157:11171   */\n      lt\n        /* \"#utility.yul\":11154:11432   */\n      iszero\n      tag_272\n      jumpi\n        /* \"#utility.yul\":11239:11408   */\n      tag_273\n        /* \"#utility.yul\":11324:11390   */\n      0xffffffffffffffffffffffffffffffffffffffffffffffffffffffffffffffff\n        /* \"#utility.yul\":11294:11300   */\n      dup4\n        /* \"#utility.yul\":11290:11292   */\n      0x20\n        /* \"#utility.yul\":11286:11301   */\n      sub\n        /* \"#utility.yul\":11283:11284   */\n      0x08\n        /* \"#utility.yul\":11279:11302   */\n      mul\n        /* \"#utility.yul\":11239:11408   */\n      tag_274\n      jump\t// in\n    tag_273:\n        /* \"#utility.yul\":11216:11221   */\n      dup4\n        /* \"#utility.yul\":11195:11422   */\n      and\n        /* \"#utility.yul\":11186:11422   */\n      swap3\n      pop\n        /* \"#utility.yul\":11154:11432   */\n    tag_272:\n        /* \"#utility.yul\":10984:11439   */\n      pop\n      pop\n        /* \"#utility.yul\":10887:11439   */\n      swap3\n      swap2\n      pop\n      pop\n      jump\t// out\n        /* \"#utility.yul\":11445:11993   */\n    tag_78:\n        /* \"#utility.yul\":11535:11540   */\n      0x00\n        /* \"#utility.yul\":11566:11611   */\n      tag_276\n        /* \"#utility.yul\":11607:11610   */\n      dup4\n        /* \"#utility.yul\":11600:11605   */\n      dup4\n        /* \"#utility.yul\":11566:11611   */\n      tag_192\n      jump\t// in\n    tag_276:\n        /* \"#utility.yul\":11636:11641   */\n      dup3\n        /* \"#utility.yul\":11660:11700   */\n      tag_277\n        /* \"#utility.yul\":11690:11698   */\n      dup2\n        /* \"#utility.yul\":11677:11699   */\n      calldataload\n        /* \"#utility.yul\":11660:11700   */\n      tag_156\n      jump\t// in\n    tag_277:\n        /* \"#utility.yul\":11651:11700   */\n      swap3\n      pop\n        /* \"#utility.yul\":11724:11725   */\n      0x04\n        /* \"#utility.yul\":11716:11722   */\n      dup3\n        /* \"#utility.yul\":11713:11726   */\n      lt\n        /* \"#utility.yul\":11710:11986   */\n      iszero\n      tag_278\n      jumpi\n        /* \"#utility.yul\":11794:11962   */\n      tag_279\n        /* \"#utility.yul\":11878:11944   */\n      0xffffffff00000000000000000000000000000000000000000000000000000000\n        /* \"#utility.yul\":11848:11854   */\n      dup4\n        /* \"#utility.yul\":11845:11846   */\n      0x04\n        /* \"#utility.yul\":11841:11855   */\n      sub\n        /* \"#utility.yul\":11838:11839   */\n      0x08\n        /* \"#utility.yul\":11834:11856   */\n      mul\n        /* \"#utility.yul\":11794:11962   */\n      tag_274\n      jump\t// in\n    tag_279:\n        /* \"#utility.yul\":11771:11776   */\n      dup4\n        /* \"#utility.yul\":11750:11976   */\n      and\n        /* \"#utility.yul\":11741:11976   */\n      swap3\n      pop\n        /* \"#utility.yul\":11710:11986   */\n    tag_278:\n        /* \"#utility.yul\":11541:11993   */\n      pop\n      pop\n        /* \"#utility.yul\":11445:11993   */\n      swap3\n      swap2\n      pop\n      pop\n      jump\t// out\n        /* \"#utility.yul\":11999:12174   */\n    tag_61:\n        /* \"#utility.yul\":12037:12040   */\n      0x00\n        /* \"#utility.yul\":12060:12083   */\n      tag_281\n        /* \"#utility.yul\":12077:12082   */\n      dup3\n        /* \"#utility.yul\":12060:12083   */\n      tag_175\n      jump\t// in\n    tag_281:\n        /* \"#utility.yul\":12051:12083   */\n      swap2\n      pop\n        /* \"#utility.yul\":12105:12115   */\n      0xffffffff\n        /* \"#utility.yul\":12098:12103   */\n      dup3\n        /* \"#utility.yul\":12095:12116   */\n      eq\n        /* \"#utility.yul\":12092:12139   */\n      iszero\n      tag_282\n      jumpi\n        /* \"#utility.yul\":12119:12137   */\n      tag_283\n      tag_207\n      jump\t// in\n    tag_283:\n        /* \"#utility.yul\":12092:12139   */\n    tag_282:\n        /* \"#utility.yul\":12166:12167   */\n      0x01\n        /* \"#utility.yul\":12159:12164   */\n      dup3\n        /* \"#utility.yul\":12155:12168   */\n      add\n        /* \"#utility.yul\":12148:12168   */\n      swap1\n      pop\n        /* \"#utility.yul\":11999:12174   */\n      swap2\n      swap1\n      pop\n      jump\t// out\n        /* \"#utility.yul\":12180:12360   */\n    tag_207:\n        /* \"#utility.yul\":12228:12305   */\n      0x4e487b7100000000000000000000000000000000000000000000000000000000\n        /* \"#utility.yul\":12225:12226   */\n      0x00\n        /* \"#utility.yul\":12218:12306   */\n      mstore\n        /* \"#utility.yul\":12325:12329   */\n      0x11\n        /* \"#utility.yul\":12322:12323   */\n      0x04\n        /* \"#utility.yul\":12315:12330   */\n      mstore\n        /* \"#utility.yul\":12349:12353   */\n      0x24\n        /* \"#utility.yul\":12346:12347   */\n      0x00\n        /* \"#utility.yul\":12339:12354   */\n      revert\n        /* \"#utility.yul\":12366:12546   */\n    tag_213:\n        /* \"#utility.yul\":12414:12491   */\n      0x4e487b7100000000000000000000000000000000000000000000000000000000\n        /* \"#utility.yul\":12411:12412   */\n      0x00\n        /* \"#utility.yul\":12404:12492   */\n      mstore\n        /* \"#utility.yul\":12511:12515   */\n      0x12\n        /* \"#utility.yul\":12508:12509   */\n      0x04\n        /* \"#utility.yul\":12501:12516   */\n      mstore\n        /* \"#utility.yul\":12535:12539   */\n      0x24\n        /* \"#utility.yul\":12532:12533   */\n      0x00\n        /* \"#utility.yul\":12525:12540   */\n      revert\n        /* \"#utility.yul\":12552:12669   */\n    tag_120:\n        /* \"#utility.yul\":12661:12662   */\n      0x00\n        /* \"#utility.yul\":12658:12659   */\n      dup1\n        /* \"#utility.yul\":12651:12663   */\n      revert\n        /* \"#utility.yul\":12675:12792   */\n    tag_117:\n        /* \"#utility.yul\":12784:12785   */\n      0x00\n        /* \"#utility.yul\":12781:12782   */\n      dup1\n        /* \"#utility.yul\":12774:12786   */\n      revert\n        /* \"#utility.yul\":12798:12915   */\n    tag_201:\n        /* \"#utility.yul\":12907:12908   */\n      0x00\n        /* \"#utility.yul\":12904:12905   */\n      dup1\n        /* \"#utility.yul\":12897:12909   */\n      revert\n        /* \"#utility.yul\":12921:13038   */\n    tag_198:\n        /* \"#utility.yul\":13030:13031   */\n      0x00\n        /* \"#utility.yul\":13027:13028   */\n      dup1\n        /* \"#utility.yul\":13020:13032   */\n      revert\n        /* \"#utility.yul\":13044:13161   */\n    tag_123:\n        /* \"#utility.yul\":13153:13154   */\n      0x00\n        /* \"#utility.yul\":13150:13151   */\n      dup1\n        /* \"#utility.yul\":13143:13155   */\n      revert\n        /* \"#utility.yul\":13167:13284   */\n    tag_142:\n        /* \"#utility.yul\":13276:13277   */\n      0x00\n        /* \"#utility.yul\":13273:13274   */\n      dup1\n        /* \"#utility.yul\":13266:13278   */\n      revert\n        /* \"#utility.yul\":13290:13407   */\n    tag_131:\n        /* \"#utility.yul\":13399:13400   */\n      0x00\n        /* \"#utility.yul\":13396:13397   */\n      dup1\n        /* \"#utility.yul\":13389:13401   */\n      revert\n        /* \"#utility.yul\":13413:13520   */\n    tag_274:\n        /* \"#utility.yul\":13457:13465   */\n      0x00\n        /* \"#utility.yul\":13507:13512   */\n      dup3\n        /* \"#utility.yul\":13501:13505   */\n      dup3\n        /* \"#utility.yul\":13497:13513   */\n      shl\n        /* \"#utility.yul\":13476:13513   */\n      swap1\n      pop\n        /* \"#utility.yul\":13413:13520   */\n      swap3\n      swap2\n      pop\n      pop\n      jump\t// out\n        /* \"#utility.yul\":13526:13628   */\n    tag_223:\n        /* \"#utility.yul\":13568:13576   */\n      0x00\n        /* \"#utility.yul\":13615:13620   */\n      dup2\n        /* \"#utility.yul\":13612:13613   */\n      0x01\n        /* \"#utility.yul\":13608:13621   */\n      shr\n        /* \"#utility.yul\":13587:13621   */\n      swap1\n      pop\n        /* \"#utility.yul\":13526:13628   */\n      swap2\n      swap1\n      pop\n      jump\t// out\n        /* \"#utility.yul\":13634:13813   */\n    tag_162:\n        /* \"#utility.yul\":13774:13805   */\n      0x556e646572666c6f7720647572696e67207375627472616374696f6e2e000000\n        /* \"#utility.yul\":13770:13771   */\n      0x00\n        /* \"#utility.yul\":13762:13768   */\n      dup3\n        /* \"#utility.yul\":13758:13772   */\n      add\n        /* \"#utility.yul\":13751:13806   */\n      mstore\n        /* \"#utility.yul\":13634:13813   */\n      pop\n      jump\t// out\n        /* \"#utility.yul\":13819:14000   */\n    tag_167:\n        /* \"#utility.yul\":13959:13992   */\n      0x4f766572666c6f7720647572696e67206d756c7469706c69636174696f6e2e00\n        /* \"#utility.yul\":13955:13956   */\n      0x00\n        /* \"#utility.yul\":13947:13953   */\n      dup3\n        /* \"#utility.yul\":13943:13957   */\n      add\n        /* \"#utility.yul\":13936:13993   */\n      mstore\n        /* \"#utility.yul\":13819:14000   */\n      pop\n      jump\t// out\n        /* \"#utility.yul\":14006:14128   */\n    tag_108:\n        /* \"#utility.yul\":14079:14103   */\n      tag_298\n        /* \"#utility.yul\":14097:14102   */\n      dup2\n        /* \"#utility.yul\":14079:14103   */\n      tag_152\n      jump\t// in\n    tag_298:\n        /* \"#utility.yul\":14072:14077   */\n      dup2\n        /* \"#utility.yul\":14069:14104   */\n      eq\n        /* \"#utility.yul\":14059:14122   */\n      tag_299\n      jumpi\n        /* \"#utility.yul\":14118:14119   */\n      0x00\n        /* \"#utility.yul\":14115:14116   */\n      dup1\n        /* \"#utility.yul\":14108:14120   */\n      revert\n        /* \"#utility.yul\":14059:14122   */\n    tag_299:\n        /* \"#utility.yul\":14006:14128   */\n      pop\n      jump\t// out\n        /* \"#utility.yul\":14134:14254   */\n    tag_112:\n        /* \"#utility.yul\":14206:14229   */\n      tag_301\n        /* \"#utility.yul\":14223:14228   */\n      dup2\n        /* \"#utility.yul\":14206:14229   */\n      tag_156\n      jump\t// in\n    tag_301:\n        /* \"#utility.yul\":14199:14204   */\n      dup2\n        /* \"#utility.yul\":14196:14230   */\n      eq\n        /* \"#utility.yul\":14186:14248   */\n      tag_302\n      jumpi\n        /* \"#utility.yul\":14244:14245   */\n      0x00\n        /* \"#utility.yul\":14241:14242   */\n      dup1\n        /* \"#utility.yul\":14234:14246   */\n      revert\n        /* \"#utility.yul\":14186:14248   */\n    tag_302:\n        /* \"#utility.yul\":14134:14254   */\n      pop\n      jump\t// out\n        /* \"#utility.yul\":14260:14382   */\n    tag_127:\n        /* \"#utility.yul\":14333:14357   */\n      tag_304\n        /* \"#utility.yul\":14351:14356   */\n      dup2\n        /* \"#utility.yul\":14333:14357   */\n      tag_171\n      jump\t// in\n    tag_304:\n        /* \"#utility.yul\":14326:14331   */\n      dup2\n        /* \"#utility.yul\":14323:14358   */\n      eq\n        /* \"#utility.yul\":14313:14376   */\n      tag_305\n      jumpi\n        /* \"#utility.yul\":14372:14373   */\n      0x00\n        /* \"#utility.yul\":14369:14370   */\n      dup1\n        /* \"#utility.yul\":14362:14374   */\n      revert\n        /* \"#utility.yul\":14313:14376   */\n    tag_305:\n        /* \"#utility.yul\":14260:14382   */\n      pop\n      jump\t// out\n\n    auxdata: 0xa26469706673582212206cb07b52136fff768dfefddb57c90c87806703fb391df96d4a8f04d6f4e79edc64736f6c63430008070033\n}\n",
				"bytecode": {
					"linkReferences": {},
					"object": "611191610053600b82828239805160001a607314610046577f4e487b7100000000000000000000000000000000000000000000000000000000600052600060045260246000fd5b30600052607381538281f3fe73000000000000000000000000000000000000000030146080604052600436106100915760003560e01c806340e2283f1161006557806340e2283f14610144578063dd1d743b14610174578063f7ba2c0d146101a4578063fec2f93f146101c257610091565b80624ea54c14610096578063047e653d146100c6578063056e04ec146100f65780632b0daa0a14610114575b600080fd5b6100b060048036038101906100ab91906109b7565b6101f2565b6040516100bd9190610b69565b60405180910390f35b6100e060048036038101906100db9190610a44565b61025a565b6040516100ed9190610b84565b60405180910390f35b6100fe610354565b60405161010b9190610b69565b60405180910390f35b61012e600480360381019061012991906109e4565b61035b565b60405161013b9190610b0e565b60405180910390f35b61015e6004803603810190610159919061098a565b610443565b60405161016b9190610af3565b60405180910390f35b61018e600480360381019061018991906109e4565b610598565b60405161019b9190610af3565b60405180910390f35b6101ac610717565b6040516101b99190610b69565b60405180910390f35b6101dc60048036038101906101d791906109e4565b610737565b6040516101e99190610b84565b60405180910390f35b600080627fffff8360e01c1663ffffffff169050600061022f6003601863ff0000008760e01c1663ffffffff16901c61082790919063ffffffff16565b9050610251816101006102429190610cd0565b8361088090919063ffffffff16565b92505050919050565b60008082141561026d576000905061034f565b6000806000905060008490505b6000811461029c57818061028d90610ffc565b925050600881901c905061027a565b60038263ffffffff16116102e25763ffffffff851692508160036102c09190610eba565b60086102cc9190610e48565b63ffffffff168363ffffffff16901b925061030d565b63ffffffff6003836102f49190610eba565b60086103009190610e48565b63ffffffff1686901c1692505b600062800000841663ffffffff161461033c5760088363ffffffff16901c9250818061033890610ffc565b9250505b8260188363ffffffff16901b1793505050505b919050565b6212750081565b60008383839060048561036e9190610bf6565b9261037b93929190610bbb565b906103869190610f9d565b9050600862ff00ff60e01b82167bffffffffffffffffffffffffffffffffffffffffffffffffffffffff1916901b62ff00ff60e01b6008837bffffffffffffffffffffffffffffffffffffffffffffffffffffffff1916901c16179050601061ffff60e01b82167bffffffffffffffffffffffffffffffffffffffffffffffffffffffff1916901b61ffff60e01b6010837bffffffffffffffffffffffffffffffffffffffffffffffffffffffff1916901c161790509392505050565b600081905060087eff00ff00ff00ff00ff00ff00ff00ff00ff00ff00ff00ff00ff00ff00ff00ff60001b8216901b7eff00ff00ff00ff00ff00ff00ff00ff00ff00ff00ff00ff00ff00ff00ff00ff60001b600883901c1617905060107dffff0000ffff0000ffff0000ffff0000ffff0000ffff0000ffff0000ffff60001b8216901b7dffff0000ffff0000ffff0000ffff0000ffff0000ffff0000ffff0000ffff60001b601083901c1617905060207bffffffff00000000ffffffff00000000ffffffff00000000ffffffff60001b8216901b7bffffffff00000000ffffffff00000000ffffffff00000000ffffffff60001b602083901c16179050604077ffffffffffffffff0000000000000000ffffffffffffffff60001b8216901b77ffffffffffffffff0000000000000000ffffffffffffffff60001b604083901c16179050608081901b608082901c179050919050565b6000838383906020856105ab9190610bf6565b926105b893929190610bbb565b906105c39190610f3e565b905060087eff00ff00ff00ff00ff00ff00ff00ff00ff00ff00ff00ff00ff00ff00ff00ff60001b8216901b7eff00ff00ff00ff00ff00ff00ff00ff00ff00ff00ff00ff00ff00ff00ff00ff60001b600883901c1617905060107dffff0000ffff0000ffff0000ffff0000ffff0000ffff0000ffff0000ffff60001b8216901b7dffff0000ffff0000ffff0000ffff0000ffff0000ffff0000ffff0000ffff60001b601083901c1617905060207bffffffff00000000ffffffff00000000ffffffff00000000ffffffff60001b8216901b7bffffffff00000000ffffffff00000000ffffffff00000000ffffffff60001b602083901c16179050604077ffffffffffffffff0000000000000000ffffffffffffffff60001b8216901b77ffffffffffffffff0000000000000000ffffffffffffffff60001b604083901c16179050608081901b608082901c1790509392505050565b7bffff000000000000000000000000000000000000000000000000000081565b6000808484849060048661074b9190610bf6565b9261075893929190610bbb565b906107639190610f9d565b9050600862ff00ff60e01b82167bffffffffffffffffffffffffffffffffffffffffffffffffffffffff1916901b62ff00ff60e01b6008837bffffffffffffffffffffffffffffffffffffffffffffffffffffffff1916901c16179050601061ffff60e01b82167bffffffffffffffffffffffffffffffffffffffffffffffffffffffff1916901b61ffff60e01b6010837bffffffffffffffffffffffffffffffffffffffffffffffffffffffff1916901c161790508060e01c9150509392505050565b60008282111561086c576040517f08c379a000000000000000000000000000000000000000000000000000000000815260040161086390610b29565b60405180910390fd5b81836108789190610e86565b905092915050565b60008083141561089357600090506108ef565b818361089f9190610dee565b90508183826108ae9190610c4c565b146108ee576040517f08c379a00000000000000000000000000000000000000000000000000000000081526004016108e590610b49565b60405180910390fd5b5b92915050565b60008135905061090481611116565b92915050565b6000813590506109198161112d565b92915050565b60008083601f8401126109355761093461108c565b5b8235905067ffffffffffffffff81111561095257610951611087565b5b60208301915083600182028301111561096e5761096d61109b565b5b9250929050565b60008135905061098481611144565b92915050565b6000602082840312156109a05761099f6110a5565b5b60006109ae848285016108f5565b91505092915050565b6000602082840312156109cd576109cc6110a5565b5b60006109db8482850161090a565b91505092915050565b6000806000604084860312156109fd576109fc6110a5565b5b600084013567ffffffffffffffff811115610a1b57610a1a6110a0565b5b610a278682870161091f565b93509350506020610a3a86828701610975565b9150509250925092565b600060208284031215610a5a57610a596110a5565b5b6000610a6884828501610975565b91505092915050565b610a7a81610eee565b82525050565b610a8981610ef8565b82525050565b6000610a9c601d83610baa565b9150610aa7826110c4565b602082019050919050565b6000610abf601f83610baa565b9150610aca826110ed565b602082019050919050565b610ade81610f24565b82525050565b610aed81610f2e565b82525050565b6000602082019050610b086000830184610a71565b92915050565b6000602082019050610b236000830184610a80565b92915050565b60006020820190508181036000830152610b4281610a8f565b9050919050565b60006020820190508181036000830152610b6281610ab2565b9050919050565b6000602082019050610b7e6000830184610ad5565b92915050565b6000602082019050610b996000830184610ae4565b92915050565b600082905092915050565b600082825260208201905092915050565b60008085851115610bcf57610bce611096565b5b83861115610be057610bdf611091565b5b6001850283019150848603905094509492505050565b6000610c0182610f24565b9150610c0c83610f24565b9250827fffffffffffffffffffffffffffffffffffffffffffffffffffffffffffffffff03821115610c4157610c40611029565b5b828201905092915050565b6000610c5782610f24565b9150610c6283610f24565b925082610c7257610c71611058565b5b828204905092915050565b6000808291508390505b6001851115610cc757808604811115610ca357610ca2611029565b5b6001851615610cb25780820291505b8081029050610cc0856110b7565b9450610c87565b94509492505050565b6000610cdb82610f24565b9150610ce683610f24565b9250610d137fffffffffffffffffffffffffffffffffffffffffffffffffffffffffffffffff8484610d1b565b905092915050565b600082610d2b5760019050610de7565b81610d395760009050610de7565b8160018114610d4f5760028114610d5957610d88565b6001915050610de7565b60ff841115610d6b57610d6a611029565b5b8360020a915084821115610d8257610d81611029565b5b50610de7565b5060208310610133831016604e8410600b8410161715610dbd5782820a905083811115610db857610db7611029565b5b610de7565b610dca8484846001610c7d565b92509050818404811115610de157610de0611029565b5b81810290505b9392505050565b6000610df982610f24565b9150610e0483610f24565b9250817fffffffffffffffffffffffffffffffffffffffffffffffffffffffffffffffff0483118215151615610e3d57610e3c611029565b5b828202905092915050565b6000610e5382610f2e565b9150610e5e83610f2e565b92508163ffffffff0483118215151615610e7b57610e7a611029565b5b828202905092915050565b6000610e9182610f24565b9150610e9c83610f24565b925082821015610eaf57610eae611029565b5b828203905092915050565b6000610ec582610f2e565b9150610ed083610f2e565b925082821015610ee357610ee2611029565b5b828203905092915050565b6000819050919050565b60007fffffffff0000000000000000000000000000000000000000000000000000000082169050919050565b6000819050919050565b600063ffffffff82169050919050565b6000610f4a8383610b9f565b82610f558135610eee565b92506020821015610f9557610f907fffffffffffffffffffffffffffffffffffffffffffffffffffffffffffffffff836020036008026110aa565b831692505b505092915050565b6000610fa98383610b9f565b82610fb48135610ef8565b92506004821015610ff457610fef7fffffffff00000000000000000000000000000000000000000000000000000000836004036008026110aa565b831692505b505092915050565b600061100782610f2e565b915063ffffffff82141561101e5761101d611029565b5b600182019050919050565b7f4e487b7100000000000000000000000000000000000000000000000000000000600052601160045260246000fd5b7f4e487b7100000000000000000000000000000000000000000000000000000000600052601260045260246000fd5b600080fd5b600080fd5b600080fd5b600080fd5b600080fd5b600080fd5b600080fd5b600082821b905092915050565b60008160011c9050919050565b7f556e646572666c6f7720647572696e67207375627472616374696f6e2e000000600082015250565b7f4f766572666c6f7720647572696e67206d756c7469706c69636174696f6e2e00600082015250565b61111f81610eee565b811461112a57600080fd5b50565b61113681610ef8565b811461114157600080fd5b50565b61114d81610f24565b811461115857600080fd5b5056fea26469706673582212206cb07b52136fff768dfefddb57c90c87806703fb391df96d4a8f04d6f4e79edc64736f6c63430008070033",
					"opcodes": "PUSH2 0x1191 PUSH2 0x53 PUSH1 0xB DUP3 DUP3 DUP3 CODECOPY DUP1 MLOAD PUSH1 0x0 BYTE PUSH1 0x73 EQ PUSH2 0x46 JUMPI PUSH32 0x4E487B7100000000000000000000000000000000000000000000000000000000 PUSH1 0x0 MSTORE PUSH1 0x0 PUSH1 0x4 MSTORE PUSH1 0x24 PUSH1 0x0 REVERT JUMPDEST ADDRESS PUSH1 0x0 MSTORE PUSH1 0x73 DUP2 MSTORE8 DUP3 DUP2 RETURN INVALID PUSH20 0x0 ADDRESS EQ PUSH1 0x80 PUSH1 0x40 MSTORE PUSH1 0x4 CALLDATASIZE LT PUSH2 0x91 JUMPI PUSH1 0x0 CALLDATALOAD PUSH1 0xE0 SHR DUP1 PUSH4 0x40E2283F GT PUSH2 0x65 JUMPI DUP1 PUSH4 0x40E2283F EQ PUSH2 0x144 JUMPI DUP1 PUSH4 0xDD1D743B EQ PUSH2 0x174 JUMPI DUP1 PUSH4 0xF7BA2C0D EQ PUSH2 0x1A4 JUMPI DUP1 PUSH4 0xFEC2F93F EQ PUSH2 0x1C2 JUMPI PUSH2 0x91 JUMP JUMPDEST DUP1 PUSH3 0x4EA54C EQ PUSH2 0x96 JUMPI DUP1 PUSH4 0x47E653D EQ PUSH2 0xC6 JUMPI DUP1 PUSH4 0x56E04EC EQ PUSH2 0xF6 JUMPI DUP1 PUSH4 0x2B0DAA0A EQ PUSH2 0x114 JUMPI JUMPDEST PUSH1 0x0 DUP1 REVERT JUMPDEST PUSH2 0xB0 PUSH1 0x4 DUP1 CALLDATASIZE SUB DUP2 ADD SWAP1 PUSH2 0xAB SWAP2 SWAP1 PUSH2 0x9B7 JUMP JUMPDEST PUSH2 0x1F2 JUMP JUMPDEST PUSH1 0x40 MLOAD PUSH2 0xBD SWAP2 SWAP1 PUSH2 0xB69 JUMP JUMPDEST PUSH1 0x40 MLOAD DUP1 SWAP2 SUB SWAP1 RETURN JUMPDEST PUSH2 0xE0 PUSH1 0x4 DUP1 CALLDATASIZE SUB DUP2 ADD SWAP1 PUSH2 0xDB SWAP2 SWAP1 PUSH2 0xA44 JUMP JUMPDEST PUSH2 0x25A JUMP JUMPDEST PUSH1 0x40 MLOAD PUSH2 0xED SWAP2 SWAP1 PUSH2 0xB84 JUMP JUMPDEST PUSH1 0x40 MLOAD DUP1 SWAP2 SUB SWAP1 RETURN JUMPDEST PUSH2 0xFE PUSH2 0x354 JUMP JUMPDEST PUSH1 0x40 MLOAD PUSH2 0x10B SWAP2 SWAP1 PUSH2 0xB69 JUMP JUMPDEST PUSH1 0x40 MLOAD DUP1 SWAP2 SUB SWAP1 RETURN JUMPDEST PUSH2 0x12E PUSH1 0x4 DUP1 CALLDATASIZE SUB DUP2 ADD SWAP1 PUSH2 0x129 SWAP2 SWAP1 PUSH2 0x9E4 JUMP JUMPDEST PUSH2 0x35B JUMP JUMPDEST PUSH1 0x40 MLOAD PUSH2 0x13B SWAP2 SWAP1 PUSH2 0xB0E JUMP JUMPDEST PUSH1 0x40 MLOAD DUP1 SWAP2 SUB SWAP1 RETURN JUMPDEST PUSH2 0x15E PUSH1 0x4 DUP1 CALLDATASIZE SUB DUP2 ADD SWAP1 PUSH2 0x159 SWAP2 SWAP1 PUSH2 0x98A JUMP JUMPDEST PUSH2 0x443 JUMP JUMPDEST PUSH1 0x40 MLOAD PUSH2 0x16B SWAP2 SWAP1 PUSH2 0xAF3 JUMP JUMPDEST PUSH1 0x40 MLOAD DUP1 SWAP2 SUB SWAP1 RETURN JUMPDEST PUSH2 0x18E PUSH1 0x4 DUP1 CALLDATASIZE SUB DUP2 ADD SWAP1 PUSH2 0x189 SWAP2 SWAP1 PUSH2 0x9E4 JUMP JUMPDEST PUSH2 0x598 JUMP JUMPDEST PUSH1 0x40 MLOAD PUSH2 0x19B SWAP2 SWAP1 PUSH2 0xAF3 JUMP JUMPDEST PUSH1 0x40 MLOAD DUP1 SWAP2 SUB SWAP1 RETURN JUMPDEST PUSH2 0x1AC PUSH2 0x717 JUMP JUMPDEST PUSH1 0x40 MLOAD PUSH2 0x1B9 SWAP2 SWAP1 PUSH2 0xB69 JUMP JUMPDEST PUSH1 0x40 MLOAD DUP1 SWAP2 SUB SWAP1 RETURN JUMPDEST PUSH2 0x1DC PUSH1 0x4 DUP1 CALLDATASIZE SUB DUP2 ADD SWAP1 PUSH2 0x1D7 SWAP2 SWAP1 PUSH2 0x9E4 JUMP JUMPDEST PUSH2 0x737 JUMP JUMPDEST PUSH1 0x40 MLOAD PUSH2 0x1E9 SWAP2 SWAP1 PUSH2 0xB84 JUMP JUMPDEST PUSH1 0x40 MLOAD DUP1 SWAP2 SUB SWAP1 RETURN JUMPDEST PUSH1 0x0 DUP1 PUSH3 0x7FFFFF DUP4 PUSH1 0xE0 SHR AND PUSH4 0xFFFFFFFF AND SWAP1 POP PUSH1 0x0 PUSH2 0x22F PUSH1 0x3 PUSH1 0x18 PUSH4 0xFF000000 DUP8 PUSH1 0xE0 SHR AND PUSH4 0xFFFFFFFF AND SWAP1 SHR PUSH2 0x827 SWAP1 SWAP2 SWAP1 PUSH4 0xFFFFFFFF AND JUMP JUMPDEST SWAP1 POP PUSH2 0x251 DUP2 PUSH2 0x100 PUSH2 0x242 SWAP2 SWAP1 PUSH2 0xCD0 JUMP JUMPDEST DUP4 PUSH2 0x880 SWAP1 SWAP2 SWAP1 PUSH4 0xFFFFFFFF AND JUMP JUMPDEST SWAP3 POP POP POP SWAP2 SWAP1 POP JUMP JUMPDEST PUSH1 0x0 DUP1 DUP3 EQ ISZERO PUSH2 0x26D JUMPI PUSH1 0x0 SWAP1 POP PUSH2 0x34F JUMP JUMPDEST PUSH1 0x0 DUP1 PUSH1 0x0 SWAP1 POP PUSH1 0x0 DUP5 SWAP1 POP JUMPDEST PUSH1 0x0 DUP2 EQ PUSH2 0x29C JUMPI DUP2 DUP1 PUSH2 0x28D SWAP1 PUSH2 0xFFC JUMP JUMPDEST SWAP3 POP POP PUSH1 0x8 DUP2 SWAP1 SHR SWAP1 POP PUSH2 0x27A JUMP JUMPDEST PUSH1 0x3 DUP3 PUSH4 0xFFFFFFFF AND GT PUSH2 0x2E2 JUMPI PUSH4 0xFFFFFFFF DUP6 AND SWAP3 POP DUP2 PUSH1 0x3 PUSH2 0x2C0 SWAP2 SWAP1 PUSH2 0xEBA JUMP JUMPDEST PUSH1 0x8 PUSH2 0x2CC SWAP2 SWAP1 PUSH2 0xE48 JUMP JUMPDEST PUSH4 0xFFFFFFFF AND DUP4 PUSH4 0xFFFFFFFF AND SWAP1 SHL SWAP3 POP PUSH2 0x30D JUMP JUMPDEST PUSH4 0xFFFFFFFF PUSH1 0x3 DUP4 PUSH2 0x2F4 SWAP2 SWAP1 PUSH2 0xEBA JUMP JUMPDEST PUSH1 0x8 PUSH2 0x300 SWAP2 SWAP1 PUSH2 0xE48 JUMP JUMPDEST PUSH4 0xFFFFFFFF AND DUP7 SWAP1 SHR AND SWAP3 POP JUMPDEST PUSH1 0x0 PUSH3 0x800000 DUP5 AND PUSH4 0xFFFFFFFF AND EQ PUSH2 0x33C JUMPI PUSH1 0x8 DUP4 PUSH4 0xFFFFFFFF AND SWAP1 SHR SWAP3 POP DUP2 DUP1 PUSH2 0x338 SWAP1 PUSH2 0xFFC JUMP JUMPDEST SWAP3 POP POP JUMPDEST DUP3 PUSH1 0x18 DUP4 PUSH4 0xFFFFFFFF AND SWAP1 SHL OR SWAP4 POP POP POP POP JUMPDEST SWAP2 SWAP1 POP JUMP JUMPDEST PUSH3 0x127500 DUP2 JUMP JUMPDEST PUSH1 0x0 DUP4 DUP4 DUP4 SWAP1 PUSH1 0x4 DUP6 PUSH2 0x36E SWAP2 SWAP1 PUSH2 0xBF6 JUMP JUMPDEST SWAP3 PUSH2 0x37B SWAP4 SWAP3 SWAP2 SWAP1 PUSH2 0xBBB JUMP JUMPDEST SWAP1 PUSH2 0x386 SWAP2 SWAP1 PUSH2 0xF9D JUMP JUMPDEST SWAP1 POP PUSH1 0x8 PUSH3 0xFF00FF PUSH1 0xE0 SHL DUP3 AND PUSH28 0xFFFFFFFFFFFFFFFFFFFFFFFFFFFFFFFFFFFFFFFFFFFFFFFFFFFFFFFF NOT AND SWAP1 SHL PUSH3 0xFF00FF PUSH1 0xE0 SHL PUSH1 0x8 DUP4 PUSH28 0xFFFFFFFFFFFFFFFFFFFFFFFFFFFFFFFFFFFFFFFFFFFFFFFFFFFFFFFF NOT AND SWAP1 SHR AND OR SWAP1 POP PUSH1 0x10 PUSH2 0xFFFF PUSH1 0xE0 SHL DUP3 AND PUSH28 0xFFFFFFFFFFFFFFFFFFFFFFFFFFFFFFFFFFFFFFFFFFFFFFFFFFFFFFFF NOT AND SWAP1 SHL PUSH2 0xFFFF PUSH1 0xE0 SHL PUSH1 0x10 DUP4 PUSH28 0xFFFFFFFFFFFFFFFFFFFFFFFFFFFFFFFFFFFFFFFFFFFFFFFFFFFFFFFF NOT AND SWAP1 SHR AND OR SWAP1 POP SWAP4 SWAP3 POP POP POP JUMP JUMPDEST PUSH1 0x0 DUP2 SWAP1 POP PUSH1 0x8 PUSH31 0xFF00FF00FF00FF00FF00FF00FF00FF00FF00FF00FF00FF00FF00FF00FF00FF PUSH1 0x0 SHL DUP3 AND SWAP1 SHL PUSH31 0xFF00FF00FF00FF00FF00FF00FF00FF00FF00FF00FF00FF00FF00FF00FF00FF PUSH1 0x0 SHL PUSH1 0x8 DUP4 SWAP1 SHR AND OR SWAP1 POP PUSH1 0x10 PUSH30 0xFFFF0000FFFF0000FFFF0000FFFF0000FFFF0000FFFF0000FFFF0000FFFF PUSH1 0x0 SHL DUP3 AND SWAP1 SHL PUSH30 0xFFFF0000FFFF0000FFFF0000FFFF0000FFFF0000FFFF0000FFFF0000FFFF PUSH1 0x0 SHL PUSH1 0x10 DUP4 SWAP1 SHR AND OR SWAP1 POP PUSH1 0x20 PUSH28 0xFFFFFFFF00000000FFFFFFFF00000000FFFFFFFF00000000FFFFFFFF PUSH1 0x0 SHL DUP3 AND SWAP1 SHL PUSH28 0xFFFFFFFF00000000FFFFFFFF00000000FFFFFFFF00000000FFFFFFFF PUSH1 0x0 SHL PUSH1 0x20 DUP4 SWAP1 SHR AND OR SWAP1 POP PUSH1 0x40 PUSH24 0xFFFFFFFFFFFFFFFF0000000000000000FFFFFFFFFFFFFFFF PUSH1 0x0 SHL DUP3 AND SWAP1 SHL PUSH24 0xFFFFFFFFFFFFFFFF0000000000000000FFFFFFFFFFFFFFFF PUSH1 0x0 SHL PUSH1 0x40 DUP4 SWAP1 SHR AND OR SWAP1 POP PUSH1 0x80 DUP2 SWAP1 SHL PUSH1 0x80 DUP3 SWAP1 SHR OR SWAP1 POP SWAP2 SWAP1 POP JUMP JUMPDEST PUSH1 0x0 DUP4 DUP4 DUP4 SWAP1 PUSH1 0x20 DUP6 PUSH2 0x5AB SWAP2 SWAP1 PUSH2 0xBF6 JUMP JUMPDEST SWAP3 PUSH2 0x5B8 SWAP4 SWAP3 SWAP2 SWAP1 PUSH2 0xBBB JUMP JUMPDEST SWAP1 PUSH2 0x5C3 SWAP2 SWAP1 PUSH2 0xF3E JUMP JUMPDEST SWAP1 POP PUSH1 0x8 PUSH31 0xFF00FF00FF00FF00FF00FF00FF00FF00FF00FF00FF00FF00FF00FF00FF00FF PUSH1 0x0 SHL DUP3 AND SWAP1 SHL PUSH31 0xFF00FF00FF00FF00FF00FF00FF00FF00FF00FF00FF00FF00FF00FF00FF00FF PUSH1 0x0 SHL PUSH1 0x8 DUP4 SWAP1 SHR AND OR SWAP1 POP PUSH1 0x10 PUSH30 0xFFFF0000FFFF0000FFFF0000FFFF0000FFFF0000FFFF0000FFFF0000FFFF PUSH1 0x0 SHL DUP3 AND SWAP1 SHL PUSH30 0xFFFF0000FFFF0000FFFF0000FFFF0000FFFF0000FFFF0000FFFF0000FFFF PUSH1 0x0 SHL PUSH1 0x10 DUP4 SWAP1 SHR AND OR SWAP1 POP PUSH1 0x20 PUSH28 0xFFFFFFFF00000000FFFFFFFF00000000FFFFFFFF00000000FFFFFFFF PUSH1 0x0 SHL DUP3 AND SWAP1 SHL PUSH28 0xFFFFFFFF00000000FFFFFFFF00000000FFFFFFFF00000000FFFFFFFF PUSH1 0x0 SHL PUSH1 0x20 DUP4 SWAP1 SHR AND OR SWAP1 POP PUSH1 0x40 PUSH24 0xFFFFFFFFFFFFFFFF0000000000000000FFFFFFFFFFFFFFFF PUSH1 0x0 SHL DUP3 AND SWAP1 SHL PUSH24 0xFFFFFFFFFFFFFFFF0000000000000000FFFFFFFFFFFFFFFF PUSH1 0x0 SHL PUSH1 0x40 DUP4 SWAP1 SHR AND OR SWAP1 POP PUSH1 0x80 DUP2 SWAP1 SHL PUSH1 0x80 DUP3 SWAP1 SHR OR SWAP1 POP SWAP4 SWAP3 POP POP POP JUMP JUMPDEST PUSH28 0xFFFF0000000000000000000000000000000000000000000000000000 DUP2 JUMP JUMPDEST PUSH1 0x0 DUP1 DUP5 DUP5 DUP5 SWAP1 PUSH1 0x4 DUP7 PUSH2 0x74B SWAP2 SWAP1 PUSH2 0xBF6 JUMP JUMPDEST SWAP3 PUSH2 0x758 SWAP4 SWAP3 SWAP2 SWAP1 PUSH2 0xBBB JUMP JUMPDEST SWAP1 PUSH2 0x763 SWAP2 SWAP1 PUSH2 0xF9D JUMP JUMPDEST SWAP1 POP PUSH1 0x8 PUSH3 0xFF00FF PUSH1 0xE0 SHL DUP3 AND PUSH28 0xFFFFFFFFFFFFFFFFFFFFFFFFFFFFFFFFFFFFFFFFFFFFFFFFFFFFFFFF NOT AND SWAP1 SHL PUSH3 0xFF00FF PUSH1 0xE0 SHL PUSH1 0x8 DUP4 PUSH28 0xFFFFFFFFFFFFFFFFFFFFFFFFFFFFFFFFFFFFFFFFFFFFFFFFFFFFFFFF NOT AND SWAP1 SHR AND OR SWAP1 POP PUSH1 0x10 PUSH2 0xFFFF PUSH1 0xE0 SHL DUP3 AND PUSH28 0xFFFFFFFFFFFFFFFFFFFFFFFFFFFFFFFFFFFFFFFFFFFFFFFFFFFFFFFF NOT AND SWAP1 SHL PUSH2 0xFFFF PUSH1 0xE0 SHL PUSH1 0x10 DUP4 PUSH28 0xFFFFFFFFFFFFFFFFFFFFFFFFFFFFFFFFFFFFFFFFFFFFFFFFFFFFFFFF NOT AND SWAP1 SHR AND OR SWAP1 POP DUP1 PUSH1 0xE0 SHR SWAP2 POP POP SWAP4 SWAP3 POP POP POP JUMP JUMPDEST PUSH1 0x0 DUP3 DUP3 GT ISZERO PUSH2 0x86C JUMPI PUSH1 0x40 MLOAD PUSH32 0x8C379A000000000000000000000000000000000000000000000000000000000 DUP2 MSTORE PUSH1 0x4 ADD PUSH2 0x863 SWAP1 PUSH2 0xB29 JUMP JUMPDEST PUSH1 0x40 MLOAD DUP1 SWAP2 SUB SWAP1 REVERT JUMPDEST DUP2 DUP4 PUSH2 0x878 SWAP2 SWAP1 PUSH2 0xE86 JUMP JUMPDEST SWAP1 POP SWAP3 SWAP2 POP POP JUMP JUMPDEST PUSH1 0x0 DUP1 DUP4 EQ ISZERO PUSH2 0x893 JUMPI PUSH1 0x0 SWAP1 POP PUSH2 0x8EF JUMP JUMPDEST DUP2 DUP4 PUSH2 0x89F SWAP2 SWAP1 PUSH2 0xDEE JUMP JUMPDEST SWAP1 POP DUP2 DUP4 DUP3 PUSH2 0x8AE SWAP2 SWAP1 PUSH2 0xC4C JUMP JUMPDEST EQ PUSH2 0x8EE JUMPI PUSH1 0x40 MLOAD PUSH32 0x8C379A000000000000000000000000000000000000000000000000000000000 DUP2 MSTORE PUSH1 0x4 ADD PUSH2 0x8E5 SWAP1 PUSH2 0xB49 JUMP JUMPDEST PUSH1 0x40 MLOAD DUP1 SWAP2 SUB SWAP1 REVERT JUMPDEST JUMPDEST SWAP3 SWAP2 POP POP JUMP JUMPDEST PUSH1 0x0 DUP2 CALLDATALOAD SWAP1 POP PUSH2 0x904 DUP2 PUSH2 0x1116 JUMP JUMPDEST SWAP3 SWAP2 POP POP JUMP JUMPDEST PUSH1 0x0 DUP2 CALLDATALOAD SWAP1 POP PUSH2 0x919 DUP2 PUSH2 0x112D JUMP JUMPDEST SWAP3 SWAP2 POP POP JUMP JUMPDEST PUSH1 0x0 DUP1 DUP4 PUSH1 0x1F DUP5 ADD SLT PUSH2 0x935 JUMPI PUSH2 0x934 PUSH2 0x108C JUMP JUMPDEST JUMPDEST DUP3 CALLDATALOAD SWAP1 POP PUSH8 0xFFFFFFFFFFFFFFFF DUP2 GT ISZERO PUSH2 0x952 JUMPI PUSH2 0x951 PUSH2 0x1087 JUMP JUMPDEST JUMPDEST PUSH1 0x20 DUP4 ADD SWAP2 POP DUP4 PUSH1 0x1 DUP3 MUL DUP4 ADD GT ISZERO PUSH2 0x96E JUMPI PUSH2 0x96D PUSH2 0x109B JUMP JUMPDEST JUMPDEST SWAP3 POP SWAP3 SWAP1 POP JUMP JUMPDEST PUSH1 0x0 DUP2 CALLDATALOAD SWAP1 POP PUSH2 0x984 DUP2 PUSH2 0x1144 JUMP JUMPDEST SWAP3 SWAP2 POP POP JUMP JUMPDEST PUSH1 0x0 PUSH1 0x20 DUP3 DUP5 SUB SLT ISZERO PUSH2 0x9A0 JUMPI PUSH2 0x99F PUSH2 0x10A5 JUMP JUMPDEST JUMPDEST PUSH1 0x0 PUSH2 0x9AE DUP5 DUP3 DUP6 ADD PUSH2 0x8F5 JUMP JUMPDEST SWAP2 POP POP SWAP3 SWAP2 POP POP JUMP JUMPDEST PUSH1 0x0 PUSH1 0x20 DUP3 DUP5 SUB SLT ISZERO PUSH2 0x9CD JUMPI PUSH2 0x9CC PUSH2 0x10A5 JUMP JUMPDEST JUMPDEST PUSH1 0x0 PUSH2 0x9DB DUP5 DUP3 DUP6 ADD PUSH2 0x90A JUMP JUMPDEST SWAP2 POP POP SWAP3 SWAP2 POP POP JUMP JUMPDEST PUSH1 0x0 DUP1 PUSH1 0x0 PUSH1 0x40 DUP5 DUP7 SUB SLT ISZERO PUSH2 0x9FD JUMPI PUSH2 0x9FC PUSH2 0x10A5 JUMP JUMPDEST JUMPDEST PUSH1 0x0 DUP5 ADD CALLDATALOAD PUSH8 0xFFFFFFFFFFFFFFFF DUP2 GT ISZERO PUSH2 0xA1B JUMPI PUSH2 0xA1A PUSH2 0x10A0 JUMP JUMPDEST JUMPDEST PUSH2 0xA27 DUP7 DUP3 DUP8 ADD PUSH2 0x91F JUMP JUMPDEST SWAP4 POP SWAP4 POP POP PUSH1 0x20 PUSH2 0xA3A DUP7 DUP3 DUP8 ADD PUSH2 0x975 JUMP JUMPDEST SWAP2 POP POP SWAP3 POP SWAP3 POP SWAP3 JUMP JUMPDEST PUSH1 0x0 PUSH1 0x20 DUP3 DUP5 SUB SLT ISZERO PUSH2 0xA5A JUMPI PUSH2 0xA59 PUSH2 0x10A5 JUMP JUMPDEST JUMPDEST PUSH1 0x0 PUSH2 0xA68 DUP5 DUP3 DUP6 ADD PUSH2 0x975 JUMP JUMPDEST SWAP2 POP POP SWAP3 SWAP2 POP POP JUMP JUMPDEST PUSH2 0xA7A DUP2 PUSH2 0xEEE JUMP JUMPDEST DUP3 MSTORE POP POP JUMP JUMPDEST PUSH2 0xA89 DUP2 PUSH2 0xEF8 JUMP JUMPDEST DUP3 MSTORE POP POP JUMP JUMPDEST PUSH1 0x0 PUSH2 0xA9C PUSH1 0x1D DUP4 PUSH2 0xBAA JUMP JUMPDEST SWAP2 POP PUSH2 0xAA7 DUP3 PUSH2 0x10C4 JUMP JUMPDEST PUSH1 0x20 DUP3 ADD SWAP1 POP SWAP2 SWAP1 POP JUMP JUMPDEST PUSH1 0x0 PUSH2 0xABF PUSH1 0x1F DUP4 PUSH2 0xBAA JUMP JUMPDEST SWAP2 POP PUSH2 0xACA DUP3 PUSH2 0x10ED JUMP JUMPDEST PUSH1 0x20 DUP3 ADD SWAP1 POP SWAP2 SWAP1 POP JUMP JUMPDEST PUSH2 0xADE DUP2 PUSH2 0xF24 JUMP JUMPDEST DUP3 MSTORE POP POP JUMP JUMPDEST PUSH2 0xAED DUP2 PUSH2 0xF2E JUMP JUMPDEST DUP3 MSTORE POP POP JUMP JUMPDEST PUSH1 0x0 PUSH1 0x20 DUP3 ADD SWAP1 POP PUSH2 0xB08 PUSH1 0x0 DUP4 ADD DUP5 PUSH2 0xA71 JUMP JUMPDEST SWAP3 SWAP2 POP POP JUMP JUMPDEST PUSH1 0x0 PUSH1 0x20 DUP3 ADD SWAP1 POP PUSH2 0xB23 PUSH1 0x0 DUP4 ADD DUP5 PUSH2 0xA80 JUMP JUMPDEST SWAP3 SWAP2 POP POP JUMP JUMPDEST PUSH1 0x0 PUSH1 0x20 DUP3 ADD SWAP1 POP DUP2 DUP2 SUB PUSH1 0x0 DUP4 ADD MSTORE PUSH2 0xB42 DUP2 PUSH2 0xA8F JUMP JUMPDEST SWAP1 POP SWAP2 SWAP1 POP JUMP JUMPDEST PUSH1 0x0 PUSH1 0x20 DUP3 ADD SWAP1 POP DUP2 DUP2 SUB PUSH1 0x0 DUP4 ADD MSTORE PUSH2 0xB62 DUP2 PUSH2 0xAB2 JUMP JUMPDEST SWAP1 POP SWAP2 SWAP1 POP JUMP JUMPDEST PUSH1 0x0 PUSH1 0x20 DUP3 ADD SWAP1 POP PUSH2 0xB7E PUSH1 0x0 DUP4 ADD DUP5 PUSH2 0xAD5 JUMP JUMPDEST SWAP3 SWAP2 POP POP JUMP JUMPDEST PUSH1 0x0 PUSH1 0x20 DUP3 ADD SWAP1 POP PUSH2 0xB99 PUSH1 0x0 DUP4 ADD DUP5 PUSH2 0xAE4 JUMP JUMPDEST SWAP3 SWAP2 POP POP JUMP JUMPDEST PUSH1 0x0 DUP3 SWAP1 POP SWAP3 SWAP2 POP POP JUMP JUMPDEST PUSH1 0x0 DUP3 DUP3 MSTORE PUSH1 0x20 DUP3 ADD SWAP1 POP SWAP3 SWAP2 POP POP JUMP JUMPDEST PUSH1 0x0 DUP1 DUP6 DUP6 GT ISZERO PUSH2 0xBCF JUMPI PUSH2 0xBCE PUSH2 0x1096 JUMP JUMPDEST JUMPDEST DUP4 DUP7 GT ISZERO PUSH2 0xBE0 JUMPI PUSH2 0xBDF PUSH2 0x1091 JUMP JUMPDEST JUMPDEST PUSH1 0x1 DUP6 MUL DUP4 ADD SWAP2 POP DUP5 DUP7 SUB SWAP1 POP SWAP5 POP SWAP5 SWAP3 POP POP POP JUMP JUMPDEST PUSH1 0x0 PUSH2 0xC01 DUP3 PUSH2 0xF24 JUMP JUMPDEST SWAP2 POP PUSH2 0xC0C DUP4 PUSH2 0xF24 JUMP JUMPDEST SWAP3 POP DUP3 PUSH32 0xFFFFFFFFFFFFFFFFFFFFFFFFFFFFFFFFFFFFFFFFFFFFFFFFFFFFFFFFFFFFFFFF SUB DUP3 GT ISZERO PUSH2 0xC41 JUMPI PUSH2 0xC40 PUSH2 0x1029 JUMP JUMPDEST JUMPDEST DUP3 DUP3 ADD SWAP1 POP SWAP3 SWAP2 POP POP JUMP JUMPDEST PUSH1 0x0 PUSH2 0xC57 DUP3 PUSH2 0xF24 JUMP JUMPDEST SWAP2 POP PUSH2 0xC62 DUP4 PUSH2 0xF24 JUMP JUMPDEST SWAP3 POP DUP3 PUSH2 0xC72 JUMPI PUSH2 0xC71 PUSH2 0x1058 JUMP JUMPDEST JUMPDEST DUP3 DUP3 DIV SWAP1 POP SWAP3 SWAP2 POP POP JUMP JUMPDEST PUSH1 0x0 DUP1 DUP3 SWAP2 POP DUP4 SWAP1 POP JUMPDEST PUSH1 0x1 DUP6 GT ISZERO PUSH2 0xCC7 JUMPI DUP1 DUP7 DIV DUP2 GT ISZERO PUSH2 0xCA3 JUMPI PUSH2 0xCA2 PUSH2 0x1029 JUMP JUMPDEST JUMPDEST PUSH1 0x1 DUP6 AND ISZERO PUSH2 0xCB2 JUMPI DUP1 DUP3 MUL SWAP2 POP JUMPDEST DUP1 DUP2 MUL SWAP1 POP PUSH2 0xCC0 DUP6 PUSH2 0x10B7 JUMP JUMPDEST SWAP5 POP PUSH2 0xC87 JUMP JUMPDEST SWAP5 POP SWAP5 SWAP3 POP POP POP JUMP JUMPDEST PUSH1 0x0 PUSH2 0xCDB DUP3 PUSH2 0xF24 JUMP JUMPDEST SWAP2 POP PUSH2 0xCE6 DUP4 PUSH2 0xF24 JUMP JUMPDEST SWAP3 POP PUSH2 0xD13 PUSH32 0xFFFFFFFFFFFFFFFFFFFFFFFFFFFFFFFFFFFFFFFFFFFFFFFFFFFFFFFFFFFFFFFF DUP5 DUP5 PUSH2 0xD1B JUMP JUMPDEST SWAP1 POP SWAP3 SWAP2 POP POP JUMP JUMPDEST PUSH1 0x0 DUP3 PUSH2 0xD2B JUMPI PUSH1 0x1 SWAP1 POP PUSH2 0xDE7 JUMP JUMPDEST DUP2 PUSH2 0xD39 JUMPI PUSH1 0x0 SWAP1 POP PUSH2 0xDE7 JUMP JUMPDEST DUP2 PUSH1 0x1 DUP2 EQ PUSH2 0xD4F JUMPI PUSH1 0x2 DUP2 EQ PUSH2 0xD59 JUMPI PUSH2 0xD88 JUMP JUMPDEST PUSH1 0x1 SWAP2 POP POP PUSH2 0xDE7 JUMP JUMPDEST PUSH1 0xFF DUP5 GT ISZERO PUSH2 0xD6B JUMPI PUSH2 0xD6A PUSH2 0x1029 JUMP JUMPDEST JUMPDEST DUP4 PUSH1 0x2 EXP SWAP2 POP DUP5 DUP3 GT ISZERO PUSH2 0xD82 JUMPI PUSH2 0xD81 PUSH2 0x1029 JUMP JUMPDEST JUMPDEST POP PUSH2 0xDE7 JUMP JUMPDEST POP PUSH1 0x20 DUP4 LT PUSH2 0x133 DUP4 LT AND PUSH1 0x4E DUP5 LT PUSH1 0xB DUP5 LT AND OR ISZERO PUSH2 0xDBD JUMPI DUP3 DUP3 EXP SWAP1 POP DUP4 DUP2 GT ISZERO PUSH2 0xDB8 JUMPI PUSH2 0xDB7 PUSH2 0x1029 JUMP JUMPDEST JUMPDEST PUSH2 0xDE7 JUMP JUMPDEST PUSH2 0xDCA DUP5 DUP5 DUP5 PUSH1 0x1 PUSH2 0xC7D JUMP JUMPDEST SWAP3 POP SWAP1 POP DUP2 DUP5 DIV DUP2 GT ISZERO PUSH2 0xDE1 JUMPI PUSH2 0xDE0 PUSH2 0x1029 JUMP JUMPDEST JUMPDEST DUP2 DUP2 MUL SWAP1 POP JUMPDEST SWAP4 SWAP3 POP POP POP JUMP JUMPDEST PUSH1 0x0 PUSH2 0xDF9 DUP3 PUSH2 0xF24 JUMP JUMPDEST SWAP2 POP PUSH2 0xE04 DUP4 PUSH2 0xF24 JUMP JUMPDEST SWAP3 POP DUP2 PUSH32 0xFFFFFFFFFFFFFFFFFFFFFFFFFFFFFFFFFFFFFFFFFFFFFFFFFFFFFFFFFFFFFFFF DIV DUP4 GT DUP3 ISZERO ISZERO AND ISZERO PUSH2 0xE3D JUMPI PUSH2 0xE3C PUSH2 0x1029 JUMP JUMPDEST JUMPDEST DUP3 DUP3 MUL SWAP1 POP SWAP3 SWAP2 POP POP JUMP JUMPDEST PUSH1 0x0 PUSH2 0xE53 DUP3 PUSH2 0xF2E JUMP JUMPDEST SWAP2 POP PUSH2 0xE5E DUP4 PUSH2 0xF2E JUMP JUMPDEST SWAP3 POP DUP2 PUSH4 0xFFFFFFFF DIV DUP4 GT DUP3 ISZERO ISZERO AND ISZERO PUSH2 0xE7B JUMPI PUSH2 0xE7A PUSH2 0x1029 JUMP JUMPDEST JUMPDEST DUP3 DUP3 MUL SWAP1 POP SWAP3 SWAP2 POP POP JUMP JUMPDEST PUSH1 0x0 PUSH2 0xE91 DUP3 PUSH2 0xF24 JUMP JUMPDEST SWAP2 POP PUSH2 0xE9C DUP4 PUSH2 0xF24 JUMP JUMPDEST SWAP3 POP DUP3 DUP3 LT ISZERO PUSH2 0xEAF JUMPI PUSH2 0xEAE PUSH2 0x1029 JUMP JUMPDEST JUMPDEST DUP3 DUP3 SUB SWAP1 POP SWAP3 SWAP2 POP POP JUMP JUMPDEST PUSH1 0x0 PUSH2 0xEC5 DUP3 PUSH2 0xF2E JUMP JUMPDEST SWAP2 POP PUSH2 0xED0 DUP4 PUSH2 0xF2E JUMP JUMPDEST SWAP3 POP DUP3 DUP3 LT ISZERO PUSH2 0xEE3 JUMPI PUSH2 0xEE2 PUSH2 0x1029 JUMP JUMPDEST JUMPDEST DUP3 DUP3 SUB SWAP1 POP SWAP3 SWAP2 POP POP JUMP JUMPDEST PUSH1 0x0 DUP2 SWAP1 POP SWAP2 SWAP1 POP JUMP JUMPDEST PUSH1 0x0 PUSH32 0xFFFFFFFF00000000000000000000000000000000000000000000000000000000 DUP3 AND SWAP1 POP SWAP2 SWAP1 POP JUMP JUMPDEST PUSH1 0x0 DUP2 SWAP1 POP SWAP2 SWAP1 POP JUMP JUMPDEST PUSH1 0x0 PUSH4 0xFFFFFFFF DUP3 AND SWAP1 POP SWAP2 SWAP1 POP JUMP JUMPDEST PUSH1 0x0 PUSH2 0xF4A DUP4 DUP4 PUSH2 0xB9F JUMP JUMPDEST DUP3 PUSH2 0xF55 DUP2 CALLDATALOAD PUSH2 0xEEE JUMP JUMPDEST SWAP3 POP PUSH1 0x20 DUP3 LT ISZERO PUSH2 0xF95 JUMPI PUSH2 0xF90 PUSH32 0xFFFFFFFFFFFFFFFFFFFFFFFFFFFFFFFFFFFFFFFFFFFFFFFFFFFFFFFFFFFFFFFF DUP4 PUSH1 0x20 SUB PUSH1 0x8 MUL PUSH2 0x10AA JUMP JUMPDEST DUP4 AND SWAP3 POP JUMPDEST POP POP SWAP3 SWAP2 POP POP JUMP JUMPDEST PUSH1 0x0 PUSH2 0xFA9 DUP4 DUP4 PUSH2 0xB9F JUMP JUMPDEST DUP3 PUSH2 0xFB4 DUP2 CALLDATALOAD PUSH2 0xEF8 JUMP JUMPDEST SWAP3 POP PUSH1 0x4 DUP3 LT ISZERO PUSH2 0xFF4 JUMPI PUSH2 0xFEF PUSH32 0xFFFFFFFF00000000000000000000000000000000000000000000000000000000 DUP4 PUSH1 0x4 SUB PUSH1 0x8 MUL PUSH2 0x10AA JUMP JUMPDEST DUP4 AND SWAP3 POP JUMPDEST POP POP SWAP3 SWAP2 POP POP JUMP JUMPDEST PUSH1 0x0 PUSH2 0x1007 DUP3 PUSH2 0xF2E JUMP JUMPDEST SWAP2 POP PUSH4 0xFFFFFFFF DUP3 EQ ISZERO PUSH2 0x101E JUMPI PUSH2 0x101D PUSH2 0x1029 JUMP JUMPDEST JUMPDEST PUSH1 0x1 DUP3 ADD SWAP1 POP SWAP2 SWAP1 POP JUMP JUMPDEST PUSH32 0x4E487B7100000000000000000000000000000000000000000000000000000000 PUSH1 0x0 MSTORE PUSH1 0x11 PUSH1 0x4 MSTORE PUSH1 0x24 PUSH1 0x0 REVERT JUMPDEST PUSH32 0x4E487B7100000000000000000000000000000000000000000000000000000000 PUSH1 0x0 MSTORE PUSH1 0x12 PUSH1 0x4 MSTORE PUSH1 0x24 PUSH1 0x0 REVERT JUMPDEST PUSH1 0x0 DUP1 REVERT JUMPDEST PUSH1 0x0 DUP1 REVERT JUMPDEST PUSH1 0x0 DUP1 REVERT JUMPDEST PUSH1 0x0 DUP1 REVERT JUMPDEST PUSH1 0x0 DUP1 REVERT JUMPDEST PUSH1 0x0 DUP1 REVERT JUMPDEST PUSH1 0x0 DUP1 REVERT JUMPDEST PUSH1 0x0 DUP3 DUP3 SHL SWAP1 POP SWAP3 SWAP2 POP POP JUMP JUMPDEST PUSH1 0x0 DUP2 PUSH1 0x1 SHR SWAP1 POP SWAP2 SWAP1 POP JUMP JUMPDEST PUSH32 0x556E646572666C6F7720647572696E67207375627472616374696F6E2E000000 PUSH1 0x0 DUP3 ADD MSTORE POP JUMP JUMPDEST PUSH32 0x4F766572666C6F7720647572696E67206D756C7469706C69636174696F6E2E00 PUSH1 0x0 DUP3 ADD MSTORE POP JUMP JUMPDEST PUSH2 0x111F DUP2 PUSH2 0xEEE JUMP JUMPDEST DUP2 EQ PUSH2 0x112A JUMPI PUSH1 0x0 DUP1 REVERT JUMPDEST POP JUMP JUMPDEST PUSH2 0x1136 DUP2 PUSH2 0xEF8 JUMP JUMPDEST DUP2 EQ PUSH2 0x1141 JUMPI PUSH1 0x0 DUP1 REVERT JUMPDEST POP JUMP JUMPDEST PUSH2 0x114D DUP2 PUSH2 0xF24 JUMP JUMPDEST DUP2 EQ PUSH2 0x1158 JUMPI PUSH1 0x0 DUP1 REVERT JUMPDEST POP JUMP INVALID LOG2 PUSH5 0x6970667358 0x22 SLT KECCAK256 PUSH13 0xB07B52136FFF768DFEFDDB57C9 0xC DUP8 DUP1 PUSH8 0x3FB391DF96D4A8F DIV 0xD6 DELEGATECALL 0xE7 SWAP15 0xDC PUSH5 0x736F6C6343 STOP ADDMOD SMOD STOP CALLER "
				},
				"gasEstimates": {
					"creation": {
						"codeDepositCost": "899400",
						"executionCost": "960",
						"totalCost": "900360"
					},
					"external": {
						"MAX_TARGET()": "357",
						"RETARGET_PERIOD()": "358",
						"_leToBytes32(bytes,uint256)": "infinite",
						"_leToBytes4(bytes,uint256)": "infinite",
						"_leToUint32(bytes,uint256)": "infinite",
						"_nBitsToTarget(bytes4)": "infinite",
						"_targetToNBits(uint256)": "infinite",
						"swapEndian(bytes32)": "infinite"
					},
					"internal": {
						"_retargetAlgorithm(uint256,uint256,uint256)": "infinite"
					}
				},
				"methodIdentifiers": {
					"MAX_TARGET()": "f7ba2c0d",
					"RETARGET_PERIOD()": "056e04ec",
					"_leToBytes32(bytes,uint256)": "dd1d743b",
					"_leToBytes4(bytes,uint256)": "2b0daa0a",
					"_leToUint32(bytes,uint256)": "fec2f93f",
					"_nBitsToTarget(bytes4)": "004ea54c",
					"_targetToNBits(uint256)": "047e653d",
					"swapEndian(bytes32)": "40e2283f"
				}
			},
			"storageLayout": {
				"storage": [],
				"types": null
			},
			"userdoc": {
				"kind": "user",
				"methods": {
					"RETARGET_PERIOD()": {
						"notice": "Retarget period for Bitcoin Difficulty Adjustment "
					},
					"_leToBytes32(bytes,uint256)": {
						"notice": "input: 0x...000102030405060708090A0B0C0D0E0F0102030405060708090A0B0C0D0E0F...., 32 output: 0x0F0E0D0C0B0A090807060504030201000F0E0D0C0B0A09080706050403020100"
					},
					"_leToBytes4(bytes,uint256)": {
						"notice": "input: 0x...01020304....., 3 output: 0x04030201"
					},
					"_leToUint32(bytes,uint256)": {
						"notice": "input: 0x...01020304....., 3 output: 0x04030201"
					}
				},
				"version": 1
			}
		}
	}
}