{
	"data": {
		"bytecode": {
			"linkReferences": {},
			"object": "611191610053600b82828239805160001a607314610046577f4e487b7100000000000000000000000000000000000000000000000000000000600052600060045260246000fd5b30600052607381538281f3fe73000000000000000000000000000000000000000030146080604052600436106100915760003560e01c806340e2283f1161006557806340e2283f14610144578063dd1d743b14610174578063f7ba2c0d146101a4578063fec2f93f146101c257610091565b80624ea54c14610096578063047e653d146100c6578063056e04ec146100f65780632b0daa0a14610114575b600080fd5b6100b060048036038101906100ab91906109b7565b6101f2565b6040516100bd9190610b69565b60405180910390f35b6100e060048036038101906100db9190610a44565b61025a565b6040516100ed9190610b84565b60405180910390f35b6100fe610354565b60405161010b9190610b69565b60405180910390f35b61012e600480360381019061012991906109e4565b61035b565b60405161013b9190610b0e565b60405180910390f35b61015e6004803603810190610159919061098a565b610443565b60405161016b9190610af3565b60405180910390f35b61018e600480360381019061018991906109e4565b610598565b60405161019b9190610af3565b60405180910390f35b6101ac610717565b6040516101b99190610b69565b60405180910390f35b6101dc60048036038101906101d791906109e4565b610737565b6040516101e99190610b84565b60405180910390f35b600080627fffff8360e01c1663ffffffff169050600061022f6003601863ff0000008760e01c1663ffffffff16901c61082790919063ffffffff16565b9050610251816101006102429190610cd0565b8361088090919063ffffffff16565b92505050919050565b60008082141561026d576000905061034f565b6000806000905060008490505b6000811461029c57818061028d90610ffc565b925050600881901c905061027a565b60038263ffffffff16116102e25763ffffffff851692508160036102c09190610eba565b60086102cc9190610e48565b63ffffffff168363ffffffff16901b925061030d565b63ffffffff6003836102f49190610eba565b60086103009190610e48565b63ffffffff1686901c1692505b600062800000841663ffffffff161461033c5760088363ffffffff16901c9250818061033890610ffc565b9250505b8260188363ffffffff16901b1793505050505b919050565b6212750081565b60008383839060048561036e9190610bf6565b9261037b93929190610bbb565b906103869190610f9d565b9050600862ff00ff60e01b82167bffffffffffffffffffffffffffffffffffffffffffffffffffffffff1916901b62ff00ff60e01b6008837bffffffffffffffffffffffffffffffffffffffffffffffffffffffff1916901c16179050601061ffff60e01b82167bffffffffffffffffffffffffffffffffffffffffffffffffffffffff1916901b61ffff60e01b6010837bffffffffffffffffffffffffffffffffffffffffffffffffffffffff1916901c161790509392505050565b600081905060087eff00ff00ff00ff00ff00ff00ff00ff00ff00ff00ff00ff00ff00ff00ff00ff60001b8216901b7eff00ff00ff00ff00ff00ff00ff00ff00ff00ff00ff00ff00ff00ff00ff00ff60001b600883901c1617905060107dffff0000ffff0000ffff0000ffff0000ffff0000ffff0000ffff0000ffff60001b8216901b7dffff0000ffff0000ffff0000ffff0000ffff0000ffff0000ffff0000ffff60001b601083901c1617905060207bffffffff00000000ffffffff00000000ffffffff00000000ffffffff60001b8216901b7bffffffff00000000ffffffff00000000ffffffff00000000ffffffff60001b602083901c16179050604077ffffffffffffffff0000000000000000ffffffffffffffff60001b8216901b77ffffffffffffffff0000000000000000ffffffffffffffff60001b604083901c16179050608081901b608082901c179050919050565b6000838383906020856105ab9190610bf6565b926105b893929190610bbb565b906105c39190610f3e565b905060087eff00ff00ff00ff00ff00ff00ff00ff00ff00ff00ff00ff00ff00ff00ff00ff60001b8216901b7eff00ff00ff00ff00ff00ff00ff00ff00ff00ff00ff00ff00ff00ff00ff00ff60001b600883901c1617905060107dffff0000ffff0000ffff0000ffff0000ffff0000ffff0000ffff0000ffff60001b8216901b7dffff0000ffff0000ffff0000ffff0000ffff0000ffff0000ffff0000ffff60001b601083901c1617905060207bffffffff00000000ffffffff00000000ffffffff00000000ffffffff60001b8216901b7bffffffff00000000ffffffff00000000ffffffff00000000ffffffff60001b602083901c16179050604077ffffffffffffffff0000000000000000ffffffffffffffff60001b8216901b77ffffffffffffffff0000000000000000ffffffffffffffff60001b604083901c16179050608081901b608082901c1790509392505050565b7bffff000000000000000000000000000000000000000000000000000081565b6000808484849060048661074b9190610bf6565b9261075893929190610bbb565b906107639190610f9d565b9050600862ff00ff60e01b82167bffffffffffffffffffffffffffffffffffffffffffffffffffffffff1916901b62ff00ff60e01b6008837bffffffffffffffffffffffffffffffffffffffffffffffffffffffff1916901c16179050601061ffff60e01b82167bffffffffffffffffffffffffffffffffffffffffffffffffffffffff1916901b61ffff60e01b6010837bffffffffffffffffffffffffffffffffffffffffffffffffffffffff1916901c161790508060e01c9150509392505050565b60008282111561086c576040517f08c379a000000000000000000000000000000000000000000000000000000000815260040161086390610b29565b60405180910390fd5b81836108789190610e86565b905092915050565b60008083141561089357600090506108ef565b818361089f9190610dee565b90508183826108ae9190610c4c565b146108ee576040517f08c379a00000000000000000000000000000000000000000000000000000000081526004016108e590610b49565b60405180910390fd5b5b92915050565b60008135905061090481611116565b92915050565b6000813590506109198161112d565b92915050565b60008083601f8401126109355761093461108c565b5b8235905067ffffffffffffffff81111561095257610951611087565b5b60208301915083600182028301111561096e5761096d61109b565b5b9250929050565b60008135905061098481611144565b92915050565b6000602082840312156109a05761099f6110a5565b5b60006109ae848285016108f5565b91505092915050565b6000602082840312156109cd576109cc6110a5565b5b60006109db8482850161090a565b91505092915050565b6000806000604084860312156109fd576109fc6110a5565b5b600084013567ffffffffffffffff811115610a1b57610a1a6110a0565b5b610a278682870161091f565b93509350506020610a3a86828701610975565b9150509250925092565b600060208284031215610a5a57610a596110a5565b5b6000610a6884828501610975565b91505092915050565b610a7a81610eee565b82525050565b610a8981610ef8565b82525050565b6000610a9c601d83610baa565b9150610aa7826110c4565b602082019050919050565b6000610abf601f83610baa565b9150610aca826110ed565b602082019050919050565b610ade81610f24565b82525050565b610aed81610f2e565b82525050565b6000602082019050610b086000830184610a71565b92915050565b6000602082019050610b236000830184610a80565b92915050565b60006020820190508181036000830152610b4281610a8f565b9050919050565b60006020820190508181036000830152610b6281610ab2565b9050919050565b6000602082019050610b7e6000830184610ad5565b92915050565b6000602082019050610b996000830184610ae4565b92915050565b600082905092915050565b600082825260208201905092915050565b60008085851115610bcf57610bce611096565b5b83861115610be057610bdf611091565b5b6001850283019150848603905094509492505050565b6000610c0182610f24565b9150610c0c83610f24565b9250827fffffffffffffffffffffffffffffffffffffffffffffffffffffffffffffffff03821115610c4157610c40611029565b5b828201905092915050565b6000610c5782610f24565b9150610c6283610f24565b925082610c7257610c71611058565b5b828204905092915050565b6000808291508390505b6001851115610cc757808604811115610ca357610ca2611029565b5b6001851615610cb25780820291505b8081029050610cc0856110b7565b9450610c87565b94509492505050565b6000610cdb82610f24565b9150610ce683610f24565b9250610d137fffffffffffffffffffffffffffffffffffffffffffffffffffffffffffffffff8484610d1b565b905092915050565b600082610d2b5760019050610de7565b81610d395760009050610de7565b8160018114610d4f5760028114610d5957610d88565b6001915050610de7565b60ff841115610d6b57610d6a611029565b5b8360020a915084821115610d8257610d81611029565b5b50610de7565b5060208310610133831016604e8410600b8410161715610dbd5782820a905083811115610db857610db7611029565b5b610de7565b610dca8484846001610c7d565b92509050818404811115610de157610de0611029565b5b81810290505b9392505050565b6000610df982610f24565b9150610e0483610f24565b9250817fffffffffffffffffffffffffffffffffffffffffffffffffffffffffffffffff0483118215151615610e3d57610e3c611029565b5b828202905092915050565b6000610e5382610f2e565b9150610e5e83610f2e565b92508163ffffffff0483118215151615610e7b57610e7a611029565b5b828202905092915050565b6000610e9182610f24565b9150610e9c83610f24565b925082821015610eaf57610eae611029565b5b828203905092915050565b6000610ec582610f2e565b9150610ed083610f2e565b925082821015610ee357610ee2611029565b5b828203905092915050565b6000819050919050565b60007fffffffff0000000000000000000000000000000000000000000000000000000082169050919050565b6000819050919050565b600063ffffffff82169050919050565b6000610f4a8383610b9f565b82610f558135610eee565b92506020821015610f9557610f907fffffffffffffffffffffffffffffffffffffffffffffffffffffffffffffffff836020036008026110aa565b831692505b505092915050565b6000610fa98383610b9f565b82610fb48135610ef8565b92506004821015610ff457610fef7fffffffff00000000000000000000000000000000000000000000000000000000836004036008026110aa565b831692505b505092915050565b600061100782610f2e565b915063ffffffff82141561101e5761101d611029565b5b600182019050919050565b7f4e487b7100000000000000000000000000000000000000000000000000000000600052601160045260246000fd5b7f4e487b7100000000000000000000000000000000000000000000000000000000600052601260045260246000fd5b600080fd5b600080fd5b600080fd5b600080fd5b600080fd5b600080fd5b600080fd5b600082821b905092915050565b60008160011c9050919050565b7f556e646572666c6f7720647572696e67207375627472616374696f6e2e000000600082015250565b7f4f766572666c6f7720647572696e67206d756c7469706c69636174696f6e2e00600082015250565b61111f81610eee565b811461112a57600080fd5b50565b61113681610ef8565b811461114157600080fd5b50565b61114d81610f24565b811461115857600080fd5b5056fea26469706673582212206cb07b52136fff768dfefddb57c90c87806703fb391df96d4a8f04d6f4e79edc64736f6c63430008070033",
			"opcodes": "PUSH2 0x1191 PUSH2 0x53 PUSH1 0xB DUP3 DUP3 DUP3 CODECOPY DUP1 MLOAD PUSH1 0x0 BYTE PUSH1 0x73 EQ PUSH2 0x46 JUMPI PUSH32 0x4E487B7100000000000000000000000000000000000000000000000000000000 PUSH1 0x0 MSTORE PUSH1 0x0 PUSH1 0x4 MSTORE PUSH1 0x24 PUSH1 0x0 REVERT JUMPDEST ADDRESS PUSH1 0x0 MSTORE PUSH1 0x73 DUP2 MSTORE8 DUP3 DUP2 RETURN INVALID PUSH20 0x0 ADDRESS EQ PUSH1 0x80 PUSH1 0x40 MSTORE PUSH1 0x4 CALLDATASIZE LT PUSH2 0x91 JUMPI PUSH1 0x0 CALLDATALOAD PUSH1 0xE0 SHR DUP1 PUSH4 0x40E2283F GT PUSH2 0x65 JUMPI DUP1 PUSH4 0x40E2283F EQ PUSH2 0x144 JUMPI DUP1 PUSH4 0xDD1D743B EQ PUSH2 0x174 JUMPI DUP1 PUSH4 0xF7BA2C0D EQ PUSH2 0x1A4 JUMPI DUP1 PUSH4 0xFEC2F93F EQ PUSH2 0x1C2 JUMPI PUSH2 0x91 JUMP JUMPDEST DUP1 PUSH3 0x4EA54C EQ PUSH2 0x96 JUMPI DUP1 PUSH4 0x47E653D EQ PUSH2 0xC6 JUMPI DUP1 PUSH4 0x56E04EC EQ PUSH2 0xF6 JUMPI DUP1 PUSH4 0x2B0DAA0A EQ PUSH2 0x114 JUMPI JUMPDEST PUSH1 0x0 DUP1 REVERT JUMPDEST PUSH2 0xB0 PUSH1 0x4 DUP1 CALLDATASIZE SUB DUP2 ADD SWAP1 PUSH2 0xAB SWAP2 SWAP1 PUSH2 0x9B7 JUMP JUMPDEST PUSH2 0x1F2 JUMP JUMPDEST PUSH1 0x40 MLOAD PUSH2 0xBD SWAP2 SWAP1 PUSH2 0xB69 JUMP JUMPDEST PUSH1 0x40 MLOAD DUP1 SWAP2 SUB SWAP1 RETURN JUMPDEST PUSH2 0xE0 PUSH1 0x4 DUP1 CALLDATASIZE SUB DUP2 ADD SWAP1 PUSH2 0xDB SWAP2 SWAP1 PUSH2 0xA44 JUMP JUMPDEST PUSH2 0x25A JUMP JUMPDEST PUSH1 0x40 MLOAD PUSH2 0xED SWAP2 SWAP1 PUSH2 0xB84 JUMP JUMPDEST PUSH1 0x40 MLOAD DUP1 SWAP2 SUB SWAP1 RETURN JUMPDEST PUSH2 0xFE PUSH2 0x354 JUMP JUMPDEST PUSH1 0x40 MLOAD PUSH2 0x10B SWAP2 SWAP1 PUSH2 0xB69 JUMP JUMPDEST PUSH1 0x40 MLOAD DUP1 SWAP2 SUB SWAP1 RETURN JUMPDEST PUSH2 0x12E PUSH1 0x4 DUP1 CALLDATASIZE SUB DUP2 ADD SWAP1 PUSH2 0x129 SWAP2 SWAP1 PUSH2 0x9E4 JUMP JUMPDEST PUSH2 0x35B JUMP JUMPDEST PUSH1 0x40 MLOAD PUSH2 0x13B SWAP2 SWAP1 PUSH2 0xB0E JUMP JUMPDEST PUSH1 0x40 MLOAD DUP1 SWAP2 SUB SWAP1 RETURN JUMPDEST PUSH2 0x15E PUSH1 0x4 DUP1 CALLDATASIZE SUB DUP2 ADD SWAP1 PUSH2 0x159 SWAP2 SWAP1 PUSH2 0x98A JUMP JUMPDEST PUSH2 0x443 JUMP JUMPDEST PUSH1 0x40 MLOAD PUSH2 0x16B SWAP2 SWAP1 PUSH2 0xAF3 JUMP JUMPDEST PUSH1 0x40 MLOAD DUP1 SWAP2 SUB SWAP1 RETURN JUMPDEST PUSH2 0x18E PUSH1 0x4 DUP1 CALLDATASIZE SUB DUP2 ADD SWAP1 PUSH2 0x189 SWAP2 SWAP1 PUSH2 0x9E4 JUMP JUMPDEST PUSH2 0x598 JUMP JUMPDEST PUSH1 0x40 MLOAD PUSH2 0x19B SWAP2 SWAP1 PUSH2 0xAF3 JUMP JUMPDEST PUSH1 0x40 MLOAD DUP1 SWAP2 SUB SWAP1 RETURN JUMPDEST PUSH2 0x1AC PUSH2 0x717 JUMP JUMPDEST PUSH1 0x40 MLOAD PUSH2 0x1B9 SWAP2 SWAP1 PUSH2 0xB69 JUMP JUMPDEST PUSH1 0x40 MLOAD DUP1 SWAP2 SUB SWAP1 RETURN JUMPDEST PUSH2 0x1DC PUSH1 0x4 DUP1 CALLDATASIZE SUB DUP2 ADD SWAP1 PUSH2 0x1D7 SWAP2 SWAP1 PUSH2 0x9E4 JUMP JUMPDEST PUSH2 0x737 JUMP JUMPDEST PUSH1 0x40 MLOAD PUSH2 0x1E9 SWAP2 SWAP1 PUSH2 0xB84 JUMP JUMPDEST PUSH1 0x40 MLOAD DUP1 SWAP2 SUB SWAP1 RETURN JUMPDEST PUSH1 0x0 DUP1 PUSH3 0x7FFFFF DUP4 PUSH1 0xE0 SHR AND PUSH4 0xFFFFFFFF AND SWAP1 POP PUSH1 0x0 PUSH2 0x22F PUSH1 0x3 PUSH1 0x18 PUSH4 0xFF000000 DUP8 PUSH1 0xE0 SHR AND PUSH4 0xFFFFFFFF AND SWAP1 SHR PUSH2 0x827 SWAP1 SWAP2 SWAP1 PUSH4 0xFFFFFFFF AND JUMP JUMPDEST SWAP1 POP PUSH2 0x251 DUP2 PUSH2 0x100 PUSH2 0x242 SWAP2 SWAP1 PUSH2 0xCD0 JUMP JUMPDEST DUP4 PUSH2 0x880 SWAP1 SWAP2 SWAP1 PUSH4 0xFFFFFFFF AND JUMP JUMPDEST SWAP3 POP POP POP SWAP2 SWAP1 POP JUMP JUMPDEST PUSH1 0x0 DUP1 DUP3 EQ ISZERO PUSH2 0x26D JUMPI PUSH1 0x0 SWAP1 POP PUSH2 0x34F JUMP JUMPDEST PUSH1 0x0 DUP1 PUSH1 0x0 SWAP1 POP PUSH1 0x0 DUP5 SWAP1 POP JUMPDEST PUSH1 0x0 DUP2 EQ PUSH2 0x29C JUMPI DUP2 DUP1 PUSH2 0x28D SWAP1 PUSH2 0xFFC JUMP JUMPDEST SWAP3 POP POP PUSH1 0x8 DUP2 SWAP1 SHR SWAP1 POP PUSH2 0x27A JUMP JUMPDEST PUSH1 0x3 DUP3 PUSH4 0xFFFFFFFF AND GT PUSH2 0x2E2 JUMPI PUSH4 0xFFFFFFFF DUP6 AND SWAP3 POP DUP2 PUSH1 0x3 PUSH2 0x2C0 SWAP2 SWAP1 PUSH2 0xEBA JUMP JUMPDEST PUSH1 0x8 PUSH2 0x2CC SWAP2 SWAP1 PUSH2 0xE48 JUMP JUMPDEST PUSH4 0xFFFFFFFF AND DUP4 PUSH4 0xFFFFFFFF AND SWAP1 SHL SWAP3 POP PUSH2 0x30D JUMP JUMPDEST PUSH4 0xFFFFFFFF PUSH1 0x3 DUP4 PUSH2 0x2F4 SWAP2 SWAP1 PUSH2 0xEBA JUMP JUMPDEST PUSH1 0x8 PUSH2 0x300 SWAP2 SWAP1 PUSH2 0xE48 JUMP JUMPDEST PUSH4 0xFFFFFFFF AND DUP7 SWAP1 SHR AND SWAP3 POP JUMPDEST PUSH1 0x0 PUSH3 0x800000 DUP5 AND PUSH4 0xFFFFFFFF AND EQ PUSH2 0x33C JUMPI PUSH1 0x8 DUP4 PUSH4 0xFFFFFFFF AND SWAP1 SHR SWAP3 POP DUP2 DUP1 PUSH2 0x338 SWAP1 PUSH2 0xFFC JUMP JUMPDEST SWAP3 POP POP JUMPDEST DUP3 PUSH1 0x18 DUP4 PUSH4 0xFFFFFFFF AND SWAP1 SHL OR SWAP4 POP POP POP POP JUMPDEST SWAP2 SWAP1 POP JUMP JUMPDEST PUSH3 0x127500 DUP2 JUMP JUMPDEST PUSH1 0x0 DUP4 DUP4 DUP4 SWAP1 PUSH1 0x4 DUP6 PUSH2 0x36E SWAP2 SWAP1 PUSH2 0xBF6 JUMP JUMPDEST SWAP3 PUSH2 0x37B SWAP4 SWAP3 SWAP2 SWAP1 PUSH2 0xBBB JUMP JUMPDEST SWAP1 PUSH2 0x386 SWAP2 SWAP1 PUSH2 0xF9D JUMP JUMPDEST SWAP1 POP PUSH1 0x8 PUSH3 0xFF00FF PUSH1 0xE0 SHL DUP3 AND PUSH28 0xFFFFFFFFFFFFFFFFFFFFFFFFFFFFFFFFFFFFFFFFFFFFFFFFFFFFFFFF NOT AND SWAP1 SHL PUSH3 0xFF00FF PUSH1 0xE0 SHL PUSH1 0x8 DUP4 PUSH28 0xFFFFFFFFFFFFFFFFFFFFFFFFFFFFFFFFFFFFFFFFFFFFFFFFFFFFFFFF NOT AND SWAP1 SHR AND OR SWAP1 POP PUSH1 0x10 PUSH2 0xFFFF PUSH1 0xE0 SHL DUP3 AND PUSH28 0xFFFFFFFFFFFFFFFFFFFFFFFFFFFFFFFFFFFFFFFFFFFFFFFFFFFFFFFF NOT AND SWAP1 SHL PUSH2 0xFFFF PUSH1 0xE0 SHL PUSH1 0x10 DUP4 PUSH28 0xFFFFFFFFFFFFFFFFFFFFFFFFFFFFFFFFFFFFFFFFFFFFFFFFFFFFFFFF NOT AND SWAP1 SHR AND OR SWAP1 POP SWAP4 SWAP3 POP POP POP JUMP JUMPDEST PUSH1 0x0 DUP2 SWAP1 POP PUSH1 0x8 PUSH31 0xFF00FF00FF00FF00FF00FF00FF00FF00FF00FF00FF00FF00FF00FF00FF00FF PUSH1 0x0 SHL DUP3 AND SWAP1 SHL PUSH31 0xFF00FF00FF00FF00FF00FF00FF00FF00FF00FF00FF00FF00FF00FF00FF00FF PUSH1 0x0 SHL PUSH1 0x8 DUP4 SWAP1 SHR AND OR SWAP1 POP PUSH1 0x10 PUSH30 0xFFFF0000FFFF0000FFFF0000FFFF0000FFFF0000FFFF0000FFFF0000FFFF PUSH1 0x0 SHL DUP3 AND SWAP1 SHL PUSH30 0xFFFF0000FFFF0000FFFF0000FFFF0000FFFF0000FFFF0000FFFF0000FFFF PUSH1 0x0 SHL PUSH1 0x10 DUP4 SWAP1 SHR AND OR SWAP1 POP PUSH1 0x20 PUSH28 0xFFFFFFFF00000000FFFFFFFF00000000FFFFFFFF00000000FFFFFFFF PUSH1 0x0 SHL DUP3 AND SWAP1 SHL PUSH28 0xFFFFFFFF00000000FFFFFFFF00000000FFFFFFFF00000000FFFFFFFF PUSH1 0x0 SHL PUSH1 0x20 DUP4 SWAP1 SHR AND OR SWAP1 POP PUSH1 0x40 PUSH24 0xFFFFFFFFFFFFFFFF0000000000000000FFFFFFFFFFFFFFFF PUSH1 0x0 SHL DUP3 AND SWAP1 SHL PUSH24 0xFFFFFFFFFFFFFFFF0000000000000000FFFFFFFFFFFFFFFF PUSH1 0x0 SHL PUSH1 0x40 DUP4 SWAP1 SHR AND OR SWAP1 POP PUSH1 0x80 DUP2 SWAP1 SHL PUSH1 0x80 DUP3 SWAP1 SHR OR SWAP1 POP SWAP2 SWAP1 POP JUMP JUMPDEST PUSH1 0x0 DUP4 DUP4 DUP4 SWAP1 PUSH1 0x20 DUP6 PUSH2 0x5AB SWAP2 SWAP1 PUSH2 0xBF6 JUMP JUMPDEST SWAP3 PUSH2 0x5B8 SWAP4 SWAP3 SWAP2 SWAP1 PUSH2 0xBBB JUMP JUMPDEST SWAP1 PUSH2 0x5C3 SWAP2 SWAP1 PUSH2 0xF3E JUMP JUMPDEST SWAP1 POP PUSH1 0x8 PUSH31 0xFF00FF00FF00FF00FF00FF00FF00FF00FF00FF00FF00FF00FF00FF00FF00FF PUSH1 0x0 SHL DUP3 AND SWAP1 SHL PUSH31 0xFF00FF00FF00FF00FF00FF00FF00FF00FF00FF00FF00FF00FF00FF00FF00FF PUSH1 0x0 SHL PUSH1 0x8 DUP4 SWAP1 SHR AND OR SWAP1 POP PUSH1 0x10 PUSH30 0xFFFF0000FFFF0000FFFF0000FFFF0000FFFF0000FFFF0000FFFF0000FFFF PUSH1 0x0 SHL DUP3 AND SWAP1 SHL PUSH30 0xFFFF0000FFFF0000FFFF0000FFFF0000FFFF0000FFFF0000FFFF0000FFFF PUSH1 0x0 SHL PUSH1 0x10 DUP4 SWAP1 SHR AND OR SWAP1 POP PUSH1 0x20 PUSH28 0xFFFFFFFF00000000FFFFFFFF00000000FFFFFFFF00000000FFFFFFFF PUSH1 0x0 SHL DUP3 AND SWAP1 SHL PUSH28 0xFFFFFFFF00000000FFFFFFFF00000000FFFFFFFF00000000FFFFFFFF PUSH1 0x0 SHL PUSH1 0x20 DUP4 SWAP1 SHR AND OR SWAP1 POP PUSH1 0x40 PUSH24 0xFFFFFFFFFFFFFFFF0000000000000000FFFFFFFFFFFFFFFF PUSH1 0x0 SHL DUP3 AND SWAP1 SHL PUSH24 0xFFFFFFFFFFFFFFFF0000000000000000FFFFFFFFFFFFFFFF PUSH1 0x0 SHL PUSH1 0x40 DUP4 SWAP1 SHR AND OR SWAP1 POP PUSH1 0x80 DUP2 SWAP1 SHL PUSH1 0x80 DUP3 SWAP1 SHR OR SWAP1 POP SWAP4 SWAP3 POP POP POP JUMP JUMPDEST PUSH28 0xFFFF0000000000000000000000000000000000000000000000000000 DUP2 JUMP JUMPDEST PUSH1 0x0 DUP1 DUP5 DUP5 DUP5 SWAP1 PUSH1 0x4 DUP7 PUSH2 0x74B SWAP2 SWAP1 PUSH2 0xBF6 JUMP JUMPDEST SWAP3 PUSH2 0x758 SWAP4 SWAP3 SWAP2 SWAP1 PUSH2 0xBBB JUMP JUMPDEST SWAP1 PUSH2 0x763 SWAP2 SWAP1 PUSH2 0xF9D JUMP JUMPDEST SWAP1 POP PUSH1 0x8 PUSH3 0xFF00FF PUSH1 0xE0 SHL DUP3 AND PUSH28 0xFFFFFFFFFFFFFFFFFFFFFFFFFFFFFFFFFFFFFFFFFFFFFFFFFFFFFFFF NOT AND SWAP1 SHL PUSH3 0xFF00FF PUSH1 0xE0 SHL PUSH1 0x8 DUP4 PUSH28 0xFFFFFFFFFFFFFFFFFFFFFFFFFFFFFFFFFFFFFFFFFFFFFFFFFFFFFFFF NOT AND SWAP1 SHR AND OR SWAP1 POP PUSH1 0x10 PUSH2 0xFFFF PUSH1 0xE0 SHL DUP3 AND PUSH28 0xFFFFFFFFFFFFFFFFFFFFFFFFFFFFFFFFFFFFFFFFFFFFFFFFFFFFFFFF NOT AND SWAP1 SHL PUSH2 0xFFFF PUSH1 0xE0 SHL PUSH1 0x10 DUP4 PUSH28 0xFFFFFFFFFFFFFFFFFFFFFFFFFFFFFFFFFFFFFFFFFFFFFFFFFFFFFFFF NOT AND SWAP1 SHR AND OR SWAP1 POP DUP1 PUSH1 0xE0 SHR SWAP2 POP POP SWAP4 SWAP3 POP POP POP JUMP JUMPDEST PUSH1 0x0 DUP3 DUP3 GT ISZERO PUSH2 0x86C JUMPI PUSH1 0x40 MLOAD PUSH32 0x8C379A000000000000000000000000000000000000000000000000000000000 DUP2 MSTORE PUSH1 0x4 ADD PUSH2 0x863 SWAP1 PUSH2 0xB29 JUMP JUMPDEST PUSH1 0x40 MLOAD DUP1 SWAP2 SUB SWAP1 REVERT JUMPDEST DUP2 DUP4 PUSH2 0x878 SWAP2 SWAP1 PUSH2 0xE86 JUMP JUMPDEST SWAP1 POP SWAP3 SWAP2 POP POP JUMP JUMPDEST PUSH1 0x0 DUP1 DUP4 EQ ISZERO PUSH2 0x893 JUMPI PUSH1 0x0 SWAP1 POP PUSH2 0x8EF JUMP JUMPDEST DUP2 DUP4 PUSH2 0x89F SWAP2 SWAP1 PUSH2 0xDEE JUMP JUMPDEST SWAP1 POP DUP2 DUP4 DUP3 PUSH2 0x8AE SWAP2 SWAP1 PUSH2 0xC4C JUMP JUMPDEST EQ PUSH2 0x8EE JUMPI PUSH1 0x40 MLOAD PUSH32 0x8C379A000000000000000000000000000000000000000000000000000000000 DUP2 MSTORE PUSH1 0x4 ADD PUSH2 0x8E5 SWAP1 PUSH2 0xB49 JUMP JUMPDEST PUSH1 0x40 MLOAD DUP1 SWAP2 SUB SWAP1 REVERT JUMPDEST JUMPDEST SWAP3 SWAP2 POP POP JUMP JUMPDEST PUSH1 0x0 DUP2 CALLDATALOAD SWAP1 POP PUSH2 0x904 DUP2 PUSH2 0x1116 JUMP JUMPDEST SWAP3 SWAP2 POP POP JUMP JUMPDEST PUSH1 0x0 DUP2 CALLDATALOAD SWAP1 POP PUSH2 0x919 DUP2 PUSH2 0x112D JUMP JUMPDEST SWAP3 SWAP2 POP POP JUMP JUMPDEST PUSH1 0x0 DUP1 DUP4 PUSH1 0x1F DUP5 ADD SLT PUSH2 0x935 JUMPI PUSH2 0x934 PUSH2 0x108C JUMP JUMPDEST JUMPDEST DUP3 CALLDATALOAD SWAP1 POP PUSH8 0xFFFFFFFFFFFFFFFF DUP2 GT ISZERO PUSH2 0x952 JUMPI PUSH2 0x951 PUSH2 0x1087 JUMP JUMPDEST JUMPDEST PUSH1 0x20 DUP4 ADD SWAP2 POP DUP4 PUSH1 0x1 DUP3 MUL DUP4 ADD GT ISZERO PUSH2 0x96E JUMPI PUSH2 0x96D PUSH2 0x109B JUMP JUMPDEST JUMPDEST SWAP3 POP SWAP3 SWAP1 POP JUMP JUMPDEST PUSH1 0x0 DUP2 CALLDATALOAD SWAP1 POP PUSH2 0x984 DUP2 PUSH2 0x1144 JUMP JUMPDEST SWAP3 SWAP2 POP POP JUMP JUMPDEST PUSH1 0x0 PUSH1 0x20 DUP3 DUP5 SUB SLT ISZERO PUSH2 0x9A0 JUMPI PUSH2 0x99F PUSH2 0x10A5 JUMP JUMPDEST JUMPDEST PUSH1 0x0 PUSH2 0x9AE DUP5 DUP3 DUP6 ADD PUSH2 0x8F5 JUMP JUMPDEST SWAP2 POP POP SWAP3 SWAP2 POP POP JUMP JUMPDEST PUSH1 0x0 PUSH1 0x20 DUP3 DUP5 SUB SLT ISZERO PUSH2 0x9CD JUMPI PUSH2 0x9CC PUSH2 0x10A5 JUMP JUMPDEST JUMPDEST PUSH1 0x0 PUSH2 0x9DB DUP5 DUP3 DUP6 ADD PUSH2 0x90A JUMP JUMPDEST SWAP2 POP POP SWAP3 SWAP2 POP POP JUMP JUMPDEST PUSH1 0x0 DUP1 PUSH1 0x0 PUSH1 0x40 DUP5 DUP7 SUB SLT ISZERO PUSH2 0x9FD JUMPI PUSH2 0x9FC PUSH2 0x10A5 JUMP JUMPDEST JUMPDEST PUSH1 0x0 DUP5 ADD CALLDATALOAD PUSH8 0xFFFFFFFFFFFFFFFF DUP2 GT ISZERO PUSH2 0xA1B JUMPI PUSH2 0xA1A PUSH2 0x10A0 JUMP JUMPDEST JUMPDEST PUSH2 0xA27 DUP7 DUP3 DUP8 ADD PUSH2 0x91F JUMP JUMPDEST SWAP4 POP SWAP4 POP POP PUSH1 0x20 PUSH2 0xA3A DUP7 DUP3 DUP8 ADD PUSH2 0x975 JUMP JUMPDEST SWAP2 POP POP SWAP3 POP SWAP3 POP SWAP3 JUMP JUMPDEST PUSH1 0x0 PUSH1 0x20 DUP3 DUP5 SUB SLT ISZERO PUSH2 0xA5A JUMPI PUSH2 0xA59 PUSH2 0x10A5 JUMP JUMPDEST JUMPDEST PUSH1 0x0 PUSH2 0xA68 DUP5 DUP3 DUP6 ADD PUSH2 0x975 JUMP JUMPDEST SWAP2 POP POP SWAP3 SWAP2 POP POP JUMP JUMPDEST PUSH2 0xA7A DUP2 PUSH2 0xEEE JUMP JUMPDEST DUP3 MSTORE POP POP JUMP JUMPDEST PUSH2 0xA89 DUP2 PUSH2 0xEF8 JUMP JUMPDEST DUP3 MSTORE POP POP JUMP JUMPDEST PUSH1 0x0 PUSH2 0xA9C PUSH1 0x1D DUP4 PUSH2 0xBAA JUMP JUMPDEST SWAP2 POP PUSH2 0xAA7 DUP3 PUSH2 0x10C4 JUMP JUMPDEST PUSH1 0x20 DUP3 ADD SWAP1 POP SWAP2 SWAP1 POP JUMP JUMPDEST PUSH1 0x0 PUSH2 0xABF PUSH1 0x1F DUP4 PUSH2 0xBAA JUMP JUMPDEST SWAP2 POP PUSH2 0xACA DUP3 PUSH2 0x10ED JUMP JUMPDEST PUSH1 0x20 DUP3 ADD SWAP1 POP SWAP2 SWAP1 POP JUMP JUMPDEST PUSH2 0xADE DUP2 PUSH2 0xF24 JUMP JUMPDEST DUP3 MSTORE POP POP JUMP JUMPDEST PUSH2 0xAED DUP2 PUSH2 0xF2E JUMP JUMPDEST DUP3 MSTORE POP POP JUMP JUMPDEST PUSH1 0x0 PUSH1 0x20 DUP3 ADD SWAP1 POP PUSH2 0xB08 PUSH1 0x0 DUP4 ADD DUP5 PUSH2 0xA71 JUMP JUMPDEST SWAP3 SWAP2 POP POP JUMP JUMPDEST PUSH1 0x0 PUSH1 0x20 DUP3 ADD SWAP1 POP PUSH2 0xB23 PUSH1 0x0 DUP4 ADD DUP5 PUSH2 0xA80 JUMP JUMPDEST SWAP3 SWAP2 POP POP JUMP JUMPDEST PUSH1 0x0 PUSH1 0x20 DUP3 ADD SWAP1 POP DUP2 DUP2 SUB PUSH1 0x0 DUP4 ADD MSTORE PUSH2 0xB42 DUP2 PUSH2 0xA8F JUMP JUMPDEST SWAP1 POP SWAP2 SWAP1 POP JUMP JUMPDEST PUSH1 0x0 PUSH1 0x20 DUP3 ADD SWAP1 POP DUP2 DUP2 SUB PUSH1 0x0 DUP4 ADD MSTORE PUSH2 0xB62 DUP2 PUSH2 0xAB2 JUMP JUMPDEST SWAP1 POP SWAP2 SWAP1 POP JUMP JUMPDEST PUSH1 0x0 PUSH1 0x20 DUP3 ADD SWAP1 POP PUSH2 0xB7E PUSH1 0x0 DUP4 ADD DUP5 PUSH2 0xAD5 JUMP JUMPDEST SWAP3 SWAP2 POP POP JUMP JUMPDEST PUSH1 0x0 PUSH1 0x20 DUP3 ADD SWAP1 POP PUSH2 0xB99 PUSH1 0x0 DUP4 ADD DUP5 PUSH2 0xAE4 JUMP JUMPDEST SWAP3 SWAP2 POP POP JUMP JUMPDEST PUSH1 0x0 DUP3 SWAP1 POP SWAP3 SWAP2 POP POP JUMP JUMPDEST PUSH1 0x0 DUP3 DUP3 MSTORE PUSH1 0x20 DUP3 ADD SWAP1 POP SWAP3 SWAP2 POP POP JUMP JUMPDEST PUSH1 0x0 DUP1 DUP6 DUP6 GT ISZERO PUSH2 0xBCF JUMPI PUSH2 0xBCE PUSH2 0x1096 JUMP JUMPDEST JUMPDEST DUP4 DUP7 GT ISZERO PUSH2 0xBE0 JUMPI PUSH2 0xBDF PUSH2 0x1091 JUMP JUMPDEST JUMPDEST PUSH1 0x1 DUP6 MUL DUP4 ADD SWAP2 POP DUP5 DUP7 SUB SWAP1 POP SWAP5 POP SWAP5 SWAP3 POP POP POP JUMP JUMPDEST PUSH1 0x0 PUSH2 0xC01 DUP3 PUSH2 0xF24 JUMP JUMPDEST SWAP2 POP PUSH2 0xC0C DUP4 PUSH2 0xF24 JUMP JUMPDEST SWAP3 POP DUP3 PUSH32 0xFFFFFFFFFFFFFFFFFFFFFFFFFFFFFFFFFFFFFFFFFFFFFFFFFFFFFFFFFFFFFFFF SUB DUP3 GT ISZERO PUSH2 0xC41 JUMPI PUSH2 0xC40 PUSH2 0x1029 JUMP JUMPDEST JUMPDEST DUP3 DUP3 ADD SWAP1 POP SWAP3 SWAP2 POP POP JUMP JUMPDEST PUSH1 0x0 PUSH2 0xC57 DUP3 PUSH2 0xF24 JUMP JUMPDEST SWAP2 POP PUSH2 0xC62 DUP4 PUSH2 0xF24 JUMP JUMPDEST SWAP3 POP DUP3 PUSH2 0xC72 JUMPI PUSH2 0xC71 PUSH2 0x1058 JUMP JUMPDEST JUMPDEST DUP3 DUP3 DIV SWAP1 POP SWAP3 SWAP2 POP POP JUMP JUMPDEST PUSH1 0x0 DUP1 DUP3 SWAP2 POP DUP4 SWAP1 POP JUMPDEST PUSH1 0x1 DUP6 GT ISZERO PUSH2 0xCC7 JUMPI DUP1 DUP7 DIV DUP2 GT ISZERO PUSH2 0xCA3 JUMPI PUSH2 0xCA2 PUSH2 0x1029 JUMP JUMPDEST JUMPDEST PUSH1 0x1 DUP6 AND ISZERO PUSH2 0xCB2 JUMPI DUP1 DUP3 MUL SWAP2 POP JUMPDEST DUP1 DUP2 MUL SWAP1 POP PUSH2 0xCC0 DUP6 PUSH2 0x10B7 JUMP JUMPDEST SWAP5 POP PUSH2 0xC87 JUMP JUMPDEST SWAP5 POP SWAP5 SWAP3 POP POP POP JUMP JUMPDEST PUSH1 0x0 PUSH2 0xCDB DUP3 PUSH2 0xF24 JUMP JUMPDEST SWAP2 POP PUSH2 0xCE6 DUP4 PUSH2 0xF24 JUMP JUMPDEST SWAP3 POP PUSH2 0xD13 PUSH32 0xFFFFFFFFFFFFFFFFFFFFFFFFFFFFFFFFFFFFFFFFFFFFFFFFFFFFFFFFFFFFFFFF DUP5 DUP5 PUSH2 0xD1B JUMP JUMPDEST SWAP1 POP SWAP3 SWAP2 POP POP JUMP JUMPDEST PUSH1 0x0 DUP3 PUSH2 0xD2B JUMPI PUSH1 0x1 SWAP1 POP PUSH2 0xDE7 JUMP JUMPDEST DUP2 PUSH2 0xD39 JUMPI PUSH1 0x0 SWAP1 POP PUSH2 0xDE7 JUMP JUMPDEST DUP2 PUSH1 0x1 DUP2 EQ PUSH2 0xD4F JUMPI PUSH1 0x2 DUP2 EQ PUSH2 0xD59 JUMPI PUSH2 0xD88 JUMP JUMPDEST PUSH1 0x1 SWAP2 POP POP PUSH2 0xDE7 JUMP JUMPDEST PUSH1 0xFF DUP5 GT ISZERO PUSH2 0xD6B JUMPI PUSH2 0xD6A PUSH2 0x1029 JUMP JUMPDEST JUMPDEST DUP4 PUSH1 0x2 EXP SWAP2 POP DUP5 DUP3 GT ISZERO PUSH2 0xD82 JUMPI PUSH2 0xD81 PUSH2 0x1029 JUMP JUMPDEST JUMPDEST POP PUSH2 0xDE7 JUMP JUMPDEST POP PUSH1 0x20 DUP4 LT PUSH2 0x133 DUP4 LT AND PUSH1 0x4E DUP5 LT PUSH1 0xB DUP5 LT AND OR ISZERO PUSH2 0xDBD JUMPI DUP3 DUP3 EXP SWAP1 POP DUP4 DUP2 GT ISZERO PUSH2 0xDB8 JUMPI PUSH2 0xDB7 PUSH2 0x1029 JUMP JUMPDEST JUMPDEST PUSH2 0xDE7 JUMP JUMPDEST PUSH2 0xDCA DUP5 DUP5 DUP5 PUSH1 0x1 PUSH2 0xC7D JUMP JUMPDEST SWAP3 POP SWAP1 POP DUP2 DUP5 DIV DUP2 GT ISZERO PUSH2 0xDE1 JUMPI PUSH2 0xDE0 PUSH2 0x1029 JUMP JUMPDEST JUMPDEST DUP2 DUP2 MUL SWAP1 POP JUMPDEST SWAP4 SWAP3 POP POP POP JUMP JUMPDEST PUSH1 0x0 PUSH2 0xDF9 DUP3 PUSH2 0xF24 JUMP JUMPDEST SWAP2 POP PUSH2 0xE04 DUP4 PUSH2 0xF24 JUMP JUMPDEST SWAP3 POP DUP2 PUSH32 0xFFFFFFFFFFFFFFFFFFFFFFFFFFFFFFFFFFFFFFFFFFFFFFFFFFFFFFFFFFFFFFFF DIV DUP4 GT DUP3 ISZERO ISZERO AND ISZERO PUSH2 0xE3D JUMPI PUSH2 0xE3C PUSH2 0x1029 JUMP JUMPDEST JUMPDEST DUP3 DUP3 MUL SWAP1 POP SWAP3 SWAP2 POP POP JUMP JUMPDEST PUSH1 0x0 PUSH2 0xE53 DUP3 PUSH2 0xF2E JUMP JUMPDEST SWAP2 POP PUSH2 0xE5E DUP4 PUSH2 0xF2E JUMP JUMPDEST SWAP3 POP DUP2 PUSH4 0xFFFFFFFF DIV DUP4 GT DUP3 ISZERO ISZERO AND ISZERO PUSH2 0xE7B JUMPI PUSH2 0xE7A PUSH2 0x1029 JUMP JUMPDEST JUMPDEST DUP3 DUP3 MUL SWAP1 POP SWAP3 SWAP2 POP POP JUMP JUMPDEST PUSH1 0x0 PUSH2 0xE91 DUP3 PUSH2 0xF24 JUMP JUMPDEST SWAP2 POP PUSH2 0xE9C DUP4 PUSH2 0xF24 JUMP JUMPDEST SWAP3 POP DUP3 DUP3 LT ISZERO PUSH2 0xEAF JUMPI PUSH2 0xEAE PUSH2 0x1029 JUMP JUMPDEST JUMPDEST DUP3 DUP3 SUB SWAP1 POP SWAP3 SWAP2 POP POP JUMP JUMPDEST PUSH1 0x0 PUSH2 0xEC5 DUP3 PUSH2 0xF2E JUMP JUMPDEST SWAP2 POP PUSH2 0xED0 DUP4 PUSH2 0xF2E JUMP JUMPDEST SWAP3 POP DUP3 DUP3 LT ISZERO PUSH2 0xEE3 JUMPI PUSH2 0xEE2 PUSH2 0x1029 JUMP JUMPDEST JUMPDEST DUP3 DUP3 SUB SWAP1 POP SWAP3 SWAP2 POP POP JUMP JUMPDEST PUSH1 0x0 DUP2 SWAP1 POP SWAP2 SWAP1 POP JUMP JUMPDEST PUSH1 0x0 PUSH32 0xFFFFFFFF00000000000000000000000000000000000000000000000000000000 DUP3 AND SWAP1 POP SWAP2 SWAP1 POP JUMP JUMPDEST PUSH1 0x0 DUP2 SWAP1 POP SWAP2 SWAP1 POP JUMP JUMPDEST PUSH1 0x0 PUSH4 0xFFFFFFFF DUP3 AND SWAP1 POP SWAP2 SWAP1 POP JUMP JUMPDEST PUSH1 0x0 PUSH2 0xF4A DUP4 DUP4 PUSH2 0xB9F JUMP JUMPDEST DUP3 PUSH2 0xF55 DUP2 CALLDATALOAD PUSH2 0xEEE JUMP JUMPDEST SWAP3 POP PUSH1 0x20 DUP3 LT ISZERO PUSH2 0xF95 JUMPI PUSH2 0xF90 PUSH32 0xFFFFFFFFFFFFFFFFFFFFFFFFFFFFFFFFFFFFFFFFFFFFFFFFFFFFFFFFFFFFFFFF DUP4 PUSH1 0x20 SUB PUSH1 0x8 MUL PUSH2 0x10AA JUMP JUMPDEST DUP4 AND SWAP3 POP JUMPDEST POP POP SWAP3 SWAP2 POP POP JUMP JUMPDEST PUSH1 0x0 PUSH2 0xFA9 DUP4 DUP4 PUSH2 0xB9F JUMP JUMPDEST DUP3 PUSH2 0xFB4 DUP2 CALLDATALOAD PUSH2 0xEF8 JUMP JUMPDEST SWAP3 POP PUSH1 0x4 DUP3 LT ISZERO PUSH2 0xFF4 JUMPI PUSH2 0xFEF PUSH32 0xFFFFFFFF00000000000000000000000000000000000000000000000000000000 DUP4 PUSH1 0x4 SUB PUSH1 0x8 MUL PUSH2 0x10AA JUMP JUMPDEST DUP4 AND SWAP3 POP JUMPDEST POP POP SWAP3 SWAP2 POP POP JUMP JUMPDEST PUSH1 0x0 PUSH2 0x1007 DUP3 PUSH2 0xF2E JUMP JUMPDEST SWAP2 POP PUSH4 0xFFFFFFFF DUP3 EQ ISZERO PUSH2 0x101E JUMPI PUSH2 0x101D PUSH2 0x1029 JUMP JUMPDEST JUMPDEST PUSH1 0x1 DUP3 ADD SWAP1 POP SWAP2 SWAP1 POP JUMP JUMPDEST PUSH32 0x4E487B7100000000000000000000000000000000000000000000000000000000 PUSH1 0x0 MSTORE PUSH1 0x11 PUSH1 0x4 MSTORE PUSH1 0x24 PUSH1 0x0 REVERT JUMPDEST PUSH32 0x4E487B7100000000000000000000000000000000000000000000000000000000 PUSH1 0x0 MSTORE PUSH1 0x12 PUSH1 0x4 MSTORE PUSH1 0x24 PUSH1 0x0 REVERT JUMPDEST PUSH1 0x0 DUP1 REVERT JUMPDEST PUSH1 0x0 DUP1 REVERT JUMPDEST PUSH1 0x0 DUP1 REVERT JUMPDEST PUSH1 0x0 DUP1 REVERT JUMPDEST PUSH1 0x0 DUP1 REVERT JUMPDEST PUSH1 0x0 DUP1 REVERT JUMPDEST PUSH1 0x0 DUP1 REVERT JUMPDEST PUSH1 0x0 DUP3 DUP3 SHL SWAP1 POP SWAP3 SWAP2 POP POP JUMP JUMPDEST PUSH1 0x0 DUP2 PUSH1 0x1 SHR SWAP1 POP SWAP2 SWAP1 POP JUMP JUMPDEST PUSH32 0x556E646572666C6F7720647572696E67207375627472616374696F6E2E000000 PUSH1 0x0 DUP3 ADD MSTORE POP JUMP JUMPDEST PUSH32 0x4F766572666C6F7720647572696E67206D756C7469706C69636174696F6E2E00 PUSH1 0x0 DUP3 ADD MSTORE POP JUMP JUMPDEST PUSH2 0x111F DUP2 PUSH2 0xEEE JUMP JUMPDEST DUP2 EQ PUSH2 0x112A JUMPI PUSH1 0x0 DUP1 REVERT JUMPDEST POP JUMP JUMPDEST PUSH2 0x1136 DUP2 PUSH2 0xEF8 JUMP JUMPDEST DUP2 EQ PUSH2 0x1141 JUMPI PUSH1 0x0 DUP1 REVERT JUMPDEST POP JUMP JUMPDEST PUSH2 0x114D DUP2 PUSH2 0xF24 JUMP JUMPDEST DUP2 EQ PUSH2 0x1158 JUMPI PUSH1 0x0 DUP1 REVERT JUMPDEST POP JUMP INVALID LOG2 PUSH5 0x6970667358 0x22 SLT KECCAK256 PUSH13 0xB07B52136FFF768DFEFDDB57C9 0xC DUP8 DUP1 PUSH8 0x3FB391DF96D4A8F DIV 0xD6 DELEGATECALL 0xE7 SWAP15 0xDC PUSH5 0x736F6C6343 STOP ADDMOD SMOD STOP CALLER "
		},
		"gasEstimates": {
			"creation": {
				"codeDepositCost": "899400",
				"executionCost": "960",
				"totalCost": "900360"
			},
			"external": {
				"MAX_TARGET()": "357",
				"RETARGET_PERIOD()": "358",
				"_leToBytes32(bytes,uint256)": "infinite",
				"_leToBytes4(bytes,uint256)": "infinite",
				"_leToUint32(bytes,uint256)": "infinite",
				"_nBitsToTarget(bytes4)": "infinite",
				"_targetToNBits(uint256)": "infinite",
				"swapEndian(bytes32)": "infinite"
			},
			"internal": {
				"_retargetAlgorithm(uint256,uint256,uint256)": "infinite"
			}
		},
		"methodIdentifiers": {
			"MAX_TARGET()": "f7ba2c0d",
			"RETARGET_PERIOD()": "056e04ec",
			"_leToBytes32(bytes,uint256)": "dd1d743b",
			"_leToBytes4(bytes,uint256)": "2b0daa0a",
			"_leToUint32(bytes,uint256)": "fec2f93f",
			"_nBitsToTarget(bytes4)": "004ea54c",
			"_targetToNBits(uint256)": "047e653d",
			"swapEndian(bytes32)": "40e2283f"
		}
	},
	"abi": [
		{
			"inputs": [],
			"name": "MAX_TARGET",
			"outputs": [
				{
					"internalType": "uint256",
					"name": "",
					"type": "uint256"
				}
			],
			"stateMutability": "view",
			"type": "function"
		},
		{
			"inputs": [],
			"name": "RETARGET_PERIOD",
			"outputs": [
				{
					"internalType": "uint256",
					"name": "",
					"type": "uint256"
				}
			],
			"stateMutability": "view",
			"type": "function"
		},
		{
			"inputs": [
				{
					"internalType": "bytes",
					"name": "bz",
					"type": "bytes"
				},
				{
					"internalType": "uint256",
					"name": "startIndex",
					"type": "uint256"
				}
			],
			"name": "_leToBytes32",
			"outputs": [
				{
					"internalType": "bytes32",
					"name": "result",
					"type": "bytes32"
				}
			],
			"stateMutability": "pure",
			"type": "function"
		},
		{
			"inputs": [
				{
					"internalType": "bytes",
					"name": "bz",
					"type": "bytes"
				},
				{
					"internalType": "uint256",
					"name": "startIndex",
					"type": "uint256"
				}
			],
			"name": "_leToBytes4",
			"outputs": [
				{
					"internalType": "bytes4",
					"name": "result",
					"type": "bytes4"
				}
			],
			"stateMutability": "pure",
			"type": "function"
		},
		{
			"inputs": [
				{
					"internalType": "bytes",
					"name": "bz",
					"type": "bytes"
				},
				{
					"internalType": "uint256",
					"name": "startIndex",
					"type": "uint256"
				}
			],
			"name": "_leToUint32",
			"outputs": [
				{
					"internalType": "uint32",
					"name": "result",
					"type": "uint32"
				}
			],
			"stateMutability": "pure",
			"type": "function"
		},
		{
			"inputs": [
				{
					"internalType": "bytes4",
					"name": "nBits",
					"type": "bytes4"
				}
			],
			"name": "_nBitsToTarget",
			"outputs": [
				{
					"internalType": "uint256",
					"name": "target",
					"type": "uint256"
				}
			],
			"stateMutability": "pure",
			"type": "function"
		},
		{
			"inputs": [
				{
					"internalType": "uint256",
					"name": "target",
					"type": "uint256"
				}
			],
			"name": "_targetToNBits",
			"outputs": [
				{
					"internalType": "uint32",
					"name": "compact",
					"type": "uint32"
				}
			],
			"stateMutability": "pure",
			"type": "function"
		},
		{
			"inputs": [
				{
					"internalType": "bytes32",
					"name": "bz",
					"type": "bytes32"
				}
			],
			"name": "swapEndian",
			"outputs": [
				{
					"internalType": "bytes32",
					"name": "result",
					"type": "bytes32"
				}
			],
			"stateMutability": "pure",
			"type": "function"
		}
	]
}