{
	"data": {
		"bytecode": {
			"linkReferences": {
				"BitcoinUtils.sol": {
					"BitcoinUtils": [
						{
							"length": 20,
							"start": 200
						},
						{
							"length": 20,
							"start": 349
						},
						{
							"length": 20,
							"start": 498
						},
						{
							"length": 20,
							"start": 879
						},
						{
							"length": 20,
							"start": 1034
						},
						{
							"length": 20,
							"start": 6120
						},
						{
							"length": 20,
							"start": 6265
						},
						{
							"length": 20,
							"start": 6410
						},
						{
							"length": 20,
							"start": 6793
						},
						{
							"length": 20,
							"start": 6944
						},
						{
							"length": 20,
							"start": 8014
						},
						{
							"length": 20,
							"start": 8336
						},
						{
							"length": 20,
							"start": 8526
						},
						{
							"length": 20,
							"start": 8890
						},
						{
							"length": 20,
							"start": 9172
						},
						{
							"length": 20,
							"start": 9369
						},
						{
							"length": 20,
							"start": 9567
						},
						{
							"length": 20,
							"start": 9593
						}
					]
				}
			},
			"object": "6080604052606462000016620005e260201b60201c565b600a62000024919062000afa565b600162000032919062000c37565b6200003e919062000a67565b6003556110e060045560066005556121c0600655600060085562000067620005e260201b60201c565b600a62000075919062000afa565b603262000083919062000c37565b6009553480156200009357600080fd5b50604051620045b0380380620045b08339818101604052810190620000b9919062000729565b60006040518060e0016040528073__$4859e1d31be3c280958b9d5af91d5e63c4$__63dd1d743b8760046040518363ffffffff1660e01b81526004016200010292919062000945565b60206040518083038186803b1580156200011b57600080fd5b505af415801562000130573d6000803e3d6000fd5b505050506040513d601f19601f82011682018060405250810190620001569190620006c5565b815260200173__$4859e1d31be3c280958b9d5af91d5e63c4$__63dd1d743b8760246040518363ffffffff1660e01b81526004016200019792919062000911565b60206040518083038186803b158015620001b057600080fd5b505af4158015620001c5573d6000803e3d6000fd5b505050506040513d601f19601f82011682018060405250810190620001eb9190620006c5565b815260200173__$4859e1d31be3c280958b9d5af91d5e63c4$__6340e2283f600280896040516200021d9190620008db565b602060405180830381855afa1580156200023b573d6000803e3d6000fd5b5050506040513d601f19601f82011682018060405250810190620002609190620006c5565b604051602001620002729190620008be565b604051602081830303815290604052604051620002909190620008db565b602060405180830381855afa158015620002ae573d6000803e3d6000fd5b5050506040513d601f19601f82011682018060405250810190620002d39190620006c5565b6040518263ffffffff1660e01b8152600401620002f19190620008f4565b60206040518083038186803b1580156200030a57600080fd5b505af41580156200031f573d6000803e3d6000fd5b505050506040513d601f19601f82011682018060405250810190620003459190620006c5565b8152602001600081526020013373ffffffffffffffffffffffffffffffffffffffff16815260200173__$4859e1d31be3c280958b9d5af91d5e63c4$__63fec2f93f8760446040518363ffffffff1660e01b8152600401620003a992919062000979565b60206040518083038186803b158015620003c257600080fd5b505af4158015620003d7573d6000803e3d6000fd5b505050506040513d601f19601f82011682018060405250810190620003fd9190620007a4565b63ffffffff16815260200173__$4859e1d31be3c280958b9d5af91d5e63c4$__632b0daa0a8760486040518363ffffffff1660e01b815260040162000444929190620009ad565b60206040518083038186803b1580156200045d57600080fd5b505af415801562000472573d6000803e3d6000fd5b505050506040513d601f19601f82011682018060405250810190620004989190620006f7565b7bffffffffffffffffffffffffffffffffffffffffffffffffffffffff191681525090508281606001818152505080600a6000836040015181526020019081526020016000206000820151816000015560208201518160010155604082015181600201556060820151816003015560808201518160040160006101000a81548173ffffffffffffffffffffffffffffffffffffffff021916908373ffffffffffffffffffffffffffffffffffffffff16021790555060a08201518160040160146101000a81548163ffffffff021916908363ffffffff16021790555060c08201518160040160186101000a81548163ffffffff021916908360e01c02179055509050508060400151600b60008581526020019081526020016000208190555081600760006101000a81548163ffffffff021916908363ffffffff1602179055505050505062000ee2565b60006008905090565b600062000602620005fc8462000a0a565b620009e1565b90508281526020810184848401111562000621576200062062000e4d565b5b6200062e84828562000d45565b509392505050565b600081519050620006478162000e7a565b92915050565b6000815190506200065e8162000e94565b92915050565b600082601f8301126200067c576200067b62000e48565b5b81516200068e848260208601620005eb565b91505092915050565b600081519050620006a88162000eae565b92915050565b600081519050620006bf8162000ec8565b92915050565b600060208284031215620006de57620006dd62000e57565b5b6000620006ee8482850162000636565b91505092915050565b60006020828403121562000710576200070f62000e57565b5b600062000720848285016200064d565b91505092915050565b60008060006060848603121562000745576200074462000e57565b5b600084015167ffffffffffffffff81111562000766576200076562000e52565b5b620007748682870162000664565b9350506020620007878682870162000697565b92505060406200079a86828701620006ae565b9150509250925092565b600060208284031215620007bd57620007bc62000e57565b5b6000620007cd84828501620006ae565b91505092915050565b620007e18162000c98565b82525050565b620007fc620007f68262000c98565b62000db1565b82525050565b60006200080f8262000a40565b6200081b818562000a4b565b93506200082d81856020860162000d45565b620008388162000e5c565b840191505092915050565b6000620008508262000a40565b6200085c818562000a5c565b93506200086e81856020860162000d45565b80840191505092915050565b620008858162000cf5565b82525050565b620008968162000d09565b82525050565b620008a78162000d1d565b82525050565b620008b88162000d31565b82525050565b6000620008cc8284620007e7565b60208201915081905092915050565b6000620008e9828462000843565b915081905092915050565b60006020820190506200090b6000830184620007d6565b92915050565b600060408201905081810360008301526200092d818562000802565b90506200093e60208301846200087a565b9392505050565b6000604082019050818103600083015262000961818562000802565b90506200097260208301846200088b565b9392505050565b6000604082019050818103600083015262000995818562000802565b9050620009a660208301846200089c565b9392505050565b60006040820190508181036000830152620009c9818562000802565b9050620009da6020830184620008ad565b9392505050565b6000620009ed62000a00565b9050620009fb828262000d7b565b919050565b6000604051905090565b600067ffffffffffffffff82111562000a285762000a2762000e19565b5b62000a338262000e5c565b9050602081019050919050565b600081519050919050565b600082825260208201905092915050565b600081905092915050565b600062000a748262000cce565b915062000a818362000cce565b92508262000a945762000a9362000dea565b5b828204905092915050565b6000808291508390505b600185111562000af15780860481111562000ac95762000ac862000dbb565b5b600185161562000ad95780820291505b808102905062000ae98562000e6d565b945062000aa9565b94509492505050565b600062000b078262000cce565b915062000b148362000ce8565b925062000b437fffffffffffffffffffffffffffffffffffffffffffffffffffffffffffffffff848462000b4b565b905092915050565b60008262000b5d576001905062000c30565b8162000b6d576000905062000c30565b816001811462000b86576002811462000b915762000bc7565b600191505062000c30565b60ff84111562000ba65762000ba562000dbb565b5b8360020a91508482111562000bc05762000bbf62000dbb565b5b5062000c30565b5060208310610133831016604e8410600b841016171562000c015782820a90508381111562000bfb5762000bfa62000dbb565b5b62000c30565b62000c10848484600162000a9f565b9250905081840481111562000c2a5762000c2962000dbb565b5b81810290505b9392505050565b600062000c448262000cce565b915062000c518362000cce565b9250817fffffffffffffffffffffffffffffffffffffffffffffffffffffffffffffffff048311821515161562000c8d5762000c8c62000dbb565b5b828202905092915050565b6000819050919050565b60007fffffffff0000000000000000000000000000000000000000000000000000000082169050919050565b6000819050919050565b600063ffffffff82169050919050565b600060ff82169050919050565b600062000d028262000cce565b9050919050565b600062000d168262000cce565b9050919050565b600062000d2a8262000cce565b9050919050565b600062000d3e8262000cce565b9050919050565b60005b8381101562000d6557808201518184015260208101905062000d48565b8381111562000d75576000848401525b50505050565b62000d868262000e5c565b810181811067ffffffffffffffff8211171562000da85762000da762000e19565b5b80604052505050565b6000819050919050565b7f4e487b7100000000000000000000000000000000000000000000000000000000600052601160045260246000fd5b7f4e487b7100000000000000000000000000000000000000000000000000000000600052601260045260246000fd5b7f4e487b7100000000000000000000000000000000000000000000000000000000600052604160045260246000fd5b600080fd5b600080fd5b600080fd5b600080fd5b6000601f19601f8301169050919050565b60008160011c9050919050565b62000e858162000c98565b811462000e9157600080fd5b50565b62000e9f8162000ca2565b811462000eab57600080fd5b50565b62000eb98162000cce565b811462000ec557600080fd5b50565b62000ed38162000cd8565b811462000edf57600080fd5b50565b6136be8062000ef26000396000f3fe608060405234801561001057600080fd5b50600436106101585760003560e01c806370a08231116100c3578063c642715b1161007c578063c642715b1461041b578063d51073811461044b578063dd62ed3e14610467578063e38641b714610497578063f588a96a146104b5578063f9d9a819146104eb57610158565b806370a082311461031f57806395d89b411461034f578063a457c2d71461036d578063a62938c21461039d578063a9059cbb146103bb578063abedc389146103eb57610158565b806328268fbb1161011557806328268fbb146102355780632d142a9914610265578063313ce5671461029557806339509351146102b357806348ea0c03146102e35780635dbbe7401461030157610158565b80630438b0a41461015d57806306fdde031461017b57806307621eca14610199578063095ea7b3146101b757806318160ddd146101e757806323b872dd14610205575b600080fd5b61016561051b565b6040516101729190612ec4565b60405180910390f35b610183610521565b6040516101909190612d2c565b60405180910390f35b6101a161055e565b6040516101ae9190612ec4565b60405180910390f35b6101d160048036038101906101cc919061256b565b610564565b6040516101de9190612b6e565b60405180910390f35b6101ef610580565b6040516101fc9190612ec4565b60405180910390f35b61021f600480360381019061021a9190612518565b61058a565b60405161022c9190612b6e565b60405180910390f35b61024f600480360381019061024a91906126c0565b6105b2565b60405161025c9190612ba4565b60405180910390f35b61027f600480360381019061027a91906126c0565b6105fc565b60405161028c9190612e8e565b60405180910390f35b61029d61074c565b6040516102aa9190612efa565b60405180910390f35b6102cd60048036038101906102c8919061256b565b610755565b6040516102da9190612b6e565b60405180910390f35b6102eb610785565b6040516102f89190612ec4565b60405180910390f35b61030961078b565b6040516103169190612edf565b60405180910390f35b610339600480360381019061033491906124ab565b6107a1565b6040516103469190612ec4565b60405180910390f35b6103576107e9565b6040516103649190612d2c565b60405180910390f35b6103876004803603810190610382919061256b565b610826565b6040516103949190612b6e565b60405180910390f35b6103a5610896565b6040516103b29190612ec4565b60405180910390f35b6103d560048036038101906103d0919061256b565b61089c565b6040516103e29190612b6e565b60405180910390f35b610405600480360381019061040091906126c0565b6108b8565b6040516104129190612ba4565b60405180910390f35b61043560048036038101906104309190612632565b6108d0565b6040516104429190612e8e565b60405180910390f35b61046560048036038101906104609190612632565b610ce2565b005b610481600480360381019061047c91906124d8565b610f4b565b60405161048e9190612ec4565b60405180910390f35b61049f610fd2565b6040516104ac9190612ec4565b60405180910390f35b6104cf60048036038101906104ca91906125ab565b610fd8565b6040516104e29796959493929190612bbf565b60405180910390f35b6105056004803603810190610500919061267f565b611057565b6040516105129190612b6e565b60405180910390f35b60055481565b60606040518060400160405280600e81526020017f426974636f696e535056436f696e000000000000000000000000000000000000815250905090565b60095481565b600080339050610575818585611802565b600191505092915050565b6000600254905090565b60008033905061059b8582856119cd565b6105a6858585611a59565b60019150509392505050565b60006009546105c0326107a1565b10156105cb57600080fd5b600a6000600b6000858152602001908152602001600020548152602001908152602001600020600101549050919050565b610604612263565b600954610610326107a1565b101561061b57600080fd5b600a6000600b60008581526020019081526020016000205481526020019081526020016000206040518060e0016040529081600082015481526020016001820154815260200160028201548152602001600382015481526020016004820160009054906101000a900473ffffffffffffffffffffffffffffffffffffffff1673ffffffffffffffffffffffffffffffffffffffff1673ffffffffffffffffffffffffffffffffffffffff1681526020016004820160149054906101000a900463ffffffff1663ffffffff1663ffffffff1681526020016004820160189054906101000a900460e01b7bffffffffffffffffffffffffffffffffffffffffffffffffffffffff19167bffffffffffffffffffffffffffffffffffffffffffffffffffffffff1916815250509050919050565b60006008905090565b60008033905061077a81858561076b8589610f4b565b6107759190612fb8565b611802565b600191505092915050565b60035481565b600760009054906101000a900463ffffffff1681565b60008060008373ffffffffffffffffffffffffffffffffffffffff1673ffffffffffffffffffffffffffffffffffffffff168152602001908152602001600020549050919050565b60606040518060400160405280600481526020017f5350564300000000000000000000000000000000000000000000000000000000815250905090565b60008033905060006108388286610f4b565b90508381101561087d576040517f08c379a000000000000000000000000000000000000000000000000000000000815260040161087490612e4e565b60405180910390fd5b61088a8286868403611802565b60019250505092915050565b60045481565b6000803390506108ad818585611a59565b600191505092915050565b600b6020528060005260406000206000915090505481565b6108d8612263565b60508383905010156108e957600080fd5b6040518060e0016040528073__$4859e1d31be3c280958b9d5af91d5e63c4$__63dd1d743b868660046040518463ffffffff1660e01b815260040161093093929190612c96565b60206040518083038186803b15801561094857600080fd5b505af415801561095c573d6000803e3d6000fd5b505050506040513d601f19601f8201168201806040525081019061098091906125d8565b815260200173__$4859e1d31be3c280958b9d5af91d5e63c4$__63dd1d743b868660246040518463ffffffff1660e01b81526004016109c193929190612c64565b60206040518083038186803b1580156109d957600080fd5b505af41580156109ed573d6000803e3d6000fd5b505050506040513d601f19601f82011682018060405250810190610a1191906125d8565b815260200173__$4859e1d31be3c280958b9d5af91d5e63c4$__6340e2283f6002808888600090605092610a4793929190612f7d565b604051610a55929190612b3e565b602060405180830381855afa158015610a72573d6000803e3d6000fd5b5050506040513d601f19601f82011682018060405250810190610a9591906125d8565b604051602001610aa59190612b23565b604051602081830303815290604052604051610ac19190612b57565b602060405180830381855afa158015610ade573d6000803e3d6000fd5b5050506040513d601f19601f82011682018060405250810190610b0191906125d8565b6040518263ffffffff1660e01b8152600401610b1d9190612b89565b60206040518083038186803b158015610b3557600080fd5b505af4158015610b49573d6000803e3d6000fd5b505050506040513d601f19601f82011682018060405250810190610b6d91906125d8565b8152602001600081526020013373ffffffffffffffffffffffffffffffffffffffff16815260200173__$4859e1d31be3c280958b9d5af91d5e63c4$__63fec2f93f868660446040518463ffffffff1660e01b8152600401610bd193929190612cc8565b60206040518083038186803b158015610be957600080fd5b505af4158015610bfd573d6000803e3d6000fd5b505050506040513d601f19601f82011682018060405250810190610c21919061271a565b63ffffffff16815260200173__$4859e1d31be3c280958b9d5af91d5e63c4$__632b0daa0a868660486040518463ffffffff1660e01b8152600401610c6893929190612cfa565b60206040518083038186803b158015610c8057600080fd5b505af4158015610c94573d6000803e3d6000fd5b505050506040513d601f19601f82011682018060405250810190610cb89190612605565b7bffffffffffffffffffffffffffffffffffffffffffffffffffffffff1916815250905092915050565b6000610cee83836108d0565b90506000816000015190506000600a60008381526020019081526020016000206040518060e0016040529081600082015481526020016001820154815260200160028201548152602001600382015481526020016004820160009054906101000a900473ffffffffffffffffffffffffffffffffffffffff1673ffffffffffffffffffffffffffffffffffffffff1673ffffffffffffffffffffffffffffffffffffffff1681526020016004820160149054906101000a900463ffffffff1663ffffffff1663ffffffff1681526020016004820160189054906101000a900460e01b7bffffffffffffffffffffffffffffffffffffffffffffffffffffffff19167bffffffffffffffffffffffffffffffffffffffffffffffffffffffff191681525050905060018160600151610e259190612fb8565b83606001818152505060008160a0015163ffffffff161415610e4957505050610f47565b610e538382611057565b610e5c57600080fd5b82600a6000856040015181526020019081526020016000206000820151816000015560208201518160010155604082015181600201556060820151816003015560808201518160040160006101000a81548173ffffffffffffffffffffffffffffffffffffffff021916908373ffffffffffffffffffffffffffffffffffffffff16021790555060a08201518160040160146101000a81548163ffffffff021916908363ffffffff16021790555060c08201518160040160186101000a81548163ffffffff021916908360e01c0217905550905050610f3a83611cd1565b610f4383611dd3565b5050505b5050565b6000600160008473ffffffffffffffffffffffffffffffffffffffff1673ffffffffffffffffffffffffffffffffffffffff16815260200190815260200160002060008373ffffffffffffffffffffffffffffffffffffffff1673ffffffffffffffffffffffffffffffffffffffff16815260200190815260200160002054905092915050565b60065481565b600a6020528060005260406000206000915090508060000154908060010154908060020154908060030154908060040160009054906101000a900473ffffffffffffffffffffffffffffffffffffffff16908060040160149054906101000a900463ffffffff16908060040160189054906101000a900460e01b905087565b60008073__$4859e1d31be3c280958b9d5af91d5e63c4$__624ea54c8560c001516040518263ffffffff1660e01b81526004016110949190612c2e565b60206040518083038186803b1580156110ac57600080fd5b505af41580156110c0573d6000803e3d6000fd5b505050506040513d601f19601f820116820180604052508101906110e491906126ed565b905080846040015160001c106110f957600080fd5b6000806107e0866060015161110e91906132a0565b14156117f6576000600b60006107e0886060015161112c9190613099565b81526020019081526020016000205490506000801b811461117b57600a600082815260200190815260200160002060040160149054906101000a900463ffffffff1663ffffffff169150611197565b600760009054906101000a900463ffffffff1663ffffffff1691505b600061123773__$4859e1d31be3c280958b9d5af91d5e63c4$__624ea54c8860c001516040518263ffffffff1660e01b81526004016111d69190612c2e565b60206040518083038186803b1580156111ee57600080fd5b505af4158015611202573d6000803e3d6000fd5b505050506040513d601f19601f8201168201806040525081019061122691906126ed565b848860a0015163ffffffff16611ed2565b90507fa080ac5fbfa34b622e39db15e09a58f5a236b8511115a1aa24814ef54b38949a73__$4859e1d31be3c280958b9d5af91d5e63c4$__63047e653d836040518263ffffffff1660e01b81526004016112919190612ea9565b60206040518083038186803b1580156112a957600080fd5b505af41580156112bd573d6000803e3d6000fd5b505050506040513d601f19601f820116820180604052508101906112e1919061271a565b60e01b6040516112f19190612c49565b60405180910390a17fa080ac5fbfa34b622e39db15e09a58f5a236b8511115a1aa24814ef54b38949a8760c0015160405161132c9190612c49565b60405180910390a17ff1ad3aacffac6517ded25100b857af30fa603840e121874aab99f949e6de42498160001b6040516113669190612ba4565b60405180910390a17fef792e479c02cc28c08ab7b2644ce753008f9061de1c3e109edceff5882207168160405161139d9190612ec4565b60405180910390a17fef792e479c02cc28c08ab7b2644ce753008f9061de1c3e109edceff58822071673__$4859e1d31be3c280958b9d5af91d5e63c4$__624ea54c8960c001516040518263ffffffff1660e01b81526004016114009190612c2e565b60206040518083038186803b15801561141857600080fd5b505af415801561142c573d6000803e3d6000fd5b505050506040513d601f19601f8201168201806040525081019061145091906126ed565b60405161145d9190612ec4565b60405180910390a17ff1ad3aacffac6517ded25100b857af30fa603840e121874aab99f949e6de42498760c001517bffffffffffffffffffffffffffffffffffffffffffffffffffffffff19166040516114b79190612ba4565b60405180910390a17ff1ad3aacffac6517ded25100b857af30fa603840e121874aab99f949e6de424973__$4859e1d31be3c280958b9d5af91d5e63c4$__624ea54c8960c001516040518263ffffffff1660e01b815260040161151a9190612c2e565b60206040518083038186803b15801561153257600080fd5b505af4158015611546573d6000803e3d6000fd5b505050506040513d601f19601f8201168201806040525081019061156a91906126ed565b821660001b60405161157c9190612ba4565b60405180910390a17ff1ad3aacffac6517ded25100b857af30fa603840e121874aab99f949e6de424973__$4859e1d31be3c280958b9d5af91d5e63c4$__63047e653d836040518263ffffffff1660e01b81526004016115dc9190612ea9565b60206040518083038186803b1580156115f457600080fd5b505af4158015611608573d6000803e3d6000fd5b505050506040513d601f19601f8201168201806040525081019061162c919061271a565b63ffffffff1660001b6040516116429190612ba4565b60405180910390a17ff1ad3aacffac6517ded25100b857af30fa603840e121874aab99f949e6de424973__$4859e1d31be3c280958b9d5af91d5e63c4$__63047e653d73__$4859e1d31be3c280958b9d5af91d5e63c4$__624ea54c8a60c001516040518263ffffffff1660e01b81526004016116bf9190612c2e565b60206040518083038186803b1580156116d757600080fd5b505af41580156116eb573d6000803e3d6000fd5b505050506040513d601f19601f8201168201806040525081019061170f91906126ed565b6040518263ffffffff1660e01b815260040161172b9190612ea9565b60206040518083038186803b15801561174357600080fd5b505af4158015611757573d6000803e3d6000fd5b505050506040513d601f19601f8201168201806040525081019061177b919061271a565b63ffffffff1660001b6040516117919190612ba4565b60405180910390a17ff1ad3aacffac6517ded25100b857af30fa603840e121874aab99f949e6de42498660c001517bffffffffffffffffffffffffffffffffffffffffffffffffffffffff19166040516117eb9190612ba4565b60405180910390a150505b60019250505092915050565b600073ffffffffffffffffffffffffffffffffffffffff168373ffffffffffffffffffffffffffffffffffffffff161415611872576040517f08c379a000000000000000000000000000000000000000000000000000000000815260040161186990612e2e565b60405180910390fd5b600073ffffffffffffffffffffffffffffffffffffffff168273ffffffffffffffffffffffffffffffffffffffff1614156118e2576040517f08c379a00000000000000000000000000000000000000000000000000000000081526004016118d990612d6e565b60405180910390fd5b80600160008573ffffffffffffffffffffffffffffffffffffffff1673ffffffffffffffffffffffffffffffffffffffff16815260200190815260200160002060008473ffffffffffffffffffffffffffffffffffffffff1673ffffffffffffffffffffffffffffffffffffffff168152602001908152602001600020819055508173ffffffffffffffffffffffffffffffffffffffff168373ffffffffffffffffffffffffffffffffffffffff167f8c5be1e5ebec7d5bd14f71427d1e84f3dd0314c0f7b2291e5b200ac8c7c3b925836040516119c09190612ec4565b60405180910390a3505050565b60006119d98484610f4b565b90507fffffffffffffffffffffffffffffffffffffffffffffffffffffffffffffffff8114611a535781811015611a45576040517f08c379a0000000000000000000000000000000000000000000000000000000008152600401611a3c90612d8e565b60405180910390fd5b611a528484848403611802565b5b50505050565b600073ffffffffffffffffffffffffffffffffffffffff168373ffffffffffffffffffffffffffffffffffffffff161415611ac9576040517f08c379a0000000000000000000000000000000000000000000000000000000008152600401611ac090612e0e565b60405180910390fd5b600073ffffffffffffffffffffffffffffffffffffffff168273ffffffffffffffffffffffffffffffffffffffff161415611b39576040517f08c379a0000000000000000000000000000000000000000000000000000000008152600401611b3090612d4e565b60405180910390fd5b611b44838383611fbc565b60008060008573ffffffffffffffffffffffffffffffffffffffff1673ffffffffffffffffffffffffffffffffffffffff16815260200190815260200160002054905081811015611bca576040517f08c379a0000000000000000000000000000000000000000000000000000000008152600401611bc190612dce565b60405180910390fd5b8181036000808673ffffffffffffffffffffffffffffffffffffffff1673ffffffffffffffffffffffffffffffffffffffff16815260200190815260200160002081905550816000808573ffffffffffffffffffffffffffffffffffffffff1673ffffffffffffffffffffffffffffffffffffffff168152602001908152602001600020600082825401925050819055508273ffffffffffffffffffffffffffffffffffffffff168473ffffffffffffffffffffffffffffffffffffffff167fddf252ad1be2c89b69c2b068fc378daa952ba7f163c4a11628f55a4df523b3ef84604051611cb89190612ec4565b60405180910390a3611ccb848484611fc1565b50505050565b600081600001519050600060018360600151611ced9190613099565b90505b6005548360600151611d029190613099565b811115611d4557600a60008381526020019081526020016000206000015491506000801b821415611d3257611d45565b8080611d3d906131f2565b915050611cf0565b506000801b8114158015611d7f57506000801b600b60006005548560600151611d6e9190613099565b815260200190815260200160002054145b15611dcf5780600b60006005548560600151611d9b9190613099565b81526020019081526020016000208190555060086000815480929190611dc09061324d565b9190505550611dce33611fc6565b5b5050565b60065481606001511015611de657611ecf565b6000600b60006006548460600151611dfe9190613099565b81526020019081526020016000205490506000801b8114611ecd57600a60008281526020019081526020016000206000808201600090556001820160009055600282016000905560038201600090556004820160006101000a81549073ffffffffffffffffffffffffffffffffffffffff02191690556004820160146101000a81549063ffffffff02191690556004820160186101000a81549063ffffffff02191690555050600b60006006548460600151611eba9190613099565b8152602001908152602001600020600090555b505b50565b600080611ee8848461202890919063ffffffff16565b9050611f0160046212750061208190919063ffffffff16565b811015611f2257611f1f60046212750061208190919063ffffffff16565b90505b611f3960046212750061209790919063ffffffff16565b811115611f5a57611f5760046212750061209790919063ffffffff16565b90505b6000611f8482611f76620100008961208190919063ffffffff16565b61209790919063ffffffff16565b9050611fb162010000611fa3621275008461208190919063ffffffff16565b61209790919063ffffffff16565b925050509392505050565b505050565b505050565b611fd28160095461210c565b6000600454600854611fe491906132a0565b148015611ff45750600354600954115b15612025576002600954612008919061300e565b6009819055506003546009541015612024576003546009819055505b5b50565b60008282111561206d576040517f08c379a000000000000000000000000000000000000000000000000000000000815260040161206490612dae565b60405180910390fd5b81836120799190613099565b905092915050565b6000818361208f919061300e565b905092915050565b6000808314156120aa5760009050612106565b81836120b6919061303f565b90508183826120c5919061300e565b14612105576040517f08c379a00000000000000000000000000000000000000000000000000000000081526004016120fc90612dee565b60405180910390fd5b5b92915050565b600073ffffffffffffffffffffffffffffffffffffffff168273ffffffffffffffffffffffffffffffffffffffff16141561217c576040517f08c379a000000000000000000000000000000000000000000000000000000000815260040161217390612e6e565b60405180910390fd5b61218860008383611fbc565b806002600082825461219a9190612fb8565b92505081905550806000808473ffffffffffffffffffffffffffffffffffffffff1673ffffffffffffffffffffffffffffffffffffffff168152602001908152602001600020600082825401925050819055508173ffffffffffffffffffffffffffffffffffffffff16600073ffffffffffffffffffffffffffffffffffffffff167fddf252ad1be2c89b69c2b068fc378daa952ba7f163c4a11628f55a4df523b3ef8360405161224b9190612ec4565b60405180910390a361225f60008383611fc1565b5050565b6040518060e0016040528060008019168152602001600080191681526020016000801916815260200160008152602001600073ffffffffffffffffffffffffffffffffffffffff168152602001600063ffffffff16815260200160007bffffffffffffffffffffffffffffffffffffffffffffffffffffffff191681525090565b6000813590506122f381613615565b92915050565b6000813590506123088161362c565b92915050565b60008151905061231d8161362c565b92915050565b60008135905061233281613643565b92915050565b60008151905061234781613643565b92915050565b60008083601f84011261236357612362613363565b5b8235905067ffffffffffffffff8111156123805761237f61335e565b5b60208301915083600182028301111561239c5761239b613377565b5b9250929050565b600060e082840312156123b9576123b8613368565b5b6123c360e0612f15565b905060006123d3848285016122f9565b60008301525060206123e7848285016122f9565b60208301525060406123fb848285016122f9565b604083015250606061240f84828501612457565b6060830152506080612423848285016122e4565b60808301525060a061243784828501612481565b60a08301525060c061244b84828501612323565b60c08301525092915050565b6000813590506124668161365a565b92915050565b60008151905061247b8161365a565b92915050565b60008135905061249081613671565b92915050565b6000815190506124a581613671565b92915050565b6000602082840312156124c1576124c0613381565b5b60006124cf848285016122e4565b91505092915050565b600080604083850312156124ef576124ee613381565b5b60006124fd858286016122e4565b925050602061250e858286016122e4565b9150509250929050565b60008060006060848603121561253157612530613381565b5b600061253f868287016122e4565b9350506020612550868287016122e4565b925050604061256186828701612457565b9150509250925092565b6000806040838503121561258257612581613381565b5b6000612590858286016122e4565b92505060206125a185828601612457565b9150509250929050565b6000602082840312156125c1576125c0613381565b5b60006125cf848285016122f9565b91505092915050565b6000602082840312156125ee576125ed613381565b5b60006125fc8482850161230e565b91505092915050565b60006020828403121561261b5761261a613381565b5b600061262984828501612338565b91505092915050565b6000806020838503121561264957612648613381565b5b600083013567ffffffffffffffff8111156126675761266661337c565b5b6126738582860161234d565b92509250509250929050565b6000806101c0838503121561269757612696613381565b5b60006126a5858286016123a3565b92505060e06126b6858286016123a3565b9150509250929050565b6000602082840312156126d6576126d5613381565b5b60006126e484828501612457565b91505092915050565b60006020828403121561270357612702613381565b5b60006127118482850161246c565b91505092915050565b6000602082840312156127305761272f613381565b5b600061273e84828501612496565b91505092915050565b612750816130cd565b82525050565b61275f816130cd565b82525050565b61276e816130df565b82525050565b61277d816130eb565b82525050565b61278c816130eb565b82525050565b61279b816130eb565b82525050565b6127b26127ad826130eb565b613296565b82525050565b6127c1816130f5565b82525050565b6127d0816130f5565b82525050565b6127df816130f5565b82525050565b60006127f18385612f50565b93506127fe8385846131b0565b61280783613386565b840190509392505050565b600061281e8385612f61565b935061282b8385846131b0565b82840190509392505050565b600061284282612f3a565b61284c8185612f61565b935061285c8185602086016131bf565b80840191505092915050565b61287181613168565b82525050565b6128808161317a565b82525050565b61288f8161318c565b82525050565b61289e8161319e565b82525050565b60006128af82612f45565b6128b98185612f6c565b93506128c98185602086016131bf565b6128d281613386565b840191505092915050565b60006128ea602383612f6c565b91506128f582613397565b604082019050919050565b600061290d602283612f6c565b9150612918826133e6565b604082019050919050565b6000612930601d83612f6c565b915061293b82613435565b602082019050919050565b6000612953601d83612f6c565b915061295e8261345e565b602082019050919050565b6000612976602683612f6c565b915061298182613487565b604082019050919050565b6000612999601f83612f6c565b91506129a4826134d6565b602082019050919050565b60006129bc602583612f6c565b91506129c7826134ff565b604082019050919050565b60006129df602483612f6c565b91506129ea8261354e565b604082019050919050565b6000612a02602583612f6c565b9150612a0d8261359d565b604082019050919050565b6000612a25601f83612f6c565b9150612a30826135ec565b602082019050919050565b60e082016000820151612a516000850182612774565b506020820151612a646020850182612774565b506040820151612a776040850182612774565b506060820151612a8a6060850182612ac9565b506080820151612a9d6080850182612747565b5060a0820151612ab060a0850182612af6565b5060c0820151612ac360c08501826127b8565b50505050565b612ad281613141565b82525050565b612ae181613141565b82525050565b612af081613141565b82525050565b612aff8161314b565b82525050565b612b0e8161314b565b82525050565b612b1d8161315b565b82525050565b6000612b2f82846127a1565b60208201915081905092915050565b6000612b4b828486612812565b91508190509392505050565b6000612b638284612837565b915081905092915050565b6000602082019050612b836000830184612765565b92915050565b6000602082019050612b9e6000830184612792565b92915050565b6000602082019050612bb96000830184612783565b92915050565b600060e082019050612bd4600083018a612783565b612be16020830189612783565b612bee6040830188612783565b612bfb6060830187612ad8565b612c086080830186612756565b612c1560a0830185612b05565b612c2260c08301846127c7565b98975050505050505050565b6000602082019050612c4360008301846127d6565b92915050565b6000602082019050612c5e60008301846127c7565b92915050565b60006040820190508181036000830152612c7f8185876127e5565b9050612c8e6020830184612868565b949350505050565b60006040820190508181036000830152612cb18185876127e5565b9050612cc06020830184612877565b949350505050565b60006040820190508181036000830152612ce38185876127e5565b9050612cf26020830184612886565b949350505050565b60006040820190508181036000830152612d158185876127e5565b9050612d246020830184612895565b949350505050565b60006020820190508181036000830152612d4681846128a4565b905092915050565b60006020820190508181036000830152612d67816128dd565b9050919050565b60006020820190508181036000830152612d8781612900565b9050919050565b60006020820190508181036000830152612da781612923565b9050919050565b60006020820190508181036000830152612dc781612946565b9050919050565b60006020820190508181036000830152612de781612969565b9050919050565b60006020820190508181036000830152612e078161298c565b9050919050565b60006020820190508181036000830152612e27816129af565b9050919050565b60006020820190508181036000830152612e47816129d2565b9050919050565b60006020820190508181036000830152612e67816129f5565b9050919050565b60006020820190508181036000830152612e8781612a18565b9050919050565b600060e082019050612ea36000830184612a3b565b92915050565b6000602082019050612ebe6000830184612ae7565b92915050565b6000602082019050612ed96000830184612ad8565b92915050565b6000602082019050612ef46000830184612b05565b92915050565b6000602082019050612f0f6000830184612b14565b92915050565b6000612f1f612f30565b9050612f2b828261321c565b919050565b6000604051905090565b600081519050919050565b600081519050919050565b600082825260208201905092915050565b600081905092915050565b600082825260208201905092915050565b60008085851115612f9157612f90613372565b5b83861115612fa257612fa161336d565b5b6001850283019150848603905094509492505050565b6000612fc382613141565b9150612fce83613141565b9250827fffffffffffffffffffffffffffffffffffffffffffffffffffffffffffffffff03821115613003576130026132d1565b5b828201905092915050565b600061301982613141565b915061302483613141565b92508261303457613033613300565b5b828204905092915050565b600061304a82613141565b915061305583613141565b9250817fffffffffffffffffffffffffffffffffffffffffffffffffffffffffffffffff048311821515161561308e5761308d6132d1565b5b828202905092915050565b60006130a482613141565b91506130af83613141565b9250828210156130c2576130c16132d1565b5b828203905092915050565b60006130d882613121565b9050919050565b60008115159050919050565b6000819050919050565b60007fffffffff0000000000000000000000000000000000000000000000000000000082169050919050565b600073ffffffffffffffffffffffffffffffffffffffff82169050919050565b6000819050919050565b600063ffffffff82169050919050565b600060ff82169050919050565b600061317382613141565b9050919050565b600061318582613141565b9050919050565b600061319782613141565b9050919050565b60006131a982613141565b9050919050565b82818337600083830152505050565b60005b838110156131dd5780820151818401526020810190506131c2565b838111156131ec576000848401525b50505050565b60006131fd82613141565b91506000821415613211576132106132d1565b5b600182039050919050565b61322582613386565b810181811067ffffffffffffffff821117156132445761324361332f565b5b80604052505050565b600061325882613141565b91507fffffffffffffffffffffffffffffffffffffffffffffffffffffffffffffffff82141561328b5761328a6132d1565b5b600182019050919050565b6000819050919050565b60006132ab82613141565b91506132b683613141565b9250826132c6576132c5613300565b5b828206905092915050565b7f4e487b7100000000000000000000000000000000000000000000000000000000600052601160045260246000fd5b7f4e487b7100000000000000000000000000000000000000000000000000000000600052601260045260246000fd5b7f4e487b7100000000000000000000000000000000000000000000000000000000600052604160045260246000fd5b600080fd5b600080fd5b600080fd5b600080fd5b600080fd5b600080fd5b600080fd5b600080fd5b6000601f19601f8301169050919050565b7f45524332303a207472616e7366657220746f20746865207a65726f206164647260008201527f6573730000000000000000000000000000000000000000000000000000000000602082015250565b7f45524332303a20617070726f766520746f20746865207a65726f20616464726560008201527f7373000000000000000000000000000000000000000000000000000000000000602082015250565b7f45524332303a20696e73756666696369656e7420616c6c6f77616e6365000000600082015250565b7f556e646572666c6f7720647572696e67207375627472616374696f6e2e000000600082015250565b7f45524332303a207472616e7366657220616d6f756e742065786365656473206260008201527f616c616e63650000000000000000000000000000000000000000000000000000602082015250565b7f4f766572666c6f7720647572696e67206d756c7469706c69636174696f6e2e00600082015250565b7f45524332303a207472616e736665722066726f6d20746865207a65726f20616460008201527f6472657373000000000000000000000000000000000000000000000000000000602082015250565b7f45524332303a20617070726f76652066726f6d20746865207a65726f2061646460008201527f7265737300000000000000000000000000000000000000000000000000000000602082015250565b7f45524332303a2064656372656173656420616c6c6f77616e63652062656c6f7760008201527f207a65726f000000000000000000000000000000000000000000000000000000602082015250565b7f45524332303a206d696e7420746f20746865207a65726f206164647265737300600082015250565b61361e816130cd565b811461362957600080fd5b50565b613635816130eb565b811461364057600080fd5b50565b61364c816130f5565b811461365757600080fd5b50565b61366381613141565b811461366e57600080fd5b50565b61367a8161314b565b811461368557600080fd5b5056fea264697066735822122094f39a3401528516f7f4789989a0447e0aace73f38b5342efb3432cc4f2f929c64736f6c63430008070033",
			"opcodes": "PUSH1 0x80 PUSH1 0x40 MSTORE PUSH1 0x64 PUSH3 0x16 PUSH3 0x5E2 PUSH1 0x20 SHL PUSH1 0x20 SHR JUMP JUMPDEST PUSH1 0xA PUSH3 0x24 SWAP2 SWAP1 PUSH3 0xAFA JUMP JUMPDEST PUSH1 0x1 PUSH3 0x32 SWAP2 SWAP1 PUSH3 0xC37 JUMP JUMPDEST PUSH3 0x3E SWAP2 SWAP1 PUSH3 0xA67 JUMP JUMPDEST PUSH1 0x3 SSTORE PUSH2 0x10E0 PUSH1 0x4 SSTORE PUSH1 0x6 PUSH1 0x5 SSTORE PUSH2 0x21C0 PUSH1 0x6 SSTORE PUSH1 0x0 PUSH1 0x8 SSTORE PUSH3 0x67 PUSH3 0x5E2 PUSH1 0x20 SHL PUSH1 0x20 SHR JUMP JUMPDEST PUSH1 0xA PUSH3 0x75 SWAP2 SWAP1 PUSH3 0xAFA JUMP JUMPDEST PUSH1 0x32 PUSH3 0x83 SWAP2 SWAP1 PUSH3 0xC37 JUMP JUMPDEST PUSH1 0x9 SSTORE CALLVALUE DUP1 ISZERO PUSH3 0x93 JUMPI PUSH1 0x0 DUP1 REVERT JUMPDEST POP PUSH1 0x40 MLOAD PUSH3 0x45B0 CODESIZE SUB DUP1 PUSH3 0x45B0 DUP4 CODECOPY DUP2 DUP2 ADD PUSH1 0x40 MSTORE DUP2 ADD SWAP1 PUSH3 0xB9 SWAP2 SWAP1 PUSH3 0x729 JUMP JUMPDEST PUSH1 0x0 PUSH1 0x40 MLOAD DUP1 PUSH1 0xE0 ADD PUSH1 0x40 MSTORE DUP1 PUSH20 0x0 PUSH4 0xDD1D743B DUP8 PUSH1 0x4 PUSH1 0x40 MLOAD DUP4 PUSH4 0xFFFFFFFF AND PUSH1 0xE0 SHL DUP2 MSTORE PUSH1 0x4 ADD PUSH3 0x102 SWAP3 SWAP2 SWAP1 PUSH3 0x945 JUMP JUMPDEST PUSH1 0x20 PUSH1 0x40 MLOAD DUP1 DUP4 SUB DUP2 DUP7 DUP1 EXTCODESIZE ISZERO DUP1 ISZERO PUSH3 0x11B JUMPI PUSH1 0x0 DUP1 REVERT JUMPDEST POP GAS DELEGATECALL ISZERO DUP1 ISZERO PUSH3 0x130 JUMPI RETURNDATASIZE PUSH1 0x0 DUP1 RETURNDATACOPY RETURNDATASIZE PUSH1 0x0 REVERT JUMPDEST POP POP POP POP PUSH1 0x40 MLOAD RETURNDATASIZE PUSH1 0x1F NOT PUSH1 0x1F DUP3 ADD AND DUP3 ADD DUP1 PUSH1 0x40 MSTORE POP DUP2 ADD SWAP1 PUSH3 0x156 SWAP2 SWAP1 PUSH3 0x6C5 JUMP JUMPDEST DUP2 MSTORE PUSH1 0x20 ADD PUSH20 0x0 PUSH4 0xDD1D743B DUP8 PUSH1 0x24 PUSH1 0x40 MLOAD DUP4 PUSH4 0xFFFFFFFF AND PUSH1 0xE0 SHL DUP2 MSTORE PUSH1 0x4 ADD PUSH3 0x197 SWAP3 SWAP2 SWAP1 PUSH3 0x911 JUMP JUMPDEST PUSH1 0x20 PUSH1 0x40 MLOAD DUP1 DUP4 SUB DUP2 DUP7 DUP1 EXTCODESIZE ISZERO DUP1 ISZERO PUSH3 0x1B0 JUMPI PUSH1 0x0 DUP1 REVERT JUMPDEST POP GAS DELEGATECALL ISZERO DUP1 ISZERO PUSH3 0x1C5 JUMPI RETURNDATASIZE PUSH1 0x0 DUP1 RETURNDATACOPY RETURNDATASIZE PUSH1 0x0 REVERT JUMPDEST POP POP POP POP PUSH1 0x40 MLOAD RETURNDATASIZE PUSH1 0x1F NOT PUSH1 0x1F DUP3 ADD AND DUP3 ADD DUP1 PUSH1 0x40 MSTORE POP DUP2 ADD SWAP1 PUSH3 0x1EB SWAP2 SWAP1 PUSH3 0x6C5 JUMP JUMPDEST DUP2 MSTORE PUSH1 0x20 ADD PUSH20 0x0 PUSH4 0x40E2283F PUSH1 0x2 DUP1 DUP10 PUSH1 0x40 MLOAD PUSH3 0x21D SWAP2 SWAP1 PUSH3 0x8DB JUMP JUMPDEST PUSH1 0x20 PUSH1 0x40 MLOAD DUP1 DUP4 SUB DUP2 DUP6 GAS STATICCALL ISZERO DUP1 ISZERO PUSH3 0x23B JUMPI RETURNDATASIZE PUSH1 0x0 DUP1 RETURNDATACOPY RETURNDATASIZE PUSH1 0x0 REVERT JUMPDEST POP POP POP PUSH1 0x40 MLOAD RETURNDATASIZE PUSH1 0x1F NOT PUSH1 0x1F DUP3 ADD AND DUP3 ADD DUP1 PUSH1 0x40 MSTORE POP DUP2 ADD SWAP1 PUSH3 0x260 SWAP2 SWAP1 PUSH3 0x6C5 JUMP JUMPDEST PUSH1 0x40 MLOAD PUSH1 0x20 ADD PUSH3 0x272 SWAP2 SWAP1 PUSH3 0x8BE JUMP JUMPDEST PUSH1 0x40 MLOAD PUSH1 0x20 DUP2 DUP4 SUB SUB DUP2 MSTORE SWAP1 PUSH1 0x40 MSTORE PUSH1 0x40 MLOAD PUSH3 0x290 SWAP2 SWAP1 PUSH3 0x8DB JUMP JUMPDEST PUSH1 0x20 PUSH1 0x40 MLOAD DUP1 DUP4 SUB DUP2 DUP6 GAS STATICCALL ISZERO DUP1 ISZERO PUSH3 0x2AE JUMPI RETURNDATASIZE PUSH1 0x0 DUP1 RETURNDATACOPY RETURNDATASIZE PUSH1 0x0 REVERT JUMPDEST POP POP POP PUSH1 0x40 MLOAD RETURNDATASIZE PUSH1 0x1F NOT PUSH1 0x1F DUP3 ADD AND DUP3 ADD DUP1 PUSH1 0x40 MSTORE POP DUP2 ADD SWAP1 PUSH3 0x2D3 SWAP2 SWAP1 PUSH3 0x6C5 JUMP JUMPDEST PUSH1 0x40 MLOAD DUP3 PUSH4 0xFFFFFFFF AND PUSH1 0xE0 SHL DUP2 MSTORE PUSH1 0x4 ADD PUSH3 0x2F1 SWAP2 SWAP1 PUSH3 0x8F4 JUMP JUMPDEST PUSH1 0x20 PUSH1 0x40 MLOAD DUP1 DUP4 SUB DUP2 DUP7 DUP1 EXTCODESIZE ISZERO DUP1 ISZERO PUSH3 0x30A JUMPI PUSH1 0x0 DUP1 REVERT JUMPDEST POP GAS DELEGATECALL ISZERO DUP1 ISZERO PUSH3 0x31F JUMPI RETURNDATASIZE PUSH1 0x0 DUP1 RETURNDATACOPY RETURNDATASIZE PUSH1 0x0 REVERT JUMPDEST POP POP POP POP PUSH1 0x40 MLOAD RETURNDATASIZE PUSH1 0x1F NOT PUSH1 0x1F DUP3 ADD AND DUP3 ADD DUP1 PUSH1 0x40 MSTORE POP DUP2 ADD SWAP1 PUSH3 0x345 SWAP2 SWAP1 PUSH3 0x6C5 JUMP JUMPDEST DUP2 MSTORE PUSH1 0x20 ADD PUSH1 0x0 DUP2 MSTORE PUSH1 0x20 ADD CALLER PUSH20 0xFFFFFFFFFFFFFFFFFFFFFFFFFFFFFFFFFFFFFFFF AND DUP2 MSTORE PUSH1 0x20 ADD PUSH20 0x0 PUSH4 0xFEC2F93F DUP8 PUSH1 0x44 PUSH1 0x40 MLOAD DUP4 PUSH4 0xFFFFFFFF AND PUSH1 0xE0 SHL DUP2 MSTORE PUSH1 0x4 ADD PUSH3 0x3A9 SWAP3 SWAP2 SWAP1 PUSH3 0x979 JUMP JUMPDEST PUSH1 0x20 PUSH1 0x40 MLOAD DUP1 DUP4 SUB DUP2 DUP7 DUP1 EXTCODESIZE ISZERO DUP1 ISZERO PUSH3 0x3C2 JUMPI PUSH1 0x0 DUP1 REVERT JUMPDEST POP GAS DELEGATECALL ISZERO DUP1 ISZERO PUSH3 0x3D7 JUMPI RETURNDATASIZE PUSH1 0x0 DUP1 RETURNDATACOPY RETURNDATASIZE PUSH1 0x0 REVERT JUMPDEST POP POP POP POP PUSH1 0x40 MLOAD RETURNDATASIZE PUSH1 0x1F NOT PUSH1 0x1F DUP3 ADD AND DUP3 ADD DUP1 PUSH1 0x40 MSTORE POP DUP2 ADD SWAP1 PUSH3 0x3FD SWAP2 SWAP1 PUSH3 0x7A4 JUMP JUMPDEST PUSH4 0xFFFFFFFF AND DUP2 MSTORE PUSH1 0x20 ADD PUSH20 0x0 PUSH4 0x2B0DAA0A DUP8 PUSH1 0x48 PUSH1 0x40 MLOAD DUP4 PUSH4 0xFFFFFFFF AND PUSH1 0xE0 SHL DUP2 MSTORE PUSH1 0x4 ADD PUSH3 0x444 SWAP3 SWAP2 SWAP1 PUSH3 0x9AD JUMP JUMPDEST PUSH1 0x20 PUSH1 0x40 MLOAD DUP1 DUP4 SUB DUP2 DUP7 DUP1 EXTCODESIZE ISZERO DUP1 ISZERO PUSH3 0x45D JUMPI PUSH1 0x0 DUP1 REVERT JUMPDEST POP GAS DELEGATECALL ISZERO DUP1 ISZERO PUSH3 0x472 JUMPI RETURNDATASIZE PUSH1 0x0 DUP1 RETURNDATACOPY RETURNDATASIZE PUSH1 0x0 REVERT JUMPDEST POP POP POP POP PUSH1 0x40 MLOAD RETURNDATASIZE PUSH1 0x1F NOT PUSH1 0x1F DUP3 ADD AND DUP3 ADD DUP1 PUSH1 0x40 MSTORE POP DUP2 ADD SWAP1 PUSH3 0x498 SWAP2 SWAP1 PUSH3 0x6F7 JUMP JUMPDEST PUSH28 0xFFFFFFFFFFFFFFFFFFFFFFFFFFFFFFFFFFFFFFFFFFFFFFFFFFFFFFFF NOT AND DUP2 MSTORE POP SWAP1 POP DUP3 DUP2 PUSH1 0x60 ADD DUP2 DUP2 MSTORE POP POP DUP1 PUSH1 0xA PUSH1 0x0 DUP4 PUSH1 0x40 ADD MLOAD DUP2 MSTORE PUSH1 0x20 ADD SWAP1 DUP2 MSTORE PUSH1 0x20 ADD PUSH1 0x0 KECCAK256 PUSH1 0x0 DUP3 ADD MLOAD DUP2 PUSH1 0x0 ADD SSTORE PUSH1 0x20 DUP3 ADD MLOAD DUP2 PUSH1 0x1 ADD SSTORE PUSH1 0x40 DUP3 ADD MLOAD DUP2 PUSH1 0x2 ADD SSTORE PUSH1 0x60 DUP3 ADD MLOAD DUP2 PUSH1 0x3 ADD SSTORE PUSH1 0x80 DUP3 ADD MLOAD DUP2 PUSH1 0x4 ADD PUSH1 0x0 PUSH2 0x100 EXP DUP2 SLOAD DUP2 PUSH20 0xFFFFFFFFFFFFFFFFFFFFFFFFFFFFFFFFFFFFFFFF MUL NOT AND SWAP1 DUP4 PUSH20 0xFFFFFFFFFFFFFFFFFFFFFFFFFFFFFFFFFFFFFFFF AND MUL OR SWAP1 SSTORE POP PUSH1 0xA0 DUP3 ADD MLOAD DUP2 PUSH1 0x4 ADD PUSH1 0x14 PUSH2 0x100 EXP DUP2 SLOAD DUP2 PUSH4 0xFFFFFFFF MUL NOT AND SWAP1 DUP4 PUSH4 0xFFFFFFFF AND MUL OR SWAP1 SSTORE POP PUSH1 0xC0 DUP3 ADD MLOAD DUP2 PUSH1 0x4 ADD PUSH1 0x18 PUSH2 0x100 EXP DUP2 SLOAD DUP2 PUSH4 0xFFFFFFFF MUL NOT AND SWAP1 DUP4 PUSH1 0xE0 SHR MUL OR SWAP1 SSTORE POP SWAP1 POP POP DUP1 PUSH1 0x40 ADD MLOAD PUSH1 0xB PUSH1 0x0 DUP6 DUP2 MSTORE PUSH1 0x20 ADD SWAP1 DUP2 MSTORE PUSH1 0x20 ADD PUSH1 0x0 KECCAK256 DUP2 SWAP1 SSTORE POP DUP2 PUSH1 0x7 PUSH1 0x0 PUSH2 0x100 EXP DUP2 SLOAD DUP2 PUSH4 0xFFFFFFFF MUL NOT AND SWAP1 DUP4 PUSH4 0xFFFFFFFF AND MUL OR SWAP1 SSTORE POP POP POP POP POP PUSH3 0xEE2 JUMP JUMPDEST PUSH1 0x0 PUSH1 0x8 SWAP1 POP SWAP1 JUMP JUMPDEST PUSH1 0x0 PUSH3 0x602 PUSH3 0x5FC DUP5 PUSH3 0xA0A JUMP JUMPDEST PUSH3 0x9E1 JUMP JUMPDEST SWAP1 POP DUP3 DUP2 MSTORE PUSH1 0x20 DUP2 ADD DUP5 DUP5 DUP5 ADD GT ISZERO PUSH3 0x621 JUMPI PUSH3 0x620 PUSH3 0xE4D JUMP JUMPDEST JUMPDEST PUSH3 0x62E DUP5 DUP3 DUP6 PUSH3 0xD45 JUMP JUMPDEST POP SWAP4 SWAP3 POP POP POP JUMP JUMPDEST PUSH1 0x0 DUP2 MLOAD SWAP1 POP PUSH3 0x647 DUP2 PUSH3 0xE7A JUMP JUMPDEST SWAP3 SWAP2 POP POP JUMP JUMPDEST PUSH1 0x0 DUP2 MLOAD SWAP1 POP PUSH3 0x65E DUP2 PUSH3 0xE94 JUMP JUMPDEST SWAP3 SWAP2 POP POP JUMP JUMPDEST PUSH1 0x0 DUP3 PUSH1 0x1F DUP4 ADD SLT PUSH3 0x67C JUMPI PUSH3 0x67B PUSH3 0xE48 JUMP JUMPDEST JUMPDEST DUP2 MLOAD PUSH3 0x68E DUP5 DUP3 PUSH1 0x20 DUP7 ADD PUSH3 0x5EB JUMP JUMPDEST SWAP2 POP POP SWAP3 SWAP2 POP POP JUMP JUMPDEST PUSH1 0x0 DUP2 MLOAD SWAP1 POP PUSH3 0x6A8 DUP2 PUSH3 0xEAE JUMP JUMPDEST SWAP3 SWAP2 POP POP JUMP JUMPDEST PUSH1 0x0 DUP2 MLOAD SWAP1 POP PUSH3 0x6BF DUP2 PUSH3 0xEC8 JUMP JUMPDEST SWAP3 SWAP2 POP POP JUMP JUMPDEST PUSH1 0x0 PUSH1 0x20 DUP3 DUP5 SUB SLT ISZERO PUSH3 0x6DE JUMPI PUSH3 0x6DD PUSH3 0xE57 JUMP JUMPDEST JUMPDEST PUSH1 0x0 PUSH3 0x6EE DUP5 DUP3 DUP6 ADD PUSH3 0x636 JUMP JUMPDEST SWAP2 POP POP SWAP3 SWAP2 POP POP JUMP JUMPDEST PUSH1 0x0 PUSH1 0x20 DUP3 DUP5 SUB SLT ISZERO PUSH3 0x710 JUMPI PUSH3 0x70F PUSH3 0xE57 JUMP JUMPDEST JUMPDEST PUSH1 0x0 PUSH3 0x720 DUP5 DUP3 DUP6 ADD PUSH3 0x64D JUMP JUMPDEST SWAP2 POP POP SWAP3 SWAP2 POP POP JUMP JUMPDEST PUSH1 0x0 DUP1 PUSH1 0x0 PUSH1 0x60 DUP5 DUP7 SUB SLT ISZERO PUSH3 0x745 JUMPI PUSH3 0x744 PUSH3 0xE57 JUMP JUMPDEST JUMPDEST PUSH1 0x0 DUP5 ADD MLOAD PUSH8 0xFFFFFFFFFFFFFFFF DUP2 GT ISZERO PUSH3 0x766 JUMPI PUSH3 0x765 PUSH3 0xE52 JUMP JUMPDEST JUMPDEST PUSH3 0x774 DUP7 DUP3 DUP8 ADD PUSH3 0x664 JUMP JUMPDEST SWAP4 POP POP PUSH1 0x20 PUSH3 0x787 DUP7 DUP3 DUP8 ADD PUSH3 0x697 JUMP JUMPDEST SWAP3 POP POP PUSH1 0x40 PUSH3 0x79A DUP7 DUP3 DUP8 ADD PUSH3 0x6AE JUMP JUMPDEST SWAP2 POP POP SWAP3 POP SWAP3 POP SWAP3 JUMP JUMPDEST PUSH1 0x0 PUSH1 0x20 DUP3 DUP5 SUB SLT ISZERO PUSH3 0x7BD JUMPI PUSH3 0x7BC PUSH3 0xE57 JUMP JUMPDEST JUMPDEST PUSH1 0x0 PUSH3 0x7CD DUP5 DUP3 DUP6 ADD PUSH3 0x6AE JUMP JUMPDEST SWAP2 POP POP SWAP3 SWAP2 POP POP JUMP JUMPDEST PUSH3 0x7E1 DUP2 PUSH3 0xC98 JUMP JUMPDEST DUP3 MSTORE POP POP JUMP JUMPDEST PUSH3 0x7FC PUSH3 0x7F6 DUP3 PUSH3 0xC98 JUMP JUMPDEST PUSH3 0xDB1 JUMP JUMPDEST DUP3 MSTORE POP POP JUMP JUMPDEST PUSH1 0x0 PUSH3 0x80F DUP3 PUSH3 0xA40 JUMP JUMPDEST PUSH3 0x81B DUP2 DUP6 PUSH3 0xA4B JUMP JUMPDEST SWAP4 POP PUSH3 0x82D DUP2 DUP6 PUSH1 0x20 DUP7 ADD PUSH3 0xD45 JUMP JUMPDEST PUSH3 0x838 DUP2 PUSH3 0xE5C JUMP JUMPDEST DUP5 ADD SWAP2 POP POP SWAP3 SWAP2 POP POP JUMP JUMPDEST PUSH1 0x0 PUSH3 0x850 DUP3 PUSH3 0xA40 JUMP JUMPDEST PUSH3 0x85C DUP2 DUP6 PUSH3 0xA5C JUMP JUMPDEST SWAP4 POP PUSH3 0x86E DUP2 DUP6 PUSH1 0x20 DUP7 ADD PUSH3 0xD45 JUMP JUMPDEST DUP1 DUP5 ADD SWAP2 POP POP SWAP3 SWAP2 POP POP JUMP JUMPDEST PUSH3 0x885 DUP2 PUSH3 0xCF5 JUMP JUMPDEST DUP3 MSTORE POP POP JUMP JUMPDEST PUSH3 0x896 DUP2 PUSH3 0xD09 JUMP JUMPDEST DUP3 MSTORE POP POP JUMP JUMPDEST PUSH3 0x8A7 DUP2 PUSH3 0xD1D JUMP JUMPDEST DUP3 MSTORE POP POP JUMP JUMPDEST PUSH3 0x8B8 DUP2 PUSH3 0xD31 JUMP JUMPDEST DUP3 MSTORE POP POP JUMP JUMPDEST PUSH1 0x0 PUSH3 0x8CC DUP3 DUP5 PUSH3 0x7E7 JUMP JUMPDEST PUSH1 0x20 DUP3 ADD SWAP2 POP DUP2 SWAP1 POP SWAP3 SWAP2 POP POP JUMP JUMPDEST PUSH1 0x0 PUSH3 0x8E9 DUP3 DUP5 PUSH3 0x843 JUMP JUMPDEST SWAP2 POP DUP2 SWAP1 POP SWAP3 SWAP2 POP POP JUMP JUMPDEST PUSH1 0x0 PUSH1 0x20 DUP3 ADD SWAP1 POP PUSH3 0x90B PUSH1 0x0 DUP4 ADD DUP5 PUSH3 0x7D6 JUMP JUMPDEST SWAP3 SWAP2 POP POP JUMP JUMPDEST PUSH1 0x0 PUSH1 0x40 DUP3 ADD SWAP1 POP DUP2 DUP2 SUB PUSH1 0x0 DUP4 ADD MSTORE PUSH3 0x92D DUP2 DUP6 PUSH3 0x802 JUMP JUMPDEST SWAP1 POP PUSH3 0x93E PUSH1 0x20 DUP4 ADD DUP5 PUSH3 0x87A JUMP JUMPDEST SWAP4 SWAP3 POP POP POP JUMP JUMPDEST PUSH1 0x0 PUSH1 0x40 DUP3 ADD SWAP1 POP DUP2 DUP2 SUB PUSH1 0x0 DUP4 ADD MSTORE PUSH3 0x961 DUP2 DUP6 PUSH3 0x802 JUMP JUMPDEST SWAP1 POP PUSH3 0x972 PUSH1 0x20 DUP4 ADD DUP5 PUSH3 0x88B JUMP JUMPDEST SWAP4 SWAP3 POP POP POP JUMP JUMPDEST PUSH1 0x0 PUSH1 0x40 DUP3 ADD SWAP1 POP DUP2 DUP2 SUB PUSH1 0x0 DUP4 ADD MSTORE PUSH3 0x995 DUP2 DUP6 PUSH3 0x802 JUMP JUMPDEST SWAP1 POP PUSH3 0x9A6 PUSH1 0x20 DUP4 ADD DUP5 PUSH3 0x89C JUMP JUMPDEST SWAP4 SWAP3 POP POP POP JUMP JUMPDEST PUSH1 0x0 PUSH1 0x40 DUP3 ADD SWAP1 POP DUP2 DUP2 SUB PUSH1 0x0 DUP4 ADD MSTORE PUSH3 0x9C9 DUP2 DUP6 PUSH3 0x802 JUMP JUMPDEST SWAP1 POP PUSH3 0x9DA PUSH1 0x20 DUP4 ADD DUP5 PUSH3 0x8AD JUMP JUMPDEST SWAP4 SWAP3 POP POP POP JUMP JUMPDEST PUSH1 0x0 PUSH3 0x9ED PUSH3 0xA00 JUMP JUMPDEST SWAP1 POP PUSH3 0x9FB DUP3 DUP3 PUSH3 0xD7B JUMP JUMPDEST SWAP2 SWAP1 POP JUMP JUMPDEST PUSH1 0x0 PUSH1 0x40 MLOAD SWAP1 POP SWAP1 JUMP JUMPDEST PUSH1 0x0 PUSH8 0xFFFFFFFFFFFFFFFF DUP3 GT ISZERO PUSH3 0xA28 JUMPI PUSH3 0xA27 PUSH3 0xE19 JUMP JUMPDEST JUMPDEST PUSH3 0xA33 DUP3 PUSH3 0xE5C JUMP JUMPDEST SWAP1 POP PUSH1 0x20 DUP2 ADD SWAP1 POP SWAP2 SWAP1 POP JUMP JUMPDEST PUSH1 0x0 DUP2 MLOAD SWAP1 POP SWAP2 SWAP1 POP JUMP JUMPDEST PUSH1 0x0 DUP3 DUP3 MSTORE PUSH1 0x20 DUP3 ADD SWAP1 POP SWAP3 SWAP2 POP POP JUMP JUMPDEST PUSH1 0x0 DUP2 SWAP1 POP SWAP3 SWAP2 POP POP JUMP JUMPDEST PUSH1 0x0 PUSH3 0xA74 DUP3 PUSH3 0xCCE JUMP JUMPDEST SWAP2 POP PUSH3 0xA81 DUP4 PUSH3 0xCCE JUMP JUMPDEST SWAP3 POP DUP3 PUSH3 0xA94 JUMPI PUSH3 0xA93 PUSH3 0xDEA JUMP JUMPDEST JUMPDEST DUP3 DUP3 DIV SWAP1 POP SWAP3 SWAP2 POP POP JUMP JUMPDEST PUSH1 0x0 DUP1 DUP3 SWAP2 POP DUP4 SWAP1 POP JUMPDEST PUSH1 0x1 DUP6 GT ISZERO PUSH3 0xAF1 JUMPI DUP1 DUP7 DIV DUP2 GT ISZERO PUSH3 0xAC9 JUMPI PUSH3 0xAC8 PUSH3 0xDBB JUMP JUMPDEST JUMPDEST PUSH1 0x1 DUP6 AND ISZERO PUSH3 0xAD9 JUMPI DUP1 DUP3 MUL SWAP2 POP JUMPDEST DUP1 DUP2 MUL SWAP1 POP PUSH3 0xAE9 DUP6 PUSH3 0xE6D JUMP JUMPDEST SWAP5 POP PUSH3 0xAA9 JUMP JUMPDEST SWAP5 POP SWAP5 SWAP3 POP POP POP JUMP JUMPDEST PUSH1 0x0 PUSH3 0xB07 DUP3 PUSH3 0xCCE JUMP JUMPDEST SWAP2 POP PUSH3 0xB14 DUP4 PUSH3 0xCE8 JUMP JUMPDEST SWAP3 POP PUSH3 0xB43 PUSH32 0xFFFFFFFFFFFFFFFFFFFFFFFFFFFFFFFFFFFFFFFFFFFFFFFFFFFFFFFFFFFFFFFF DUP5 DUP5 PUSH3 0xB4B JUMP JUMPDEST SWAP1 POP SWAP3 SWAP2 POP POP JUMP JUMPDEST PUSH1 0x0 DUP3 PUSH3 0xB5D JUMPI PUSH1 0x1 SWAP1 POP PUSH3 0xC30 JUMP JUMPDEST DUP2 PUSH3 0xB6D JUMPI PUSH1 0x0 SWAP1 POP PUSH3 0xC30 JUMP JUMPDEST DUP2 PUSH1 0x1 DUP2 EQ PUSH3 0xB86 JUMPI PUSH1 0x2 DUP2 EQ PUSH3 0xB91 JUMPI PUSH3 0xBC7 JUMP JUMPDEST PUSH1 0x1 SWAP2 POP POP PUSH3 0xC30 JUMP JUMPDEST PUSH1 0xFF DUP5 GT ISZERO PUSH3 0xBA6 JUMPI PUSH3 0xBA5 PUSH3 0xDBB JUMP JUMPDEST JUMPDEST DUP4 PUSH1 0x2 EXP SWAP2 POP DUP5 DUP3 GT ISZERO PUSH3 0xBC0 JUMPI PUSH3 0xBBF PUSH3 0xDBB JUMP JUMPDEST JUMPDEST POP PUSH3 0xC30 JUMP JUMPDEST POP PUSH1 0x20 DUP4 LT PUSH2 0x133 DUP4 LT AND PUSH1 0x4E DUP5 LT PUSH1 0xB DUP5 LT AND OR ISZERO PUSH3 0xC01 JUMPI DUP3 DUP3 EXP SWAP1 POP DUP4 DUP2 GT ISZERO PUSH3 0xBFB JUMPI PUSH3 0xBFA PUSH3 0xDBB JUMP JUMPDEST JUMPDEST PUSH3 0xC30 JUMP JUMPDEST PUSH3 0xC10 DUP5 DUP5 DUP5 PUSH1 0x1 PUSH3 0xA9F JUMP JUMPDEST SWAP3 POP SWAP1 POP DUP2 DUP5 DIV DUP2 GT ISZERO PUSH3 0xC2A JUMPI PUSH3 0xC29 PUSH3 0xDBB JUMP JUMPDEST JUMPDEST DUP2 DUP2 MUL SWAP1 POP JUMPDEST SWAP4 SWAP3 POP POP POP JUMP JUMPDEST PUSH1 0x0 PUSH3 0xC44 DUP3 PUSH3 0xCCE JUMP JUMPDEST SWAP2 POP PUSH3 0xC51 DUP4 PUSH3 0xCCE JUMP JUMPDEST SWAP3 POP DUP2 PUSH32 0xFFFFFFFFFFFFFFFFFFFFFFFFFFFFFFFFFFFFFFFFFFFFFFFFFFFFFFFFFFFFFFFF DIV DUP4 GT DUP3 ISZERO ISZERO AND ISZERO PUSH3 0xC8D JUMPI PUSH3 0xC8C PUSH3 0xDBB JUMP JUMPDEST JUMPDEST DUP3 DUP3 MUL SWAP1 POP SWAP3 SWAP2 POP POP JUMP JUMPDEST PUSH1 0x0 DUP2 SWAP1 POP SWAP2 SWAP1 POP JUMP JUMPDEST PUSH1 0x0 PUSH32 0xFFFFFFFF00000000000000000000000000000000000000000000000000000000 DUP3 AND SWAP1 POP SWAP2 SWAP1 POP JUMP JUMPDEST PUSH1 0x0 DUP2 SWAP1 POP SWAP2 SWAP1 POP JUMP JUMPDEST PUSH1 0x0 PUSH4 0xFFFFFFFF DUP3 AND SWAP1 POP SWAP2 SWAP1 POP JUMP JUMPDEST PUSH1 0x0 PUSH1 0xFF DUP3 AND SWAP1 POP SWAP2 SWAP1 POP JUMP JUMPDEST PUSH1 0x0 PUSH3 0xD02 DUP3 PUSH3 0xCCE JUMP JUMPDEST SWAP1 POP SWAP2 SWAP1 POP JUMP JUMPDEST PUSH1 0x0 PUSH3 0xD16 DUP3 PUSH3 0xCCE JUMP JUMPDEST SWAP1 POP SWAP2 SWAP1 POP JUMP JUMPDEST PUSH1 0x0 PUSH3 0xD2A DUP3 PUSH3 0xCCE JUMP JUMPDEST SWAP1 POP SWAP2 SWAP1 POP JUMP JUMPDEST PUSH1 0x0 PUSH3 0xD3E DUP3 PUSH3 0xCCE JUMP JUMPDEST SWAP1 POP SWAP2 SWAP1 POP JUMP JUMPDEST PUSH1 0x0 JUMPDEST DUP4 DUP2 LT ISZERO PUSH3 0xD65 JUMPI DUP1 DUP3 ADD MLOAD DUP2 DUP5 ADD MSTORE PUSH1 0x20 DUP2 ADD SWAP1 POP PUSH3 0xD48 JUMP JUMPDEST DUP4 DUP2 GT ISZERO PUSH3 0xD75 JUMPI PUSH1 0x0 DUP5 DUP5 ADD MSTORE JUMPDEST POP POP POP POP JUMP JUMPDEST PUSH3 0xD86 DUP3 PUSH3 0xE5C JUMP JUMPDEST DUP2 ADD DUP2 DUP2 LT PUSH8 0xFFFFFFFFFFFFFFFF DUP3 GT OR ISZERO PUSH3 0xDA8 JUMPI PUSH3 0xDA7 PUSH3 0xE19 JUMP JUMPDEST JUMPDEST DUP1 PUSH1 0x40 MSTORE POP POP POP JUMP JUMPDEST PUSH1 0x0 DUP2 SWAP1 POP SWAP2 SWAP1 POP JUMP JUMPDEST PUSH32 0x4E487B7100000000000000000000000000000000000000000000000000000000 PUSH1 0x0 MSTORE PUSH1 0x11 PUSH1 0x4 MSTORE PUSH1 0x24 PUSH1 0x0 REVERT JUMPDEST PUSH32 0x4E487B7100000000000000000000000000000000000000000000000000000000 PUSH1 0x0 MSTORE PUSH1 0x12 PUSH1 0x4 MSTORE PUSH1 0x24 PUSH1 0x0 REVERT JUMPDEST PUSH32 0x4E487B7100000000000000000000000000000000000000000000000000000000 PUSH1 0x0 MSTORE PUSH1 0x41 PUSH1 0x4 MSTORE PUSH1 0x24 PUSH1 0x0 REVERT JUMPDEST PUSH1 0x0 DUP1 REVERT JUMPDEST PUSH1 0x0 DUP1 REVERT JUMPDEST PUSH1 0x0 DUP1 REVERT JUMPDEST PUSH1 0x0 DUP1 REVERT JUMPDEST PUSH1 0x0 PUSH1 0x1F NOT PUSH1 0x1F DUP4 ADD AND SWAP1 POP SWAP2 SWAP1 POP JUMP JUMPDEST PUSH1 0x0 DUP2 PUSH1 0x1 SHR SWAP1 POP SWAP2 SWAP1 POP JUMP JUMPDEST PUSH3 0xE85 DUP2 PUSH3 0xC98 JUMP JUMPDEST DUP2 EQ PUSH3 0xE91 JUMPI PUSH1 0x0 DUP1 REVERT JUMPDEST POP JUMP JUMPDEST PUSH3 0xE9F DUP2 PUSH3 0xCA2 JUMP JUMPDEST DUP2 EQ PUSH3 0xEAB JUMPI PUSH1 0x0 DUP1 REVERT JUMPDEST POP JUMP JUMPDEST PUSH3 0xEB9 DUP2 PUSH3 0xCCE JUMP JUMPDEST DUP2 EQ PUSH3 0xEC5 JUMPI PUSH1 0x0 DUP1 REVERT JUMPDEST POP JUMP JUMPDEST PUSH3 0xED3 DUP2 PUSH3 0xCD8 JUMP JUMPDEST DUP2 EQ PUSH3 0xEDF JUMPI PUSH1 0x0 DUP1 REVERT JUMPDEST POP JUMP JUMPDEST PUSH2 0x36BE DUP1 PUSH3 0xEF2 PUSH1 0x0 CODECOPY PUSH1 0x0 RETURN INVALID PUSH1 0x80 PUSH1 0x40 MSTORE CALLVALUE DUP1 ISZERO PUSH2 0x10 JUMPI PUSH1 0x0 DUP1 REVERT JUMPDEST POP PUSH1 0x4 CALLDATASIZE LT PUSH2 0x158 JUMPI PUSH1 0x0 CALLDATALOAD PUSH1 0xE0 SHR DUP1 PUSH4 0x70A08231 GT PUSH2 0xC3 JUMPI DUP1 PUSH4 0xC642715B GT PUSH2 0x7C JUMPI DUP1 PUSH4 0xC642715B EQ PUSH2 0x41B JUMPI DUP1 PUSH4 0xD5107381 EQ PUSH2 0x44B JUMPI DUP1 PUSH4 0xDD62ED3E EQ PUSH2 0x467 JUMPI DUP1 PUSH4 0xE38641B7 EQ PUSH2 0x497 JUMPI DUP1 PUSH4 0xF588A96A EQ PUSH2 0x4B5 JUMPI DUP1 PUSH4 0xF9D9A819 EQ PUSH2 0x4EB JUMPI PUSH2 0x158 JUMP JUMPDEST DUP1 PUSH4 0x70A08231 EQ PUSH2 0x31F JUMPI DUP1 PUSH4 0x95D89B41 EQ PUSH2 0x34F JUMPI DUP1 PUSH4 0xA457C2D7 EQ PUSH2 0x36D JUMPI DUP1 PUSH4 0xA62938C2 EQ PUSH2 0x39D JUMPI DUP1 PUSH4 0xA9059CBB EQ PUSH2 0x3BB JUMPI DUP1 PUSH4 0xABEDC389 EQ PUSH2 0x3EB JUMPI PUSH2 0x158 JUMP JUMPDEST DUP1 PUSH4 0x28268FBB GT PUSH2 0x115 JUMPI DUP1 PUSH4 0x28268FBB EQ PUSH2 0x235 JUMPI DUP1 PUSH4 0x2D142A99 EQ PUSH2 0x265 JUMPI DUP1 PUSH4 0x313CE567 EQ PUSH2 0x295 JUMPI DUP1 PUSH4 0x39509351 EQ PUSH2 0x2B3 JUMPI DUP1 PUSH4 0x48EA0C03 EQ PUSH2 0x2E3 JUMPI DUP1 PUSH4 0x5DBBE740 EQ PUSH2 0x301 JUMPI PUSH2 0x158 JUMP JUMPDEST DUP1 PUSH4 0x438B0A4 EQ PUSH2 0x15D JUMPI DUP1 PUSH4 0x6FDDE03 EQ PUSH2 0x17B JUMPI DUP1 PUSH4 0x7621ECA EQ PUSH2 0x199 JUMPI DUP1 PUSH4 0x95EA7B3 EQ PUSH2 0x1B7 JUMPI DUP1 PUSH4 0x18160DDD EQ PUSH2 0x1E7 JUMPI DUP1 PUSH4 0x23B872DD EQ PUSH2 0x205 JUMPI JUMPDEST PUSH1 0x0 DUP1 REVERT JUMPDEST PUSH2 0x165 PUSH2 0x51B JUMP JUMPDEST PUSH1 0x40 MLOAD PUSH2 0x172 SWAP2 SWAP1 PUSH2 0x2EC4 JUMP JUMPDEST PUSH1 0x40 MLOAD DUP1 SWAP2 SUB SWAP1 RETURN JUMPDEST PUSH2 0x183 PUSH2 0x521 JUMP JUMPDEST PUSH1 0x40 MLOAD PUSH2 0x190 SWAP2 SWAP1 PUSH2 0x2D2C JUMP JUMPDEST PUSH1 0x40 MLOAD DUP1 SWAP2 SUB SWAP1 RETURN JUMPDEST PUSH2 0x1A1 PUSH2 0x55E JUMP JUMPDEST PUSH1 0x40 MLOAD PUSH2 0x1AE SWAP2 SWAP1 PUSH2 0x2EC4 JUMP JUMPDEST PUSH1 0x40 MLOAD DUP1 SWAP2 SUB SWAP1 RETURN JUMPDEST PUSH2 0x1D1 PUSH1 0x4 DUP1 CALLDATASIZE SUB DUP2 ADD SWAP1 PUSH2 0x1CC SWAP2 SWAP1 PUSH2 0x256B JUMP JUMPDEST PUSH2 0x564 JUMP JUMPDEST PUSH1 0x40 MLOAD PUSH2 0x1DE SWAP2 SWAP1 PUSH2 0x2B6E JUMP JUMPDEST PUSH1 0x40 MLOAD DUP1 SWAP2 SUB SWAP1 RETURN JUMPDEST PUSH2 0x1EF PUSH2 0x580 JUMP JUMPDEST PUSH1 0x40 MLOAD PUSH2 0x1FC SWAP2 SWAP1 PUSH2 0x2EC4 JUMP JUMPDEST PUSH1 0x40 MLOAD DUP1 SWAP2 SUB SWAP1 RETURN JUMPDEST PUSH2 0x21F PUSH1 0x4 DUP1 CALLDATASIZE SUB DUP2 ADD SWAP1 PUSH2 0x21A SWAP2 SWAP1 PUSH2 0x2518 JUMP JUMPDEST PUSH2 0x58A JUMP JUMPDEST PUSH1 0x40 MLOAD PUSH2 0x22C SWAP2 SWAP1 PUSH2 0x2B6E JUMP JUMPDEST PUSH1 0x40 MLOAD DUP1 SWAP2 SUB SWAP1 RETURN JUMPDEST PUSH2 0x24F PUSH1 0x4 DUP1 CALLDATASIZE SUB DUP2 ADD SWAP1 PUSH2 0x24A SWAP2 SWAP1 PUSH2 0x26C0 JUMP JUMPDEST PUSH2 0x5B2 JUMP JUMPDEST PUSH1 0x40 MLOAD PUSH2 0x25C SWAP2 SWAP1 PUSH2 0x2BA4 JUMP JUMPDEST PUSH1 0x40 MLOAD DUP1 SWAP2 SUB SWAP1 RETURN JUMPDEST PUSH2 0x27F PUSH1 0x4 DUP1 CALLDATASIZE SUB DUP2 ADD SWAP1 PUSH2 0x27A SWAP2 SWAP1 PUSH2 0x26C0 JUMP JUMPDEST PUSH2 0x5FC JUMP JUMPDEST PUSH1 0x40 MLOAD PUSH2 0x28C SWAP2 SWAP1 PUSH2 0x2E8E JUMP JUMPDEST PUSH1 0x40 MLOAD DUP1 SWAP2 SUB SWAP1 RETURN JUMPDEST PUSH2 0x29D PUSH2 0x74C JUMP JUMPDEST PUSH1 0x40 MLOAD PUSH2 0x2AA SWAP2 SWAP1 PUSH2 0x2EFA JUMP JUMPDEST PUSH1 0x40 MLOAD DUP1 SWAP2 SUB SWAP1 RETURN JUMPDEST PUSH2 0x2CD PUSH1 0x4 DUP1 CALLDATASIZE SUB DUP2 ADD SWAP1 PUSH2 0x2C8 SWAP2 SWAP1 PUSH2 0x256B JUMP JUMPDEST PUSH2 0x755 JUMP JUMPDEST PUSH1 0x40 MLOAD PUSH2 0x2DA SWAP2 SWAP1 PUSH2 0x2B6E JUMP JUMPDEST PUSH1 0x40 MLOAD DUP1 SWAP2 SUB SWAP1 RETURN JUMPDEST PUSH2 0x2EB PUSH2 0x785 JUMP JUMPDEST PUSH1 0x40 MLOAD PUSH2 0x2F8 SWAP2 SWAP1 PUSH2 0x2EC4 JUMP JUMPDEST PUSH1 0x40 MLOAD DUP1 SWAP2 SUB SWAP1 RETURN JUMPDEST PUSH2 0x309 PUSH2 0x78B JUMP JUMPDEST PUSH1 0x40 MLOAD PUSH2 0x316 SWAP2 SWAP1 PUSH2 0x2EDF JUMP JUMPDEST PUSH1 0x40 MLOAD DUP1 SWAP2 SUB SWAP1 RETURN JUMPDEST PUSH2 0x339 PUSH1 0x4 DUP1 CALLDATASIZE SUB DUP2 ADD SWAP1 PUSH2 0x334 SWAP2 SWAP1 PUSH2 0x24AB JUMP JUMPDEST PUSH2 0x7A1 JUMP JUMPDEST PUSH1 0x40 MLOAD PUSH2 0x346 SWAP2 SWAP1 PUSH2 0x2EC4 JUMP JUMPDEST PUSH1 0x40 MLOAD DUP1 SWAP2 SUB SWAP1 RETURN JUMPDEST PUSH2 0x357 PUSH2 0x7E9 JUMP JUMPDEST PUSH1 0x40 MLOAD PUSH2 0x364 SWAP2 SWAP1 PUSH2 0x2D2C JUMP JUMPDEST PUSH1 0x40 MLOAD DUP1 SWAP2 SUB SWAP1 RETURN JUMPDEST PUSH2 0x387 PUSH1 0x4 DUP1 CALLDATASIZE SUB DUP2 ADD SWAP1 PUSH2 0x382 SWAP2 SWAP1 PUSH2 0x256B JUMP JUMPDEST PUSH2 0x826 JUMP JUMPDEST PUSH1 0x40 MLOAD PUSH2 0x394 SWAP2 SWAP1 PUSH2 0x2B6E JUMP JUMPDEST PUSH1 0x40 MLOAD DUP1 SWAP2 SUB SWAP1 RETURN JUMPDEST PUSH2 0x3A5 PUSH2 0x896 JUMP JUMPDEST PUSH1 0x40 MLOAD PUSH2 0x3B2 SWAP2 SWAP1 PUSH2 0x2EC4 JUMP JUMPDEST PUSH1 0x40 MLOAD DUP1 SWAP2 SUB SWAP1 RETURN JUMPDEST PUSH2 0x3D5 PUSH1 0x4 DUP1 CALLDATASIZE SUB DUP2 ADD SWAP1 PUSH2 0x3D0 SWAP2 SWAP1 PUSH2 0x256B JUMP JUMPDEST PUSH2 0x89C JUMP JUMPDEST PUSH1 0x40 MLOAD PUSH2 0x3E2 SWAP2 SWAP1 PUSH2 0x2B6E JUMP JUMPDEST PUSH1 0x40 MLOAD DUP1 SWAP2 SUB SWAP1 RETURN JUMPDEST PUSH2 0x405 PUSH1 0x4 DUP1 CALLDATASIZE SUB DUP2 ADD SWAP1 PUSH2 0x400 SWAP2 SWAP1 PUSH2 0x26C0 JUMP JUMPDEST PUSH2 0x8B8 JUMP JUMPDEST PUSH1 0x40 MLOAD PUSH2 0x412 SWAP2 SWAP1 PUSH2 0x2BA4 JUMP JUMPDEST PUSH1 0x40 MLOAD DUP1 SWAP2 SUB SWAP1 RETURN JUMPDEST PUSH2 0x435 PUSH1 0x4 DUP1 CALLDATASIZE SUB DUP2 ADD SWAP1 PUSH2 0x430 SWAP2 SWAP1 PUSH2 0x2632 JUMP JUMPDEST PUSH2 0x8D0 JUMP JUMPDEST PUSH1 0x40 MLOAD PUSH2 0x442 SWAP2 SWAP1 PUSH2 0x2E8E JUMP JUMPDEST PUSH1 0x40 MLOAD DUP1 SWAP2 SUB SWAP1 RETURN JUMPDEST PUSH2 0x465 PUSH1 0x4 DUP1 CALLDATASIZE SUB DUP2 ADD SWAP1 PUSH2 0x460 SWAP2 SWAP1 PUSH2 0x2632 JUMP JUMPDEST PUSH2 0xCE2 JUMP JUMPDEST STOP JUMPDEST PUSH2 0x481 PUSH1 0x4 DUP1 CALLDATASIZE SUB DUP2 ADD SWAP1 PUSH2 0x47C SWAP2 SWAP1 PUSH2 0x24D8 JUMP JUMPDEST PUSH2 0xF4B JUMP JUMPDEST PUSH1 0x40 MLOAD PUSH2 0x48E SWAP2 SWAP1 PUSH2 0x2EC4 JUMP JUMPDEST PUSH1 0x40 MLOAD DUP1 SWAP2 SUB SWAP1 RETURN JUMPDEST PUSH2 0x49F PUSH2 0xFD2 JUMP JUMPDEST PUSH1 0x40 MLOAD PUSH2 0x4AC SWAP2 SWAP1 PUSH2 0x2EC4 JUMP JUMPDEST PUSH1 0x40 MLOAD DUP1 SWAP2 SUB SWAP1 RETURN JUMPDEST PUSH2 0x4CF PUSH1 0x4 DUP1 CALLDATASIZE SUB DUP2 ADD SWAP1 PUSH2 0x4CA SWAP2 SWAP1 PUSH2 0x25AB JUMP JUMPDEST PUSH2 0xFD8 JUMP JUMPDEST PUSH1 0x40 MLOAD PUSH2 0x4E2 SWAP8 SWAP7 SWAP6 SWAP5 SWAP4 SWAP3 SWAP2 SWAP1 PUSH2 0x2BBF JUMP JUMPDEST PUSH1 0x40 MLOAD DUP1 SWAP2 SUB SWAP1 RETURN JUMPDEST PUSH2 0x505 PUSH1 0x4 DUP1 CALLDATASIZE SUB DUP2 ADD SWAP1 PUSH2 0x500 SWAP2 SWAP1 PUSH2 0x267F JUMP JUMPDEST PUSH2 0x1057 JUMP JUMPDEST PUSH1 0x40 MLOAD PUSH2 0x512 SWAP2 SWAP1 PUSH2 0x2B6E JUMP JUMPDEST PUSH1 0x40 MLOAD DUP1 SWAP2 SUB SWAP1 RETURN JUMPDEST PUSH1 0x5 SLOAD DUP2 JUMP JUMPDEST PUSH1 0x60 PUSH1 0x40 MLOAD DUP1 PUSH1 0x40 ADD PUSH1 0x40 MSTORE DUP1 PUSH1 0xE DUP2 MSTORE PUSH1 0x20 ADD PUSH32 0x426974636F696E535056436F696E000000000000000000000000000000000000 DUP2 MSTORE POP SWAP1 POP SWAP1 JUMP JUMPDEST PUSH1 0x9 SLOAD DUP2 JUMP JUMPDEST PUSH1 0x0 DUP1 CALLER SWAP1 POP PUSH2 0x575 DUP2 DUP6 DUP6 PUSH2 0x1802 JUMP JUMPDEST PUSH1 0x1 SWAP2 POP POP SWAP3 SWAP2 POP POP JUMP JUMPDEST PUSH1 0x0 PUSH1 0x2 SLOAD SWAP1 POP SWAP1 JUMP JUMPDEST PUSH1 0x0 DUP1 CALLER SWAP1 POP PUSH2 0x59B DUP6 DUP3 DUP6 PUSH2 0x19CD JUMP JUMPDEST PUSH2 0x5A6 DUP6 DUP6 DUP6 PUSH2 0x1A59 JUMP JUMPDEST PUSH1 0x1 SWAP2 POP POP SWAP4 SWAP3 POP POP POP JUMP JUMPDEST PUSH1 0x0 PUSH1 0x9 SLOAD PUSH2 0x5C0 ORIGIN PUSH2 0x7A1 JUMP JUMPDEST LT ISZERO PUSH2 0x5CB JUMPI PUSH1 0x0 DUP1 REVERT JUMPDEST PUSH1 0xA PUSH1 0x0 PUSH1 0xB PUSH1 0x0 DUP6 DUP2 MSTORE PUSH1 0x20 ADD SWAP1 DUP2 MSTORE PUSH1 0x20 ADD PUSH1 0x0 KECCAK256 SLOAD DUP2 MSTORE PUSH1 0x20 ADD SWAP1 DUP2 MSTORE PUSH1 0x20 ADD PUSH1 0x0 KECCAK256 PUSH1 0x1 ADD SLOAD SWAP1 POP SWAP2 SWAP1 POP JUMP JUMPDEST PUSH2 0x604 PUSH2 0x2263 JUMP JUMPDEST PUSH1 0x9 SLOAD PUSH2 0x610 ORIGIN PUSH2 0x7A1 JUMP JUMPDEST LT ISZERO PUSH2 0x61B JUMPI PUSH1 0x0 DUP1 REVERT JUMPDEST PUSH1 0xA PUSH1 0x0 PUSH1 0xB PUSH1 0x0 DUP6 DUP2 MSTORE PUSH1 0x20 ADD SWAP1 DUP2 MSTORE PUSH1 0x20 ADD PUSH1 0x0 KECCAK256 SLOAD DUP2 MSTORE PUSH1 0x20 ADD SWAP1 DUP2 MSTORE PUSH1 0x20 ADD PUSH1 0x0 KECCAK256 PUSH1 0x40 MLOAD DUP1 PUSH1 0xE0 ADD PUSH1 0x40 MSTORE SWAP1 DUP2 PUSH1 0x0 DUP3 ADD SLOAD DUP2 MSTORE PUSH1 0x20 ADD PUSH1 0x1 DUP3 ADD SLOAD DUP2 MSTORE PUSH1 0x20 ADD PUSH1 0x2 DUP3 ADD SLOAD DUP2 MSTORE PUSH1 0x20 ADD PUSH1 0x3 DUP3 ADD SLOAD DUP2 MSTORE PUSH1 0x20 ADD PUSH1 0x4 DUP3 ADD PUSH1 0x0 SWAP1 SLOAD SWAP1 PUSH2 0x100 EXP SWAP1 DIV PUSH20 0xFFFFFFFFFFFFFFFFFFFFFFFFFFFFFFFFFFFFFFFF AND PUSH20 0xFFFFFFFFFFFFFFFFFFFFFFFFFFFFFFFFFFFFFFFF AND PUSH20 0xFFFFFFFFFFFFFFFFFFFFFFFFFFFFFFFFFFFFFFFF AND DUP2 MSTORE PUSH1 0x20 ADD PUSH1 0x4 DUP3 ADD PUSH1 0x14 SWAP1 SLOAD SWAP1 PUSH2 0x100 EXP SWAP1 DIV PUSH4 0xFFFFFFFF AND PUSH4 0xFFFFFFFF AND PUSH4 0xFFFFFFFF AND DUP2 MSTORE PUSH1 0x20 ADD PUSH1 0x4 DUP3 ADD PUSH1 0x18 SWAP1 SLOAD SWAP1 PUSH2 0x100 EXP SWAP1 DIV PUSH1 0xE0 SHL PUSH28 0xFFFFFFFFFFFFFFFFFFFFFFFFFFFFFFFFFFFFFFFFFFFFFFFFFFFFFFFF NOT AND PUSH28 0xFFFFFFFFFFFFFFFFFFFFFFFFFFFFFFFFFFFFFFFFFFFFFFFFFFFFFFFF NOT AND DUP2 MSTORE POP POP SWAP1 POP SWAP2 SWAP1 POP JUMP JUMPDEST PUSH1 0x0 PUSH1 0x8 SWAP1 POP SWAP1 JUMP JUMPDEST PUSH1 0x0 DUP1 CALLER SWAP1 POP PUSH2 0x77A DUP2 DUP6 DUP6 PUSH2 0x76B DUP6 DUP10 PUSH2 0xF4B JUMP JUMPDEST PUSH2 0x775 SWAP2 SWAP1 PUSH2 0x2FB8 JUMP JUMPDEST PUSH2 0x1802 JUMP JUMPDEST PUSH1 0x1 SWAP2 POP POP SWAP3 SWAP2 POP POP JUMP JUMPDEST PUSH1 0x3 SLOAD DUP2 JUMP JUMPDEST PUSH1 0x7 PUSH1 0x0 SWAP1 SLOAD SWAP1 PUSH2 0x100 EXP SWAP1 DIV PUSH4 0xFFFFFFFF AND DUP2 JUMP JUMPDEST PUSH1 0x0 DUP1 PUSH1 0x0 DUP4 PUSH20 0xFFFFFFFFFFFFFFFFFFFFFFFFFFFFFFFFFFFFFFFF AND PUSH20 0xFFFFFFFFFFFFFFFFFFFFFFFFFFFFFFFFFFFFFFFF AND DUP2 MSTORE PUSH1 0x20 ADD SWAP1 DUP2 MSTORE PUSH1 0x20 ADD PUSH1 0x0 KECCAK256 SLOAD SWAP1 POP SWAP2 SWAP1 POP JUMP JUMPDEST PUSH1 0x60 PUSH1 0x40 MLOAD DUP1 PUSH1 0x40 ADD PUSH1 0x40 MSTORE DUP1 PUSH1 0x4 DUP2 MSTORE PUSH1 0x20 ADD PUSH32 0x5350564300000000000000000000000000000000000000000000000000000000 DUP2 MSTORE POP SWAP1 POP SWAP1 JUMP JUMPDEST PUSH1 0x0 DUP1 CALLER SWAP1 POP PUSH1 0x0 PUSH2 0x838 DUP3 DUP7 PUSH2 0xF4B JUMP JUMPDEST SWAP1 POP DUP4 DUP2 LT ISZERO PUSH2 0x87D JUMPI PUSH1 0x40 MLOAD PUSH32 0x8C379A000000000000000000000000000000000000000000000000000000000 DUP2 MSTORE PUSH1 0x4 ADD PUSH2 0x874 SWAP1 PUSH2 0x2E4E JUMP JUMPDEST PUSH1 0x40 MLOAD DUP1 SWAP2 SUB SWAP1 REVERT JUMPDEST PUSH2 0x88A DUP3 DUP7 DUP7 DUP5 SUB PUSH2 0x1802 JUMP JUMPDEST PUSH1 0x1 SWAP3 POP POP POP SWAP3 SWAP2 POP POP JUMP JUMPDEST PUSH1 0x4 SLOAD DUP2 JUMP JUMPDEST PUSH1 0x0 DUP1 CALLER SWAP1 POP PUSH2 0x8AD DUP2 DUP6 DUP6 PUSH2 0x1A59 JUMP JUMPDEST PUSH1 0x1 SWAP2 POP POP SWAP3 SWAP2 POP POP JUMP JUMPDEST PUSH1 0xB PUSH1 0x20 MSTORE DUP1 PUSH1 0x0 MSTORE PUSH1 0x40 PUSH1 0x0 KECCAK256 PUSH1 0x0 SWAP2 POP SWAP1 POP SLOAD DUP2 JUMP JUMPDEST PUSH2 0x8D8 PUSH2 0x2263 JUMP JUMPDEST PUSH1 0x50 DUP4 DUP4 SWAP1 POP LT ISZERO PUSH2 0x8E9 JUMPI PUSH1 0x0 DUP1 REVERT JUMPDEST PUSH1 0x40 MLOAD DUP1 PUSH1 0xE0 ADD PUSH1 0x40 MSTORE DUP1 PUSH20 0x0 PUSH4 0xDD1D743B DUP7 DUP7 PUSH1 0x4 PUSH1 0x40 MLOAD DUP5 PUSH4 0xFFFFFFFF AND PUSH1 0xE0 SHL DUP2 MSTORE PUSH1 0x4 ADD PUSH2 0x930 SWAP4 SWAP3 SWAP2 SWAP1 PUSH2 0x2C96 JUMP JUMPDEST PUSH1 0x20 PUSH1 0x40 MLOAD DUP1 DUP4 SUB DUP2 DUP7 DUP1 EXTCODESIZE ISZERO DUP1 ISZERO PUSH2 0x948 JUMPI PUSH1 0x0 DUP1 REVERT JUMPDEST POP GAS DELEGATECALL ISZERO DUP1 ISZERO PUSH2 0x95C JUMPI RETURNDATASIZE PUSH1 0x0 DUP1 RETURNDATACOPY RETURNDATASIZE PUSH1 0x0 REVERT JUMPDEST POP POP POP POP PUSH1 0x40 MLOAD RETURNDATASIZE PUSH1 0x1F NOT PUSH1 0x1F DUP3 ADD AND DUP3 ADD DUP1 PUSH1 0x40 MSTORE POP DUP2 ADD SWAP1 PUSH2 0x980 SWAP2 SWAP1 PUSH2 0x25D8 JUMP JUMPDEST DUP2 MSTORE PUSH1 0x20 ADD PUSH20 0x0 PUSH4 0xDD1D743B DUP7 DUP7 PUSH1 0x24 PUSH1 0x40 MLOAD DUP5 PUSH4 0xFFFFFFFF AND PUSH1 0xE0 SHL DUP2 MSTORE PUSH1 0x4 ADD PUSH2 0x9C1 SWAP4 SWAP3 SWAP2 SWAP1 PUSH2 0x2C64 JUMP JUMPDEST PUSH1 0x20 PUSH1 0x40 MLOAD DUP1 DUP4 SUB DUP2 DUP7 DUP1 EXTCODESIZE ISZERO DUP1 ISZERO PUSH2 0x9D9 JUMPI PUSH1 0x0 DUP1 REVERT JUMPDEST POP GAS DELEGATECALL ISZERO DUP1 ISZERO PUSH2 0x9ED JUMPI RETURNDATASIZE PUSH1 0x0 DUP1 RETURNDATACOPY RETURNDATASIZE PUSH1 0x0 REVERT JUMPDEST POP POP POP POP PUSH1 0x40 MLOAD RETURNDATASIZE PUSH1 0x1F NOT PUSH1 0x1F DUP3 ADD AND DUP3 ADD DUP1 PUSH1 0x40 MSTORE POP DUP2 ADD SWAP1 PUSH2 0xA11 SWAP2 SWAP1 PUSH2 0x25D8 JUMP JUMPDEST DUP2 MSTORE PUSH1 0x20 ADD PUSH20 0x0 PUSH4 0x40E2283F PUSH1 0x2 DUP1 DUP9 DUP9 PUSH1 0x0 SWAP1 PUSH1 0x50 SWAP3 PUSH2 0xA47 SWAP4 SWAP3 SWAP2 SWAP1 PUSH2 0x2F7D JUMP JUMPDEST PUSH1 0x40 MLOAD PUSH2 0xA55 SWAP3 SWAP2 SWAP1 PUSH2 0x2B3E JUMP JUMPDEST PUSH1 0x20 PUSH1 0x40 MLOAD DUP1 DUP4 SUB DUP2 DUP6 GAS STATICCALL ISZERO DUP1 ISZERO PUSH2 0xA72 JUMPI RETURNDATASIZE PUSH1 0x0 DUP1 RETURNDATACOPY RETURNDATASIZE PUSH1 0x0 REVERT JUMPDEST POP POP POP PUSH1 0x40 MLOAD RETURNDATASIZE PUSH1 0x1F NOT PUSH1 0x1F DUP3 ADD AND DUP3 ADD DUP1 PUSH1 0x40 MSTORE POP DUP2 ADD SWAP1 PUSH2 0xA95 SWAP2 SWAP1 PUSH2 0x25D8 JUMP JUMPDEST PUSH1 0x40 MLOAD PUSH1 0x20 ADD PUSH2 0xAA5 SWAP2 SWAP1 PUSH2 0x2B23 JUMP JUMPDEST PUSH1 0x40 MLOAD PUSH1 0x20 DUP2 DUP4 SUB SUB DUP2 MSTORE SWAP1 PUSH1 0x40 MSTORE PUSH1 0x40 MLOAD PUSH2 0xAC1 SWAP2 SWAP1 PUSH2 0x2B57 JUMP JUMPDEST PUSH1 0x20 PUSH1 0x40 MLOAD DUP1 DUP4 SUB DUP2 DUP6 GAS STATICCALL ISZERO DUP1 ISZERO PUSH2 0xADE JUMPI RETURNDATASIZE PUSH1 0x0 DUP1 RETURNDATACOPY RETURNDATASIZE PUSH1 0x0 REVERT JUMPDEST POP POP POP PUSH1 0x40 MLOAD RETURNDATASIZE PUSH1 0x1F NOT PUSH1 0x1F DUP3 ADD AND DUP3 ADD DUP1 PUSH1 0x40 MSTORE POP DUP2 ADD SWAP1 PUSH2 0xB01 SWAP2 SWAP1 PUSH2 0x25D8 JUMP JUMPDEST PUSH1 0x40 MLOAD DUP3 PUSH4 0xFFFFFFFF AND PUSH1 0xE0 SHL DUP2 MSTORE PUSH1 0x4 ADD PUSH2 0xB1D SWAP2 SWAP1 PUSH2 0x2B89 JUMP JUMPDEST PUSH1 0x20 PUSH1 0x40 MLOAD DUP1 DUP4 SUB DUP2 DUP7 DUP1 EXTCODESIZE ISZERO DUP1 ISZERO PUSH2 0xB35 JUMPI PUSH1 0x0 DUP1 REVERT JUMPDEST POP GAS DELEGATECALL ISZERO DUP1 ISZERO PUSH2 0xB49 JUMPI RETURNDATASIZE PUSH1 0x0 DUP1 RETURNDATACOPY RETURNDATASIZE PUSH1 0x0 REVERT JUMPDEST POP POP POP POP PUSH1 0x40 MLOAD RETURNDATASIZE PUSH1 0x1F NOT PUSH1 0x1F DUP3 ADD AND DUP3 ADD DUP1 PUSH1 0x40 MSTORE POP DUP2 ADD SWAP1 PUSH2 0xB6D SWAP2 SWAP1 PUSH2 0x25D8 JUMP JUMPDEST DUP2 MSTORE PUSH1 0x20 ADD PUSH1 0x0 DUP2 MSTORE PUSH1 0x20 ADD CALLER PUSH20 0xFFFFFFFFFFFFFFFFFFFFFFFFFFFFFFFFFFFFFFFF AND DUP2 MSTORE PUSH1 0x20 ADD PUSH20 0x0 PUSH4 0xFEC2F93F DUP7 DUP7 PUSH1 0x44 PUSH1 0x40 MLOAD DUP5 PUSH4 0xFFFFFFFF AND PUSH1 0xE0 SHL DUP2 MSTORE PUSH1 0x4 ADD PUSH2 0xBD1 SWAP4 SWAP3 SWAP2 SWAP1 PUSH2 0x2CC8 JUMP JUMPDEST PUSH1 0x20 PUSH1 0x40 MLOAD DUP1 DUP4 SUB DUP2 DUP7 DUP1 EXTCODESIZE ISZERO DUP1 ISZERO PUSH2 0xBE9 JUMPI PUSH1 0x0 DUP1 REVERT JUMPDEST POP GAS DELEGATECALL ISZERO DUP1 ISZERO PUSH2 0xBFD JUMPI RETURNDATASIZE PUSH1 0x0 DUP1 RETURNDATACOPY RETURNDATASIZE PUSH1 0x0 REVERT JUMPDEST POP POP POP POP PUSH1 0x40 MLOAD RETURNDATASIZE PUSH1 0x1F NOT PUSH1 0x1F DUP3 ADD AND DUP3 ADD DUP1 PUSH1 0x40 MSTORE POP DUP2 ADD SWAP1 PUSH2 0xC21 SWAP2 SWAP1 PUSH2 0x271A JUMP JUMPDEST PUSH4 0xFFFFFFFF AND DUP2 MSTORE PUSH1 0x20 ADD PUSH20 0x0 PUSH4 0x2B0DAA0A DUP7 DUP7 PUSH1 0x48 PUSH1 0x40 MLOAD DUP5 PUSH4 0xFFFFFFFF AND PUSH1 0xE0 SHL DUP2 MSTORE PUSH1 0x4 ADD PUSH2 0xC68 SWAP4 SWAP3 SWAP2 SWAP1 PUSH2 0x2CFA JUMP JUMPDEST PUSH1 0x20 PUSH1 0x40 MLOAD DUP1 DUP4 SUB DUP2 DUP7 DUP1 EXTCODESIZE ISZERO DUP1 ISZERO PUSH2 0xC80 JUMPI PUSH1 0x0 DUP1 REVERT JUMPDEST POP GAS DELEGATECALL ISZERO DUP1 ISZERO PUSH2 0xC94 JUMPI RETURNDATASIZE PUSH1 0x0 DUP1 RETURNDATACOPY RETURNDATASIZE PUSH1 0x0 REVERT JUMPDEST POP POP POP POP PUSH1 0x40 MLOAD RETURNDATASIZE PUSH1 0x1F NOT PUSH1 0x1F DUP3 ADD AND DUP3 ADD DUP1 PUSH1 0x40 MSTORE POP DUP2 ADD SWAP1 PUSH2 0xCB8 SWAP2 SWAP1 PUSH2 0x2605 JUMP JUMPDEST PUSH28 0xFFFFFFFFFFFFFFFFFFFFFFFFFFFFFFFFFFFFFFFFFFFFFFFFFFFFFFFF NOT AND DUP2 MSTORE POP SWAP1 POP SWAP3 SWAP2 POP POP JUMP JUMPDEST PUSH1 0x0 PUSH2 0xCEE DUP4 DUP4 PUSH2 0x8D0 JUMP JUMPDEST SWAP1 POP PUSH1 0x0 DUP2 PUSH1 0x0 ADD MLOAD SWAP1 POP PUSH1 0x0 PUSH1 0xA PUSH1 0x0 DUP4 DUP2 MSTORE PUSH1 0x20 ADD SWAP1 DUP2 MSTORE PUSH1 0x20 ADD PUSH1 0x0 KECCAK256 PUSH1 0x40 MLOAD DUP1 PUSH1 0xE0 ADD PUSH1 0x40 MSTORE SWAP1 DUP2 PUSH1 0x0 DUP3 ADD SLOAD DUP2 MSTORE PUSH1 0x20 ADD PUSH1 0x1 DUP3 ADD SLOAD DUP2 MSTORE PUSH1 0x20 ADD PUSH1 0x2 DUP3 ADD SLOAD DUP2 MSTORE PUSH1 0x20 ADD PUSH1 0x3 DUP3 ADD SLOAD DUP2 MSTORE PUSH1 0x20 ADD PUSH1 0x4 DUP3 ADD PUSH1 0x0 SWAP1 SLOAD SWAP1 PUSH2 0x100 EXP SWAP1 DIV PUSH20 0xFFFFFFFFFFFFFFFFFFFFFFFFFFFFFFFFFFFFFFFF AND PUSH20 0xFFFFFFFFFFFFFFFFFFFFFFFFFFFFFFFFFFFFFFFF AND PUSH20 0xFFFFFFFFFFFFFFFFFFFFFFFFFFFFFFFFFFFFFFFF AND DUP2 MSTORE PUSH1 0x20 ADD PUSH1 0x4 DUP3 ADD PUSH1 0x14 SWAP1 SLOAD SWAP1 PUSH2 0x100 EXP SWAP1 DIV PUSH4 0xFFFFFFFF AND PUSH4 0xFFFFFFFF AND PUSH4 0xFFFFFFFF AND DUP2 MSTORE PUSH1 0x20 ADD PUSH1 0x4 DUP3 ADD PUSH1 0x18 SWAP1 SLOAD SWAP1 PUSH2 0x100 EXP SWAP1 DIV PUSH1 0xE0 SHL PUSH28 0xFFFFFFFFFFFFFFFFFFFFFFFFFFFFFFFFFFFFFFFFFFFFFFFFFFFFFFFF NOT AND PUSH28 0xFFFFFFFFFFFFFFFFFFFFFFFFFFFFFFFFFFFFFFFFFFFFFFFFFFFFFFFF NOT AND DUP2 MSTORE POP POP SWAP1 POP PUSH1 0x1 DUP2 PUSH1 0x60 ADD MLOAD PUSH2 0xE25 SWAP2 SWAP1 PUSH2 0x2FB8 JUMP JUMPDEST DUP4 PUSH1 0x60 ADD DUP2 DUP2 MSTORE POP POP PUSH1 0x0 DUP2 PUSH1 0xA0 ADD MLOAD PUSH4 0xFFFFFFFF AND EQ ISZERO PUSH2 0xE49 JUMPI POP POP POP PUSH2 0xF47 JUMP JUMPDEST PUSH2 0xE53 DUP4 DUP3 PUSH2 0x1057 JUMP JUMPDEST PUSH2 0xE5C JUMPI PUSH1 0x0 DUP1 REVERT JUMPDEST DUP3 PUSH1 0xA PUSH1 0x0 DUP6 PUSH1 0x40 ADD MLOAD DUP2 MSTORE PUSH1 0x20 ADD SWAP1 DUP2 MSTORE PUSH1 0x20 ADD PUSH1 0x0 KECCAK256 PUSH1 0x0 DUP3 ADD MLOAD DUP2 PUSH1 0x0 ADD SSTORE PUSH1 0x20 DUP3 ADD MLOAD DUP2 PUSH1 0x1 ADD SSTORE PUSH1 0x40 DUP3 ADD MLOAD DUP2 PUSH1 0x2 ADD SSTORE PUSH1 0x60 DUP3 ADD MLOAD DUP2 PUSH1 0x3 ADD SSTORE PUSH1 0x80 DUP3 ADD MLOAD DUP2 PUSH1 0x4 ADD PUSH1 0x0 PUSH2 0x100 EXP DUP2 SLOAD DUP2 PUSH20 0xFFFFFFFFFFFFFFFFFFFFFFFFFFFFFFFFFFFFFFFF MUL NOT AND SWAP1 DUP4 PUSH20 0xFFFFFFFFFFFFFFFFFFFFFFFFFFFFFFFFFFFFFFFF AND MUL OR SWAP1 SSTORE POP PUSH1 0xA0 DUP3 ADD MLOAD DUP2 PUSH1 0x4 ADD PUSH1 0x14 PUSH2 0x100 EXP DUP2 SLOAD DUP2 PUSH4 0xFFFFFFFF MUL NOT AND SWAP1 DUP4 PUSH4 0xFFFFFFFF AND MUL OR SWAP1 SSTORE POP PUSH1 0xC0 DUP3 ADD MLOAD DUP2 PUSH1 0x4 ADD PUSH1 0x18 PUSH2 0x100 EXP DUP2 SLOAD DUP2 PUSH4 0xFFFFFFFF MUL NOT AND SWAP1 DUP4 PUSH1 0xE0 SHR MUL OR SWAP1 SSTORE POP SWAP1 POP POP PUSH2 0xF3A DUP4 PUSH2 0x1CD1 JUMP JUMPDEST PUSH2 0xF43 DUP4 PUSH2 0x1DD3 JUMP JUMPDEST POP POP POP JUMPDEST POP POP JUMP JUMPDEST PUSH1 0x0 PUSH1 0x1 PUSH1 0x0 DUP5 PUSH20 0xFFFFFFFFFFFFFFFFFFFFFFFFFFFFFFFFFFFFFFFF AND PUSH20 0xFFFFFFFFFFFFFFFFFFFFFFFFFFFFFFFFFFFFFFFF AND DUP2 MSTORE PUSH1 0x20 ADD SWAP1 DUP2 MSTORE PUSH1 0x20 ADD PUSH1 0x0 KECCAK256 PUSH1 0x0 DUP4 PUSH20 0xFFFFFFFFFFFFFFFFFFFFFFFFFFFFFFFFFFFFFFFF AND PUSH20 0xFFFFFFFFFFFFFFFFFFFFFFFFFFFFFFFFFFFFFFFF AND DUP2 MSTORE PUSH1 0x20 ADD SWAP1 DUP2 MSTORE PUSH1 0x20 ADD PUSH1 0x0 KECCAK256 SLOAD SWAP1 POP SWAP3 SWAP2 POP POP JUMP JUMPDEST PUSH1 0x6 SLOAD DUP2 JUMP JUMPDEST PUSH1 0xA PUSH1 0x20 MSTORE DUP1 PUSH1 0x0 MSTORE PUSH1 0x40 PUSH1 0x0 KECCAK256 PUSH1 0x0 SWAP2 POP SWAP1 POP DUP1 PUSH1 0x0 ADD SLOAD SWAP1 DUP1 PUSH1 0x1 ADD SLOAD SWAP1 DUP1 PUSH1 0x2 ADD SLOAD SWAP1 DUP1 PUSH1 0x3 ADD SLOAD SWAP1 DUP1 PUSH1 0x4 ADD PUSH1 0x0 SWAP1 SLOAD SWAP1 PUSH2 0x100 EXP SWAP1 DIV PUSH20 0xFFFFFFFFFFFFFFFFFFFFFFFFFFFFFFFFFFFFFFFF AND SWAP1 DUP1 PUSH1 0x4 ADD PUSH1 0x14 SWAP1 SLOAD SWAP1 PUSH2 0x100 EXP SWAP1 DIV PUSH4 0xFFFFFFFF AND SWAP1 DUP1 PUSH1 0x4 ADD PUSH1 0x18 SWAP1 SLOAD SWAP1 PUSH2 0x100 EXP SWAP1 DIV PUSH1 0xE0 SHL SWAP1 POP DUP8 JUMP JUMPDEST PUSH1 0x0 DUP1 PUSH20 0x0 PUSH3 0x4EA54C DUP6 PUSH1 0xC0 ADD MLOAD PUSH1 0x40 MLOAD DUP3 PUSH4 0xFFFFFFFF AND PUSH1 0xE0 SHL DUP2 MSTORE PUSH1 0x4 ADD PUSH2 0x1094 SWAP2 SWAP1 PUSH2 0x2C2E JUMP JUMPDEST PUSH1 0x20 PUSH1 0x40 MLOAD DUP1 DUP4 SUB DUP2 DUP7 DUP1 EXTCODESIZE ISZERO DUP1 ISZERO PUSH2 0x10AC JUMPI PUSH1 0x0 DUP1 REVERT JUMPDEST POP GAS DELEGATECALL ISZERO DUP1 ISZERO PUSH2 0x10C0 JUMPI RETURNDATASIZE PUSH1 0x0 DUP1 RETURNDATACOPY RETURNDATASIZE PUSH1 0x0 REVERT JUMPDEST POP POP POP POP PUSH1 0x40 MLOAD RETURNDATASIZE PUSH1 0x1F NOT PUSH1 0x1F DUP3 ADD AND DUP3 ADD DUP1 PUSH1 0x40 MSTORE POP DUP2 ADD SWAP1 PUSH2 0x10E4 SWAP2 SWAP1 PUSH2 0x26ED JUMP JUMPDEST SWAP1 POP DUP1 DUP5 PUSH1 0x40 ADD MLOAD PUSH1 0x0 SHR LT PUSH2 0x10F9 JUMPI PUSH1 0x0 DUP1 REVERT JUMPDEST PUSH1 0x0 DUP1 PUSH2 0x7E0 DUP7 PUSH1 0x60 ADD MLOAD PUSH2 0x110E SWAP2 SWAP1 PUSH2 0x32A0 JUMP JUMPDEST EQ ISZERO PUSH2 0x17F6 JUMPI PUSH1 0x0 PUSH1 0xB PUSH1 0x0 PUSH2 0x7E0 DUP9 PUSH1 0x60 ADD MLOAD PUSH2 0x112C SWAP2 SWAP1 PUSH2 0x3099 JUMP JUMPDEST DUP2 MSTORE PUSH1 0x20 ADD SWAP1 DUP2 MSTORE PUSH1 0x20 ADD PUSH1 0x0 KECCAK256 SLOAD SWAP1 POP PUSH1 0x0 DUP1 SHL DUP2 EQ PUSH2 0x117B JUMPI PUSH1 0xA PUSH1 0x0 DUP3 DUP2 MSTORE PUSH1 0x20 ADD SWAP1 DUP2 MSTORE PUSH1 0x20 ADD PUSH1 0x0 KECCAK256 PUSH1 0x4 ADD PUSH1 0x14 SWAP1 SLOAD SWAP1 PUSH2 0x100 EXP SWAP1 DIV PUSH4 0xFFFFFFFF AND PUSH4 0xFFFFFFFF AND SWAP2 POP PUSH2 0x1197 JUMP JUMPDEST PUSH1 0x7 PUSH1 0x0 SWAP1 SLOAD SWAP1 PUSH2 0x100 EXP SWAP1 DIV PUSH4 0xFFFFFFFF AND PUSH4 0xFFFFFFFF AND SWAP2 POP JUMPDEST PUSH1 0x0 PUSH2 0x1237 PUSH20 0x0 PUSH3 0x4EA54C DUP9 PUSH1 0xC0 ADD MLOAD PUSH1 0x40 MLOAD DUP3 PUSH4 0xFFFFFFFF AND PUSH1 0xE0 SHL DUP2 MSTORE PUSH1 0x4 ADD PUSH2 0x11D6 SWAP2 SWAP1 PUSH2 0x2C2E JUMP JUMPDEST PUSH1 0x20 PUSH1 0x40 MLOAD DUP1 DUP4 SUB DUP2 DUP7 DUP1 EXTCODESIZE ISZERO DUP1 ISZERO PUSH2 0x11EE JUMPI PUSH1 0x0 DUP1 REVERT JUMPDEST POP GAS DELEGATECALL ISZERO DUP1 ISZERO PUSH2 0x1202 JUMPI RETURNDATASIZE PUSH1 0x0 DUP1 RETURNDATACOPY RETURNDATASIZE PUSH1 0x0 REVERT JUMPDEST POP POP POP POP PUSH1 0x40 MLOAD RETURNDATASIZE PUSH1 0x1F NOT PUSH1 0x1F DUP3 ADD AND DUP3 ADD DUP1 PUSH1 0x40 MSTORE POP DUP2 ADD SWAP1 PUSH2 0x1226 SWAP2 SWAP1 PUSH2 0x26ED JUMP JUMPDEST DUP5 DUP9 PUSH1 0xA0 ADD MLOAD PUSH4 0xFFFFFFFF AND PUSH2 0x1ED2 JUMP JUMPDEST SWAP1 POP PUSH32 0xA080AC5FBFA34B622E39DB15E09A58F5A236B8511115A1AA24814EF54B38949A PUSH20 0x0 PUSH4 0x47E653D DUP4 PUSH1 0x40 MLOAD DUP3 PUSH4 0xFFFFFFFF AND PUSH1 0xE0 SHL DUP2 MSTORE PUSH1 0x4 ADD PUSH2 0x1291 SWAP2 SWAP1 PUSH2 0x2EA9 JUMP JUMPDEST PUSH1 0x20 PUSH1 0x40 MLOAD DUP1 DUP4 SUB DUP2 DUP7 DUP1 EXTCODESIZE ISZERO DUP1 ISZERO PUSH2 0x12A9 JUMPI PUSH1 0x0 DUP1 REVERT JUMPDEST POP GAS DELEGATECALL ISZERO DUP1 ISZERO PUSH2 0x12BD JUMPI RETURNDATASIZE PUSH1 0x0 DUP1 RETURNDATACOPY RETURNDATASIZE PUSH1 0x0 REVERT JUMPDEST POP POP POP POP PUSH1 0x40 MLOAD RETURNDATASIZE PUSH1 0x1F NOT PUSH1 0x1F DUP3 ADD AND DUP3 ADD DUP1 PUSH1 0x40 MSTORE POP DUP2 ADD SWAP1 PUSH2 0x12E1 SWAP2 SWAP1 PUSH2 0x271A JUMP JUMPDEST PUSH1 0xE0 SHL PUSH1 0x40 MLOAD PUSH2 0x12F1 SWAP2 SWAP1 PUSH2 0x2C49 JUMP JUMPDEST PUSH1 0x40 MLOAD DUP1 SWAP2 SUB SWAP1 LOG1 PUSH32 0xA080AC5FBFA34B622E39DB15E09A58F5A236B8511115A1AA24814EF54B38949A DUP8 PUSH1 0xC0 ADD MLOAD PUSH1 0x40 MLOAD PUSH2 0x132C SWAP2 SWAP1 PUSH2 0x2C49 JUMP JUMPDEST PUSH1 0x40 MLOAD DUP1 SWAP2 SUB SWAP1 LOG1 PUSH32 0xF1AD3AACFFAC6517DED25100B857AF30FA603840E121874AAB99F949E6DE4249 DUP2 PUSH1 0x0 SHL PUSH1 0x40 MLOAD PUSH2 0x1366 SWAP2 SWAP1 PUSH2 0x2BA4 JUMP JUMPDEST PUSH1 0x40 MLOAD DUP1 SWAP2 SUB SWAP1 LOG1 PUSH32 0xEF792E479C02CC28C08AB7B2644CE753008F9061DE1C3E109EDCEFF588220716 DUP2 PUSH1 0x40 MLOAD PUSH2 0x139D SWAP2 SWAP1 PUSH2 0x2EC4 JUMP JUMPDEST PUSH1 0x40 MLOAD DUP1 SWAP2 SUB SWAP1 LOG1 PUSH32 0xEF792E479C02CC28C08AB7B2644CE753008F9061DE1C3E109EDCEFF588220716 PUSH20 0x0 PUSH3 0x4EA54C DUP10 PUSH1 0xC0 ADD MLOAD PUSH1 0x40 MLOAD DUP3 PUSH4 0xFFFFFFFF AND PUSH1 0xE0 SHL DUP2 MSTORE PUSH1 0x4 ADD PUSH2 0x1400 SWAP2 SWAP1 PUSH2 0x2C2E JUMP JUMPDEST PUSH1 0x20 PUSH1 0x40 MLOAD DUP1 DUP4 SUB DUP2 DUP7 DUP1 EXTCODESIZE ISZERO DUP1 ISZERO PUSH2 0x1418 JUMPI PUSH1 0x0 DUP1 REVERT JUMPDEST POP GAS DELEGATECALL ISZERO DUP1 ISZERO PUSH2 0x142C JUMPI RETURNDATASIZE PUSH1 0x0 DUP1 RETURNDATACOPY RETURNDATASIZE PUSH1 0x0 REVERT JUMPDEST POP POP POP POP PUSH1 0x40 MLOAD RETURNDATASIZE PUSH1 0x1F NOT PUSH1 0x1F DUP3 ADD AND DUP3 ADD DUP1 PUSH1 0x40 MSTORE POP DUP2 ADD SWAP1 PUSH2 0x1450 SWAP2 SWAP1 PUSH2 0x26ED JUMP JUMPDEST PUSH1 0x40 MLOAD PUSH2 0x145D SWAP2 SWAP1 PUSH2 0x2EC4 JUMP JUMPDEST PUSH1 0x40 MLOAD DUP1 SWAP2 SUB SWAP1 LOG1 PUSH32 0xF1AD3AACFFAC6517DED25100B857AF30FA603840E121874AAB99F949E6DE4249 DUP8 PUSH1 0xC0 ADD MLOAD PUSH28 0xFFFFFFFFFFFFFFFFFFFFFFFFFFFFFFFFFFFFFFFFFFFFFFFFFFFFFFFF NOT AND PUSH1 0x40 MLOAD PUSH2 0x14B7 SWAP2 SWAP1 PUSH2 0x2BA4 JUMP JUMPDEST PUSH1 0x40 MLOAD DUP1 SWAP2 SUB SWAP1 LOG1 PUSH32 0xF1AD3AACFFAC6517DED25100B857AF30FA603840E121874AAB99F949E6DE4249 PUSH20 0x0 PUSH3 0x4EA54C DUP10 PUSH1 0xC0 ADD MLOAD PUSH1 0x40 MLOAD DUP3 PUSH4 0xFFFFFFFF AND PUSH1 0xE0 SHL DUP2 MSTORE PUSH1 0x4 ADD PUSH2 0x151A SWAP2 SWAP1 PUSH2 0x2C2E JUMP JUMPDEST PUSH1 0x20 PUSH1 0x40 MLOAD DUP1 DUP4 SUB DUP2 DUP7 DUP1 EXTCODESIZE ISZERO DUP1 ISZERO PUSH2 0x1532 JUMPI PUSH1 0x0 DUP1 REVERT JUMPDEST POP GAS DELEGATECALL ISZERO DUP1 ISZERO PUSH2 0x1546 JUMPI RETURNDATASIZE PUSH1 0x0 DUP1 RETURNDATACOPY RETURNDATASIZE PUSH1 0x0 REVERT JUMPDEST POP POP POP POP PUSH1 0x40 MLOAD RETURNDATASIZE PUSH1 0x1F NOT PUSH1 0x1F DUP3 ADD AND DUP3 ADD DUP1 PUSH1 0x40 MSTORE POP DUP2 ADD SWAP1 PUSH2 0x156A SWAP2 SWAP1 PUSH2 0x26ED JUMP JUMPDEST DUP3 AND PUSH1 0x0 SHL PUSH1 0x40 MLOAD PUSH2 0x157C SWAP2 SWAP1 PUSH2 0x2BA4 JUMP JUMPDEST PUSH1 0x40 MLOAD DUP1 SWAP2 SUB SWAP1 LOG1 PUSH32 0xF1AD3AACFFAC6517DED25100B857AF30FA603840E121874AAB99F949E6DE4249 PUSH20 0x0 PUSH4 0x47E653D DUP4 PUSH1 0x40 MLOAD DUP3 PUSH4 0xFFFFFFFF AND PUSH1 0xE0 SHL DUP2 MSTORE PUSH1 0x4 ADD PUSH2 0x15DC SWAP2 SWAP1 PUSH2 0x2EA9 JUMP JUMPDEST PUSH1 0x20 PUSH1 0x40 MLOAD DUP1 DUP4 SUB DUP2 DUP7 DUP1 EXTCODESIZE ISZERO DUP1 ISZERO PUSH2 0x15F4 JUMPI PUSH1 0x0 DUP1 REVERT JUMPDEST POP GAS DELEGATECALL ISZERO DUP1 ISZERO PUSH2 0x1608 JUMPI RETURNDATASIZE PUSH1 0x0 DUP1 RETURNDATACOPY RETURNDATASIZE PUSH1 0x0 REVERT JUMPDEST POP POP POP POP PUSH1 0x40 MLOAD RETURNDATASIZE PUSH1 0x1F NOT PUSH1 0x1F DUP3 ADD AND DUP3 ADD DUP1 PUSH1 0x40 MSTORE POP DUP2 ADD SWAP1 PUSH2 0x162C SWAP2 SWAP1 PUSH2 0x271A JUMP JUMPDEST PUSH4 0xFFFFFFFF AND PUSH1 0x0 SHL PUSH1 0x40 MLOAD PUSH2 0x1642 SWAP2 SWAP1 PUSH2 0x2BA4 JUMP JUMPDEST PUSH1 0x40 MLOAD DUP1 SWAP2 SUB SWAP1 LOG1 PUSH32 0xF1AD3AACFFAC6517DED25100B857AF30FA603840E121874AAB99F949E6DE4249 PUSH20 0x0 PUSH4 0x47E653D PUSH20 0x0 PUSH3 0x4EA54C DUP11 PUSH1 0xC0 ADD MLOAD PUSH1 0x40 MLOAD DUP3 PUSH4 0xFFFFFFFF AND PUSH1 0xE0 SHL DUP2 MSTORE PUSH1 0x4 ADD PUSH2 0x16BF SWAP2 SWAP1 PUSH2 0x2C2E JUMP JUMPDEST PUSH1 0x20 PUSH1 0x40 MLOAD DUP1 DUP4 SUB DUP2 DUP7 DUP1 EXTCODESIZE ISZERO DUP1 ISZERO PUSH2 0x16D7 JUMPI PUSH1 0x0 DUP1 REVERT JUMPDEST POP GAS DELEGATECALL ISZERO DUP1 ISZERO PUSH2 0x16EB JUMPI RETURNDATASIZE PUSH1 0x0 DUP1 RETURNDATACOPY RETURNDATASIZE PUSH1 0x0 REVERT JUMPDEST POP POP POP POP PUSH1 0x40 MLOAD RETURNDATASIZE PUSH1 0x1F NOT PUSH1 0x1F DUP3 ADD AND DUP3 ADD DUP1 PUSH1 0x40 MSTORE POP DUP2 ADD SWAP1 PUSH2 0x170F SWAP2 SWAP1 PUSH2 0x26ED JUMP JUMPDEST PUSH1 0x40 MLOAD DUP3 PUSH4 0xFFFFFFFF AND PUSH1 0xE0 SHL DUP2 MSTORE PUSH1 0x4 ADD PUSH2 0x172B SWAP2 SWAP1 PUSH2 0x2EA9 JUMP JUMPDEST PUSH1 0x20 PUSH1 0x40 MLOAD DUP1 DUP4 SUB DUP2 DUP7 DUP1 EXTCODESIZE ISZERO DUP1 ISZERO PUSH2 0x1743 JUMPI PUSH1 0x0 DUP1 REVERT JUMPDEST POP GAS DELEGATECALL ISZERO DUP1 ISZERO PUSH2 0x1757 JUMPI RETURNDATASIZE PUSH1 0x0 DUP1 RETURNDATACOPY RETURNDATASIZE PUSH1 0x0 REVERT JUMPDEST POP POP POP POP PUSH1 0x40 MLOAD RETURNDATASIZE PUSH1 0x1F NOT PUSH1 0x1F DUP3 ADD AND DUP3 ADD DUP1 PUSH1 0x40 MSTORE POP DUP2 ADD SWAP1 PUSH2 0x177B SWAP2 SWAP1 PUSH2 0x271A JUMP JUMPDEST PUSH4 0xFFFFFFFF AND PUSH1 0x0 SHL PUSH1 0x40 MLOAD PUSH2 0x1791 SWAP2 SWAP1 PUSH2 0x2BA4 JUMP JUMPDEST PUSH1 0x40 MLOAD DUP1 SWAP2 SUB SWAP1 LOG1 PUSH32 0xF1AD3AACFFAC6517DED25100B857AF30FA603840E121874AAB99F949E6DE4249 DUP7 PUSH1 0xC0 ADD MLOAD PUSH28 0xFFFFFFFFFFFFFFFFFFFFFFFFFFFFFFFFFFFFFFFFFFFFFFFFFFFFFFFF NOT AND PUSH1 0x40 MLOAD PUSH2 0x17EB SWAP2 SWAP1 PUSH2 0x2BA4 JUMP JUMPDEST PUSH1 0x40 MLOAD DUP1 SWAP2 SUB SWAP1 LOG1 POP POP JUMPDEST PUSH1 0x1 SWAP3 POP POP POP SWAP3 SWAP2 POP POP JUMP JUMPDEST PUSH1 0x0 PUSH20 0xFFFFFFFFFFFFFFFFFFFFFFFFFFFFFFFFFFFFFFFF AND DUP4 PUSH20 0xFFFFFFFFFFFFFFFFFFFFFFFFFFFFFFFFFFFFFFFF AND EQ ISZERO PUSH2 0x1872 JUMPI PUSH1 0x40 MLOAD PUSH32 0x8C379A000000000000000000000000000000000000000000000000000000000 DUP2 MSTORE PUSH1 0x4 ADD PUSH2 0x1869 SWAP1 PUSH2 0x2E2E JUMP JUMPDEST PUSH1 0x40 MLOAD DUP1 SWAP2 SUB SWAP1 REVERT JUMPDEST PUSH1 0x0 PUSH20 0xFFFFFFFFFFFFFFFFFFFFFFFFFFFFFFFFFFFFFFFF AND DUP3 PUSH20 0xFFFFFFFFFFFFFFFFFFFFFFFFFFFFFFFFFFFFFFFF AND EQ ISZERO PUSH2 0x18E2 JUMPI PUSH1 0x40 MLOAD PUSH32 0x8C379A000000000000000000000000000000000000000000000000000000000 DUP2 MSTORE PUSH1 0x4 ADD PUSH2 0x18D9 SWAP1 PUSH2 0x2D6E JUMP JUMPDEST PUSH1 0x40 MLOAD DUP1 SWAP2 SUB SWAP1 REVERT JUMPDEST DUP1 PUSH1 0x1 PUSH1 0x0 DUP6 PUSH20 0xFFFFFFFFFFFFFFFFFFFFFFFFFFFFFFFFFFFFFFFF AND PUSH20 0xFFFFFFFFFFFFFFFFFFFFFFFFFFFFFFFFFFFFFFFF AND DUP2 MSTORE PUSH1 0x20 ADD SWAP1 DUP2 MSTORE PUSH1 0x20 ADD PUSH1 0x0 KECCAK256 PUSH1 0x0 DUP5 PUSH20 0xFFFFFFFFFFFFFFFFFFFFFFFFFFFFFFFFFFFFFFFF AND PUSH20 0xFFFFFFFFFFFFFFFFFFFFFFFFFFFFFFFFFFFFFFFF AND DUP2 MSTORE PUSH1 0x20 ADD SWAP1 DUP2 MSTORE PUSH1 0x20 ADD PUSH1 0x0 KECCAK256 DUP2 SWAP1 SSTORE POP DUP2 PUSH20 0xFFFFFFFFFFFFFFFFFFFFFFFFFFFFFFFFFFFFFFFF AND DUP4 PUSH20 0xFFFFFFFFFFFFFFFFFFFFFFFFFFFFFFFFFFFFFFFF AND PUSH32 0x8C5BE1E5EBEC7D5BD14F71427D1E84F3DD0314C0F7B2291E5B200AC8C7C3B925 DUP4 PUSH1 0x40 MLOAD PUSH2 0x19C0 SWAP2 SWAP1 PUSH2 0x2EC4 JUMP JUMPDEST PUSH1 0x40 MLOAD DUP1 SWAP2 SUB SWAP1 LOG3 POP POP POP JUMP JUMPDEST PUSH1 0x0 PUSH2 0x19D9 DUP5 DUP5 PUSH2 0xF4B JUMP JUMPDEST SWAP1 POP PUSH32 0xFFFFFFFFFFFFFFFFFFFFFFFFFFFFFFFFFFFFFFFFFFFFFFFFFFFFFFFFFFFFFFFF DUP2 EQ PUSH2 0x1A53 JUMPI DUP2 DUP2 LT ISZERO PUSH2 0x1A45 JUMPI PUSH1 0x40 MLOAD PUSH32 0x8C379A000000000000000000000000000000000000000000000000000000000 DUP2 MSTORE PUSH1 0x4 ADD PUSH2 0x1A3C SWAP1 PUSH2 0x2D8E JUMP JUMPDEST PUSH1 0x40 MLOAD DUP1 SWAP2 SUB SWAP1 REVERT JUMPDEST PUSH2 0x1A52 DUP5 DUP5 DUP5 DUP5 SUB PUSH2 0x1802 JUMP JUMPDEST JUMPDEST POP POP POP POP JUMP JUMPDEST PUSH1 0x0 PUSH20 0xFFFFFFFFFFFFFFFFFFFFFFFFFFFFFFFFFFFFFFFF AND DUP4 PUSH20 0xFFFFFFFFFFFFFFFFFFFFFFFFFFFFFFFFFFFFFFFF AND EQ ISZERO PUSH2 0x1AC9 JUMPI PUSH1 0x40 MLOAD PUSH32 0x8C379A000000000000000000000000000000000000000000000000000000000 DUP2 MSTORE PUSH1 0x4 ADD PUSH2 0x1AC0 SWAP1 PUSH2 0x2E0E JUMP JUMPDEST PUSH1 0x40 MLOAD DUP1 SWAP2 SUB SWAP1 REVERT JUMPDEST PUSH1 0x0 PUSH20 0xFFFFFFFFFFFFFFFFFFFFFFFFFFFFFFFFFFFFFFFF AND DUP3 PUSH20 0xFFFFFFFFFFFFFFFFFFFFFFFFFFFFFFFFFFFFFFFF AND EQ ISZERO PUSH2 0x1B39 JUMPI PUSH1 0x40 MLOAD PUSH32 0x8C379A000000000000000000000000000000000000000000000000000000000 DUP2 MSTORE PUSH1 0x4 ADD PUSH2 0x1B30 SWAP1 PUSH2 0x2D4E JUMP JUMPDEST PUSH1 0x40 MLOAD DUP1 SWAP2 SUB SWAP1 REVERT JUMPDEST PUSH2 0x1B44 DUP4 DUP4 DUP4 PUSH2 0x1FBC JUMP JUMPDEST PUSH1 0x0 DUP1 PUSH1 0x0 DUP6 PUSH20 0xFFFFFFFFFFFFFFFFFFFFFFFFFFFFFFFFFFFFFFFF AND PUSH20 0xFFFFFFFFFFFFFFFFFFFFFFFFFFFFFFFFFFFFFFFF AND DUP2 MSTORE PUSH1 0x20 ADD SWAP1 DUP2 MSTORE PUSH1 0x20 ADD PUSH1 0x0 KECCAK256 SLOAD SWAP1 POP DUP2 DUP2 LT ISZERO PUSH2 0x1BCA JUMPI PUSH1 0x40 MLOAD PUSH32 0x8C379A000000000000000000000000000000000000000000000000000000000 DUP2 MSTORE PUSH1 0x4 ADD PUSH2 0x1BC1 SWAP1 PUSH2 0x2DCE JUMP JUMPDEST PUSH1 0x40 MLOAD DUP1 SWAP2 SUB SWAP1 REVERT JUMPDEST DUP2 DUP2 SUB PUSH1 0x0 DUP1 DUP7 PUSH20 0xFFFFFFFFFFFFFFFFFFFFFFFFFFFFFFFFFFFFFFFF AND PUSH20 0xFFFFFFFFFFFFFFFFFFFFFFFFFFFFFFFFFFFFFFFF AND DUP2 MSTORE PUSH1 0x20 ADD SWAP1 DUP2 MSTORE PUSH1 0x20 ADD PUSH1 0x0 KECCAK256 DUP2 SWAP1 SSTORE POP DUP2 PUSH1 0x0 DUP1 DUP6 PUSH20 0xFFFFFFFFFFFFFFFFFFFFFFFFFFFFFFFFFFFFFFFF AND PUSH20 0xFFFFFFFFFFFFFFFFFFFFFFFFFFFFFFFFFFFFFFFF AND DUP2 MSTORE PUSH1 0x20 ADD SWAP1 DUP2 MSTORE PUSH1 0x20 ADD PUSH1 0x0 KECCAK256 PUSH1 0x0 DUP3 DUP3 SLOAD ADD SWAP3 POP POP DUP2 SWAP1 SSTORE POP DUP3 PUSH20 0xFFFFFFFFFFFFFFFFFFFFFFFFFFFFFFFFFFFFFFFF AND DUP5 PUSH20 0xFFFFFFFFFFFFFFFFFFFFFFFFFFFFFFFFFFFFFFFF AND PUSH32 0xDDF252AD1BE2C89B69C2B068FC378DAA952BA7F163C4A11628F55A4DF523B3EF DUP5 PUSH1 0x40 MLOAD PUSH2 0x1CB8 SWAP2 SWAP1 PUSH2 0x2EC4 JUMP JUMPDEST PUSH1 0x40 MLOAD DUP1 SWAP2 SUB SWAP1 LOG3 PUSH2 0x1CCB DUP5 DUP5 DUP5 PUSH2 0x1FC1 JUMP JUMPDEST POP POP POP POP JUMP JUMPDEST PUSH1 0x0 DUP2 PUSH1 0x0 ADD MLOAD SWAP1 POP PUSH1 0x0 PUSH1 0x1 DUP4 PUSH1 0x60 ADD MLOAD PUSH2 0x1CED SWAP2 SWAP1 PUSH2 0x3099 JUMP JUMPDEST SWAP1 POP JUMPDEST PUSH1 0x5 SLOAD DUP4 PUSH1 0x60 ADD MLOAD PUSH2 0x1D02 SWAP2 SWAP1 PUSH2 0x3099 JUMP JUMPDEST DUP2 GT ISZERO PUSH2 0x1D45 JUMPI PUSH1 0xA PUSH1 0x0 DUP4 DUP2 MSTORE PUSH1 0x20 ADD SWAP1 DUP2 MSTORE PUSH1 0x20 ADD PUSH1 0x0 KECCAK256 PUSH1 0x0 ADD SLOAD SWAP2 POP PUSH1 0x0 DUP1 SHL DUP3 EQ ISZERO PUSH2 0x1D32 JUMPI PUSH2 0x1D45 JUMP JUMPDEST DUP1 DUP1 PUSH2 0x1D3D SWAP1 PUSH2 0x31F2 JUMP JUMPDEST SWAP2 POP POP PUSH2 0x1CF0 JUMP JUMPDEST POP PUSH1 0x0 DUP1 SHL DUP2 EQ ISZERO DUP1 ISZERO PUSH2 0x1D7F JUMPI POP PUSH1 0x0 DUP1 SHL PUSH1 0xB PUSH1 0x0 PUSH1 0x5 SLOAD DUP6 PUSH1 0x60 ADD MLOAD PUSH2 0x1D6E SWAP2 SWAP1 PUSH2 0x3099 JUMP JUMPDEST DUP2 MSTORE PUSH1 0x20 ADD SWAP1 DUP2 MSTORE PUSH1 0x20 ADD PUSH1 0x0 KECCAK256 SLOAD EQ JUMPDEST ISZERO PUSH2 0x1DCF JUMPI DUP1 PUSH1 0xB PUSH1 0x0 PUSH1 0x5 SLOAD DUP6 PUSH1 0x60 ADD MLOAD PUSH2 0x1D9B SWAP2 SWAP1 PUSH2 0x3099 JUMP JUMPDEST DUP2 MSTORE PUSH1 0x20 ADD SWAP1 DUP2 MSTORE PUSH1 0x20 ADD PUSH1 0x0 KECCAK256 DUP2 SWAP1 SSTORE POP PUSH1 0x8 PUSH1 0x0 DUP2 SLOAD DUP1 SWAP3 SWAP2 SWAP1 PUSH2 0x1DC0 SWAP1 PUSH2 0x324D JUMP JUMPDEST SWAP2 SWAP1 POP SSTORE POP PUSH2 0x1DCE CALLER PUSH2 0x1FC6 JUMP JUMPDEST JUMPDEST POP POP JUMP JUMPDEST PUSH1 0x6 SLOAD DUP2 PUSH1 0x60 ADD MLOAD LT ISZERO PUSH2 0x1DE6 JUMPI PUSH2 0x1ECF JUMP JUMPDEST PUSH1 0x0 PUSH1 0xB PUSH1 0x0 PUSH1 0x6 SLOAD DUP5 PUSH1 0x60 ADD MLOAD PUSH2 0x1DFE SWAP2 SWAP1 PUSH2 0x3099 JUMP JUMPDEST DUP2 MSTORE PUSH1 0x20 ADD SWAP1 DUP2 MSTORE PUSH1 0x20 ADD PUSH1 0x0 KECCAK256 SLOAD SWAP1 POP PUSH1 0x0 DUP1 SHL DUP2 EQ PUSH2 0x1ECD JUMPI PUSH1 0xA PUSH1 0x0 DUP3 DUP2 MSTORE PUSH1 0x20 ADD SWAP1 DUP2 MSTORE PUSH1 0x20 ADD PUSH1 0x0 KECCAK256 PUSH1 0x0 DUP1 DUP3 ADD PUSH1 0x0 SWAP1 SSTORE PUSH1 0x1 DUP3 ADD PUSH1 0x0 SWAP1 SSTORE PUSH1 0x2 DUP3 ADD PUSH1 0x0 SWAP1 SSTORE PUSH1 0x3 DUP3 ADD PUSH1 0x0 SWAP1 SSTORE PUSH1 0x4 DUP3 ADD PUSH1 0x0 PUSH2 0x100 EXP DUP2 SLOAD SWAP1 PUSH20 0xFFFFFFFFFFFFFFFFFFFFFFFFFFFFFFFFFFFFFFFF MUL NOT AND SWAP1 SSTORE PUSH1 0x4 DUP3 ADD PUSH1 0x14 PUSH2 0x100 EXP DUP2 SLOAD SWAP1 PUSH4 0xFFFFFFFF MUL NOT AND SWAP1 SSTORE PUSH1 0x4 DUP3 ADD PUSH1 0x18 PUSH2 0x100 EXP DUP2 SLOAD SWAP1 PUSH4 0xFFFFFFFF MUL NOT AND SWAP1 SSTORE POP POP PUSH1 0xB PUSH1 0x0 PUSH1 0x6 SLOAD DUP5 PUSH1 0x60 ADD MLOAD PUSH2 0x1EBA SWAP2 SWAP1 PUSH2 0x3099 JUMP JUMPDEST DUP2 MSTORE PUSH1 0x20 ADD SWAP1 DUP2 MSTORE PUSH1 0x20 ADD PUSH1 0x0 KECCAK256 PUSH1 0x0 SWAP1 SSTORE JUMPDEST POP JUMPDEST POP JUMP JUMPDEST PUSH1 0x0 DUP1 PUSH2 0x1EE8 DUP5 DUP5 PUSH2 0x2028 SWAP1 SWAP2 SWAP1 PUSH4 0xFFFFFFFF AND JUMP JUMPDEST SWAP1 POP PUSH2 0x1F01 PUSH1 0x4 PUSH3 0x127500 PUSH2 0x2081 SWAP1 SWAP2 SWAP1 PUSH4 0xFFFFFFFF AND JUMP JUMPDEST DUP2 LT ISZERO PUSH2 0x1F22 JUMPI PUSH2 0x1F1F PUSH1 0x4 PUSH3 0x127500 PUSH2 0x2081 SWAP1 SWAP2 SWAP1 PUSH4 0xFFFFFFFF AND JUMP JUMPDEST SWAP1 POP JUMPDEST PUSH2 0x1F39 PUSH1 0x4 PUSH3 0x127500 PUSH2 0x2097 SWAP1 SWAP2 SWAP1 PUSH4 0xFFFFFFFF AND JUMP JUMPDEST DUP2 GT ISZERO PUSH2 0x1F5A JUMPI PUSH2 0x1F57 PUSH1 0x4 PUSH3 0x127500 PUSH2 0x2097 SWAP1 SWAP2 SWAP1 PUSH4 0xFFFFFFFF AND JUMP JUMPDEST SWAP1 POP JUMPDEST PUSH1 0x0 PUSH2 0x1F84 DUP3 PUSH2 0x1F76 PUSH3 0x10000 DUP10 PUSH2 0x2081 SWAP1 SWAP2 SWAP1 PUSH4 0xFFFFFFFF AND JUMP JUMPDEST PUSH2 0x2097 SWAP1 SWAP2 SWAP1 PUSH4 0xFFFFFFFF AND JUMP JUMPDEST SWAP1 POP PUSH2 0x1FB1 PUSH3 0x10000 PUSH2 0x1FA3 PUSH3 0x127500 DUP5 PUSH2 0x2081 SWAP1 SWAP2 SWAP1 PUSH4 0xFFFFFFFF AND JUMP JUMPDEST PUSH2 0x2097 SWAP1 SWAP2 SWAP1 PUSH4 0xFFFFFFFF AND JUMP JUMPDEST SWAP3 POP POP POP SWAP4 SWAP3 POP POP POP JUMP JUMPDEST POP POP POP JUMP JUMPDEST POP POP POP JUMP JUMPDEST PUSH2 0x1FD2 DUP2 PUSH1 0x9 SLOAD PUSH2 0x210C JUMP JUMPDEST PUSH1 0x0 PUSH1 0x4 SLOAD PUSH1 0x8 SLOAD PUSH2 0x1FE4 SWAP2 SWAP1 PUSH2 0x32A0 JUMP JUMPDEST EQ DUP1 ISZERO PUSH2 0x1FF4 JUMPI POP PUSH1 0x3 SLOAD PUSH1 0x9 SLOAD GT JUMPDEST ISZERO PUSH2 0x2025 JUMPI PUSH1 0x2 PUSH1 0x9 SLOAD PUSH2 0x2008 SWAP2 SWAP1 PUSH2 0x300E JUMP JUMPDEST PUSH1 0x9 DUP2 SWAP1 SSTORE POP PUSH1 0x3 SLOAD PUSH1 0x9 SLOAD LT ISZERO PUSH2 0x2024 JUMPI PUSH1 0x3 SLOAD PUSH1 0x9 DUP2 SWAP1 SSTORE POP JUMPDEST JUMPDEST POP JUMP JUMPDEST PUSH1 0x0 DUP3 DUP3 GT ISZERO PUSH2 0x206D JUMPI PUSH1 0x40 MLOAD PUSH32 0x8C379A000000000000000000000000000000000000000000000000000000000 DUP2 MSTORE PUSH1 0x4 ADD PUSH2 0x2064 SWAP1 PUSH2 0x2DAE JUMP JUMPDEST PUSH1 0x40 MLOAD DUP1 SWAP2 SUB SWAP1 REVERT JUMPDEST DUP2 DUP4 PUSH2 0x2079 SWAP2 SWAP1 PUSH2 0x3099 JUMP JUMPDEST SWAP1 POP SWAP3 SWAP2 POP POP JUMP JUMPDEST PUSH1 0x0 DUP2 DUP4 PUSH2 0x208F SWAP2 SWAP1 PUSH2 0x300E JUMP JUMPDEST SWAP1 POP SWAP3 SWAP2 POP POP JUMP JUMPDEST PUSH1 0x0 DUP1 DUP4 EQ ISZERO PUSH2 0x20AA JUMPI PUSH1 0x0 SWAP1 POP PUSH2 0x2106 JUMP JUMPDEST DUP2 DUP4 PUSH2 0x20B6 SWAP2 SWAP1 PUSH2 0x303F JUMP JUMPDEST SWAP1 POP DUP2 DUP4 DUP3 PUSH2 0x20C5 SWAP2 SWAP1 PUSH2 0x300E JUMP JUMPDEST EQ PUSH2 0x2105 JUMPI PUSH1 0x40 MLOAD PUSH32 0x8C379A000000000000000000000000000000000000000000000000000000000 DUP2 MSTORE PUSH1 0x4 ADD PUSH2 0x20FC SWAP1 PUSH2 0x2DEE JUMP JUMPDEST PUSH1 0x40 MLOAD DUP1 SWAP2 SUB SWAP1 REVERT JUMPDEST JUMPDEST SWAP3 SWAP2 POP POP JUMP JUMPDEST PUSH1 0x0 PUSH20 0xFFFFFFFFFFFFFFFFFFFFFFFFFFFFFFFFFFFFFFFF AND DUP3 PUSH20 0xFFFFFFFFFFFFFFFFFFFFFFFFFFFFFFFFFFFFFFFF AND EQ ISZERO PUSH2 0x217C JUMPI PUSH1 0x40 MLOAD PUSH32 0x8C379A000000000000000000000000000000000000000000000000000000000 DUP2 MSTORE PUSH1 0x4 ADD PUSH2 0x2173 SWAP1 PUSH2 0x2E6E JUMP JUMPDEST PUSH1 0x40 MLOAD DUP1 SWAP2 SUB SWAP1 REVERT JUMPDEST PUSH2 0x2188 PUSH1 0x0 DUP4 DUP4 PUSH2 0x1FBC JUMP JUMPDEST DUP1 PUSH1 0x2 PUSH1 0x0 DUP3 DUP3 SLOAD PUSH2 0x219A SWAP2 SWAP1 PUSH2 0x2FB8 JUMP JUMPDEST SWAP3 POP POP DUP2 SWAP1 SSTORE POP DUP1 PUSH1 0x0 DUP1 DUP5 PUSH20 0xFFFFFFFFFFFFFFFFFFFFFFFFFFFFFFFFFFFFFFFF AND PUSH20 0xFFFFFFFFFFFFFFFFFFFFFFFFFFFFFFFFFFFFFFFF AND DUP2 MSTORE PUSH1 0x20 ADD SWAP1 DUP2 MSTORE PUSH1 0x20 ADD PUSH1 0x0 KECCAK256 PUSH1 0x0 DUP3 DUP3 SLOAD ADD SWAP3 POP POP DUP2 SWAP1 SSTORE POP DUP2 PUSH20 0xFFFFFFFFFFFFFFFFFFFFFFFFFFFFFFFFFFFFFFFF AND PUSH1 0x0 PUSH20 0xFFFFFFFFFFFFFFFFFFFFFFFFFFFFFFFFFFFFFFFF AND PUSH32 0xDDF252AD1BE2C89B69C2B068FC378DAA952BA7F163C4A11628F55A4DF523B3EF DUP4 PUSH1 0x40 MLOAD PUSH2 0x224B SWAP2 SWAP1 PUSH2 0x2EC4 JUMP JUMPDEST PUSH1 0x40 MLOAD DUP1 SWAP2 SUB SWAP1 LOG3 PUSH2 0x225F PUSH1 0x0 DUP4 DUP4 PUSH2 0x1FC1 JUMP JUMPDEST POP POP JUMP JUMPDEST PUSH1 0x40 MLOAD DUP1 PUSH1 0xE0 ADD PUSH1 0x40 MSTORE DUP1 PUSH1 0x0 DUP1 NOT AND DUP2 MSTORE PUSH1 0x20 ADD PUSH1 0x0 DUP1 NOT AND DUP2 MSTORE PUSH1 0x20 ADD PUSH1 0x0 DUP1 NOT AND DUP2 MSTORE PUSH1 0x20 ADD PUSH1 0x0 DUP2 MSTORE PUSH1 0x20 ADD PUSH1 0x0 PUSH20 0xFFFFFFFFFFFFFFFFFFFFFFFFFFFFFFFFFFFFFFFF AND DUP2 MSTORE PUSH1 0x20 ADD PUSH1 0x0 PUSH4 0xFFFFFFFF AND DUP2 MSTORE PUSH1 0x20 ADD PUSH1 0x0 PUSH28 0xFFFFFFFFFFFFFFFFFFFFFFFFFFFFFFFFFFFFFFFFFFFFFFFFFFFFFFFF NOT AND DUP2 MSTORE POP SWAP1 JUMP JUMPDEST PUSH1 0x0 DUP2 CALLDATALOAD SWAP1 POP PUSH2 0x22F3 DUP2 PUSH2 0x3615 JUMP JUMPDEST SWAP3 SWAP2 POP POP JUMP JUMPDEST PUSH1 0x0 DUP2 CALLDATALOAD SWAP1 POP PUSH2 0x2308 DUP2 PUSH2 0x362C JUMP JUMPDEST SWAP3 SWAP2 POP POP JUMP JUMPDEST PUSH1 0x0 DUP2 MLOAD SWAP1 POP PUSH2 0x231D DUP2 PUSH2 0x362C JUMP JUMPDEST SWAP3 SWAP2 POP POP JUMP JUMPDEST PUSH1 0x0 DUP2 CALLDATALOAD SWAP1 POP PUSH2 0x2332 DUP2 PUSH2 0x3643 JUMP JUMPDEST SWAP3 SWAP2 POP POP JUMP JUMPDEST PUSH1 0x0 DUP2 MLOAD SWAP1 POP PUSH2 0x2347 DUP2 PUSH2 0x3643 JUMP JUMPDEST SWAP3 SWAP2 POP POP JUMP JUMPDEST PUSH1 0x0 DUP1 DUP4 PUSH1 0x1F DUP5 ADD SLT PUSH2 0x2363 JUMPI PUSH2 0x2362 PUSH2 0x3363 JUMP JUMPDEST JUMPDEST DUP3 CALLDATALOAD SWAP1 POP PUSH8 0xFFFFFFFFFFFFFFFF DUP2 GT ISZERO PUSH2 0x2380 JUMPI PUSH2 0x237F PUSH2 0x335E JUMP JUMPDEST JUMPDEST PUSH1 0x20 DUP4 ADD SWAP2 POP DUP4 PUSH1 0x1 DUP3 MUL DUP4 ADD GT ISZERO PUSH2 0x239C JUMPI PUSH2 0x239B PUSH2 0x3377 JUMP JUMPDEST JUMPDEST SWAP3 POP SWAP3 SWAP1 POP JUMP JUMPDEST PUSH1 0x0 PUSH1 0xE0 DUP3 DUP5 SUB SLT ISZERO PUSH2 0x23B9 JUMPI PUSH2 0x23B8 PUSH2 0x3368 JUMP JUMPDEST JUMPDEST PUSH2 0x23C3 PUSH1 0xE0 PUSH2 0x2F15 JUMP JUMPDEST SWAP1 POP PUSH1 0x0 PUSH2 0x23D3 DUP5 DUP3 DUP6 ADD PUSH2 0x22F9 JUMP JUMPDEST PUSH1 0x0 DUP4 ADD MSTORE POP PUSH1 0x20 PUSH2 0x23E7 DUP5 DUP3 DUP6 ADD PUSH2 0x22F9 JUMP JUMPDEST PUSH1 0x20 DUP4 ADD MSTORE POP PUSH1 0x40 PUSH2 0x23FB DUP5 DUP3 DUP6 ADD PUSH2 0x22F9 JUMP JUMPDEST PUSH1 0x40 DUP4 ADD MSTORE POP PUSH1 0x60 PUSH2 0x240F DUP5 DUP3 DUP6 ADD PUSH2 0x2457 JUMP JUMPDEST PUSH1 0x60 DUP4 ADD MSTORE POP PUSH1 0x80 PUSH2 0x2423 DUP5 DUP3 DUP6 ADD PUSH2 0x22E4 JUMP JUMPDEST PUSH1 0x80 DUP4 ADD MSTORE POP PUSH1 0xA0 PUSH2 0x2437 DUP5 DUP3 DUP6 ADD PUSH2 0x2481 JUMP JUMPDEST PUSH1 0xA0 DUP4 ADD MSTORE POP PUSH1 0xC0 PUSH2 0x244B DUP5 DUP3 DUP6 ADD PUSH2 0x2323 JUMP JUMPDEST PUSH1 0xC0 DUP4 ADD MSTORE POP SWAP3 SWAP2 POP POP JUMP JUMPDEST PUSH1 0x0 DUP2 CALLDATALOAD SWAP1 POP PUSH2 0x2466 DUP2 PUSH2 0x365A JUMP JUMPDEST SWAP3 SWAP2 POP POP JUMP JUMPDEST PUSH1 0x0 DUP2 MLOAD SWAP1 POP PUSH2 0x247B DUP2 PUSH2 0x365A JUMP JUMPDEST SWAP3 SWAP2 POP POP JUMP JUMPDEST PUSH1 0x0 DUP2 CALLDATALOAD SWAP1 POP PUSH2 0x2490 DUP2 PUSH2 0x3671 JUMP JUMPDEST SWAP3 SWAP2 POP POP JUMP JUMPDEST PUSH1 0x0 DUP2 MLOAD SWAP1 POP PUSH2 0x24A5 DUP2 PUSH2 0x3671 JUMP JUMPDEST SWAP3 SWAP2 POP POP JUMP JUMPDEST PUSH1 0x0 PUSH1 0x20 DUP3 DUP5 SUB SLT ISZERO PUSH2 0x24C1 JUMPI PUSH2 0x24C0 PUSH2 0x3381 JUMP JUMPDEST JUMPDEST PUSH1 0x0 PUSH2 0x24CF DUP5 DUP3 DUP6 ADD PUSH2 0x22E4 JUMP JUMPDEST SWAP2 POP POP SWAP3 SWAP2 POP POP JUMP JUMPDEST PUSH1 0x0 DUP1 PUSH1 0x40 DUP4 DUP6 SUB SLT ISZERO PUSH2 0x24EF JUMPI PUSH2 0x24EE PUSH2 0x3381 JUMP JUMPDEST JUMPDEST PUSH1 0x0 PUSH2 0x24FD DUP6 DUP3 DUP7 ADD PUSH2 0x22E4 JUMP JUMPDEST SWAP3 POP POP PUSH1 0x20 PUSH2 0x250E DUP6 DUP3 DUP7 ADD PUSH2 0x22E4 JUMP JUMPDEST SWAP2 POP POP SWAP3 POP SWAP3 SWAP1 POP JUMP JUMPDEST PUSH1 0x0 DUP1 PUSH1 0x0 PUSH1 0x60 DUP5 DUP7 SUB SLT ISZERO PUSH2 0x2531 JUMPI PUSH2 0x2530 PUSH2 0x3381 JUMP JUMPDEST JUMPDEST PUSH1 0x0 PUSH2 0x253F DUP7 DUP3 DUP8 ADD PUSH2 0x22E4 JUMP JUMPDEST SWAP4 POP POP PUSH1 0x20 PUSH2 0x2550 DUP7 DUP3 DUP8 ADD PUSH2 0x22E4 JUMP JUMPDEST SWAP3 POP POP PUSH1 0x40 PUSH2 0x2561 DUP7 DUP3 DUP8 ADD PUSH2 0x2457 JUMP JUMPDEST SWAP2 POP POP SWAP3 POP SWAP3 POP SWAP3 JUMP JUMPDEST PUSH1 0x0 DUP1 PUSH1 0x40 DUP4 DUP6 SUB SLT ISZERO PUSH2 0x2582 JUMPI PUSH2 0x2581 PUSH2 0x3381 JUMP JUMPDEST JUMPDEST PUSH1 0x0 PUSH2 0x2590 DUP6 DUP3 DUP7 ADD PUSH2 0x22E4 JUMP JUMPDEST SWAP3 POP POP PUSH1 0x20 PUSH2 0x25A1 DUP6 DUP3 DUP7 ADD PUSH2 0x2457 JUMP JUMPDEST SWAP2 POP POP SWAP3 POP SWAP3 SWAP1 POP JUMP JUMPDEST PUSH1 0x0 PUSH1 0x20 DUP3 DUP5 SUB SLT ISZERO PUSH2 0x25C1 JUMPI PUSH2 0x25C0 PUSH2 0x3381 JUMP JUMPDEST JUMPDEST PUSH1 0x0 PUSH2 0x25CF DUP5 DUP3 DUP6 ADD PUSH2 0x22F9 JUMP JUMPDEST SWAP2 POP POP SWAP3 SWAP2 POP POP JUMP JUMPDEST PUSH1 0x0 PUSH1 0x20 DUP3 DUP5 SUB SLT ISZERO PUSH2 0x25EE JUMPI PUSH2 0x25ED PUSH2 0x3381 JUMP JUMPDEST JUMPDEST PUSH1 0x0 PUSH2 0x25FC DUP5 DUP3 DUP6 ADD PUSH2 0x230E JUMP JUMPDEST SWAP2 POP POP SWAP3 SWAP2 POP POP JUMP JUMPDEST PUSH1 0x0 PUSH1 0x20 DUP3 DUP5 SUB SLT ISZERO PUSH2 0x261B JUMPI PUSH2 0x261A PUSH2 0x3381 JUMP JUMPDEST JUMPDEST PUSH1 0x0 PUSH2 0x2629 DUP5 DUP3 DUP6 ADD PUSH2 0x2338 JUMP JUMPDEST SWAP2 POP POP SWAP3 SWAP2 POP POP JUMP JUMPDEST PUSH1 0x0 DUP1 PUSH1 0x20 DUP4 DUP6 SUB SLT ISZERO PUSH2 0x2649 JUMPI PUSH2 0x2648 PUSH2 0x3381 JUMP JUMPDEST JUMPDEST PUSH1 0x0 DUP4 ADD CALLDATALOAD PUSH8 0xFFFFFFFFFFFFFFFF DUP2 GT ISZERO PUSH2 0x2667 JUMPI PUSH2 0x2666 PUSH2 0x337C JUMP JUMPDEST JUMPDEST PUSH2 0x2673 DUP6 DUP3 DUP7 ADD PUSH2 0x234D JUMP JUMPDEST SWAP3 POP SWAP3 POP POP SWAP3 POP SWAP3 SWAP1 POP JUMP JUMPDEST PUSH1 0x0 DUP1 PUSH2 0x1C0 DUP4 DUP6 SUB SLT ISZERO PUSH2 0x2697 JUMPI PUSH2 0x2696 PUSH2 0x3381 JUMP JUMPDEST JUMPDEST PUSH1 0x0 PUSH2 0x26A5 DUP6 DUP3 DUP7 ADD PUSH2 0x23A3 JUMP JUMPDEST SWAP3 POP POP PUSH1 0xE0 PUSH2 0x26B6 DUP6 DUP3 DUP7 ADD PUSH2 0x23A3 JUMP JUMPDEST SWAP2 POP POP SWAP3 POP SWAP3 SWAP1 POP JUMP JUMPDEST PUSH1 0x0 PUSH1 0x20 DUP3 DUP5 SUB SLT ISZERO PUSH2 0x26D6 JUMPI PUSH2 0x26D5 PUSH2 0x3381 JUMP JUMPDEST JUMPDEST PUSH1 0x0 PUSH2 0x26E4 DUP5 DUP3 DUP6 ADD PUSH2 0x2457 JUMP JUMPDEST SWAP2 POP POP SWAP3 SWAP2 POP POP JUMP JUMPDEST PUSH1 0x0 PUSH1 0x20 DUP3 DUP5 SUB SLT ISZERO PUSH2 0x2703 JUMPI PUSH2 0x2702 PUSH2 0x3381 JUMP JUMPDEST JUMPDEST PUSH1 0x0 PUSH2 0x2711 DUP5 DUP3 DUP6 ADD PUSH2 0x246C JUMP JUMPDEST SWAP2 POP POP SWAP3 SWAP2 POP POP JUMP JUMPDEST PUSH1 0x0 PUSH1 0x20 DUP3 DUP5 SUB SLT ISZERO PUSH2 0x2730 JUMPI PUSH2 0x272F PUSH2 0x3381 JUMP JUMPDEST JUMPDEST PUSH1 0x0 PUSH2 0x273E DUP5 DUP3 DUP6 ADD PUSH2 0x2496 JUMP JUMPDEST SWAP2 POP POP SWAP3 SWAP2 POP POP JUMP JUMPDEST PUSH2 0x2750 DUP2 PUSH2 0x30CD JUMP JUMPDEST DUP3 MSTORE POP POP JUMP JUMPDEST PUSH2 0x275F DUP2 PUSH2 0x30CD JUMP JUMPDEST DUP3 MSTORE POP POP JUMP JUMPDEST PUSH2 0x276E DUP2 PUSH2 0x30DF JUMP JUMPDEST DUP3 MSTORE POP POP JUMP JUMPDEST PUSH2 0x277D DUP2 PUSH2 0x30EB JUMP JUMPDEST DUP3 MSTORE POP POP JUMP JUMPDEST PUSH2 0x278C DUP2 PUSH2 0x30EB JUMP JUMPDEST DUP3 MSTORE POP POP JUMP JUMPDEST PUSH2 0x279B DUP2 PUSH2 0x30EB JUMP JUMPDEST DUP3 MSTORE POP POP JUMP JUMPDEST PUSH2 0x27B2 PUSH2 0x27AD DUP3 PUSH2 0x30EB JUMP JUMPDEST PUSH2 0x3296 JUMP JUMPDEST DUP3 MSTORE POP POP JUMP JUMPDEST PUSH2 0x27C1 DUP2 PUSH2 0x30F5 JUMP JUMPDEST DUP3 MSTORE POP POP JUMP JUMPDEST PUSH2 0x27D0 DUP2 PUSH2 0x30F5 JUMP JUMPDEST DUP3 MSTORE POP POP JUMP JUMPDEST PUSH2 0x27DF DUP2 PUSH2 0x30F5 JUMP JUMPDEST DUP3 MSTORE POP POP JUMP JUMPDEST PUSH1 0x0 PUSH2 0x27F1 DUP4 DUP6 PUSH2 0x2F50 JUMP JUMPDEST SWAP4 POP PUSH2 0x27FE DUP4 DUP6 DUP5 PUSH2 0x31B0 JUMP JUMPDEST PUSH2 0x2807 DUP4 PUSH2 0x3386 JUMP JUMPDEST DUP5 ADD SWAP1 POP SWAP4 SWAP3 POP POP POP JUMP JUMPDEST PUSH1 0x0 PUSH2 0x281E DUP4 DUP6 PUSH2 0x2F61 JUMP JUMPDEST SWAP4 POP PUSH2 0x282B DUP4 DUP6 DUP5 PUSH2 0x31B0 JUMP JUMPDEST DUP3 DUP5 ADD SWAP1 POP SWAP4 SWAP3 POP POP POP JUMP JUMPDEST PUSH1 0x0 PUSH2 0x2842 DUP3 PUSH2 0x2F3A JUMP JUMPDEST PUSH2 0x284C DUP2 DUP6 PUSH2 0x2F61 JUMP JUMPDEST SWAP4 POP PUSH2 0x285C DUP2 DUP6 PUSH1 0x20 DUP7 ADD PUSH2 0x31BF JUMP JUMPDEST DUP1 DUP5 ADD SWAP2 POP POP SWAP3 SWAP2 POP POP JUMP JUMPDEST PUSH2 0x2871 DUP2 PUSH2 0x3168 JUMP JUMPDEST DUP3 MSTORE POP POP JUMP JUMPDEST PUSH2 0x2880 DUP2 PUSH2 0x317A JUMP JUMPDEST DUP3 MSTORE POP POP JUMP JUMPDEST PUSH2 0x288F DUP2 PUSH2 0x318C JUMP JUMPDEST DUP3 MSTORE POP POP JUMP JUMPDEST PUSH2 0x289E DUP2 PUSH2 0x319E JUMP JUMPDEST DUP3 MSTORE POP POP JUMP JUMPDEST PUSH1 0x0 PUSH2 0x28AF DUP3 PUSH2 0x2F45 JUMP JUMPDEST PUSH2 0x28B9 DUP2 DUP6 PUSH2 0x2F6C JUMP JUMPDEST SWAP4 POP PUSH2 0x28C9 DUP2 DUP6 PUSH1 0x20 DUP7 ADD PUSH2 0x31BF JUMP JUMPDEST PUSH2 0x28D2 DUP2 PUSH2 0x3386 JUMP JUMPDEST DUP5 ADD SWAP2 POP POP SWAP3 SWAP2 POP POP JUMP JUMPDEST PUSH1 0x0 PUSH2 0x28EA PUSH1 0x23 DUP4 PUSH2 0x2F6C JUMP JUMPDEST SWAP2 POP PUSH2 0x28F5 DUP3 PUSH2 0x3397 JUMP JUMPDEST PUSH1 0x40 DUP3 ADD SWAP1 POP SWAP2 SWAP1 POP JUMP JUMPDEST PUSH1 0x0 PUSH2 0x290D PUSH1 0x22 DUP4 PUSH2 0x2F6C JUMP JUMPDEST SWAP2 POP PUSH2 0x2918 DUP3 PUSH2 0x33E6 JUMP JUMPDEST PUSH1 0x40 DUP3 ADD SWAP1 POP SWAP2 SWAP1 POP JUMP JUMPDEST PUSH1 0x0 PUSH2 0x2930 PUSH1 0x1D DUP4 PUSH2 0x2F6C JUMP JUMPDEST SWAP2 POP PUSH2 0x293B DUP3 PUSH2 0x3435 JUMP JUMPDEST PUSH1 0x20 DUP3 ADD SWAP1 POP SWAP2 SWAP1 POP JUMP JUMPDEST PUSH1 0x0 PUSH2 0x2953 PUSH1 0x1D DUP4 PUSH2 0x2F6C JUMP JUMPDEST SWAP2 POP PUSH2 0x295E DUP3 PUSH2 0x345E JUMP JUMPDEST PUSH1 0x20 DUP3 ADD SWAP1 POP SWAP2 SWAP1 POP JUMP JUMPDEST PUSH1 0x0 PUSH2 0x2976 PUSH1 0x26 DUP4 PUSH2 0x2F6C JUMP JUMPDEST SWAP2 POP PUSH2 0x2981 DUP3 PUSH2 0x3487 JUMP JUMPDEST PUSH1 0x40 DUP3 ADD SWAP1 POP SWAP2 SWAP1 POP JUMP JUMPDEST PUSH1 0x0 PUSH2 0x2999 PUSH1 0x1F DUP4 PUSH2 0x2F6C JUMP JUMPDEST SWAP2 POP PUSH2 0x29A4 DUP3 PUSH2 0x34D6 JUMP JUMPDEST PUSH1 0x20 DUP3 ADD SWAP1 POP SWAP2 SWAP1 POP JUMP JUMPDEST PUSH1 0x0 PUSH2 0x29BC PUSH1 0x25 DUP4 PUSH2 0x2F6C JUMP JUMPDEST SWAP2 POP PUSH2 0x29C7 DUP3 PUSH2 0x34FF JUMP JUMPDEST PUSH1 0x40 DUP3 ADD SWAP1 POP SWAP2 SWAP1 POP JUMP JUMPDEST PUSH1 0x0 PUSH2 0x29DF PUSH1 0x24 DUP4 PUSH2 0x2F6C JUMP JUMPDEST SWAP2 POP PUSH2 0x29EA DUP3 PUSH2 0x354E JUMP JUMPDEST PUSH1 0x40 DUP3 ADD SWAP1 POP SWAP2 SWAP1 POP JUMP JUMPDEST PUSH1 0x0 PUSH2 0x2A02 PUSH1 0x25 DUP4 PUSH2 0x2F6C JUMP JUMPDEST SWAP2 POP PUSH2 0x2A0D DUP3 PUSH2 0x359D JUMP JUMPDEST PUSH1 0x40 DUP3 ADD SWAP1 POP SWAP2 SWAP1 POP JUMP JUMPDEST PUSH1 0x0 PUSH2 0x2A25 PUSH1 0x1F DUP4 PUSH2 0x2F6C JUMP JUMPDEST SWAP2 POP PUSH2 0x2A30 DUP3 PUSH2 0x35EC JUMP JUMPDEST PUSH1 0x20 DUP3 ADD SWAP1 POP SWAP2 SWAP1 POP JUMP JUMPDEST PUSH1 0xE0 DUP3 ADD PUSH1 0x0 DUP3 ADD MLOAD PUSH2 0x2A51 PUSH1 0x0 DUP6 ADD DUP3 PUSH2 0x2774 JUMP JUMPDEST POP PUSH1 0x20 DUP3 ADD MLOAD PUSH2 0x2A64 PUSH1 0x20 DUP6 ADD DUP3 PUSH2 0x2774 JUMP JUMPDEST POP PUSH1 0x40 DUP3 ADD MLOAD PUSH2 0x2A77 PUSH1 0x40 DUP6 ADD DUP3 PUSH2 0x2774 JUMP JUMPDEST POP PUSH1 0x60 DUP3 ADD MLOAD PUSH2 0x2A8A PUSH1 0x60 DUP6 ADD DUP3 PUSH2 0x2AC9 JUMP JUMPDEST POP PUSH1 0x80 DUP3 ADD MLOAD PUSH2 0x2A9D PUSH1 0x80 DUP6 ADD DUP3 PUSH2 0x2747 JUMP JUMPDEST POP PUSH1 0xA0 DUP3 ADD MLOAD PUSH2 0x2AB0 PUSH1 0xA0 DUP6 ADD DUP3 PUSH2 0x2AF6 JUMP JUMPDEST POP PUSH1 0xC0 DUP3 ADD MLOAD PUSH2 0x2AC3 PUSH1 0xC0 DUP6 ADD DUP3 PUSH2 0x27B8 JUMP JUMPDEST POP POP POP POP JUMP JUMPDEST PUSH2 0x2AD2 DUP2 PUSH2 0x3141 JUMP JUMPDEST DUP3 MSTORE POP POP JUMP JUMPDEST PUSH2 0x2AE1 DUP2 PUSH2 0x3141 JUMP JUMPDEST DUP3 MSTORE POP POP JUMP JUMPDEST PUSH2 0x2AF0 DUP2 PUSH2 0x3141 JUMP JUMPDEST DUP3 MSTORE POP POP JUMP JUMPDEST PUSH2 0x2AFF DUP2 PUSH2 0x314B JUMP JUMPDEST DUP3 MSTORE POP POP JUMP JUMPDEST PUSH2 0x2B0E DUP2 PUSH2 0x314B JUMP JUMPDEST DUP3 MSTORE POP POP JUMP JUMPDEST PUSH2 0x2B1D DUP2 PUSH2 0x315B JUMP JUMPDEST DUP3 MSTORE POP POP JUMP JUMPDEST PUSH1 0x0 PUSH2 0x2B2F DUP3 DUP5 PUSH2 0x27A1 JUMP JUMPDEST PUSH1 0x20 DUP3 ADD SWAP2 POP DUP2 SWAP1 POP SWAP3 SWAP2 POP POP JUMP JUMPDEST PUSH1 0x0 PUSH2 0x2B4B DUP3 DUP5 DUP7 PUSH2 0x2812 JUMP JUMPDEST SWAP2 POP DUP2 SWAP1 POP SWAP4 SWAP3 POP POP POP JUMP JUMPDEST PUSH1 0x0 PUSH2 0x2B63 DUP3 DUP5 PUSH2 0x2837 JUMP JUMPDEST SWAP2 POP DUP2 SWAP1 POP SWAP3 SWAP2 POP POP JUMP JUMPDEST PUSH1 0x0 PUSH1 0x20 DUP3 ADD SWAP1 POP PUSH2 0x2B83 PUSH1 0x0 DUP4 ADD DUP5 PUSH2 0x2765 JUMP JUMPDEST SWAP3 SWAP2 POP POP JUMP JUMPDEST PUSH1 0x0 PUSH1 0x20 DUP3 ADD SWAP1 POP PUSH2 0x2B9E PUSH1 0x0 DUP4 ADD DUP5 PUSH2 0x2792 JUMP JUMPDEST SWAP3 SWAP2 POP POP JUMP JUMPDEST PUSH1 0x0 PUSH1 0x20 DUP3 ADD SWAP1 POP PUSH2 0x2BB9 PUSH1 0x0 DUP4 ADD DUP5 PUSH2 0x2783 JUMP JUMPDEST SWAP3 SWAP2 POP POP JUMP JUMPDEST PUSH1 0x0 PUSH1 0xE0 DUP3 ADD SWAP1 POP PUSH2 0x2BD4 PUSH1 0x0 DUP4 ADD DUP11 PUSH2 0x2783 JUMP JUMPDEST PUSH2 0x2BE1 PUSH1 0x20 DUP4 ADD DUP10 PUSH2 0x2783 JUMP JUMPDEST PUSH2 0x2BEE PUSH1 0x40 DUP4 ADD DUP9 PUSH2 0x2783 JUMP JUMPDEST PUSH2 0x2BFB PUSH1 0x60 DUP4 ADD DUP8 PUSH2 0x2AD8 JUMP JUMPDEST PUSH2 0x2C08 PUSH1 0x80 DUP4 ADD DUP7 PUSH2 0x2756 JUMP JUMPDEST PUSH2 0x2C15 PUSH1 0xA0 DUP4 ADD DUP6 PUSH2 0x2B05 JUMP JUMPDEST PUSH2 0x2C22 PUSH1 0xC0 DUP4 ADD DUP5 PUSH2 0x27C7 JUMP JUMPDEST SWAP9 SWAP8 POP POP POP POP POP POP POP POP JUMP JUMPDEST PUSH1 0x0 PUSH1 0x20 DUP3 ADD SWAP1 POP PUSH2 0x2C43 PUSH1 0x0 DUP4 ADD DUP5 PUSH2 0x27D6 JUMP JUMPDEST SWAP3 SWAP2 POP POP JUMP JUMPDEST PUSH1 0x0 PUSH1 0x20 DUP3 ADD SWAP1 POP PUSH2 0x2C5E PUSH1 0x0 DUP4 ADD DUP5 PUSH2 0x27C7 JUMP JUMPDEST SWAP3 SWAP2 POP POP JUMP JUMPDEST PUSH1 0x0 PUSH1 0x40 DUP3 ADD SWAP1 POP DUP2 DUP2 SUB PUSH1 0x0 DUP4 ADD MSTORE PUSH2 0x2C7F DUP2 DUP6 DUP8 PUSH2 0x27E5 JUMP JUMPDEST SWAP1 POP PUSH2 0x2C8E PUSH1 0x20 DUP4 ADD DUP5 PUSH2 0x2868 JUMP JUMPDEST SWAP5 SWAP4 POP POP POP POP JUMP JUMPDEST PUSH1 0x0 PUSH1 0x40 DUP3 ADD SWAP1 POP DUP2 DUP2 SUB PUSH1 0x0 DUP4 ADD MSTORE PUSH2 0x2CB1 DUP2 DUP6 DUP8 PUSH2 0x27E5 JUMP JUMPDEST SWAP1 POP PUSH2 0x2CC0 PUSH1 0x20 DUP4 ADD DUP5 PUSH2 0x2877 JUMP JUMPDEST SWAP5 SWAP4 POP POP POP POP JUMP JUMPDEST PUSH1 0x0 PUSH1 0x40 DUP3 ADD SWAP1 POP DUP2 DUP2 SUB PUSH1 0x0 DUP4 ADD MSTORE PUSH2 0x2CE3 DUP2 DUP6 DUP8 PUSH2 0x27E5 JUMP JUMPDEST SWAP1 POP PUSH2 0x2CF2 PUSH1 0x20 DUP4 ADD DUP5 PUSH2 0x2886 JUMP JUMPDEST SWAP5 SWAP4 POP POP POP POP JUMP JUMPDEST PUSH1 0x0 PUSH1 0x40 DUP3 ADD SWAP1 POP DUP2 DUP2 SUB PUSH1 0x0 DUP4 ADD MSTORE PUSH2 0x2D15 DUP2 DUP6 DUP8 PUSH2 0x27E5 JUMP JUMPDEST SWAP1 POP PUSH2 0x2D24 PUSH1 0x20 DUP4 ADD DUP5 PUSH2 0x2895 JUMP JUMPDEST SWAP5 SWAP4 POP POP POP POP JUMP JUMPDEST PUSH1 0x0 PUSH1 0x20 DUP3 ADD SWAP1 POP DUP2 DUP2 SUB PUSH1 0x0 DUP4 ADD MSTORE PUSH2 0x2D46 DUP2 DUP5 PUSH2 0x28A4 JUMP JUMPDEST SWAP1 POP SWAP3 SWAP2 POP POP JUMP JUMPDEST PUSH1 0x0 PUSH1 0x20 DUP3 ADD SWAP1 POP DUP2 DUP2 SUB PUSH1 0x0 DUP4 ADD MSTORE PUSH2 0x2D67 DUP2 PUSH2 0x28DD JUMP JUMPDEST SWAP1 POP SWAP2 SWAP1 POP JUMP JUMPDEST PUSH1 0x0 PUSH1 0x20 DUP3 ADD SWAP1 POP DUP2 DUP2 SUB PUSH1 0x0 DUP4 ADD MSTORE PUSH2 0x2D87 DUP2 PUSH2 0x2900 JUMP JUMPDEST SWAP1 POP SWAP2 SWAP1 POP JUMP JUMPDEST PUSH1 0x0 PUSH1 0x20 DUP3 ADD SWAP1 POP DUP2 DUP2 SUB PUSH1 0x0 DUP4 ADD MSTORE PUSH2 0x2DA7 DUP2 PUSH2 0x2923 JUMP JUMPDEST SWAP1 POP SWAP2 SWAP1 POP JUMP JUMPDEST PUSH1 0x0 PUSH1 0x20 DUP3 ADD SWAP1 POP DUP2 DUP2 SUB PUSH1 0x0 DUP4 ADD MSTORE PUSH2 0x2DC7 DUP2 PUSH2 0x2946 JUMP JUMPDEST SWAP1 POP SWAP2 SWAP1 POP JUMP JUMPDEST PUSH1 0x0 PUSH1 0x20 DUP3 ADD SWAP1 POP DUP2 DUP2 SUB PUSH1 0x0 DUP4 ADD MSTORE PUSH2 0x2DE7 DUP2 PUSH2 0x2969 JUMP JUMPDEST SWAP1 POP SWAP2 SWAP1 POP JUMP JUMPDEST PUSH1 0x0 PUSH1 0x20 DUP3 ADD SWAP1 POP DUP2 DUP2 SUB PUSH1 0x0 DUP4 ADD MSTORE PUSH2 0x2E07 DUP2 PUSH2 0x298C JUMP JUMPDEST SWAP1 POP SWAP2 SWAP1 POP JUMP JUMPDEST PUSH1 0x0 PUSH1 0x20 DUP3 ADD SWAP1 POP DUP2 DUP2 SUB PUSH1 0x0 DUP4 ADD MSTORE PUSH2 0x2E27 DUP2 PUSH2 0x29AF JUMP JUMPDEST SWAP1 POP SWAP2 SWAP1 POP JUMP JUMPDEST PUSH1 0x0 PUSH1 0x20 DUP3 ADD SWAP1 POP DUP2 DUP2 SUB PUSH1 0x0 DUP4 ADD MSTORE PUSH2 0x2E47 DUP2 PUSH2 0x29D2 JUMP JUMPDEST SWAP1 POP SWAP2 SWAP1 POP JUMP JUMPDEST PUSH1 0x0 PUSH1 0x20 DUP3 ADD SWAP1 POP DUP2 DUP2 SUB PUSH1 0x0 DUP4 ADD MSTORE PUSH2 0x2E67 DUP2 PUSH2 0x29F5 JUMP JUMPDEST SWAP1 POP SWAP2 SWAP1 POP JUMP JUMPDEST PUSH1 0x0 PUSH1 0x20 DUP3 ADD SWAP1 POP DUP2 DUP2 SUB PUSH1 0x0 DUP4 ADD MSTORE PUSH2 0x2E87 DUP2 PUSH2 0x2A18 JUMP JUMPDEST SWAP1 POP SWAP2 SWAP1 POP JUMP JUMPDEST PUSH1 0x0 PUSH1 0xE0 DUP3 ADD SWAP1 POP PUSH2 0x2EA3 PUSH1 0x0 DUP4 ADD DUP5 PUSH2 0x2A3B JUMP JUMPDEST SWAP3 SWAP2 POP POP JUMP JUMPDEST PUSH1 0x0 PUSH1 0x20 DUP3 ADD SWAP1 POP PUSH2 0x2EBE PUSH1 0x0 DUP4 ADD DUP5 PUSH2 0x2AE7 JUMP JUMPDEST SWAP3 SWAP2 POP POP JUMP JUMPDEST PUSH1 0x0 PUSH1 0x20 DUP3 ADD SWAP1 POP PUSH2 0x2ED9 PUSH1 0x0 DUP4 ADD DUP5 PUSH2 0x2AD8 JUMP JUMPDEST SWAP3 SWAP2 POP POP JUMP JUMPDEST PUSH1 0x0 PUSH1 0x20 DUP3 ADD SWAP1 POP PUSH2 0x2EF4 PUSH1 0x0 DUP4 ADD DUP5 PUSH2 0x2B05 JUMP JUMPDEST SWAP3 SWAP2 POP POP JUMP JUMPDEST PUSH1 0x0 PUSH1 0x20 DUP3 ADD SWAP1 POP PUSH2 0x2F0F PUSH1 0x0 DUP4 ADD DUP5 PUSH2 0x2B14 JUMP JUMPDEST SWAP3 SWAP2 POP POP JUMP JUMPDEST PUSH1 0x0 PUSH2 0x2F1F PUSH2 0x2F30 JUMP JUMPDEST SWAP1 POP PUSH2 0x2F2B DUP3 DUP3 PUSH2 0x321C JUMP JUMPDEST SWAP2 SWAP1 POP JUMP JUMPDEST PUSH1 0x0 PUSH1 0x40 MLOAD SWAP1 POP SWAP1 JUMP JUMPDEST PUSH1 0x0 DUP2 MLOAD SWAP1 POP SWAP2 SWAP1 POP JUMP JUMPDEST PUSH1 0x0 DUP2 MLOAD SWAP1 POP SWAP2 SWAP1 POP JUMP JUMPDEST PUSH1 0x0 DUP3 DUP3 MSTORE PUSH1 0x20 DUP3 ADD SWAP1 POP SWAP3 SWAP2 POP POP JUMP JUMPDEST PUSH1 0x0 DUP2 SWAP1 POP SWAP3 SWAP2 POP POP JUMP JUMPDEST PUSH1 0x0 DUP3 DUP3 MSTORE PUSH1 0x20 DUP3 ADD SWAP1 POP SWAP3 SWAP2 POP POP JUMP JUMPDEST PUSH1 0x0 DUP1 DUP6 DUP6 GT ISZERO PUSH2 0x2F91 JUMPI PUSH2 0x2F90 PUSH2 0x3372 JUMP JUMPDEST JUMPDEST DUP4 DUP7 GT ISZERO PUSH2 0x2FA2 JUMPI PUSH2 0x2FA1 PUSH2 0x336D JUMP JUMPDEST JUMPDEST PUSH1 0x1 DUP6 MUL DUP4 ADD SWAP2 POP DUP5 DUP7 SUB SWAP1 POP SWAP5 POP SWAP5 SWAP3 POP POP POP JUMP JUMPDEST PUSH1 0x0 PUSH2 0x2FC3 DUP3 PUSH2 0x3141 JUMP JUMPDEST SWAP2 POP PUSH2 0x2FCE DUP4 PUSH2 0x3141 JUMP JUMPDEST SWAP3 POP DUP3 PUSH32 0xFFFFFFFFFFFFFFFFFFFFFFFFFFFFFFFFFFFFFFFFFFFFFFFFFFFFFFFFFFFFFFFF SUB DUP3 GT ISZERO PUSH2 0x3003 JUMPI PUSH2 0x3002 PUSH2 0x32D1 JUMP JUMPDEST JUMPDEST DUP3 DUP3 ADD SWAP1 POP SWAP3 SWAP2 POP POP JUMP JUMPDEST PUSH1 0x0 PUSH2 0x3019 DUP3 PUSH2 0x3141 JUMP JUMPDEST SWAP2 POP PUSH2 0x3024 DUP4 PUSH2 0x3141 JUMP JUMPDEST SWAP3 POP DUP3 PUSH2 0x3034 JUMPI PUSH2 0x3033 PUSH2 0x3300 JUMP JUMPDEST JUMPDEST DUP3 DUP3 DIV SWAP1 POP SWAP3 SWAP2 POP POP JUMP JUMPDEST PUSH1 0x0 PUSH2 0x304A DUP3 PUSH2 0x3141 JUMP JUMPDEST SWAP2 POP PUSH2 0x3055 DUP4 PUSH2 0x3141 JUMP JUMPDEST SWAP3 POP DUP2 PUSH32 0xFFFFFFFFFFFFFFFFFFFFFFFFFFFFFFFFFFFFFFFFFFFFFFFFFFFFFFFFFFFFFFFF DIV DUP4 GT DUP3 ISZERO ISZERO AND ISZERO PUSH2 0x308E JUMPI PUSH2 0x308D PUSH2 0x32D1 JUMP JUMPDEST JUMPDEST DUP3 DUP3 MUL SWAP1 POP SWAP3 SWAP2 POP POP JUMP JUMPDEST PUSH1 0x0 PUSH2 0x30A4 DUP3 PUSH2 0x3141 JUMP JUMPDEST SWAP2 POP PUSH2 0x30AF DUP4 PUSH2 0x3141 JUMP JUMPDEST SWAP3 POP DUP3 DUP3 LT ISZERO PUSH2 0x30C2 JUMPI PUSH2 0x30C1 PUSH2 0x32D1 JUMP JUMPDEST JUMPDEST DUP3 DUP3 SUB SWAP1 POP SWAP3 SWAP2 POP POP JUMP JUMPDEST PUSH1 0x0 PUSH2 0x30D8 DUP3 PUSH2 0x3121 JUMP JUMPDEST SWAP1 POP SWAP2 SWAP1 POP JUMP JUMPDEST PUSH1 0x0 DUP2 ISZERO ISZERO SWAP1 POP SWAP2 SWAP1 POP JUMP JUMPDEST PUSH1 0x0 DUP2 SWAP1 POP SWAP2 SWAP1 POP JUMP JUMPDEST PUSH1 0x0 PUSH32 0xFFFFFFFF00000000000000000000000000000000000000000000000000000000 DUP3 AND SWAP1 POP SWAP2 SWAP1 POP JUMP JUMPDEST PUSH1 0x0 PUSH20 0xFFFFFFFFFFFFFFFFFFFFFFFFFFFFFFFFFFFFFFFF DUP3 AND SWAP1 POP SWAP2 SWAP1 POP JUMP JUMPDEST PUSH1 0x0 DUP2 SWAP1 POP SWAP2 SWAP1 POP JUMP JUMPDEST PUSH1 0x0 PUSH4 0xFFFFFFFF DUP3 AND SWAP1 POP SWAP2 SWAP1 POP JUMP JUMPDEST PUSH1 0x0 PUSH1 0xFF DUP3 AND SWAP1 POP SWAP2 SWAP1 POP JUMP JUMPDEST PUSH1 0x0 PUSH2 0x3173 DUP3 PUSH2 0x3141 JUMP JUMPDEST SWAP1 POP SWAP2 SWAP1 POP JUMP JUMPDEST PUSH1 0x0 PUSH2 0x3185 DUP3 PUSH2 0x3141 JUMP JUMPDEST SWAP1 POP SWAP2 SWAP1 POP JUMP JUMPDEST PUSH1 0x0 PUSH2 0x3197 DUP3 PUSH2 0x3141 JUMP JUMPDEST SWAP1 POP SWAP2 SWAP1 POP JUMP JUMPDEST PUSH1 0x0 PUSH2 0x31A9 DUP3 PUSH2 0x3141 JUMP JUMPDEST SWAP1 POP SWAP2 SWAP1 POP JUMP JUMPDEST DUP3 DUP2 DUP4 CALLDATACOPY PUSH1 0x0 DUP4 DUP4 ADD MSTORE POP POP POP JUMP JUMPDEST PUSH1 0x0 JUMPDEST DUP4 DUP2 LT ISZERO PUSH2 0x31DD JUMPI DUP1 DUP3 ADD MLOAD DUP2 DUP5 ADD MSTORE PUSH1 0x20 DUP2 ADD SWAP1 POP PUSH2 0x31C2 JUMP JUMPDEST DUP4 DUP2 GT ISZERO PUSH2 0x31EC JUMPI PUSH1 0x0 DUP5 DUP5 ADD MSTORE JUMPDEST POP POP POP POP JUMP JUMPDEST PUSH1 0x0 PUSH2 0x31FD DUP3 PUSH2 0x3141 JUMP JUMPDEST SWAP2 POP PUSH1 0x0 DUP3 EQ ISZERO PUSH2 0x3211 JUMPI PUSH2 0x3210 PUSH2 0x32D1 JUMP JUMPDEST JUMPDEST PUSH1 0x1 DUP3 SUB SWAP1 POP SWAP2 SWAP1 POP JUMP JUMPDEST PUSH2 0x3225 DUP3 PUSH2 0x3386 JUMP JUMPDEST DUP2 ADD DUP2 DUP2 LT PUSH8 0xFFFFFFFFFFFFFFFF DUP3 GT OR ISZERO PUSH2 0x3244 JUMPI PUSH2 0x3243 PUSH2 0x332F JUMP JUMPDEST JUMPDEST DUP1 PUSH1 0x40 MSTORE POP POP POP JUMP JUMPDEST PUSH1 0x0 PUSH2 0x3258 DUP3 PUSH2 0x3141 JUMP JUMPDEST SWAP2 POP PUSH32 0xFFFFFFFFFFFFFFFFFFFFFFFFFFFFFFFFFFFFFFFFFFFFFFFFFFFFFFFFFFFFFFFF DUP3 EQ ISZERO PUSH2 0x328B JUMPI PUSH2 0x328A PUSH2 0x32D1 JUMP JUMPDEST JUMPDEST PUSH1 0x1 DUP3 ADD SWAP1 POP SWAP2 SWAP1 POP JUMP JUMPDEST PUSH1 0x0 DUP2 SWAP1 POP SWAP2 SWAP1 POP JUMP JUMPDEST PUSH1 0x0 PUSH2 0x32AB DUP3 PUSH2 0x3141 JUMP JUMPDEST SWAP2 POP PUSH2 0x32B6 DUP4 PUSH2 0x3141 JUMP JUMPDEST SWAP3 POP DUP3 PUSH2 0x32C6 JUMPI PUSH2 0x32C5 PUSH2 0x3300 JUMP JUMPDEST JUMPDEST DUP3 DUP3 MOD SWAP1 POP SWAP3 SWAP2 POP POP JUMP JUMPDEST PUSH32 0x4E487B7100000000000000000000000000000000000000000000000000000000 PUSH1 0x0 MSTORE PUSH1 0x11 PUSH1 0x4 MSTORE PUSH1 0x24 PUSH1 0x0 REVERT JUMPDEST PUSH32 0x4E487B7100000000000000000000000000000000000000000000000000000000 PUSH1 0x0 MSTORE PUSH1 0x12 PUSH1 0x4 MSTORE PUSH1 0x24 PUSH1 0x0 REVERT JUMPDEST PUSH32 0x4E487B7100000000000000000000000000000000000000000000000000000000 PUSH1 0x0 MSTORE PUSH1 0x41 PUSH1 0x4 MSTORE PUSH1 0x24 PUSH1 0x0 REVERT JUMPDEST PUSH1 0x0 DUP1 REVERT JUMPDEST PUSH1 0x0 DUP1 REVERT JUMPDEST PUSH1 0x0 DUP1 REVERT JUMPDEST PUSH1 0x0 DUP1 REVERT JUMPDEST PUSH1 0x0 DUP1 REVERT JUMPDEST PUSH1 0x0 DUP1 REVERT JUMPDEST PUSH1 0x0 DUP1 REVERT JUMPDEST PUSH1 0x0 DUP1 REVERT JUMPDEST PUSH1 0x0 PUSH1 0x1F NOT PUSH1 0x1F DUP4 ADD AND SWAP1 POP SWAP2 SWAP1 POP JUMP JUMPDEST PUSH32 0x45524332303A207472616E7366657220746F20746865207A65726F2061646472 PUSH1 0x0 DUP3 ADD MSTORE PUSH32 0x6573730000000000000000000000000000000000000000000000000000000000 PUSH1 0x20 DUP3 ADD MSTORE POP JUMP JUMPDEST PUSH32 0x45524332303A20617070726F766520746F20746865207A65726F206164647265 PUSH1 0x0 DUP3 ADD MSTORE PUSH32 0x7373000000000000000000000000000000000000000000000000000000000000 PUSH1 0x20 DUP3 ADD MSTORE POP JUMP JUMPDEST PUSH32 0x45524332303A20696E73756666696369656E7420616C6C6F77616E6365000000 PUSH1 0x0 DUP3 ADD MSTORE POP JUMP JUMPDEST PUSH32 0x556E646572666C6F7720647572696E67207375627472616374696F6E2E000000 PUSH1 0x0 DUP3 ADD MSTORE POP JUMP JUMPDEST PUSH32 0x45524332303A207472616E7366657220616D6F756E7420657863656564732062 PUSH1 0x0 DUP3 ADD MSTORE PUSH32 0x616C616E63650000000000000000000000000000000000000000000000000000 PUSH1 0x20 DUP3 ADD MSTORE POP JUMP JUMPDEST PUSH32 0x4F766572666C6F7720647572696E67206D756C7469706C69636174696F6E2E00 PUSH1 0x0 DUP3 ADD MSTORE POP JUMP JUMPDEST PUSH32 0x45524332303A207472616E736665722066726F6D20746865207A65726F206164 PUSH1 0x0 DUP3 ADD MSTORE PUSH32 0x6472657373000000000000000000000000000000000000000000000000000000 PUSH1 0x20 DUP3 ADD MSTORE POP JUMP JUMPDEST PUSH32 0x45524332303A20617070726F76652066726F6D20746865207A65726F20616464 PUSH1 0x0 DUP3 ADD MSTORE PUSH32 0x7265737300000000000000000000000000000000000000000000000000000000 PUSH1 0x20 DUP3 ADD MSTORE POP JUMP JUMPDEST PUSH32 0x45524332303A2064656372656173656420616C6C6F77616E63652062656C6F77 PUSH1 0x0 DUP3 ADD MSTORE PUSH32 0x207A65726F000000000000000000000000000000000000000000000000000000 PUSH1 0x20 DUP3 ADD MSTORE POP JUMP JUMPDEST PUSH32 0x45524332303A206D696E7420746F20746865207A65726F206164647265737300 PUSH1 0x0 DUP3 ADD MSTORE POP JUMP JUMPDEST PUSH2 0x361E DUP2 PUSH2 0x30CD JUMP JUMPDEST DUP2 EQ PUSH2 0x3629 JUMPI PUSH1 0x0 DUP1 REVERT JUMPDEST POP JUMP JUMPDEST PUSH2 0x3635 DUP2 PUSH2 0x30EB JUMP JUMPDEST DUP2 EQ PUSH2 0x3640 JUMPI PUSH1 0x0 DUP1 REVERT JUMPDEST POP JUMP JUMPDEST PUSH2 0x364C DUP2 PUSH2 0x30F5 JUMP JUMPDEST DUP2 EQ PUSH2 0x3657 JUMPI PUSH1 0x0 DUP1 REVERT JUMPDEST POP JUMP JUMPDEST PUSH2 0x3663 DUP2 PUSH2 0x3141 JUMP JUMPDEST DUP2 EQ PUSH2 0x366E JUMPI PUSH1 0x0 DUP1 REVERT JUMPDEST POP JUMP JUMPDEST PUSH2 0x367A DUP2 PUSH2 0x314B JUMP JUMPDEST DUP2 EQ PUSH2 0x3685 JUMPI PUSH1 0x0 DUP1 REVERT JUMPDEST POP JUMP INVALID LOG2 PUSH5 0x6970667358 0x22 SLT KECCAK256 SWAP5 RETURN SWAP11 CALLVALUE ADD MSTORE DUP6 AND 0xF7 DELEGATECALL PUSH25 0x9989A0447E0AACE73F38B5342EFB3432CC4F2F929C64736F6C PUSH4 0x43000807 STOP CALLER "
		},
		"gasEstimates": {
			"creation": {
				"codeDepositCost": "2802800",
				"executionCost": "infinite",
				"totalCost": "infinite"
			},
			"external": {
				"BLOCKS_TO_STORE()": "2517",
				"CONFIRMATIONS()": "2453",
				"MIN_REWARD()": "2540",
				"REWARD_HALVING_TIME()": "2518",
				"_parseBytesToBlockHeader(bytes)": "infinite",
				"_validateBlock((bytes32,bytes32,bytes32,uint256,address,uint32,bytes4),(bytes32,bytes32,bytes32,uint256,address,uint32,bytes4))": "infinite",
				"allowance(address,address)": "infinite",
				"approve(address,uint256)": "infinite",
				"balanceOf(address)": "2864",
				"blockHeightToBlockHash(uint256)": "2898",
				"blocks(bytes32)": "infinite",
				"currentReward()": "2497",
				"decimals()": "410",
				"decreaseAllowance(address,uint256)": "infinite",
				"getBlockHeader(uint256)": "infinite",
				"getTxMerkleRootAtHeight(uint256)": "9345",
				"increaseAllowance(address,uint256)": "infinite",
				"initialEpochTime()": "2604",
				"name()": "infinite",
				"submitBlock(bytes)": "infinite",
				"symbol()": "infinite",
				"totalSupply()": "2549",
				"transfer(address,uint256)": "infinite",
				"transferFrom(address,address,uint256)": "infinite"
			},
			"internal": {
				"_allocateTokens(address)": "infinite",
				"_clearBlock(struct BlockHeader memory)": "infinite",
				"_confirmBlock(struct BlockHeader memory)": "infinite"
			}
		},
		"methodIdentifiers": {
			"BLOCKS_TO_STORE()": "e38641b7",
			"CONFIRMATIONS()": "0438b0a4",
			"MIN_REWARD()": "48ea0c03",
			"REWARD_HALVING_TIME()": "a62938c2",
			"_parseBytesToBlockHeader(bytes)": "c642715b",
			"_validateBlock((bytes32,bytes32,bytes32,uint256,address,uint32,bytes4),(bytes32,bytes32,bytes32,uint256,address,uint32,bytes4))": "f9d9a819",
			"allowance(address,address)": "dd62ed3e",
			"approve(address,uint256)": "095ea7b3",
			"balanceOf(address)": "70a08231",
			"blockHeightToBlockHash(uint256)": "abedc389",
			"blocks(bytes32)": "f588a96a",
			"currentReward()": "07621eca",
			"decimals()": "313ce567",
			"decreaseAllowance(address,uint256)": "a457c2d7",
			"getBlockHeader(uint256)": "2d142a99",
			"getTxMerkleRootAtHeight(uint256)": "28268fbb",
			"increaseAllowance(address,uint256)": "39509351",
			"initialEpochTime()": "5dbbe740",
			"name()": "06fdde03",
			"submitBlock(bytes)": "d5107381",
			"symbol()": "95d89b41",
			"totalSupply()": "18160ddd",
			"transfer(address,uint256)": "a9059cbb",
			"transferFrom(address,address,uint256)": "23b872dd"
		}
	},
	"abi": [
		{
			"inputs": [
				{
					"internalType": "bytes",
					"name": "initialConfirmedBlockHeader",
					"type": "bytes"
				},
				{
					"internalType": "uint256",
					"name": "height",
					"type": "uint256"
				},
				{
					"internalType": "uint32",
					"name": "_initialEpochTime",
					"type": "uint32"
				}
			],
			"stateMutability": "nonpayable",
			"type": "constructor"
		},
		{
			"anonymous": false,
			"inputs": [
				{
					"indexed": true,
					"internalType": "address",
					"name": "owner",
					"type": "address"
				},
				{
					"indexed": true,
					"internalType": "address",
					"name": "spender",
					"type": "address"
				},
				{
					"indexed": false,
					"internalType": "uint256",
					"name": "value",
					"type": "uint256"
				}
			],
			"name": "Approval",
			"type": "event"
		},
		{
			"anonymous": false,
			"inputs": [
				{
					"indexed": false,
					"internalType": "uint256",
					"name": "number",
					"type": "uint256"
				}
			],
			"name": "LOG",
			"type": "event"
		},
		{
			"anonymous": false,
			"inputs": [
				{
					"indexed": false,
					"internalType": "bytes32",
					"name": "number",
					"type": "bytes32"
				}
			],
			"name": "LOG1",
			"type": "event"
		},
		{
			"anonymous": false,
			"inputs": [
				{
					"indexed": false,
					"internalType": "bytes4",
					"name": "bz",
					"type": "bytes4"
				}
			],
			"name": "LOG2",
			"type": "event"
		},
		{
			"anonymous": false,
			"inputs": [
				{
					"indexed": true,
					"internalType": "address",
					"name": "from",
					"type": "address"
				},
				{
					"indexed": true,
					"internalType": "address",
					"name": "to",
					"type": "address"
				},
				{
					"indexed": false,
					"internalType": "uint256",
					"name": "value",
					"type": "uint256"
				}
			],
			"name": "Transfer",
			"type": "event"
		},
		{
			"inputs": [],
			"name": "BLOCKS_TO_STORE",
			"outputs": [
				{
					"internalType": "uint256",
					"name": "",
					"type": "uint256"
				}
			],
			"stateMutability": "view",
			"type": "function"
		},
		{
			"inputs": [],
			"name": "CONFIRMATIONS",
			"outputs": [
				{
					"internalType": "uint256",
					"name": "",
					"type": "uint256"
				}
			],
			"stateMutability": "view",
			"type": "function"
		},
		{
			"inputs": [],
			"name": "MIN_REWARD",
			"outputs": [
				{
					"internalType": "uint256",
					"name": "",
					"type": "uint256"
				}
			],
			"stateMutability": "view",
			"type": "function"
		},
		{
			"inputs": [],
			"name": "REWARD_HALVING_TIME",
			"outputs": [
				{
					"internalType": "uint256",
					"name": "",
					"type": "uint256"
				}
			],
			"stateMutability": "view",
			"type": "function"
		},
		{
			"inputs": [
				{
					"internalType": "bytes",
					"name": "blockHeaderBytes",
					"type": "bytes"
				}
			],
			"name": "_parseBytesToBlockHeader",
			"outputs": [
				{
					"components": [
						{
							"internalType": "bytes32",
							"name": "previousHeaderHash",
							"type": "bytes32"
						},
						{
							"internalType": "bytes32",
							"name": "merkleRootHash",
							"type": "bytes32"
						},
						{
							"internalType": "bytes32",
							"name": "blockHash",
							"type": "bytes32"
						},
						{
							"internalType": "uint256",
							"name": "blockHeight",
							"type": "uint256"
						},
						{
							"internalType": "address",
							"name": "submitter",
							"type": "address"
						},
						{
							"internalType": "uint32",
							"name": "time",
							"type": "uint32"
						},
						{
							"internalType": "bytes4",
							"name": "nBits",
							"type": "bytes4"
						}
					],
					"internalType": "struct BlockHeader",
					"name": "result",
					"type": "tuple"
				}
			],
			"stateMutability": "view",
			"type": "function"
		},
		{
			"inputs": [
				{
					"components": [
						{
							"internalType": "bytes32",
							"name": "previousHeaderHash",
							"type": "bytes32"
						},
						{
							"internalType": "bytes32",
							"name": "merkleRootHash",
							"type": "bytes32"
						},
						{
							"internalType": "bytes32",
							"name": "blockHash",
							"type": "bytes32"
						},
						{
							"internalType": "uint256",
							"name": "blockHeight",
							"type": "uint256"
						},
						{
							"internalType": "address",
							"name": "submitter",
							"type": "address"
						},
						{
							"internalType": "uint32",
							"name": "time",
							"type": "uint32"
						},
						{
							"internalType": "bytes4",
							"name": "nBits",
							"type": "bytes4"
						}
					],
					"internalType": "struct BlockHeader",
					"name": "header",
					"type": "tuple"
				},
				{
					"components": [
						{
							"internalType": "bytes32",
							"name": "previousHeaderHash",
							"type": "bytes32"
						},
						{
							"internalType": "bytes32",
							"name": "merkleRootHash",
							"type": "bytes32"
						},
						{
							"internalType": "bytes32",
							"name": "blockHash",
							"type": "bytes32"
						},
						{
							"internalType": "uint256",
							"name": "blockHeight",
							"type": "uint256"
						},
						{
							"internalType": "address",
							"name": "submitter",
							"type": "address"
						},
						{
							"internalType": "uint32",
							"name": "time",
							"type": "uint32"
						},
						{
							"internalType": "bytes4",
							"name": "nBits",
							"type": "bytes4"
						}
					],
					"internalType": "struct BlockHeader",
					"name": "previousBlock",
					"type": "tuple"
				}
			],
			"name": "_validateBlock",
			"outputs": [
				{
					"internalType": "bool",
					"name": "result",
					"type": "bool"
				}
			],
			"stateMutability": "nonpayable",
			"type": "function"
		},
		{
			"inputs": [
				{
					"internalType": "address",
					"name": "owner",
					"type": "address"
				},
				{
					"internalType": "address",
					"name": "spender",
					"type": "address"
				}
			],
			"name": "allowance",
			"outputs": [
				{
					"internalType": "uint256",
					"name": "",
					"type": "uint256"
				}
			],
			"stateMutability": "view",
			"type": "function"
		},
		{
			"inputs": [
				{
					"internalType": "address",
					"name": "spender",
					"type": "address"
				},
				{
					"internalType": "uint256",
					"name": "amount",
					"type": "uint256"
				}
			],
			"name": "approve",
			"outputs": [
				{
					"internalType": "bool",
					"name": "",
					"type": "bool"
				}
			],
			"stateMutability": "nonpayable",
			"type": "function"
		},
		{
			"inputs": [
				{
					"internalType": "address",
					"name": "account",
					"type": "address"
				}
			],
			"name": "balanceOf",
			"outputs": [
				{
					"internalType": "uint256",
					"name": "",
					"type": "uint256"
				}
			],
			"stateMutability": "view",
			"type": "function"
		},
		{
			"inputs": [
				{
					"internalType": "uint256",
					"name": "",
					"type": "uint256"
				}
			],
			"name": "blockHeightToBlockHash",
			"outputs": [
				{
					"internalType": "bytes32",
					"name": "",
					"type": "bytes32"
				}
			],
			"stateMutability": "view",
			"type": "function"
		},
		{
			"inputs": [
				{
					"internalType": "bytes32",
					"name": "",
					"type": "bytes32"
				}
			],
			"name": "blocks",
			"outputs": [
				{
					"internalType": "bytes32",
					"name": "previousHeaderHash",
					"type": "bytes32"
				},
				{
					"internalType": "bytes32",
					"name": "merkleRootHash",
					"type": "bytes32"
				},
				{
					"internalType": "bytes32",
					"name": "blockHash",
					"type": "bytes32"
				},
				{
					"internalType": "uint256",
					"name": "blockHeight",
					"type": "uint256"
				},
				{
					"internalType": "address",
					"name": "submitter",
					"type": "address"
				},
				{
					"internalType": "uint32",
					"name": "time",
					"type": "uint32"
				},
				{
					"internalType": "bytes4",
					"name": "nBits",
					"type": "bytes4"
				}
			],
			"stateMutability": "view",
			"type": "function"
		},
		{
			"inputs": [],
			"name": "currentReward",
			"outputs": [
				{
					"internalType": "uint256",
					"name": "",
					"type": "uint256"
				}
			],
			"stateMutability": "view",
			"type": "function"
		},
		{
			"inputs": [],
			"name": "decimals",
			"outputs": [
				{
					"internalType": "uint8",
					"name": "",
					"type": "uint8"
				}
			],
			"stateMutability": "view",
			"type": "function"
		},
		{
			"inputs": [
				{
					"internalType": "address",
					"name": "spender",
					"type": "address"
				},
				{
					"internalType": "uint256",
					"name": "subtractedValue",
					"type": "uint256"
				}
			],
			"name": "decreaseAllowance",
			"outputs": [
				{
					"internalType": "bool",
					"name": "",
					"type": "bool"
				}
			],
			"stateMutability": "nonpayable",
			"type": "function"
		},
		{
			"inputs": [
				{
					"internalType": "uint256",
					"name": "height",
					"type": "uint256"
				}
			],
			"name": "getBlockHeader",
			"outputs": [
				{
					"components": [
						{
							"internalType": "bytes32",
							"name": "previousHeaderHash",
							"type": "bytes32"
						},
						{
							"internalType": "bytes32",
							"name": "merkleRootHash",
							"type": "bytes32"
						},
						{
							"internalType": "bytes32",
							"name": "blockHash",
							"type": "bytes32"
						},
						{
							"internalType": "uint256",
							"name": "blockHeight",
							"type": "uint256"
						},
						{
							"internalType": "address",
							"name": "submitter",
							"type": "address"
						},
						{
							"internalType": "uint32",
							"name": "time",
							"type": "uint32"
						},
						{
							"internalType": "bytes4",
							"name": "nBits",
							"type": "bytes4"
						}
					],
					"internalType": "struct BlockHeader",
					"name": "",
					"type": "tuple"
				}
			],
			"stateMutability": "view",
			"type": "function"
		},
		{
			"inputs": [
				{
					"internalType": "uint256",
					"name": "height",
					"type": "uint256"
				}
			],
			"name": "getTxMerkleRootAtHeight",
			"outputs": [
				{
					"internalType": "bytes32",
					"name": "",
					"type": "bytes32"
				}
			],
			"stateMutability": "view",
			"type": "function"
		},
		{
			"inputs": [
				{
					"internalType": "address",
					"name": "spender",
					"type": "address"
				},
				{
					"internalType": "uint256",
					"name": "addedValue",
					"type": "uint256"
				}
			],
			"name": "increaseAllowance",
			"outputs": [
				{
					"internalType": "bool",
					"name": "",
					"type": "bool"
				}
			],
			"stateMutability": "nonpayable",
			"type": "function"
		},
		{
			"inputs": [],
			"name": "initialEpochTime",
			"outputs": [
				{
					"internalType": "uint32",
					"name": "",
					"type": "uint32"
				}
			],
			"stateMutability": "view",
			"type": "function"
		},
		{
			"inputs": [],
			"name": "name",
			"outputs": [
				{
					"internalType": "string",
					"name": "",
					"type": "string"
				}
			],
			"stateMutability": "view",
			"type": "function"
		},
		{
			"inputs": [
				{
					"internalType": "bytes",
					"name": "blockHeader",
					"type": "bytes"
				}
			],
			"name": "submitBlock",
			"outputs": [],
			"stateMutability": "nonpayable",
			"type": "function"
		},
		{
			"inputs": [],
			"name": "symbol",
			"outputs": [
				{
					"internalType": "string",
					"name": "",
					"type": "string"
				}
			],
			"stateMutability": "view",
			"type": "function"
		},
		{
			"inputs": [],
			"name": "totalSupply",
			"outputs": [
				{
					"internalType": "uint256",
					"name": "",
					"type": "uint256"
				}
			],
			"stateMutability": "view",
			"type": "function"
		},
		{
			"inputs": [
				{
					"internalType": "address",
					"name": "to",
					"type": "address"
				},
				{
					"internalType": "uint256",
					"name": "amount",
					"type": "uint256"
				}
			],
			"name": "transfer",
			"outputs": [
				{
					"internalType": "bool",
					"name": "",
					"type": "bool"
				}
			],
			"stateMutability": "nonpayable",
			"type": "function"
		},
		{
			"inputs": [
				{
					"internalType": "address",
					"name": "from",
					"type": "address"
				},
				{
					"internalType": "address",
					"name": "to",
					"type": "address"
				},
				{
					"internalType": "uint256",
					"name": "amount",
					"type": "uint256"
				}
			],
			"name": "transferFrom",
			"outputs": [
				{
					"internalType": "bool",
					"name": "",
					"type": "bool"
				}
			],
			"stateMutability": "nonpayable",
			"type": "function"
		}
	]
}